:020000040800F2
:10000000E81700204501000895160008690D000852
:10001000ED150008F7030008FF25000800000000A8
:100020000000000000000000000000007D2000082B
:100030001904000800000000231E0008F921000830
:100040005F0100085F0100085F0100085F01000810
:100050005F0100085F0100085F0100085F01000800
:100060005F0100085F010008F90400085F01000853
:100070005F0100085F0100085F0100085F010008E0
:100080005F0100085F0100085F0100085F010008D0
:100090005F0100085F0100085F0100085F010008C0
:1000A0005F0100085F0100085F0100085F010008B0
:1000B0005F0100085D2200085F0100085F01000881
:1000C0005F0100085F0100085F0100085F01000890
:1000D0005F0100083D2400085F0100085F0100087F
:1000E0005F0100085F0100085F0100085F01000870
:1000F0005F0100085F0100085F0100085F01000860
:100100005F0100085F0100085F0100085F0100084F
:100110005F0100085F0100085F0100085F0100083F
:100120005F0100085F0100085F0100085F0100082F
:10013000DFF80CD000F02EF800480047352D0008FD
:10014000E81700200648804706480047FEE7FEE71C
:10015000FEE7FEE7FEE7FEE7FEE7FEE7FEE7FEE777
:10016000FD2100083101000830B50B460146002092
:100170002022012409E021FA02F59D4205D303FA69
:1001800002F5491B04FA02F52844151EA2F10102EA
:10019000F1DC30BD064C074D06E0E06840F001039D
:1001A00094E8070098471034AC42F6D3FFF7C4FF39
:1001B000884E0008A84E000870B58C1810F8015B36
:1001C00015F0070301D110F8013B2A1106D110F8F0
:1001D000012B03E010F8016B01F8016B5B1EF9D1F4
:1001E0002B0705D40023521E0DD401F8013BFAE77A
:1001F00010F8013BCB1A921C03E013F8015B01F8E5
:10020000015B521EF9D5A142D8D3002070BD21B1A7
:10021000826842F00102826003E0826822F00102FB
:100220008260704710B504461248844208D101210B
:10023000401501F023FE0021601501F01FFE17E0BC
:100240000D48844208D10121001501F017FE00215C
:10025000201501F013FE0BE00848844208D101216B
:10026000C80301F00BFE00214FF4004001F006FE30
:1002700010BD00000024014000280140003C014066
:10028000014600208A6802F004020AB1012000E061
:10029000002070470146C86C80B2704702460020BB
:1002A00013680B400BB1012000E0002070470146AD
:1002B00000208A6802F008020AB1012000E0002054
:1002C0007047000030B502460020002350680F4CF4
:1002D00020400D790C6844EA052420435060906862
:1002E0000B4C2040D1E902542C434D7944EA45049B
:1002F00020439060D06A20F470000C7C641EE4B24D
:10030000234340EA0350D06230BD0000FFFEF0FFFF
:10031000FDF7F1FFF0B504460D4600200021092D40
:1003200011DDE068A5F10A0606EB4607072606FA86
:1003300007F18843A5F10A0606EB460603FA06F123
:100340000843E0600CE0206905EB4507072606FA44
:1003500007F1884305EB450603FA06F108432061DF
:10036000072A0FDA606B561E06EB86071F2606FA71
:1003700007F18843561E06EB860605FA06F1084388
:10038000606322E00D2A0FDA206BD61F06EB86078A
:100390001F2606FA07F18843D61F06EB860605FAE4
:1003A00006F10843206310E0E06AA2F10D0606EBB7
:1003B00086071F2606FA07F18843A2F10D0606EB11
:1003C000860605FA06F10843E062F0BD816841F057
:1003D00008018160704721B1826842F4A002826006
:1003E00003E0826822F4A00282607047816841F0D5
:1003F00004018160704700BFFEE700000548C07936
:10040000401C0449C8710846C0791E2801DD01203E
:10041000C8717047480F00207047000010B50448AD
:1004200002F0E4F8C4B22146014802F0E4F810BD3D
:1004300000380140F8B504460E46174600251C4812
:10044000844204D101F0A6FA01F03CF82BE001202F
:100450000090184800780007010E10232022002089
:1004600001F0BAFB012000903007010E10233E225C
:10047000002001F0B1FB00250EE001200090E819FA
:1004800000EBC00004EB8000021D2807010E1023C2
:10049000082001F085FC6D1C2068007821684978EF
:1004A000401AA842E9DC01F063FB02480670F8BD7F
:1004B000C00B0020300F0020F8B504460F4616464A
:1004C000002500BF0EE001200090A81900EBC0003D
:1004D00004EB8000021D2807010E1023082001F004
:1004E0005FFC6D1C2068007821684978401AA8429A
:1004F000E9DC01F03DFBF8BD10B5102000F00CF870
:1005000010B1102000F002F810BD00000149086091
:100510007047000014040140014600200022074BF0
:100520001B6803EA0102054B14331B680B4013B12F
:100530000AB1012000E000207047000000040140E3
:10054000002123498279002A3AD00A4612680368BA
:100550009A430B461A600A1D126803689A430B1DE2
:100560001A60027911440A6803681A430A60184A3B
:100570000832126803689A43154B08331A601A1D33
:10058000126803689A43124B0C331A604279102A9E
:100590000ED11A1F126803681A430D4B08331A60F4
:1005A0001A1D126803681A43094B0C331A600DE0D8
:1005B0000749427911440A6803681A430A6005E052
:1005C000027911440A6803689A430A607047000080
:1005D0000004014030B500228B071C0F0F2303FAE3
:1005E00004F20B4B8C1053F824309343084C8D10BD
:1005F00044F8253023468C1053F824308C07240F00
:1006000000FA04F42343024C8D1044F8253030BD29
:10061000080001402DE9F041024600250026002097
:1006200000230024002791F803C00CF00F0591F877
:1006300003C00CF0100CBCF1000F03D091F802C005
:100640004CEA050591F800C0BCF1000F31D01468E8
:1006500000202BE04FF0010C0CFA00F3B1F800C0C1
:100660000CEA03069E4220D183004FF00F0C0CFAD7
:1006700003F7BC4305FA03FC4CEA040491F803C0F9
:10068000BCF1280F06D14FF0010C0CFA00FCC2F8A7
:1006900014C00AE091F803C0BCF1480F05D14FF037
:1006A000010C0CFA00FCC2F810C0401C0828D1D381
:1006B0001460B1F800C0BCF1FF0F34DD54680020B5
:1006C0002EE000F1080C4FF0010808FA0CF3B1F825
:1006D00000C00CEA03069E4221D183004FF00F0CAC
:1006E0000CFA03F7BC4305FA03FC4CEA040491F846
:1006F00003C0BCF1280F05D100F1080C08FA0CF872
:10070000C2F8148091F803C0BCF1480F07D100F182
:10071000080C4FF0010808FA0CF8C2F81080401CD1
:100720000828CED35460BDE8F0810000F0B50A4639
:10073000002300240021002500F00046B6F1004F00
:1007400002D11D4EF16901E01B4E7168C0F30345F3
:1007500083B200F44016B6F5401F08D121F0706155
:10076000154E766826F07066134F7E6012E000F436
:100770008016B6F5801F06D1032606FA05F4A143BC
:1007800041F0706106E0460D360103FA06F6B1430A
:1007900041F0706122B1460D360103FA06F631438D
:1007A00000F00046B6F1004F02D1034EF16101E0C6
:1007B000014E7160F0BD00000000014041617047D2
:1007C0000161704710B5B148007801283ED1002082
:1007D000AE490870AE480078401E40B2AC4908707F
:1007E000084690F9000000280BDAAA48007840B1CA
:1007F00000200870A7480078401E40B2A549087044
:100800001BE0A34890F90000002816DAA148007800
:1008100098B9A148006800680078401E9E490968A0
:1008200009684978401A40B2994908709A480068A6
:100830000068407840B2974908709648027894481A
:10084000017895480068FFF7F5FD1BE193480078B3
:1008500001285AD10020914908708D480078401C29
:1008600040B28B4908708C48006800680078401ED0
:100870008949096809684978401A854991F9001041
:1008800088421CDA8448006800684078814991F900
:100890000010884213D08048006800680078401E2D
:1008A0007D49096809684978401A40B2784908705A
:1008B00078480078401C40B2764908701CE07648C1
:1008C000006800680078401E734909680968497823
:1008D000401A6F4991F9001088420DDA6E4800689D
:1008E000006840786B4991F90010884204D10020DB
:1008F000674908706749087066480278644801785B
:1009000065480068FFF796FDBCE06548007801285F
:1009100029D15F4890F900005E4991F90010084420
:1009200000EBC0005C49096801EB8000406970B1D0
:10093000574991F90010574A92F90020114401EBF0
:10094000C101554A126802EB8101486980470020C5
:10095000534908704F4802784D4801784E48006866
:10096000FFF768FD8EE04F48007801287ED14848A7
:100970000078D0B947480078B8B9454890F90000E8
:1009800000EBC0004449096801EB8000C06960B118
:100990003F4890F9000000EBC0003F49096801EBB7
:1009A0008000C0693C4908605FE0394890F9000068
:1009B000384991F90010084400EBC0003649096835
:1009C00001EB8000006A88B3314890F9000031499A
:1009D00091F90010084400EBC0002F49096801EBB1
:1009E0008000806970B12A4991F90010294A92F972
:1009F0000020114401EBC101274A126802EB81017A
:100A000088698047224890F90000224991F9001036
:100A1000084400EBC0002049096801EB8000006A2F
:100A20001D49086000201A4908701EE0FFE71848B9
:100A300090F90000174991F90010084400EBC0003C
:100A40001549096801EB8000806970B1104991F97E
:100A50000010104A92F90020114401EBC1010E4A26
:100A6000126802EB81018869804700E00AE00020FB
:100A70000C49087007480278054801780648006864
:100A8000FFF7D8FC00F010F810BD0000340F002074
:100A9000A50B0020A60B0020A80B0020350F00207E
:100AA000360F0020370F002010B54F4800684F491F
:100AB00088422BD14E4802884EA14C48283001F084
:100AC000A9FD5048028850A148484C3001F0A2FDD1
:100AD0005148028851A14548703001F09BFD5348B0
:100AE000028853A14148943001F094FD5448028893
:100AF00054A13E48B83001F08DFD56480278564862
:100B0000017839480068FFF7D7FC6CE03648006888
:100B10005249884226D1524890F9002051A14F48AD
:100B2000283001F077FD534890F9002052A14B483E
:100B30004C3001F06FFD544890F9002053A1474814
:100B4000703001F067FD002254A14448943001F058
:100B500061FD404802784048017823480068FFF76B
:100B6000ABFC40E0204800685049884232D15048F0
:100B7000027850A14D48283001F04CFD4C48427895
:100B800050A14A484C3001F045FD4948827851A1B6
:100B90004648703001F03EFD4548828851A14348E7
:100BA000943001F037FD4248827952A13F48B83075
:100BB00001F030FD3E48C27952A13C48DC3001F0E2
:100BC00029FD244802782448017807480068FFF787
:100BD00073FC08E0044800684E49884203D100F0E5
:100BE00071FC00F0C5FF10BDA80B00207C0C00209C
:100BF000B20B002062756C6C20202533642020200D
:100C000020200000B40B002062697264202025338C
:100C10006420202020200000B60B0020646F672095
:100C2000202025336420202020200000B80B002045
:100C3000626F7720202025336420202020200000B0
:100C4000BA0B0020666973682020253364202020B9
:100C500020200000A60B0020A50B0020580D00202E
:100C6000AC0B00204B502020202533642020202076
:100C700020200000AD0B00204B49202020253364AC
:100C80002020202020200000AE0B00204B442020FC
:100C900020253364202020202020000050574D20A4
:100CA000202533642020202020200000100E00206A
:100CB000480F0020486F75722020202532642020C4
:100CC000202000004D696E75746520253264202057
:100CD000202000005365636F6E642025326420205D
:100CE00020200000596561722020202534642020D6
:100CF000202000004D6F6E74682020253264202073
:100D0000202000004461792020202025326420200A
:100D100020200000C00B002010B50B480B490862D2
:100D20000B4941640B4981660B49C0F88C10074898
:100D30000A4908600A4802780A48017807480068AA
:100D4000FFF778FB10BD0000E80B0020C00B00206F
:100D50007C0C0020580D0020100E0020A80B002055
:100D6000A60B0020A50B002000BFFEE70548007879
:100D7000401C0449087008460078172801DD00204F
:100D800008707047480F002010B580210A48FFF70F
:100D900017FD20210848FFF713FD00F011F980210D
:100DA0000548FFF70BFD00F00BF920210248FFF783
:100DB00005FD00F005F910BD0008014010B58021C7
:100DC0000648FFF7FBFC20210448FFF7F9FC00F080
:100DD000F7F880210148FFF7F3FC10BD000801403F
:100DE00010B580210848FFF7EBFC00F0E9F820215E
:100DF0000548FFF7E5FC00F0E3F820210248FFF783
:100E0000DDFC00F0DDF810BD0008014010B5002049
:100E10000949086001F0BEF800200849C1F89C01AA
:100E200000F0FEF901200449086000F0F9F9002003
:100E30000249C1F8980110BD9881214200802142E9
:100E400010B500200949086001F0A4F80120084904
:100E5000C1F89C0100F0E4F901200449086000F0A9
:100E6000DFF900200249C1F8980110BD98812142A4
:100E70000080214270B50546002401F079F8002673
:100E800014E000200E49086000F0CAF901200D4965
:100E9000C1F898016006040E09487C38006808B162
:100EA000601CC4B200F0BCF9701CC6B2082EE8DBAE
:100EB00015B9FFF7C5FF01E0FFF7A8FF204670BD99
:100EC000988121420080214270B5044601F062F809
:100ED00000200D490860002512E0E0090A49091DBB
:100EE00008606006040E01200849C1F8980100F06E
:100EF00097F900200449086000F092F9681CC5B217
:100F0000082DEADB70BD000098812142008021425B
:100F100010B501F03FF80120084908600849C1F800
:100F2000980100F07DF900200449086000F078F98C
:100F300000200349C1F8980110BD00009C812142A6
:100F40000080214210B501F025F800200749086013
:100F50000749C1F89C0100F063F9012003490860CA
:100F60000349C1F89C0100F05BF910BD9881214252
:100F70000080214210B5002400F0FAFF01200E4944
:100F8000086000F04DF901200C49C1F8980100F00B
:100F900047F907E0601CC4B2FA2C03DDFFF7D2FF6B
:100FA000012010BD0448803800680028F2D10249B1
:100FB000091F086000BFF4E79C81214200802142A4
:100FC000032000BF011EA0F10102D0B2FAD1704788
:100FD00003480078401C40B2014908707047000087
:100FE000AE0B00200748007810B9012005490870B1
:100FF0000548006808B9012000E0002002490860A7
:1010000070470000350F0020B401224207480078E5
:1010100010B90120054908700548006808B9012089
:1010200000E000200249086070470000360F0020F1
:10103000B40122420748007810B901200549087020
:101040000548006808B9012000E000200249086056
:1010500070470000370F0020B401224200B502465D
:10106000012A02D100202949086028480068002888
:1010700036D12748006850B12648006838B1254865
:10108000001D006818B123480830006840BB2248A2
:101090000068401C2049086008460068022834DDCA
:1010A00001201A49086000201B49086018480068A0
:1010B00010B900F033F828E01648006810B9FFF7BF
:1010C00091FF22E01348001D006810B9FFF79EFF52
:1010D0001BE0104808300068B8B9FFF7ABFF14E018
:1010E0000B480068012810D10A48006801280CD17B
:1010F0000848001D0068012807D10648083000682C
:10110000012802D100200149086000BD3C0F0020E9
:101110003C0121420C812142380F00200748007811
:1011200010B90120054908700548006808B9012078
:1011300000E000200249086070470000340F0020E2
:10114000B401224203480078401C40B201490870B3
:1011500070470000AD0B002003480078401C40B2EF
:101160000149087070470000AC0B0020034800786C
:10117000401E40B20149087070470000AC0B0020CF
:101180002DE9FC4104460D4616466B4606223B21DE
:10119000682000F0E6F80746BFB99DF801009DF809
:1011A000001040EA012000B220809DF803009DF865
:1011B000021040EA012000B228809DF805009DF849
:1011C000041040EA012000B230803846BDE8FC81BE
:1011D0002DE9FC4104460D4616466B460622432186
:1011E000682000F0BEF80746BFB99DF801009DF8E1
:1011F000001040EA012000B220809DF803009DF815
:10120000021040EA012000B228809DF805009DF8F8
:10121000041040EA012000B230803846BDE8FC816D
:1012200010B5022001F048FD10BD000008B50121F5
:10123000082000F013FE4020ADF8000003208DF8D8
:10124000020014208DF8030069460B48FFF7E2F90D
:101250008020ADF8000003208DF8020014208DF8E6
:10126000030069460448FFF7D5F9012003490860E7
:101270000349C1F89C0108BD000C0140988121423E
:101280000080214210B5FFF7D1FF80226B2168203A
:1012900000F0F1F8642001F0E9FC00226B216820E5
:1012A00000F0E9F8032000F09FF8002000F093F828
:1012B000C82000F0C2F801223821682000F0DBF8D5
:1012C00000226A21682000F0D6F80022232168203D
:1012D00000F0D1F89C223721682000F0CCF875216D
:1012E000682000F019F80B49087008460078682853
:1012F0000CD101226B2100F0BEF800226C21682085
:1013000000F0B9F8C82000F098F801E0012010BD05
:101310000020FCE77800002070B504460D4600264A
:10132000FFF7F6FD002141EA4401C8B2FFF7CCFD0A
:10133000FFF720FE2846FFF7C7FDFFF71BFEFFF76C
:10134000E7FD012101EB4401C8B2FFF7BDFDFFF746
:1013500011FE0020FFF78EFD0646FFF7F3FD304635
:1013600070BD2DE9F04106460F4614461D46FFF7B5
:10137000CFFD002141EA4601C8B2FFF7A5FDFFF706
:10138000F9FD20B1FFF7DEFD0120BDE8F081384610
:10139000FFF79AFDFFF7EEFDFFF7BAFD012101EB24
:1013A0004601C8B2FFF790FDFFF7E4FD0DE0012C08
:1013B00004D10020FFF75EFD287003E00120FFF755
:1013C00059FD2870601EC4B26D1C002CEFD1FFF7D0
:1013D000B9FD0020D9E710B50446E006020E1C2135
:1013E000682000F048F810BD10B50446032000EB5B
:1013F000C400C2B21B21682000F03DF810BD70B5DA
:1014000004460025BC2C01DB012510E0622C01DB29
:1014100002250CE02A2C01DB032508E0142C01DB5B
:10142000042504E00A2C01DB052500E006252A46F8
:101430001A21682000F01FF870BD70B50446B4F59D
:101440007A7F01DD4FF47A74042C00DA04244FF41F
:101450007A7090FBF4F0401EC5B22A46192168202C
:1014600000F009F80546264604EBD671C1F34F009B
:10147000FFF7C5FF70BD70B504460D461646FFF771
:1014800047FD002141EA4401C8B2FFF71DFDFFF707
:1014900071FD18B1FFF756FD012070BD2846FFF71A
:1014A00013FDFFF767FD3046FFF70EFDFFF762FD06
:1014B00018B1FFF747FD0120EFE7FFF743FD0020DC
:1014C000EBE700002DE9FC4112240C271A254FF010
:1014D0002808012612E00120F1060090080E1023D2
:1014E0002D22002100F078FB0120F1060090080E6B
:1014F00010232D22302100F06FFB761C0F2EEADB2B
:1015000001201821CDE9001037480278022339461E
:10151000204600F0FFFB012004F118010090C8B242
:1015200018233A22394600F057FB01201821CDE953
:1015300000102D494A7804F12401C8B2022339462B
:1015400000F0E8FB012004F13C010090C8B2182330
:101550003A22394600F040FB01201821CDE9001065
:1015600021498A7804F14801C8B20223394600F0C3
:10157000D1FB01201021CDE900101B4882880423F3
:101580004146284600F0C6FB012005F120010090ED
:10159000C8B210232F22414600F01EFB012010216B
:1015A000CDE9001010498A7905F12801C8B202235B
:1015B000414600F0AFFB012005F138010090C8B2B0
:1015C00010232F22414600F007FB01201021CDE916
:1015D00000100549CA7905F14001C8B2022341460D
:1015E00000F098FBBDE8FC81400F002000BFFEE743
:1015F00005484078401C04494870084640783B281C
:1016000001DD002048707047480F002005488079B0
:10161000401C04498871084680790C2801DD0120AE
:1016200088717047480F00200E4880783B2806DDFF
:1016300000200C49887008464078401C48700948D2
:1016400040783B2806DD00200649487008460078AF
:10165000401C087003480078172802DD002001496B
:1016600008707047400F002008480068401C074978
:10167000086008460068632806DD0020086004480A
:101680008078401C0249887070470000500F00208D
:10169000400F00207047000010B505220D49302092
:1016A00000F000F905220B49102000F0A9F80024F1
:1016B00006E00848005DAA2800D003E0601CC4B220
:1016C000052CF6DB00BF052C01D0012010BD002049
:1016D000FCE700007900002008B501210C2000F093
:1016E000BDFB0121880300F0A9FB4FF40050ADF8C9
:1016F000000018208DF8030003208DF802006946D1
:101700003948FEF787FF4FF400513748FFF758F884
:101710004FF48040ADF8000069463348FEF77AFF89
:101720004FF480413048FFF74BF84FF40040ADF8DC
:10173000000069462C48FEF76DFF4FF400412A482F
:10174000FFF73EF84FF40060ADF8000010208DF870
:10175000030003208DF8020069462448FEF75AFF73
:101760004FF400612148FFF72BF84FF48050ADF89B
:10177000000069461C48FEF74DFF4FF480511A489F
:10178000FFF71EF84FF48070ADF8000048208DF888
:10179000030069461548FEF73DFF4FF4807113487A
:1017A000FFF70EF80020124908804FF4827048803D
:1017B00000208880C88008814FF400704881102084
:1017C00088810020C881072008820A4800F038FC80
:1017D0000121084800F01AFC002007490860012098
:1017E0000649C1F8AC0108BD000C014000080140E9
:1017F000D413002000380040B08121420000214273
:101800002DE9F04107460D46164600200A490860BA
:10181000384600F0D1FB8046002405E0FF2000F0B0
:10182000CBFB2855601CC4B2B442F7DB012002494F
:1018300008604046BDE8F081AC01214210B50020AF
:101840001449086005221449302000F02BF80522C5
:1018500012492A2000F026F80121212000F040F84A
:101860000121222000F03CF81A21242000F038F851
:101870002821252000F034F80F21262000F030F830
:101880000E21202000F02CF801200549C1F8B001FC
:1018900010BD0000B08121427C4E0008814E00083E
:1018A000008021422DE9F04107460C4615460020F4
:1018B0000A490860384600F07FFB8046002605E0B4
:1018C00014F8010B00F078FB701CC6B2AE42F7DBD7
:1018D0000120024908604046BDE8F081AC01214288
:1018E00070B505460C46002007490860284600F000
:1018F00063FB0646204600F05FFB01200349C1F868
:10190000AC01304670BD0000AC0121420000214214
:1019100070B5002100230F22C47804B3154C24684D
:1019200004F4E064C4F5E064210AC1F10403CA4090
:10193000447804FA03F184781440214309010E4CE1
:101940000678A155047804F01F050124AC40057801
:101950006D11AD0005F1E025C5F8004109E00478FE
:1019600004F01F050124AC40044D0678761145F8BB
:10197000264070BD0CED00E000E400E080E100E0F6
:1019800002490143024A1160704700000000FA0555
:101990000CED00E070B500240CE0002506E000200E
:1019A000074901EBC5010855681CC5B2802DF6DB5F
:1019B000601CC4B2082CF0DB00F0DAF870BD000047
:1019C000540F0020F0B514460B46CF1701EB5777A4
:1019D000C7F3C702CF1701EB5777FF10A1EBC7077B
:1019E000FEB20123B340DDB24CB1134B03EBC00395
:1019F0009B5C2B43104F07EBC007BB541AE00E4B08
:101A000003EBC0039B5CDB430B4F07EBC007BB54EE
:101A1000094B03EBC0039B5C2B43074F07EBC0074D
:101A2000BB54054B03EBC0039B5CDB43024F07EB4E
:101A3000C007BB54F0BD0000540F002008B50121C1
:101A4000042000F00BFA2020ADF8000014208DF8DF
:101A5000030003208DF8020069463E48FEF7DAFDD8
:101A600020213C48FEF7ACFE8020ADF8000069461E
:101A70003848FEF7CFFD80213648FEF7A1FE002151
:101A8000AE2000F0B2F90021084600F0AEF90021C6
:101A9000102000F0AAF90021402000F0A6F9002152
:101AA000812000F0A2F90021CF2000F09EF9002152
:101AB000A12000F09AF90021C82000F096F9002139
:101AC000A62000F092F90021A82000F08EF9002154
:101AD0003F2000F08AF90021D32000F086F9002190
:101AE000084600F082F90021D52000F07EF900219F
:101AF000802000F07AF90021D92000F076F9002149
:101B0000F12000F072F90021DA2000F06EF90021D6
:101B1000122000F06AF90021DB2000F066F90021B4
:101B2000302000F062F90021202000F05EF9002151
:101B3000022000F05AF900218D2000F056F9002112
:101B4000142000F052F9FFF725FF0021AF2000F02C
:101B50004CF908BD0008014010B50246012000E024
:101B600050430B1EA1F10104E1B2F9D110BD0000F8
:101B700070B500242BE004F1B001C8B2002100F0E0
:101B800034F90021084600F030F90021102000F05F
:101B90002CF9FFF7F9F8782000F080FAFFF720F928
:101BA000402000F07BFAFFF71BF9002509E0094906
:101BB00001EBC501085D00F071FAFFF711F9681C2F
:101BC000C5B2802DF3DBFFF7F9F8601CC4B2082C16
:101BD000D1DB70BD540F00202DE9FE4F074688462B
:101BE00092461C460197CDF80080082C02D14FF098
:101BF00006091FE02046E31704EB5373DB10214670
:101C00004FEAE47C04EB5C7C4FEAEC0CA4EBCC0CDC
:101C1000BCF1000F02D04FF0010C01E04FF0000CBE
:101C20006344224604EBD27C4FEA6C0C03FB0CF3BA
:101C300003F0FF09AAF12000C6B200255EE0082CDF
:101C400007D106EB46002F4901EB400010F805B024
:101C50001DE00C2C07D106EB46002B4901EB800060
:101C600010F805B013E0102C05D1284800EB061041
:101C700010F805B00BE0182C07D106EBC60024497C
:101C800001EB800010F805B001E0BDE8FE8F0020F8
:101C900002901CE00BF0010028B1414638460C9A36
:101CA000FFF790FE09E00C9808B9012000E0002041
:101CB000024641463846FFF785FE4FEA6B0B08F1B6
:101CC000010000F0FF080298401CC0B20290029888
:101CD0000828DFDB781CC7B2082C0BD004EBD471CA
:101CE0004A100199791A8A4204D1019F009808305C
:101CF000C0B20090DDF80080681CC5B24D459EDB87
:101D000000BFC2E74C2E000874300008E834000819
:101D1000D83A00082DE9FF4F82B0064691461F468B
:101D2000DDE90F4A4FF0000B082C01D14FF0020BF8
:101D3000002530E0781B401EC1B20A20FFF70CFFDF
:101D4000B9FBF0F00A21B0FBF1F201FB1208B8F187
:101D5000000F0ED104EBD4710BEB610101FB0561A7
:101D6000C8B223463022CDE900A40399FFF734FF1F
:101D70000FE004EBD4710BEB610101FB0561C8B20C
:101D800008F13001CAB22346CDE900A40399FFF758
:101D900023FF681CC5B2BD42CCDB06B0BDE8F08FA6
:101DA0002DE9F84106460F4614461D46DDF81C8015
:101DB00013E0CDF8008022782B4639463046FFF7F5
:101DC0000BFF082D02D1B01DC6B205E0284605EB79
:101DD000D07106EB6101CEB2641C2078202802DBB2
:101DE00020787E28E5DDBDE8F88170B505460C4613
:101DF000FEF7CAFF782000F051F9FEF7F1FF1CB1A1
:101E0000402000F04BF902E0002000F047F9FEF717
:101E1000E7FF284600F042F9FEF7E2FFFEF7CEFFAB
:101E200070BD704701460020034A506820F44040CE
:101E300008435060704700000010024029B1064A74
:101E4000D2690243044BDA6104E0034AD269824357
:101E5000014BDA61704700000010024029B1064AC8
:101E600092690243044B9A6104E0034A92698243F7
:101E7000014B9A61704700000010024029B1064AE8
:101E8000D2680243044BDA6004E0034AD26882431A
:101E9000014BDA60704700000010024030B50021AD
:101EA0000022002400232D4D6D6805F00C0121B1A6
:101EB000042905D0082923D105E0294D056022E039
:101EC000274D05601FE0254D6D6805F47012234D08
:101ED0006D6805F48034022505EB92421CB9214D52
:101EE000554305600BE01D4D6D6805F400351DB1CF
:101EF0001C4D5543056002E0194D5543056002E055
:101F0000174D056000BF00BF144D6D6805F0F0016E
:101F10000909154D6B5C0568DD4045600F4D6D6826
:101F200005F4E061090A104D6B5C4568DD40856091
:101F30000A4D6D6805F46051C90A0B4D6B5C45682C
:101F4000DD40C560054D6D6805F44041890B074DC6
:101F50006B5CC568B5FBF3F5056130BD0010024050
:101F600000127A0000093D005400002064000020A7
:101F700008B58020ADF8000003208DF8020048204D
:101F80008DF8030069460248FEF744FB08BD0000D7
:101F9000000C014008B58020ADF8000003208DF84A
:101FA000020014208DF8030069460248FEF732FB58
:101FB00008BD0000000C014070B50546002405E096
:101FC000601CC4B2C82C01DD002070BD02210E4887
:101FD00000F028F80028F3D029460B4800F02EF82E
:101FE000002405E0601CC4B2C82C01DD0020ECE731
:101FF0000121054800F016F80028F3D0024800F04F
:102000001AF8C0B2E1E700000038004021B10288B0
:1020100042F04002028004E002884FF6BF731A408B
:10202000028070470246002013890B400BB101204B
:1020300000E0002070470146888970478181704721
:1020400010B50022028802F441520B884C882343C9
:102050008C882343CC8823430C8923434C89234316
:102060008C892343CC8923431A430280838B4FF20C
:10207000FF74234083830B8A038210BD70470000E6
:1020800005488078401C04498870084680783B28C1
:1020900001DD002088707047480F002070B50446AD
:1020A00000251BE004F0800020B180210D48FEF7E0
:1020B00087FB03E080210B48FEF780FBFEF780FFE3
:1020C00020210848FEF77CFBFEF77AFF2021054817
:1020D000FEF774FB6006040E681CC5B2082DE1DB38
:1020E00070BD00000008014010B500F001F810BDFF
:1020F0000CB50020019000903348006840F4803017
:102100003149086000BF3048006800F4003000909A
:102110000198401C0190009818B90198B0F5A06F83
:10212000F1D12948006800F4003010B1012000907E
:1021300001E0002000900098012843D12348006866
:1021400040F01000214908600846006820F00300B4
:1021500008600846006840F0020008601A484068BD
:10216000194948600846406848600846406840F49D
:10217000806048600846406820F47C10486008464B
:10218000406840F4E81048600846006840F08070FD
:10219000086000BF0C48006800F000700028F9D00B
:1021A0000948406820F00300074948600846406835
:1021B00040F00200486000BF0348406800F00C0097
:1021C0000828F9D10CBD0000001002400020024098
:1021D000042808D14FF0E021096941F004014FF0D3
:1021E000E022116107E04FF0E021096921F00401CC
:1021F0004FF0E022116170477047000010B513489E
:10220000006840F001001149086008464068104924
:1022100008400E494860084600680E4908400B49CE
:1022200008600846006820F480200860084640687E
:1022300020F4FE0048604FF41F008860FFF754FF51
:102240004FF000600449086010BD0000001002401B
:102250000000FFF8FFFFF6FE08ED00E010B50121D9
:10226000054800F01AF828B100F09CF80121024856
:1022700000F004F810BD000000040040CA430282D0
:10228000704721B1028842F00102028004E0028816
:102290004FF6FE731A400280704730B502460020A8
:1022A00000230024158A05EA0103958905EA010443
:1022B00013B10CB1012000E0002030BD1AB18389B8
:1022C0000B43838102E083898B4383817047000045
:1022D000002202881D4B98420ED01D4B98420BD015
:1022E000B0F1804F08D01B4B984205D01A4B984252
:1022F00002D01A4B984204D14FF68F731A404B8884
:102300001A43174B984207D0164B984204D04FF609
:10231000FF431A40CB881A4302808B8883850B8841
:1023200003850A4B98420BD0094B984208D00E4BBC
:10233000984205D00D4B984202D00D4B984201D1E6
:102340000B7A03860123838270470000002C014032
:10235000003401400004004000080040000C004030
:1023600000100040001400400040014000440140C3
:1023700000480140034804490A6802604968416016
:1023800070470000400F0020480F00200348044918
:102390000A6802604968416070470000480F0020E9
:1023A000400F002010B51E480078401C1C490870E2
:1023B00008460078072805DD01201A49087000202A
:1023C0001749087018480078401C174908700846DB
:1023D0000078092805DD0120144908700020124901
:1023E000087013480078401C1149087008460078AE
:1023F000032805DD01200F49087000200C490870F2
:102400000D480078401C0C490870084600780128E7
:1024100004DD00F0F5FC00200749087010BD000045
:1024200039000020360000203A000020370000204C
:102430003B000020350000203C00002010B540F299
:102440002551054800F016F828B1FDF7E7FF40F2E6
:102450002550FEF75BF810BD0038014021B182899C
:1024600042F40052828104E082894DF6FF731A40E3
:102470008281704770B502460024002300250020A9
:1024800040F66A16B14200D100BFC1F3421501F017
:102490001F03012606FA03F3012D02D1968933406A
:1024A00006E0022D02D1168A334001E0968A3340BD
:1024B0000C12012606FA04F41688344013B10CB14C
:1024C000012000E0002070BDF0B503460024002686
:1024D0000025002040F66A17B94200D100BF184617
:1024E000C1F3421401F01F06012707FA06F5012C7B
:1024F00001D10C3004E0022C01D1103000E0143086
:102500001AB107682F43076002E00768AF4307600E
:10251000F0BD00002DE9F04786B005460E460024C8
:10252000A24600BFA1460027B08900B100BF2F46D8
:102530002C8A4CF6FF700440F08804432C82AC894E
:102540004EF6F3100440B08831890843718908437E
:102550000443AC81AC8A4FF6FF400440B089044389
:10256000AC8201A8FFF79AFC1F48874202D1DDF830
:1025700010A001E0DDF80CA0A88900F4004040B1F3
:102580000AEBCA0000EB0A1031684900B0FBF1F811
:1025900007E00AEBCA0000EB0A1031688900B0FBC3
:1025A000F1F86420B8FBF0F004012009642101FB7C
:1025B0001089A88900F4004040B1322000EBC90026
:1025C000B0FBF1F000F00700044308E0322000EB1C
:1025D00009106421B0FBF1F000F00F0004432C81DE
:1025E00006B0BDE8F0870000003801400146888849
:1025F000C0F308007047C1F308028280704700BF33
:10260000FEE7000002488088401C0149888070472E
:10261000480F00200FB4084B10B504A902AA039874
:1026200000F01CF8044602A9002000F0B8F920468A
:1026300010BC5DF814FB00009F29000802E008C8E8
:10264000121F08C1002AFAD170477047002001E02C
:1026500001C1121F002AFBD1704700002DE9FF4F76
:102660008BB088460546002606E025280BD0DDE91C
:102670000D1290476D1C761C28780028F5D10FB0FC
:102680003046BDE8F08F0024A146A2460122AE49A3
:1026900000E0044315F8013F203B02FA03F0084232
:1026A000F7D128782A2810D06FF02F022878A0F1CF
:1026B0003001092915D809EB890102EB410144F0E9
:1026C000020400EB01096D1CF0E758F8041B5FEAF7
:1026D000010903D544F40054C9F1000944F002048F
:1026E0006D1C28782E2817D115F8010F44F004042A
:1026F0002A280ED06FF02F022878A0F13001092986
:102700000AD80AEB8A0102EB410100EB010A6D1CB9
:10271000F2E758F804AB6D1C28786C280FD006DC63
:102720004C2817D068280DD06A2814D104E07428EA
:1027300010D07A280FD10DE044F400140AE044F4DC
:10274000801401E044F440146978814202D104F518
:1027500080146D1C6D1C2878692865D006DC002863
:102760008DD0632827D0642806D15DE06E2808D07C
:1027700073282AD0752877D0DDE90D129047761C92
:10278000E0E0C4F30250022809D003280DD0D8F8A5
:10279000001004280DD00E6008F10408D2E0D8F82B
:1027A0000010F217C1E90062F6E7D8F800100E80B9
:1027B000F2E70E70F0E718F8041B8DF80010002007
:1027C0008DF80100EB46012003E058F804BB4FF000
:1027D000FF3061074FF0000701D40AE07F1C574526
:1027E0000DDA8742FADB1BF807100029F6D106E064
:1027F0007F1C8742FCDB1BF807100029F8D1DDE9BC
:102800000D23A9EB07008146214600F0B1F83044C2
:10281000C61904E0DDE90D121BF8010B90477F1E7D
:10282000F8D22146484688E058F8040BC4F3025118
:102830004FF00A0B032900D100B2042900D140B2A5
:10284000002802DA40422D2102E0210505D52B2186
:102850008DF82410012104E006E0E10710D02021CA
:10286000F6E708AF089113E058F8040BC4F30251DF
:102870004FF00A0B032900D180B2042900D1C0B265
:102880000021EEE75946FDF76FFC303107F8011DD6
:102890000028F7D1ADEB070000F1200B600702D54F
:1028A00024F4803401E04FF0010ADA4502DDAAEB9E
:1028B0000B0000E00020824600EB0B010898014469
:1028C000A9EB01000A90E00306D4DDE90D232146BF
:1028D0000A9800F04DF806444FF0000908E009A9F5
:1028E00011F80900DDE90D12904709F10109761C84
:1028F00008998945F3DBE0030CD5DDE90D2321467A
:102900000A9800F035F8064404E0DDE90D123020A5
:102910009047761CBAF10001AAF1010AF5DC05E046
:10292000DDE90D1217F8010B9047761CBBF1000191
:10293000ABF1010BF4DC0A982146DDE90D2300F030
:1029400005F806446D1C97E6092801002DE9F041C1
:10295000044600251E461746880404D405E039467F
:102960002020B0476D1C641EF9D52846BDE8F081D3
:102970002DE9F041044600251E469046C80301D5C6
:10298000302700E02027880404D505E0414638467A
:10299000B0476D1C641EF9D52846BDE8F0810A6871
:1029A000531C0B601070704700B585B001214FF4C7
:1029B0000170FFF753FA1F20ADF8100000208DF8CA
:1029C000130004A91948FDF725FE4FF40040FFF756
:1029D00029FA1748FDF726FC002000908DF8040026
:1029E0008DF805004FF46020029000200390012034
:1029F0008DF8100069460E48FDF764FC01210C4873
:102A0000FDF705FC0A48FDF7E1FC00BF0848FDF7AB
:102A10004EFC0028FAD10648FDF7E8FC00BF044848
:102A2000FDF72EFC0028FAD105B000BD00080140DA
:102A3000002401401CB501210420FFF70FFA0121F9
:102A40000846FFF70BFA1020ADF8040048208DF877
:102A5000070001A91248FDF7DDFD102000900020BD
:102A60008DF8040008208DF8050001208DF806007F
:102A70006846FDF765FD04210020FDF7ABFD0A2047
:102A80008DF8040002208DF8050000208DF8060066
:102A900001208DF8070001A8FEF73AFF1CBD0000D9
:102AA0000008014008B501210420FFF7D7F90121F2
:102AB0000820FFF7D3F901210846FFF7CFF90121DC
:102AC0000A48FDF733FE4FF40040ADF800004820FF
:102AD0008DF8030069460648FDF79CFD3820ADF8E7
:102AE000000069460348FDF795FD08BD000230006F
:102AF00000080140000C014008B501211020FFF73B
:102B0000ADF94FF40050ADF8000010208DF803002F
:102B100003208DF8020069460148FDF77BFD08BDE2
:102B2000001001403EB505460C4601210220FFF78A
:102B300085F9681E80B2ADF80400601E80B2ADF861
:102B400000000020ADF80600ADF8020069460E480E
:102B5000FFF7BEFB1D208DF8080003208DF809004B
:102B600000208DF80A0001208DF80B0002A8FEF766
:102B7000CFFE012211460448FFF7A0FB01210248C5
:102B8000FFF77FFB3EBD0000000400401FB5044678
:102B9000012144F20400FFF761F94FF40070ADF831
:102BA0000C0003208DF80E0018208DF80F0003A9EB
:102BB0001B48FDF72FFD4FF48060ADF80C0004209A
:102BC0008DF80F0003A91648FDF724FD25208DF888
:102BD0000C0003208DF80D008DF80E0001208DF8FB
:102BE0000F0003A8FEF794FE00940020ADF8040047
:102BF000ADF80600ADF80800ADF80C000C20ADF8FB
:102C00000A0069460748FFF785FC012240F225517A
:102C10000448FFF759FC01210248FFF71FFC1FBDC4
:102C2000000801400038014010B56FF00400FFF7C4
:102C3000CFFA0A4800680A49B0FBF1F00949087068
:102C40000846007800EB4001C1EBC0104FF6FF7161
:102C500001EAC0000449088010BD000040000020C7
:102C600000127A00680000206A0000200146114A24
:102C700012884A434FF0E0235A6100229A611A46B3
:102C8000126942F001021A6100BF4FF0E0221069A0
:102C900000F001021AB100F48032002AF5D04FF0A2
:102CA000E022126922F001024FF0E0231A610022B3
:102CB0009A6170476A0000200146114A12784A431F
:102CC0004FF0E0235A6100229A611A46126942F0DD
:102CD00001021A6100BF4FF0E022106900F001020A
:102CE0001AB100F48032002AF5D04FF0E0221269C8
:102CF00022F001024FF0E0231A6100229A6170472E
:102D00006800002010B50723012204210848FDF7C0
:102D100001FB01210648FDF75EFB00BF02210448CC
:102D2000FDF7BCFA0028F9D00148FDF7B3FA10BD51
:102D3000002401404FF4A060FEF722FE4FF4E13082
:102D4000FFF724FFFFF770FFFFF7D6FEFFF772FED5
:102D5000482141F28830FFF7E5FEFFF725FEFFF737
:102D6000A1FEFEF78FFAFEF769FEFDF7D5FFFEF72D
:102D7000B3FCFEF791FC1A490880FEF75FFD2DE0D9
:102D80001848007801280AD1002016490870164812
:102D9000006808B9012000E00020134908601348CA
:102DA000007801281AD112480088401C1049088078
:102DB00010480088401C0F4908800F480088401CBC
:102DC0000D4908800D480088401C0C490880FDF71B
:102DD000F9FCFDF769FE002004490870D0E7000007
:102DE0001200002037000020B401224236000020EB
:102DF000B20B0020B40B0020B60B0020B80B002053
:102E000010B5FFF77FFF0A4908800A4A0A490B48B4
:102E1000FEF7DEF90A4A0B490B48FEF7B1F900202C
:102E2000FEF71CF9FEF720FCFEF7FEFB10BD0000CC
:102E300010000020700000206E0000206C000020B8
:102E400076000020740000207200002000000000C6
:102E500000000000002F0000000007000700001421
:102E60007F147F1400242A7F2A120062640813232F
:102E700000364955225000000503000000001C22C6
:102E80004100000041221C000014083E0814000804
:102E9000083E0808000000A06000000808080808B4
:102EA000000060600000002010080402003E51494C
:102EB000453E0000427F40000042615149460021EA
:102EC00041454B31001814127F1000274545453904
:102ED000003C4A494930000171090503003649495F
:102EE000493600064949291E000036360000000018
:102EF0005636000000081422410000141414141463
:102F0000000041221408000201510906003249590B
:102F1000513E007C1211127C007F49494936003E27
:102F200041414122007F4141221C007F49494941E2
:102F3000007F09090901003E4149497A007F0808DC
:102F4000087F0000417F4100002040413F01007F99
:102F500008142241007F40404040007F020C027F65
:102F6000007F0408107F003E4141413E007F090977
:102F70000906003E4151215E007F0919294600469D
:102F8000494949310001017F0101003F4040403F74
:102F9000001F2040201F003F4038403F00631408BE
:102FA0001463000708700807006151494543000099
:102FB0007F41410000552A552A55000041417F00BC
:102FC00000040201020400404040404000000102B1
:102FD0000400002054545478007F4844443800389A
:102FE0004444442000384444487F00385454541822
:102FF00000087E0901020018A4A4A47C007F080434
:1030000004780000447D4000004080847D00007F03
:10301000102844000000417F4000007C0418047820
:10302000007C0804047800384444443800FC24241C
:1030300024180018242418FC007C08040408004804
:103040005454542000043F444020003C4040207C25
:10305000001C2040201C003C4030403C0044281014
:103060002844001CA0A0A07C004464544C441414C8
:103070001414141400000000000000000000000000
:103080000000FC000000000002000000000C020C28
:10309000020000000000000090D0BCD0BC900003F3
:1030A000000300001824FE448C0003020702010004
:1030B0001824D8B04C80000300010201C038E43865
:1030C000E000010202010202080600000000000008
:1030D00000000000000000F80402000000010204EB
:1030E000000204F800000004020100009060F86093
:1030F00090000000010000002020FC2020000000C3
:1031000001000000000000000000080600000000B0
:10311000202020202000000000000000000000000F
:1031200000000002000000000080601C0200040398
:1031300000000000F8040404F8000102020201008B
:103140000008FC0000000002030200001884442470
:10315000180003020202020008042424D80001021D
:103160000202010040B088FC800000000003020061
:103170003C242424C400010202020100F824242C6F
:10318000C0000102020201000C04E41C0400000063
:1031900003000000D8242424D80001020202010008
:1031A00038444444F800000302020100000010000B
:1031B00000000000020000000000200000000000ED
:1031C00006000000002050880402000000000102F8
:1031D0009090909090000000000000000002048891
:1031E00050200002010000001804C4241800000050
:1031F00002000000F804E494F80001020202020058
:1032000000E09CF0800002030000030204FC242480
:10321000D800020302020100F80404040C000102B9
:103220000202010004FC0404F8000203020201008F
:1032300004FC24740C0002030202030004FC247446
:103240000C00020302000000F0080444CC4000011E
:103250000202010004FC2020FC040203000003021F
:103260000404FC040400020203020200000404FC43
:10327000040406040403000004FC24D00C0402032C
:103280000200030204FC0400000002030202020325
:10329000FC3CC03CFC0003000300030004FC30C401
:1032A000FC04020302000300F8040404F800010215
:1032B0000202010004FC24241800020302000000A2
:1032C000F8848404F80001020207050004FC246469
:1032D0009800020302000302182424448C00030215
:1032E000020201000C04FC040C00000203020000B6
:1032F00004FC0000FC04000102020100047C80E0E8
:103300001C040000030000001CE03CE01C00000363
:1033100000030000049C609C040002030003020000
:10332000041CE01C04000002030200000C84641C66
:1033300004000203020203000000FE02020000007B
:1033400007040400000E30C000000000000102006D
:10335000000202FE00000004040700000004020452
:10336000000000000000000000000000000008084D
:10337000080808080000020000000000000000002B
:103380000040A0A0C00000010202030204FC2020B3
:10339000C00000030202010000C020206000000104
:1033A0000202020000C02024FC000001020203020D
:1033B00000C0A0A0C0000001020202000020F8240A
:1033C00024040002030202000040A0A060200007C5
:1033D0000A0A0A0404FC2020C000020302000302BF
:1033E0000020E4000000000203020000000020E4CE
:1033F000000008080807000004FC80E02020020309
:10340000020003020404FC000000020203020200A6
:10341000E020E020C00003000300030020E02020A3
:10342000C00002030200030200C02020C00000010F
:103430000202010020E02020C000080F0A02010063
:1034400000C02020E0000001020A0F0820E0402018
:1034500020000203020000000060A0A02000000283
:10346000020203000020F820000000000102020018
:1034700020E00020E00000010202030220E02080A2
:1034800060200000030100006080E0806000000315
:10349000000300002060806020000203000302009F
:1034A00020E0208060200808070100000020A060C4
:1034B0002000000203020200000020DE02000000E3
:1034C00000070400000000FF00000000000F0000E3
:1034D0000002DE20000000040700000002010204D8
:1034E00004020000000000000000000000000000D6
:1034F0000000000000000000000000F800000000D4
:10350000000000333000000000100C06100C060014
:10351000000000000000000040C07840C07840007B
:10352000043F04043F040400007088FC08300000DD
:10353000001820FF211E0000F008F000E018000035
:1035400000211C031E211E0000F0088870000000EE
:103550001E2123241927211010160E000000000040
:103560000000000000000000000000E0180402005D
:10357000000000071820400000020418E0000000CE
:103580000040201807000000404080F080404000CC
:103590000202010F01020200000000F00000000022
:1035A0000101011F010101000000000000000000F6
:1035B00080B070000000000000000000000000006B
:1035C00000010101010101010000000000000000F4
:1035D000003030000000000000000000806018048F
:1035E000006018060100000000E010080810E0006C
:1035F000000F102020100F00001010F80000000035
:103600000020203F2020000000700808088870007B
:1036100000302824222130000030088888483000FB
:103620000018202020110E000000C02010F800001B
:1036300000070424243F240000F8088888080800B4
:103640000019212020110E0000E0108888180000C9
:10365000000F112020110E0000380808C83808009B
:103660000000003F0000000000708808088870001B
:10367000001C222121221C0000E010080810E0009C
:103680000000312222110F00000000C0C000000025
:10369000000000303000000000000080000000004A
:1036A0000000806000000000000080402010080042
:1036B000000102040810200040404040404040000B
:1036C00004040404040404000008102040800000E6
:1036D0000020100804020100007048080808F000EB
:1036E0000000003036010000C030C828E810E000BB
:1036F0000718272423140B000000C038E000000046
:10370000203C23020227382008F8888888700000AF
:10371000203F202020110E00C03008080808380083
:10372000071820202010080008F808080810E000FA
:10373000203F202020100F0008F88888E80810009B
:10374000203F20202320180008F88888E80810006F
:10375000203F200003000000C030080808380000A7
:1037600007182020221E020008F808000008F808A8
:10377000203F210101213F20000808F8080800002F
:103780000020203F2020000000000808F808080062
:10379000C08080807F00000008F888C028180800DA
:1037A000203F20012638200008F808000000000013
:1037B000203F20202020300008F8F800F8F808000A
:1037C000203F003F003F200008F830C00008F80804
:1037D000203F200007183F00E01008080810E00014
:1037E0000F10202020100F0008F808080808F0002B
:1037F000203F210101010000E01008080810E0004E
:103800000F18242438504F0008F8888888887000E2
:10381000203F2000030C3020007088080808380082
:103820000038202121221C00180808F80808180078
:103830000000203F2000000008F808000008F808F9
:10384000001F202020201F000878880000C83808AA
:10385000000007380E010000F80800F80008F80022
:10386000033C0700073C03000818688080681808BC
:1038700020302C03032C30200838C800C83808003A
:103880000000203F2000000010080808C838080089
:103890002038262120201800000000FE020202002D
:1038A0000000007F40404000000C30C000000000DD
:1038B000000000010638C00000020202FE00000005
:1038C000004040407F0000000000040202020400AB
:1038D00000000000000000000000000000000000E8
:1038E00080808080808080800002020400000000D0
:1038F00000000000000000000000808080800000C8
:103900000019242222223F2008F8008080000000B5
:10391000003F112020110E00000000808080000078
:10392000000E112020201100000000808088F80087
:10393000000E112020103F200000808080800000B9
:10394000001F222222221300008080F0888888181D
:103950000020203F20200000000080808080800028
:10396000006B94949493600008F8008080800000BD
:10397000203F210000203F20008098980000000098
:103980000020203F202000000000008098980000C8
:1039900000C08080807F000008F8000080808000E8
:1039A000203F24022D302000000808F8000000000D
:1039B0000020203F202000008080808080808000C8
:1039C000203F20003F20003F80800080808000005A
:1039D000203F210000203F200000808080800000E8
:1039E000001F202020201F00808000808000000019
:1039F00080FFA12020110E00000000808080800048
:103A0000000E112020A0FF80808080008080800038
:103A100020203F2120000100000080808080800065
:103A20000033242424241900008080E080800000DA
:103A30000000001F20200000808000000080800027
:103A4000001F202020103F20808080000080808088
:103A500000010E3008060100808000800080808018
:103A60000F300C030C300F0000808000808080003D
:103A70000020312E0E312000808080000080808068
:103A800080818E7018060100008080808080800018
:103A90000021302C2221300000000000807C020236
:103AA00000000000003F404000000000FF00000058
:103AB00000000000FF0000000002027C8000000007
:103AC0000040403F00000000000601010202040423
:103AD00000000000000000000000000000000000E6
:103AE00000000000000000000000000000000000D6
:103AF00000000000000000000000000000000000C6
:103B000000F0F0F0000000000000000000017F0164
:103B10000000000000000000001C1C1C0000000051
:103B200000008060301C8C60301C0C000000000025
:103B30000000000000000000000000000000000085
:103B400000000000000000E00000000000E00000B5
:103B50000086E69F86868686E69F860000011F0116
:103B6000010101011F010100000080C06020F82058
:103B7000E0C00000000003070C18FF70E1810000A6
:103B80000000070F10107F100F07000080602060FA
:103B900080000000E02000000F3020309F70DC37F4
:103BA0001030C0000000100E0300071810180700A6
:103BB0000000C02020E0C0000000000080E01F38AE
:103BC000E88703C43C040000070F1810100B070D12
:103BD0001010080000808C4C38000000000000002D
:103BE00000000000000000000000000000000000D5
:103BF000000000000000000000000000000080E065
:103C0000300804000000000000FEFF01000000007A
:103C1000000000000000030F1820400000040830DE
:103C2000E0800000000000000000000001FFFE0036
:103C300000000000004020180F03000000000000FA
:103C4000000000000000C0000000000000426666A6
:103C50003C18FF183C6666420000000000000300AC
:103C600000000000000000000000800000000000D4
:103C7000001010101010FF101010101000000000A5
:103C80000000030000000000000000000000000031
:103C90000000000000000000000000000000000024
:103CA00000808C4C38000000000000000000000084
:103CB0000000000000000000001010101010101094
:103CC00010101000000000000000000000000000C4
:103CD00000000000000000000000000000000000E4
:103CE000000000000000000000001C1C1C00000080
:103CF000000000000000000000000000E0380C00A0
:103D00000000000080701C03000000000060380EFE
:103D10000100000000000000000080C06020206062
:103D2000C080000000FEFF010000000001FFFE0057
:103D30000001070E181010180E0701000000808007
:103D400080C0E000000000000000000000FFFF0055
:103D50000000000000001010101F1F1010100000C5
:103D60000080402020202060C0800000000303006D
:103D7000804020381F070000001C1A191818181856
:103D8000181F00000080C020202060C080000000BC
:103D9000000303001010182FE780000000070F1029
:103DA000101010180F070000000000000000C0E015
:103DB000F000000000C0B088868180FFFF80800096
:103DC000000000000010101F1F1010000000E06035
:103DD000606060606060000000003F100808081824
:103DE000F0E0000000070B101010101C0F03000083
:103DF000000080C040202020E0C0000000FCFF2127
:103E00001008080818F0E0000001070C1810101046
:103E1000080F03000000C0E06060606060E06000C8
:103E2000000003000000E018070000000000000090
:103E3000001F1F00000000000080C0602020202024
:103E400060C080000087EF2C1818303068CF8300E6
:103E500000070F0810101010180F07000000C0C056
:103E600020202020C0800000001F3F6040404020F4
:103E700010FFFE0000000C1C101010080F030000C3
:103E80000000000000000000000000000000000032
:103E9000000E0E0E0000000000000000001C1C1CA4
:103EA0000000000000000000000000000000000012
:103EB00000000000000C0C000000000000000000EA
:103EC00000583800000000000000000000000080E2
:103ED0004020100000001028448201000000000073
:103EE00000000000000001020408100000000000B3
:103EF0000000000000000000008484848484848426
:103F00008484840000000000000000000000000025
:103F100000001020408000000000000000000000B1
:103F20000000018244281000000010080402010073
:103F30000000000000C020201010101030E0C00071
:103F40000003030000F010080C070300000000004D
:103F50001C1C1C0000000000000000C0406020206D
:103F60002040C00000FCFF01F00E03C1FE03807F73
:103F70000001070E081111101109040200000000D1
:103F800080E0E000000000000000807C4340477FAC
:103F9000F880000010181F1000000000131F1C10F4
:103FA00020E0E02020202060C080000000FFFF1003
:103FB000101010182FE78000101F1F101010101085
:103FC000180F0700000080C0402020202060E00083
:103FD00000FCFF0100000000000001000001070ECE
:103FE000181010100804030020E0E02020202040DA
:103FF000C080000000FFFF000000000001FFFE0085
:10400000101F1F10101018080E07010020E0E020FC
:10401000202020202060800000FFFF101010107C66
:1040200000000000101F1F101010101010180600C4
:1040300020E0E020202020206060800000FFFF10B2
:104040001010107C00000100101F1F100000000065
:1040500000000000000080C06020202040E0000040
:1040600000FCFF0100004040C0C140400001070EBD
:10407000181010100F0F000020E0E02000000000DA
:1040800020E0E02000FFFF101010101010FFFF00D4
:10409000101F1F1000000000101F1F100000202024
:1040A00020E0E020202000000000000000FFFF00D2
:1040B0000000000000001010101F1F101010000062
:1040C00000000000202020E0E02020200000000070
:1040D000000000FFFF0000000060E0808080C07FE3
:1040E0003F00000020E0E020000020A06020200031
:1040F00000FFFF30187CE3C000000000101F1F10FD
:10410000000001131F1C181020E0E0200000000038
:104110000000000000FFFF000000000000000000A1
:10412000101F1F10101010101018060020E0E0E003
:1041300000000000E0E0E02000FF013FFEC0E01EC4
:1041400001FFFF00101F1000031F0300101F1F10AE
:1041500020E0E0C0000000000020E02000FF00039D
:10416000071C78E08000FF00101F10000000000016
:10417000030F1F00000080C060202060C08000008E
:1041800000FEFF010000000000FFFE000001070E1E
:10419000181010180C07010020E0E020202020203B
:1041A00060C0800000FFFF2020202020301F0F0073
:1041B000101F1F100000000000000000000080C061
:1041C00060202060C080000000FEFF0100000000B1
:1041D00000FFFE000001070E1111133C7C67210057
:1041E00020E0E0202020202060C0800000FFFF10A1
:1041F0001030F0D0080F0700101F1F100000000340
:104200000F1C10100080C060202020204040E000E3
:1042100000070F0C1818303060E08100001F0C08F8
:1042200010101010180F07008060202020E0E02000
:10423000202060800100000000FFFF00000000015E
:1042400000000000101F1F100000000020E0E02010
:10425000000000000020E02000FFFF000000000040
:104260000000FF0000070F181010101010080700C2
:104270002060E0E02000000020E060200000077FD8
:10428000F88000807C03000000000000071F1C076E
:104290000000000020E0E02000E0E0200020E0201E
:1042A0000007FFF8E01FFFFCE01F00000000031FF5
:1042B0000300011F03000000002060E0A0000020B8
:1042C000E0602000000000038F7CF8C601000000C1
:1042D0000010181E130001171F1810002060E0E0E6
:1042E0002000000020E06020000001073EF8E018F8
:1042F0000700000000000010101F1F101000000039
:1043000000806020202020A0E0E0200000000000CD
:10431000C0F03E0F0300000000101C1F171010100B
:10432000101806000000000000FC0404040404004F
:104330000000000000FF000000000000000000007E
:10434000007F404040404000000010E000000000BE
:104350000000000000000000031C6080000000005E
:1043600000000000000000030C7080000000040446
:10437000040404FC0000000000000000000000FF36
:1043800000000000000040404040407F000000006E
:1043900000000010080C040C0810000000000000D1
:1043A000000000000000000000000000000000000D
:1043B00000000000000000000000000000000000FD
:1043C00000000000000000000000000080808080ED
:1043D00080808080808080800000000404080800C5
:1043E00000000000000000000000000000000000CD
:1043F00000000000000000000000000000000000BD
:104400000000000000000000000098D8446424244C
:10441000FCF80000000F1F18101010081F1F1018C4
:104420000020E0F000000000000000000000FFFF9E
:10443000180804040CF8F00000001F0F18101010EA
:10444000180F030000000000000000000000000042
:1044500000E0F8180404043C3800000000030F0CCE
:1044600010101010080600000000000000000020DE
:10447000E0F0000000E0F81C04040408FFFF000066
:1044800000030F18101010081F0F08000000000094
:1044900000000000000000000000E0F84844444430
:1044A0004C7870000000030F0C1810101008040066
:1044B0000000000080C0602020E0C0000004040470
:1044C000FFFF040404040000000010101F1F101060
:1044D00010000000000000000000000000000000CC
:1044E000000070F88C04048CF874040C007076CF13
:1044F0008D8D8D89C87870000020E0F000000000EC
:10450000000000000000FFFF08040404FCF80000A5
:1045100000101F1F100000101F1F100000000000DF
:1045200000606000000000000000040404FCFC00C7
:104530000000000000001010101F1F1010100000DD
:1045400000000000000000606000000000000000AB
:10455000040404FCFC0000000000C0C08080C07F98
:104560003F0000000020E0F000000000000000001C
:104570000000FFFF80C0F41C0404000000101F1F97
:104580001100031F1C1010000000202020E0F0008C
:10459000000000000000000000FFFF00000000001D
:1045A00000001010101F1F1010100000000000006D
:1045B000000000000000000004FCFC0804FCFC08F3
:1045C00004FCFC00101F1F10001F1F10001F1F10F5
:1045D0000000000000000000000000000004FCFCDF
:1045E00008080404FCF8000000101F1F1000001051
:1045F0001F1F10000000000000000000000000006D
:1046000000E0F0180C04040C18F0E00000030F0C9C
:10461000101010100C0F030000000000000000003C
:10462000000000000004FCFC080404040CF8F00086
:104630000080FFFF889010101C0F03000000000096
:10464000000000000000000000E0F81C0404040862
:10465000F8FC000000030F1810109088FFFF800086
:10466000000000000000000000000000040404FC42
:10467000FC100804040C0C001010101F1F10101068
:10468000000000000000000000000000000000002A
:1046900000003078CCC48484840C1C0000001E18F8
:1046A00010101011190F06000000000000C00000DB
:1046B0000000000000040404FFFF040404000000E4
:1046C000000000000F1F1010100C00000000000080
:1046D00000000000000000000004FCFE00000004D8
:1046E000FCFE000000000F1F181010081F0F08002C
:1046F00000000000000000000000000000040C3C6E
:10470000FCC40000C43C0C0400000000010F1E0E9D
:104710000100000000000000000000000000000098
:10472000043CFCC400E47CFC84807C040000071F83
:10473000070000071F070000000000000000000045
:10474000000000000004041C7CE4C0341C040400CD
:104750000010101C1601131F1C1810000000000090
:10476000000000000000000000040C3CFCC400C479
:104770003C0404000000C080C1370E0100000000AE
:1047800000000000000000000000000000001C0409
:1047900004C4F47C1C0400000000101C1F1711103E
:1047A00010180E0000000000000000F80C040000CB
:1047B00000000000001028EF0000000000000000D2
:1047C0000000003F60400000000000000000FF000B
:1047D00000000000000000000000FF0000000000DA
:1047E000000000000000FF00000000000000040CBA
:1047F000F80000000000000000000000EF2810009A
:1048000000000000000040603F00000000000000C9
:1048100000180602020408102020300800000000E2
:104820000000000000000000000000000000000088
:10483000000000000000F010101010FF1010101009
:10484000F000000000000F04040404FF040404044A
:104850000F0000004040405F555555755555555F58
:10486000404040000040200F094989790909090F9B
:104870002040000000FE02424ACA4A4ACA4A4A424E
:1048800002FE000000FF40504C4340404F50505C3F
:1048900040FF00000000F888888888FF88888888A2
:1048A000F800000000001F080808087F8888888832
:1048B0009F80F00080828282828282E2A2928A8637
:1048C00082808000000000000040807F0000000027
:1048D00000000000101010FF109008888888FF88E2
:1048E000888808000444827F01808040432C10287F
:1048F000468180000010101010D030FF30D0121C04
:104900001010000010080402010000FF0000010266
:104910000408100004040484E43C2724242424E430
:104920000404040004020100FF0909090949897F00
:104930000000000000FE225A8600FE92929292929F
:10494000FE00000000FF04080700FF4020030C14D5
:1049500022414000008040201806800007182040B7
:1049600080000000010020702826212020243860CB
:104970000001010000101292929292929212120281
:10498000FE0000000000003F101010103F004080AB
:104990007F0000000808080888780F080808080841
:1049A0000808080020104846414141417F414141EB
:1049B0004140400008080808C8380F0808080808DF
:1049C0000808080008040201FF41414141414141FA
:1049D000FF0000008060F80700FE02F202FE00F80F
:1049E00000FF00000000FF008047300F1027004745
:1049F000807F0000C8B88FE88888404848E85F4852
:104A000048484000081808FF040400020B1222D294
:104A10000A060000404042CC0004F49494FF9494B1
:104A2000F40400000040201F20484442415F4142FE
:104A3000444840000000F888888888FF8888888873
:104A4000F800000000001F080808087F8888888890
:104A50009F80F000000424242526E43C24262524FD
:104A60002404000041211189858B8989F98989896C
:104A7000898101001060028C004464544D46445406
:104A800064C4040004047E0180403E0000FE000077
:104A90007E80E00000F808080CCA494848C80808A9
:104AA00008F8000000FF0000001F0808081F004071
:104AB000807F00001010D0FF905020504C434C508D
:104AC00020404000040300FF00414458414E60581C
:104AD000474040001060028C00FE02F202FE00F827
:104AE00000FF000004047E018047300F10270047BC
:104AF000807F00000484E45C44C42010E82724E4A0
:104B0000342CE00002017F10103F80601F09093F34
:104B100049897F00404042CC0000000000FF0000B7
:104B2000000000000000003F904820180700071810
:104B300020408000404042CC0000FC24A4242222DB
:104B4000A36200000040201F2058475048454245BE
:104B5000485040000000FE0202F2121212F202025D
:104B6000FE00000000007F2020272424242720208E
:104B70007F000000808080808080808080808080B6
:104B800080808000000000000000000000000000A5
:104B9000000000004030EF242480E49C105454FFB7
:104BA000547C100001017F21512618274445455FA0
:104BB00045454400000000C080808080808080FCEB
:104BC00084808080808080C0C0000000000000FFE2
:104BD0007F404040404040FF40404040404040FF18
:104BE0007F00000000000000000000000000007FC7
:104BF0007000000000000000000000000000000045
:104C00000000000000000000000000FCF8000000B0
:104C10000000000000000000000000000000000094
:104C2000FFFE020202020202020202FFFF02020271
:104C3000020202020202FF03000000000000000066
:104C40001F1F040404040404040404FFFF040404F8
:104C50000404040404041F0000000000000000001D
:104C600000000000000000000000007F3F00000086
:104C70000000000000000000000000000000000034
:104C80000000000000000000000000000000000024
:104C9000000000000000000000F8F8F0F0702000B4
:104CA0000000000000000000000000000000000004
:104CB00000000000000000000000000000000000F4
:104CC0000000000080000000000000000000000064
:104CD000000000000000000000FFFFFFFF000000D8
:104CE00000000000000000000000000000000000C4
:104CF00080800000000000000000000000000000B4
:104D00000000000000FFFFFE060606060606060677
:104D1000060606060606060606FFFFFFFF0606064F
:104D2000060606060606060606060606060606FF2A
:104D3000FFFFFF070200000000000000000000006D
:104D40000000000000FFFFFF000000000000000066
:104D5000000000000000000000FFFFFFFF00000057
:104D6000000000000000000000000000000000FF44
:104D7000FFFFFF0000000000000000000000000036
:104D80000000000000FFFFFF181818181818181866
:104D9000181818181818181818FFFFFFFF181818F7
:104DA000181818181818181818181818181818FF9C
:104DB000FFFFFF00000000000000000000000000F6
:104DC00000000000020101000000000000000000DF
:104DD000000000000000000000FFFFFFFF000000D7
:104DE00000000000000000000000000000000001C2
:104DF00001000000000000000000000000000000B2
:104E000000000000000000000000000000000000A2
:104E1000000000000000000000FFFFFFFF00000096
:104E20000000000000000000000000000000000082
:104E30000000000000000000000000000000000072
:104E40000000000000000000000000000000000062
:104E50000000000000000000001F1F0F0F000000F6
:104E60000000000000000000000000000000000042
:104E70000000000000000000000000001122334488
:104E80005511223344550000A84E000800000020B0
:104E9000540F0000B801000848530008540F0020C8
:104EA000940800004C2600080115000C2148454CD0
:104EB0004C4F20574F524C4484A24A0468090102C7
:104EC0000304060708090C69100511020406082AE4
:104ED000AA0131100A03050911FF118905C312E067
:104EE00012F072F80E204428FF11AA7D011C700BED
:104EF0008301384482929274018328087C44FF0124
:104F00007D7D7D0449055C7D01FFB9990279CD89DC
:104F10000B013669419949FA0101011D38083F3FEB
:104F20000303F31311011E01F1116181312D816120
:104F300011F1393B4141072C01C1211EAB21C114A4
:104F4000390139360738D33303033F3F23E0E06AA2
:104F50007FA81A7FBF4C0618060A213640407F40C2
:104F6000401C1F204001AB201F14113A600E6C3012
:104F70000C034601361C0707060178090404048463
:104F800044444484071C0484C405790E09110A7939
:104F9000112940034107072610181412112E0F1073
:104FA00010100F0F331F1026081012120D22186B4D
:104FB0000D120A5929590701605A8001013D200844
:104FC0007F030C300C037F2538545458257C04048F
:104FD0007805223C40407C17FFAAAAAA28080A2C80
:104FE000FF681E2649494932101D020408100F109F
:104FF0000A03050911FF118905C312E012F072F8C6
:10500000073D4428FF11AA44700B83013844829263
:10501000927401831E7C44FF017D01990559BB9A5E
:105020000102818A010B013669419949FA010101A6
:10503000204BF808011135F818608035806018F8A9
:105040002B202006312BE0101EAB10E01461393705
:10505000043E8868186A7FA71A7FBE4C0618060AA5
:10506000114640407F40401C1F204001AB201F14D0
:105070001162603A602F01441E40202020C0ED19CB
:105080000729EA2A4005115A600E8918792959071B
:105090000149260C0A0A090C360F0808080F2C08CB
:1050A0000F08151D0809090E0719181C0909091808
:1050B000190A5929590701605A8001013D20087FCA
:1050C000030C300C037F2538545458257C04047895
:1050D00005223C40407C17FFAAAAAA28080A2CFFF8
:1050E000681E2649494932101D020408100FB11CE0
:1050F000E0E0F0014BE0C0D64AC00EF2E03AC00159
:105100000D13E0F0F8FF011AF840390151AC0F1F00
:105110003F1D2D3F1F0F0701DD0F0F1F7F18395B4C
:10512000ABE0F016998AB96D1918413B030F01BB2A
:105130001F3F4B89011A7F563901E2032D1F3F3F64
:105140003F1C698A190F044A3F1F1F19B05CC0C079
:10515000E001190B0318808019D82CFC7C3E8A1FB3
:105160000303030101E1011EC101010303974E1F67
:105170003E7CFCF8E891BEE0FCFFFF1FCDC571F15D
:10518000F3F19F030FFFFFFCE0EBCCFFFFFF4411A7
:105190001912C9841911B9FD7809030F1F7FFCF892
:1051A000F0E0B84B1F1F2019D8000914E0F0F8FCFC
:1051B0007F3F0F0749B85C0F0E1E011B0E0FD81A58
:1051C00007D7013F8019C0F0381C0C06060303E323
:1051D000E3E3030306060C1C3870C080FFE7847FFE
:1051E0007F7F13E7FF2827030E1C38306060C0C0A4
:1051F000C7C7C7C0C0606030381C0E030103060C6F
:10520000183060C080C06030180C060301CA29E263
:105210001B0103B219A4810011170C1E7EFFFF7E33
:105220001E0C3078FCFFFFFC7830120212041206CC
:105230001208293813BC0B00081A204D61696E55FD
:105240004932041AE428280B6C617374206D656E72
:1052500075200199E3191C4129243F416E696D6154
:105260006C210917246C50696421091724A809547A
:10527000696D652073657424138D236A08242306E1
:10528000020B18780C945AE82829247C62756C92D9
:105290000917249B6972950914240C13646F67B86D
:1052A000B9480B1F6F77240D1A66697368242305AC
:1052B00001EB540DDC8929692829241B4B501A8ADB
:1052C000304D136D111B085904B924CA492441EA11
:1052D00045240A104424CBD10F24FC50574D24A957
:1052E000902308040B200C0EB829249D486F75727A
:1052F00072518B6D0D702924CF4D696E75746524C4
:10530000CBF11524CF5365636F6E6424CB812024C9
:10531000FC5965616CDB05266CDD6F6E746824CB0F
:105320000D16242C4461791CB924CBFD03245B4F5A
:105330004B1E99248B7523240110141612376DE629
:0853400007011C0841000000F8
:0400000508000131BD
:00000001FF
