:020000040800F2
:100000007004002045010008DB020008D30200084C
:10001000D70200088D0100085B0C000800000000FA
:10002000000000000000000000000000ED070008D4
:1000300091010008000000001106000801090008F5
:100040005F0100085F0100085F0100085F01000810
:100050005F0100085F0100085F0100085F01000800
:100060005F0100085F0100085F0100085F010008F0
:100070005F0100085F0100085F0100085F010008E0
:100080005F0100085F0100085F0100085F010008D0
:100090005F0100085F0100085F0100085F010008C0
:1000A0005F0100085F0100085F0100085F010008B0
:1000B0005F010008650900085F0100085F01000892
:1000C0005F0100085F0100085F0100085F01000890
:1000D0005F010008810A00085F0100085F01000855
:1000E0005F0100085F0100085F0100085F01000870
:1000F0005F0100085F0100085F0100085F01000860
:100100005F0100085F0100085F0100085F0100084F
:100110005F0100085F0100085F0100085F0100083F
:100120005F0100085F0100085F0100085F0100082F
:10013000DFF80CD000F018F800480047590F00080D
:10014000700400200648804706480047FEE7FEE7A7
:10015000FEE7FEE7FEE7FEE7FEE7FEE7FEE7FEE777
:100160000509000831010008064C074D06E0E0686B
:1001700040F0010394E8070098471034AC42F6D3EE
:10018000FFF7DAFFC80F0008E80F000800BFFEE71E
:100190007047000010B5044800F056FDC4B2214677
:1001A000014800F056FD10BD0038014001490860CB
:1001B00070470000140401402DE9F041024600257B
:1001C0000026002000230024002791F803C00CF033
:1001D0000F0591F803C00CF0100CBCF1000F03D018
:1001E00091F802C04CEA050591F800C0BCF1000F7F
:1001F00031D0146800202BE04FF0010C0CFA00F312
:10020000B1F800C00CEA03069E4220D183004FF0F3
:100210000F0C0CFA03F7BC4305FA03FC4CEA040488
:1002200091F803C0BCF1280F06D14FF0010C0CFA75
:1002300000FCC2F814C00AE091F803C0BCF1480FFA
:1002400005D14FF0010C0CFA00FCC2F810C0401CA4
:100250000828D1D31460B1F800C0BCF1FF0F34DD21
:10026000546800202EE000F1080C4FF0010808FA55
:100270000CF3B1F800C00CEA03069E4221D18300C2
:100280004FF00F0C0CFA03F7BC4305FA03FC4CEAE1
:10029000040491F803C0BCF1280F05D100F1080C4B
:1002A00008FA0CF8C2F8148091F803C0BCF1480FAA
:1002B00007D100F1080C4FF0010808FA0CF8C2F859
:1002C0001080401C0828CED35460BDE8F081016145
:1002D000704700BFFEE700BFFEE7704710B505227C
:1002E0000D49302000F01CF905220B49102000F0C8
:1002F000C9F8002406E00848005DAA2800D003E001
:10030000601CC4B2052CF6DB00BF052C01D0012017
:1003100010BD0020FCE700003000002008B50121DE
:100320000C2000F087F90121080300F083F9202058
:10033000ADF8000018208DF8030003208DF80200AE
:1003400069463448FFF738FF20213248FFF7BFFFE6
:100350004020ADF8000069462E48FFF72DFF4021F0
:100360002C48FFF7B4FF8020ADF80000694629480B
:10037000FFF722FF80212748FFF7A9FF0120ADF8F2
:10038000000010208DF8030003208DF8020069465C
:100390002148FFF711FF01211F48FFF798FF1020A8
:1003A000ADF8000069461B48FFF706FF1021194809
:1003B000FFF78DFF0220ADF8000048208DF8030004
:1003C00069461548FFF7F8FE02211348FFF77FFF43
:1003D0000020124908804FF48270488000208880F5
:1003E000C88008814FF40070488110208881002067
:1003F000C881072008820A4800F0DAF9012108487C
:1004000000F0BCF900200749086001200649C1F846
:10041000800108BD00080140000C01405C00002084
:1004200000300140900121420080214210B500209F
:1004300011490860052211492A2000F071F80121B4
:10044000212000F08BF80121222000F087F82821DC
:10045000252000F083F82021312000F07FF80F21C3
:10046000262000F07BF80F21202000F077F80120F3
:100470000349C1F8900110BD90012142C10F00084D
:10048000000021422DE9F04107460D4616460020A6
:100490000A490860384600F047F98046002405E024
:1004A000FF2000F041F92855601CC4B2B442F7DBCC
:1004B0000120024908604046BDE8F0818081214268
:1004C00070B50446002007490860204600F02CF96A
:1004D000FF2000F029F9054601200349C1F88001F9
:1004E000284670BD808121420080214270B50446BB
:1004F0000720FFF7E5FF05462946272000F02EF8E4
:1005000005F0400050B1202221466120FFF7BAFFDC
:10051000FF21E22000F022F8002070BD0120FCE75E
:100520002DE9F04107460C46154600200A490860AF
:10053000384600F0F9F88046002605E014F8010B73
:1005400000F0F2F8701CC6B2AE42F7DB012002499F
:1005500008604046BDE8F0818081214270B50546C3
:100560000C46002007490860284600F0DDF80646E2
:10057000204600F0D9F801200349C1F88001304637
:1005800070BD0000808121420080214270B50021B1
:1005900000230F22C47804B3154C246804F4E064EB
:1005A000C4F5E064210AC1F10403CA40447804FAA6
:1005B00003F184781440214309010E4C0678A155BB
:1005C000047804F01F050124AC4005786D11AD00DE
:1005D00005F1E025C5F8004109E0047804F01F05A5
:1005E0000124AC40044D0678761145F8264070BDD4
:1005F0000CED00E000E400E080E100E0024901438E
:10060000024A1160704700000000FA050CED00E09E
:100610007047000029B1064AD2690243044BDA61EF
:1006200004E0034AD2698243014BDA61704700005B
:100630000010024029B1064A92690243044B9A61B4
:1006400004E0034A92698243014B9A6170470000BB
:100650000010024030B500210022002400232D4D5F
:100660006D6805F00C0121B1042905D0082923D1BA
:1006700005E0294D056022E0274D05601FE0254D6E
:100680006D6805F47012234D6D6805F48034022501
:1006900005EB92421CB9214D554305600BE01D4D01
:1006A0006D6805F400351DB11C4D5543056002E031
:1006B000194D5543056002E0174D056000BF00BFAE
:1006C000144D6D6805F0F0010909154D6B5C056866
:1006D000DD4045600F4D6D6805F4E061090A104D7D
:1006E0006B5C4568DD4085600A4D6D6805F46051BE
:1006F000C90A0B4D6B5C4568DD40C560054D6D68F2
:1007000005F44041890B074D6B5CC568B5FBF3F5FB
:10071000056130BD0010024000127A0000093D0062
:10072000180000202800002070B50546002405E0D0
:10073000601CC4B2C82C01DD002070BD02210E482F
:1007400000F028F80028F3D029460B4800F02EF8D6
:10075000002405E0601CC4B2C82C01DD0020ECE7D9
:100760000121054800F016F80028F3D0024800F0F7
:100770001AF8C0B2E1E700000030014021B1028860
:1007800042F04002028004E002884FF6BF731A4034
:10079000028070470246002013890B400BB10120F4
:1007A00000E00020704701468889704781817047CA
:1007B00010B50022028802F441520B884C88234372
:1007C0008C882343CC8823430C8923434C892343BF
:1007D0008C892343CC8923431A430280838B4FF2B5
:1007E000FF74234083830B8A038210BD704710B5CA
:1007F00000F002F810BD00000CB500200190009040
:100800003348006840F480303149086000BF304808
:10081000006800F4003000900198401C019000989E
:1008200018B90198B0F5A06FF1D12948006800F41B
:10083000003010B10120009001E0002000900098ED
:10084000012843D12348006840F010002149086086
:100850000846006820F0030008600846006840F081
:10086000020008601A484068194948600846406814
:1008700048600846406840F4806048600846406828
:1008800020F47C1048600846406840F4E810486056
:100890000846006840F08070086000BF0C4800689F
:1008A00000F000700028F9D00948406820F00300EB
:1008B000074948600846406840F00200486000BFB1
:1008C0000348406800F00C000828F9D10CBD000076
:1008D0000010024000200240042808D14FF0E0211F
:1008E000096941F004014FF0E022116107E04FF087
:1008F000E021096921F004014FF0E0221161704705
:100900007047000010B51348006840F0010011491D
:10091000086008464068104908400E49486008468B
:1009200000680E4908400B4908600846006820F43A
:10093000802008600846406820F4FE0048604FF4BC
:100940001F008860FFF753FF4FF000600449086004
:1009500010BD0000001002400000FFF8FFFFF6FE8F
:1009600008ED00E010B50121054800F01AF828B1A3
:1009700000F084F80121024800F004F810BD0000E6
:1009800000040040CA430282704721B1028842F04D
:100990000102028004E002884FF6FE731A400280D2
:1009A000704730B50246002000230024158A05EA6E
:1009B0000103958905EA010413B10CB1012000E09F
:1009C000002030BD1AB183890B43838102E0838903
:1009D0008B43838170470000002202881D4B9842A0
:1009E0000ED01D4B98420BD0B0F1804F08D01B4B5E
:1009F000984205D01A4B984202D01A4B984204D123
:100A00004FF68F731A404B881A43174B984207D002
:100A1000164B984204D04FF6FF431A40CB881A4336
:100A200002808B8883850B8803850A4B98420BD004
:100A3000094B984208D00E4B984205D00D4B984276
:100A400002D00D4B984201D10B7A03860123838299
:100A500070470000002C01400034014000040040B9
:100A600000080040000C004000100040001400404E
:100A70000040014000440140004801407047000030
:100A800010B540F22551054800F023F828B1FFF7D2
:100A900081FB40F22550FFF789FB10BD0038014073
:100AA00021B1828942F40052828104E082894DF6AC
:100AB000FF731A408281704702460020B1F5007F23
:100AC00000D100BF13880B400BB1012000E00020D3
:100AD000704770B50246002400230025002040F630
:100AE0006A16B14200D100BFC1F3421501F01F03E5
:100AF000012606FA03F3012D02D19689334006E060
:100B0000022D02D1168A334001E0968A33400C123E
:100B1000012606FA04F41688344013B10CB1012002
:100B200000E0002070BDF0B503460024002600253B
:100B3000002040F66A17B94200D100BF1846C1F341
:100B4000421401F01F06012707FA06F5012C01D116
:100B50000C3004E0022C01D1103000E014301AB146
:100B600007682F43076002E00768AF430760F0BDE6
:100B70002DE9F04786B005460E460024A24600BF88
:100B8000A1460027B08900B100BF2F462C8A4CF641
:100B9000FF700440F08804432C82AC894EF6F310B9
:100BA0000440B08831890843718908430443AC810B
:100BB000AC8A4FF6FF400440B0890443AC8201A8E0
:100BC000FFF748FD1F48874202D1DDF810A001E081
:100BD000DDF80CA0A88900F4004040B10AEBCA007F
:100BE00000EB0A1031684900B0FBF1F807E00AEBAE
:100BF000CA0000EB0A1031688900B0FBF1F86420EC
:100C0000B8FBF0F004012009642101FB1089A889D8
:100C100000F4004040B1322000EBC900B0FBF1F01D
:100C200000F00700044308E0322000EB09106421C3
:100C3000B0FBF1F000F00F0004432C8106B0BDE8DA
:100C4000F08700000038014001468888C0F30800A2
:100C50007047C1F308028280704700BFFEE70000C2
:100C60000FB4054B10B503A9044A029800F017F819
:100C700010BC5DF814FB0000350F000838000020A0
:100C800002E008C8121F08C1002AFAD17047704755
:100C9000002001E001C1121F002AFBD170472DE99D
:100CA000F84F9946924688460546002706E02528D3
:100CB0000AD051464A4690476D1C7F1C2878002870
:100CC000F5D13846BDE8F88F002315F8011F184606
:100CD0002E2915D115F8011F04232A290DD06FF0F4
:100CE0002F022978A1F13004092C09D800EB8000EB
:100CF00002EB400008446D1CF3E758F8040B6D1C30
:100D00002A78002ADDD0632A07D0732A0FD0104634
:100D100051464A4690477F1C2AE018F8042B8DF86C
:100D2000002000218DF801106E46012103E058F8E3
:100D3000046B4FF0FF315A074FF0000401D409E073
:100D4000641C84420BDA8C42FADB325D002AF7D154
:100D500005E0641C8C42FCDB305D0028F9D127449F
:100D600004E016F8010B51464A469047641EF8D23B
:100D70006D1CA3E708B501211020FFF75BFC4FF4C1
:100D80000050ADF8000010208DF8030003208DF80E
:100D9000020069460148FFF70FFA08BD0010014044
:100DA0003EB505460C4601210220FFF733FC681EC4
:100DB00080B2ADF80400601E80B2ADF800000020E3
:100DC000ADF80600ADF8020069460E48FFF704FED4
:100DD0001D208DF8080003208DF8090000208DF8F3
:100DE0000A0001208DF80B0002A8FFF7CFFB0122BB
:100DF00011460448FFF7E6FD01210248FFF7C5FD53
:100E00003EBD0000000400401FB50446012144F22D
:100E10000400FFF70FFC4FF40070ADF80C00032046
:100E20008DF80E0018208DF80F0003A91B48FFF75E
:100E3000C3F94FF48060ADF80C0004208DF80F006A
:100E400003A91648FFF7B8F925208DF80C000320F8
:100E50008DF80D008DF80E0001208DF80F0003A80D
:100E6000FFF794FB00940020ADF80400ADF80600F5
:100E7000ADF80800ADF80C000C20ADF80A0069468A
:100E80000748FFF775FE012240F225510448FFF79D
:100E90004AFE01210248FFF703FE1FBD0008014082
:100EA0000038014010B56FF00400FFF715FD0A4847
:100EB00000680A49B0FBF1F009490870084600785B
:100EC00000EB4001C1EBC0104FF6FF7101EAC0001A
:100ED0000449088010BD00000400002000127A00C0
:100EE0002C0000202E0000200146114A12884A439F
:100EF0004FF0E0235A6100229A611A46126942F0CB
:100F000001021A6100BF4FF0E022106900F00102F7
:100F10001AB100F48032002AF5D04FF0E0221269B5
:100F200022F001024FF0E0231A6100229A6170471B
:100F30002E00002070B504460D46E1B20548FFF7CB
:100F400088FE00BF80210348FFF7B6FD0028F9D0D6
:100F5000204670BD003801404FF4A060FFF74EFB03
:100F60004FF4E130FFF750FFFFF79CFFFFF702FF60
:100F70004FF4E15142F21070FFF712FFFFF7CEF984
:100F8000FFF7ACF909490880FFF750FA0CE0084870
:100F9000FFF7ACFA28B900200549C87705A0FFF78C
:100FA0005FFE0520FFF7A0FFF1E700000000002032
:100FB0003C00002025730D0A00000000112233447C
:100FC0005511223344550000E80F000800000020AE
:100FD0003C000000800C0008241000083C000020A9
:100FE00034040000900C00080000000000A24A0435
:100FF00000000000000000000102030406070809C9
:1010000000000000010203040102030406070809AE
:101010000204060800000000AAAAAAAAAA0000006A
:0410200000000000CC
:0400000508000131BD
:00000001FF
