:020000040800F2
:1000000020040020450100086D0300086503000876
:10001000690300088D010008F708000800000000CF
:10002000000000000000000000000000D5060008ED
:100030009101000800000000ED050008C10700085C
:100040005F0100085F0100085F0100085F01000810
:100050005F0100085F0100085F0100085F01000800
:100060005F0100085F0100085F0100085F010008F0
:100070005F0100085F0100085F0100085F010008E0
:100080005F0100085F0100085F0100085F010008D0
:100090005F0100085F0100085F0100085F010008C0
:1000A0005F0100085F0100085F0100085F010008B0
:1000B0005F010008250800085F0100085F010008D3
:1000C0005F0100085F0100085F0100085F01000890
:1000D0005F010008710800085F0100085F01000867
:1000E0005F0100085F0100085F0100085F01000870
:1000F0005F0100085F0100085F0100085F01000860
:100100005F0100085F0100085F0100085F0100084F
:100110005F0100085F0100085F0100085F0100083F
:100120005F0100085F0100085F0100085F0100082F
:10013000DFF80CD000F018F8004800471909000853
:10014000200400200648804706480047FEE7FEE7F7
:10015000FEE7FEE7FEE7FEE7FEE7FEE7FEE7FEE777
:10016000C507000831010008064C074D06E0E068AD
:1001700040F0010394E8070098471034AC42F6D3EE
:10018000FFF7DAFF440900086409000800BFFEE732
:100190007047000010B5044800F0A4FBC4B221462B
:1001A000014800F0A4FB10BD00380140014908607F
:1001B00070470000140401402DE9F041024600257B
:1001C0000026002000230024002791F803C00CF033
:1001D0000F0591F803C00CF0100CBCF1000F03D018
:1001E00091F802C04CEA050591F800C0BCF1000F7F
:1001F00031D0146800202BE04FF0010C0CFA00F312
:10020000B1F800C00CEA03069E4220D183004FF0F3
:100210000F0C0CFA03F7BC4305FA03FC4CEA040488
:1002200091F803C0BCF1280F06D14FF0010C0CFA75
:1002300000FCC2F814C00AE091F803C0BCF1480FFA
:1002400005D14FF0010C0CFA00FCC2F810C0401CA4
:100250000828D1D31460B1F800C0BCF1FF0F34DD21
:10026000546800202EE000F1080C4FF0010808FA55
:100270000CF3B1F800C00CEA03069E4221D18300C2
:100280004FF00F0C0CFA03F7BC4305FA03FC4CEAE1
:10029000040491F803C0BCF1280F05D100F1080C4B
:1002A00008FA0CF8C2F8148091F803C0BCF1480FAA
:1002B00007D100F1080C4FF0010808FA0CF8C2F859
:1002C0001080401C0828CED35460BDE8F0810000A7
:1002D000F0B50A46002300240021002500F0004666
:1002E000B6F1004F02D11D4EF16901E01B4E71685D
:1002F000C0F3034583B200F44016B6F5401F08D1A1
:1003000021F07061154E766826F07066134F7E609E
:1003100012E000F48016B6F5801F06D1032606FA17
:1003200005F4A14341F0706106E0460D360103FA81
:1003300006F6B14341F0706122B1460D360103FA71
:1003400006F6314300F00046B6F1004F02D1034EED
:10035000F16101E0014E7160F0BD0000000001405C
:100360000161704700BFFEE700BFFEE77047000075
:1003700010B505220D49302000F0F8F805220B4990
:10038000102000F0D5F8002406E00848005DAA28F7
:1003900000D003E0601CC4B2052CF6DB00BF052CC6
:1003A00001D0012010BD0020FCE700000300002068
:1003B00008B501210C2000F01BF90121080300F011
:1003C00017F90121084600F013F901213B48FFF716
:1003D0007FFF2020ADF8000018208DF803000320D7
:1003E0008DF8020069463648FFF7E6FE20213448C2
:1003F000FFF7B6FF4020ADF8000069463048FFF730
:10040000DBFE40212E48FFF7ABFF8020ADF8000057
:1004100069462B48FFF7D0FE80212948FFF7A0FF4F
:100420000820ADF8000010208DF8030003208DF89F
:10043000020069462348FFF7BFFE08212148FFF765
:100440008FFF1020ADF8000069461D48FFF7B4FE8D
:1004500010211B48FFF784FF4FF40040ADF8000067
:1004600048208DF8030069461548FFF7A5FE4FF4B4
:1004700000411348FFF774FF0020134908804FF430
:100480008270488000208880C88008814FF4007006
:100490004881102088810020C881072008820B48ED
:1004A00000F0FAF80121094800F0DCF800200849C2
:1004B000086001200749C1F88C0108BD0002300026
:1004C00000080140000C01400800002000300140FD
:1004D000900121420080214210B50020114908609E
:1004E000052211492A2000F041F80121212000F0C5
:1004F0005BF80121222000F057F82821252000F088
:1005000053F82021312000F04FF80F21262000F071
:100510004BF80F21202000F047F801200349C1F8D3
:10052000900110BD900121423D09000800002142C8
:100530002DE9F04107460D46164600200A4908609D
:10054000384600F065F88046002405E0FF2000F002
:100550005FF82855601CC4B2B442F7DB01200249A1
:1005600008604046BDE8F0818C8121422DE9F041D0
:1005700007460C46154600200A490860384600F038
:1005800047F88046002605E014F8010B00F040F81B
:10059000701CC6B2AE42F7DB01200249086040463B
:1005A000BDE8F0818C81214270B505460C460020E3
:1005B00007490860284600F02BF80646204600F060
:1005C00027F801200349C1F88C01304670BD0000B6
:1005D0008C8121420080214202490143024A11607C
:1005E000704700000000FA050CED00E070470000C5
:1005F00029B1064A92690243044B9A6104E0034A16
:1006000092698243014B9A617047000000100240DA
:1006100070B50546002405E0601CC4B2C82C01DD9D
:10062000002070BD02210E4800F028F80028F3D009
:1006300029460B4800F02EF8002405E0601CC4B2E7
:10064000C82C01DD0020ECE70121054800F016F878
:100650000028F3D0024800F01AF8C0B2E1E7000029
:100660000030014021B1028842F04002028004E0E3
:1006700002884FF6BF731A4002807047024600207E
:1006800013890B400BB1012000E0002070470146A8
:10069000888970478181704710B50022028802F472
:1006A00041520B884C8823438C882343CC882343B6
:1006B0000C8923434C8923438C892343CC892343CE
:1006C0001A430280838B4FF2FF74234083830B8A8B
:1006D000038210BD704710B500F002F810BD000095
:1006E0000CB50020019000903348006840F4803041
:1006F0003149086000BF3048006800F400300090C5
:100700000198401C0190009818B90198B0F5A06FAD
:10071000F1D12948006800F4003010B101200090A8
:1007200001E0002000900098012843D12348006890
:1007300040F01000214908600846006820F00300DE
:1007400008600846006840F0020008601A484068E7
:10075000194948600846406848600846406840F4C7
:10076000806048600846406820F47C104860084675
:10077000406840F4E81048600846006840F0807027
:10078000086000BF0C48006800F000700028F9D035
:100790000948406820F0030007494860084640685F
:1007A00040F00200486000BF0348406800F00C00C1
:1007B0000828F9D10CBD00000010024000200240C2
:1007C0007047000010B51348006840F0010011495F
:1007D000086008464068104908400E4948600846CD
:1007E00000680E4908400B4908600846006820F47C
:1007F000802008600846406820F4FE0048604FF4FE
:100800001F008860FFF767FF4FF000600449086031
:1008100010BD0000001002400000FFF8FFFFF6FED0
:1008200008ED00E010B50121054800F00EF828B1F0
:1008300000F01CF80121024800F004F810BD00008F
:1008400000040040CA430282704730B502460020CF
:1008500000230024158A05EA0103958905EA0104AD
:1008600013B10CB1012000E0002030BD7047000042
:1008700010B540F22551054800F00AF828B1FFF7FD
:1008800089FC40F22550FFF791FC10BD0038014073
:1008900070B50246002400230025002040F66A16A9
:1008A000B14200D100BFC1F3421501F01F03012680
:1008B00006FA03F3012D02D19689334006E0022D9A
:1008C00002D1168A334001E0968A33400C12012689
:1008D00006FA04F41688344013B10CB1012000E08C
:1008E000002070BD01468888C0F308007047C1F33E
:1008F00008028280704700BFFEE702E008C8121FAE
:1009000008C1002AFAD170477047002001E001C1F8
:10091000121F002AFBD170474FF4A060FFF75CFE66
:10092000FFF746FDFFF724FD02490880FFF7D4FDDD
:1009300000BFFEE70000002011223344551122338E
:100940004455000064090008000000200800000071
:10095000FA0800086C0900080800002018040000CC
:0C0960000A090008000000AAAAAAAAAA1E
:0400000508000131BD
:00000001FF
