:020000040800F2
:1000000070050020C5000008811400088D13000849
:1000100000000000000000000000000000000000E0
:100020000000000000000000000000006D19000842
:1000300000000000000000008F1700086F19000882
:10004000D700000800000000D7000008D700000813
:10005000D7000008D7000008D7000008D700000824
:1000600000000000D7000008D7000008D7000008F3
:10007000D7000008D7000008D700000800000000E3
:10008000D70000080000000000000000D7000008B2
:1000900000000000D7000008D7000008D7000008C3
:1000A00000000000D700000800000000551F0008F5
:1000B0000348854600F08EF800480047F91F000805
:1000C000700500200448804704480047FEE7FEE72B
:1000D000FEE7FEE7FEE7FEE7D3190008B1000008DF
:1000E00030B50B46014600202022012409E00D46D0
:1000F000D5409D4205D31D469540491B2546954058
:1001000040191546521E002DF1DC30BDF0B51FB46C
:100110000646002082B005464024019100901BE075
:10012000019922460F46304600F020F8049A059BBC
:10013000801A994110D310461946224600F039F82A
:10014000361A8F410197224601200021009F00F0BE
:1001500030F838184D4100902046641E0028DFDC3E
:10016000019B00982946324607B0F0BD10B5202A01
:1001700004DB0846203AD040002110BD0B46D34096
:10018000D0402024A21A91400843194610BDD2B293
:1001900001E00270401C491EFBD270470022F6E7C6
:1001A00010B513460A4604461946FFF7F0FF2046ED
:1001B00010BD10B5202A04DB0146203A91400020F2
:1001C00010BD914020239C1A0346E3401943904000
:1001D00010BD0000064C0125064E05E0E36807CC83
:1001E0002B430C3C98471034B442F7D3FFF764FF1D
:1001F0002821000848210008704730B50146203109
:100200004B780022022B04D0042383630A70012060
:1002100030BD03681C680E25AC431C6003681C6875
:10022000640864001C600123056C1C46C06BAC4074
:1002300044604B700A70002030BD70B50024014648
:1002400020314A78022A03D004218163012416E078
:10025000026813680E25AB431360026813685B08DD
:100260005B0013600122056C1346AB40C56B6B60ED
:100270004A7000220A70416B002900D0884720464E
:1002800070BD000070B5044600F0ECF80546601C37
:1002900002D004480078241800F0E4F8401BA04283
:1002A000FAD370BD08000020F8B50023032401250F
:1002B000BAE02E469E40B44632407CD00E79B60756
:1002C000B60F012E01D0022E17D186682746B646FA
:1002D0005E00B74000967646BE43B646CF68009EA5
:1002E000B74076463743876046686746BE430F7916
:1002F000FF06FF0F9F40374347600E79F643B6076E
:100300000ED0C6682746B4465E00B646B74066467D
:10031000BE43B4468F687646B74066463743C760EB
:100320000E79B607B60F022E14D1DE08B6003618C5
:100330000096366A5F07B446FE0E0F27B646B740F2
:100340006646BE43B4460F697646B74066463743B5
:10035000009E376206682746B4465E00B646B74040
:100360006646BE430F79B446BF07BF0F7646B74017
:100370006646374307604E68B603B60F53D02D4F1D
:10038000BE692E43BE61BE699F08F607F60F2A4E6E
:10039000BF00BE190096B6680F27B4469E07360FF9
:1003A000B646B7406646BE430927FF06B446B84284
:1003B00002D1002710E036E0204FB84201D10127DA
:1003C0000AE01F4FB84201D1022705E01D4FB84295
:1003D00001D1032700E005277646B740664637433C
:1003E000009EB760184E36684F689643FF0300D5ED
:1003F0001643154F3E607E684F689643BF0300D595
:100400001643114F7E60BE684F689643FF0200D5C9
:1004100016430D4FBE60FE684F689643BF0200D57D
:100420001643094AD6605B1C0A681646DE4000D0B7
:100430003FE7F8BD00100240000001400004004802
:1004400000080048000C0048000401400069084012
:1004500000D001207047002A01D08161704781627D
:1004600070470000014880687047000008000020C5
:10047000024881680278891881607047080000206E
:1004800010B506480168102211430160002000F0F9
:1004900007F800F027F8002010BD000000200240FF
:1004A00070B504460D4D7D202978C000FFF718FE79
:1004B00001460B480068FFF713FE00F0E3FC00283C
:1004C00009D1042C07D200222146401E00F02AF850
:1004D00000206C6070BD012070BD0000080000208D
:1004E0001400002008B50848816901221143816188
:1004F000816911400091C26901040A43C261C06967
:100500000840009008BD000000100240002805DBF4
:10051000C106C90E012088400149086070470000EB
:1005200000E100E010B501F035FD10BDF8B505465D
:100530000068354CC00352D5E0690026C00007D4DE
:10054000E16920040143E161E16901400126009174
:100550002E480168C90510D4016882151143016055
:10056000FFF780FF074604E0FFF77CFFC01B64280D
:1005700024D826480068C005F6D5206A03273F0224
:10058000384020D06968394081421CD0206A226AF4
:10059000B843012109040A432262226A8A43226283
:1005A0002062C0070FD0FFF75DFF009008E0FFF763
:1005B00059FF0099411A1648814201D90320F8BD1C
:1005C000206A8007F3D5206A6968B843084320622F
:1005D000002E04D0E169012000078143E161287801
:1005E000C00705D0206BA9688008800008432063FD
:1005F0002878800605D5206B10218843E9680843D8
:1006000020630020F8BD0000001002400070004090
:1006100088130000F8B50F46060059D03A4D2868F7
:10062000C007C00FB84209D22868400840003843CC
:1006300028602868C007C00FB84249D13068334CE1
:1006400081070CD5400704D56068072109020843DB
:1006500060606068F0218843B1680843606030786A
:10066000C00726D0706801280ED0216802280ED05D
:10067000890700292CDA61688908890001436160D3
:10068000FFF7F0FE00900DE021688903F1E7890192
:10069000EFE7FFF7E7FE0099411A1D48814201D9B3
:1006A0000320F8BD60680C21084071688900884209
:1006B000EFD12868C007C00FB8420BD9286840089E
:1006C0004000384328602868C007C00FB84201D0F6
:1006D0000120F8BD3078400706D56068072109027F
:1006E0008843F1680843606000F028F86168094AAF
:1006F0000906090F515CC840074908600020FFF750
:10070000CFFE0020F8BD0000002002400010024093
:100710008813000010210008140000200448054937
:1007200000684968044A4905490F515CC840704750
:1007300014000020001002402021000810B514A36E
:100740000FCB88B06C460FC415A30FCB0FC4184A4B
:1007500051680C200B4603401648042B16D0082B7A
:1007600014D18B021B0F6C46E45CD26A04AB1207F7
:10077000120F9A5CC90305D500231946FFF7C6FC82
:10078000214601E020460C4901F0ECFB08B010BD09
:1007900002030405060708090A0B0C0D0E0F1010C2
:1007A0000102030405060708090A0B0C0D0E0F10C1
:1007B0000010024000127A0000093D00FEB504005E
:1007C00070D02078DC4DC0074AD068680007800FE1
:1007D000012807D068680007800F022809D16868DF
:1007E000C00306D5286880033AD560680028E7D0A2
:1007F00036E06168012914D001208004002901D06D
:10080000052914D02A68012109048A432A6029682D
:10081000814329606068002816D0FFF723FE064652
:100820000EE028680121090408432860F2E72968DE
:1008300001432960F5E7FFF715FE801B64286ED899
:1008400028688003F7D50BE0FFF70CFE064604E0AE
:10085000FFF708FE801B6428F1D828688003F7D4CE
:1008600020780126800700283CDA68680007800F9E
:1008700007D068680007800F022809D16868C003A4
:1008800006D42868800716D5E06801280AD112E04E
:10089000E0680028286816D030432860FFF7E2FDA2
:1008A000074605E043E1FFF7DDFDC01B0228C6D87F
:1008B00028688007F7D52868F82188432169C9008E
:1008C000084328600EE0400840002860FFF7CAFD9A
:1008D000074604E0FFF7C6FDC01B0228AFD8286812
:1008E0008007F7D42078000722D5E0690028686ADD
:1008F0000ED030436862FFF7B5FD074604E0FFF70E
:10090000B1FDC01B02289AD8686A8007F7D50FE0AE
:10091000400840006862FFF7A5FD074605E09DE03E
:10092000FFF7A0FDC01B022889D8686A8007F7D4AA
:10093000207804274007002860DA00200190E86949
:10094000C00008D4E969B8060143E961E9690140DA
:1009500001200091019079480168C90511D401680E
:10096000821511430160FFF77DFD009005E0FFF760
:1009700079FD0099401A642870D870480068C00555
:10098000F5D5A06801280AD0002801D0052810D08C
:10099000286A400840002862286AB84301E0286AB3
:1009A00030432862A068002812D0FFF75BFD00905A
:1009B0000AE0286A38432862F1E7FFF753FD0099FF
:1009C000411A5F48814249D8286A8007F5D50DE071
:1009D000FFF748FD009006E0FFF744FD0099411A3B
:1009E000574881423AD8286A8007F5D401980028F0
:1009F00004D0E969012000078143E9612078C0063D
:100A000035D5606901280CD0401D686B23D0384370
:100A10006863686B400840006863FFF723FD064683
:100A200022E0686B38436863686B30436863FFF7A4
:100A300019FD064604E0FFF715FD801B02285BD870
:100A4000686B8007F7D5686BF8218843A169C900F6
:100A5000084368630BE0B8436863F4E74CE0FFF7D2
:100A600001FD801B022847D8686B8007F7D4206AF5
:100A700000285ED069680907890F022942D0012643
:100A800036060228286805D0B0432860FFF7EAFC44
:100A9000044633E0B0432860FFF7E4FC074604E077
:100AA000FFF7E0FCC01B022826D828688001F7D495
:100AB000E86AE16A000900010843E862616AA06A25
:100AC000084369683D22120491430843686028681E
:100AD00030432860FFF7C6FC044604E0FFF7C2FC81
:100AE000001B022808D828688001F7D521E0FFF70D
:100AF000B9FC001B022801D90320FEBD2868800133
:100B0000F5D416E00128F8D06868E96A01221204D9
:100B1000636A02409A420AD10907E26A090F9142C8
:100B200005D10F2189040840A16A884201D0012023
:100B3000FEBD0020FEBD000000100240007000401D
:100B400088130000F8B504000CD0606A0025002866
:100B50000AD02561656126464036A562707F00286F
:100B600008D00BE00120F8BD6168C81FFD38F2D045
:100B7000E561F0E73577204600F05CF802227277F5
:100B8000206801684023994301600723E1681B0244
:100B9000994201D9002001E0012000030F273F0204
:100BA000B94202D0994200D0A562FF2361680533A3
:100BB00019402127A368BF023B4019432369134012
:100BC000227D1943D207D20F11430123A2695B0290
:100BD0001A401143E26938231A401143226A8023E4
:100BE0001A401143A26A9B011A4011432268116006
:100BF000A1690422090C1140626A10231A401143B2
:100C0000626B08231A4011430F23E2681B021A404B
:100C10001143012212031040014320684160206803
:100C2000C16952109143C16125660120707700208F
:100C3000F8BD000010B586B0044614216846FFF7E1
:100C4000ADFA1149206888421CD11048826981148C
:100C50000A43826182690A400592426949010A4356
:100C60004261406908400590E02000900220019018
:100C70000021032003900291049109206946C006D7
:100C8000FFF712FB06B010BD00300140001002401B
:100C9000FFB5044683B00120019000202546403571
:100CA0000090287F0C9F1E4601280FD00120287736
:100CB000FFF7D8FB0290687F616801280DD0CA1F3A
:100CC000FD3A08D1A168002905D102E0022007B051
:100CD000F0BD042801D00220D1E00498002820D0E3
:100CE000059800281DD0002E1BD0687F042801D055
:100CF000052068770020206605992164EE80AE808B
:100D00000499A163E687A687E06420650721012096
:100D1000E268090200038A422268536803D98343C8
:100D200002E00120ABE003435360206802685206F2
:100D300003D4026840231A430260E0688842606876
:100D400044D9002801D0012E39D1A06B2168008838
:100D5000C860A06B801CA063E08F401EE0872EE07F
:100D600020688168890710D5E18F00290DD001998D
:100D700001290AD1A16B0988C160A06B801CA06306
:100D8000E08F401EE0870020019020688168C9073D
:100D90000DD0E98800290AD0C068216C0880206C39
:100DA000801C2064E888401EE88001200190FFF745
:100DB00059FB0299401AB84201D3781C5ED1E08FEA
:100DC0000028CDD1E8880028CAD146E0002801D00B
:100DD000012E3CD1A06B216800780873A06B401CE9
:100DE000A063E08F401EE08731E0206881688907BA
:100DF00010D5E18F00290DD0019901290AD1A16BED
:100E000009780173A06B401CA063E08F401EE0874F
:100E10000020019020688168C9070DD0E988002969
:100E20000AD0007B216C0870206C401C2064E8888C
:100E3000401EE88001200190FFF714FB0299401A40
:100E4000B84202D3781C02D018E0002F16D0E08FF1
:100E50000028CAD1E8880028C7D139462046029A1E
:100E600000F096FC002803D001200090202020668E
:100E70000120687700202877009828E70320009059
:100E8000F6E70000094910B5401E884201D901204B
:100E900010BD074C60610321081F01F07BF80020A2
:100EA000A06107202061002010BD0000FFFFFF00AF
:100EB00000E000E070477047F8B502680446D0696A
:100EC000116896689C4B05461D402023002D75D067
:100ED000F7079A4DFF0FBC460D402F436DD02546B6
:100EE000C7078035002F06D0CF0504D5012717622C
:100EF0002A683A432A60820708D5F20706D0276895
:100F000002223A622A6804273A432A60420708D537
:100F1000F20706D02668042232622A68022632438B
:100F20002A6002070AD50A461A406646324305D0AF
:100F30002668082232622E6816432E60020508D504
:100F40004A0106D501222668D20232622A681A4373
:100F50002A602A68002A39D0800606D5880604D57A
:100F6000616E002901D02046884728682168896879
:100F7000490602D4282108422DD0204600F0CCFD9D
:100F800021688868400622D5EFF31080012282F3A1
:100F900010888B68402293438B6080F31088206F09
:100FA000002814D066494163206FFFF746F90028F6
:100FB0000CD0206F416B08E000E012E0850610D5F0
:100FC0008D060ED5616E9DE020468847F8BD20460F
:100FD000FFF771FFF8BD2046FFF76DFF0020286086
:100FE000F8BD256E012D7DD1C5067BD5CD0679D501
:100FF0001026166222689068254640064035002873
:1010000045DA216F086840680004000CE8D02F8B97
:101010008742E5D968838869202833D0EFF31080B0
:10102000012181F3108811683701B943116080F301
:101030001088EFF31080012181F3108821688A68FD
:10104000520852008A6080F31088EFF3108001216B
:1010500081F3108821688A684027BA438A6080F348
:101060001088E36700202066EFF31080012181F3F0
:10107000108821680A68B2430A6080F31088206FE4
:10108000FFF7BBF8288B698B401A81B231E0288BBF
:10109000698B401A81B2688B0028A1D000299FD0AB
:1010A000EFF31080012585F310881568FF2721379D
:1010B000BD43156080F31088EFF31080012282F3A6
:1010C0001088226895686D086D00956080F310881F
:1010D000E367002020666066EFF31080012282F350
:1010E000108800E009E022681368B343136080F3BE
:1010F00010882046FFF7DEFEF8BD050606D50D0672
:1011000004D5A16E002900D05EE7F8BD4006FCD5ED
:101110004806FAD52046EFF31081012484F31088A5
:1011200014684025AC43146081F310888367002164
:10113000816600F02AF9F8BD0F08000020010004C4
:10114000051B000810B5040003D0A06F002802D0D2
:1011500007E0012010BD002174200155204600F059
:1011600027F82420A0672068016849084900016029
:10117000204600F0A9FD0128ECD0606A002802D0CA
:10118000204600F027FC206841680122D2029143EA
:10119000416020688168082291438160206801686D
:1011A000012211430160204600F07AFC10BD0000CE
:1011B00010B586B0044614216846FEF7EFFF1749C4
:1011C0002068884227D116488269012189030A4391
:1011D000826182690A4005924269C9000A434261FC
:1011E00040690840059003204002009002200190D1
:1011F00000200290032003900120049009206946FA
:10120000C006FFF751F8002202211B20FFF78AF9E0
:101210001B20FFF77BF906B010BD0000003801402D
:101220000010024070B5C36F202B2BD100290BD0CA
:10123000002A09D0012483682403A34206D103694C
:10124000002B03D1CB0701D0012070BD03466033D2
:101250001C7D012C16D001241C7500230366046834
:1012600063681B020BD5EFF31083012585F310880B
:1012700025680126B6063543256083F3108800F003
:10128000B1FD70BD022070BD10B5006807498842ED
:101290000AD1202206490748FFF7C4FF6423202211
:1012A0000349044800F008F810BD00000038014070
:1012B00020000020E8000020FFB50446806F83B0C6
:1012C00017460D4620285ED1002D0AD0002F08D0E9
:1012D000A168C001814207D12069002804D1E80734
:1012E00002D0012007B0F0BD204660300090007DA4
:1012F000012848D000980121017500208021085163
:101300002120A067FFF7AEF82646403601903782CD
:1013100077820120A1680003814202D12069002860
:1013200005D02F46002500990020087511E0002700
:10133000F9E700228021204600F0A2FD002815D107
:10134000002F15D02168387808857F1C708A401ED0
:101350007082708A019B002806980090E9D10022D3
:101360004021204600F08CFD002808D00320B9E77A
:1013700028882168C005C00D0885AD1CE6E720203F
:10138000A0670020AEE70220ACE77047FEE7000050
:1013900070B586B014216846FEF700FF1648426912
:1013A000012149040A434261406909260840F606C2
:1013B000059001221A213046FFF74DF80124022042
:1013C000009001940294694603943046FEF76CFF46
:1013D0000420002500906946019502943046FEF7EE
:1013E00063FF1820694631C10320039069463046E7
:1013F000FEF75AFF06B070BD0010024010B511484C
:101400000F490160FF210531416000210722816001
:1014100012020161C26001224161520282610162D5
:1014200010224162C26181620722C2620163082107
:101430004163FFF787FB002801D0FEF7DDFE10BDFA
:10144000003001408400002010B50C480A490160BA
:101450004B214902416000218160C16001618161CD
:10146000C1610C22016242614162FFF76BFE0028FC
:1014700001D0FEF7C1FE10BD00380140E800002099
:10148000704700001CB50FA103C90191009005220F
:101490006946102000F044F905220C49102000F0A4
:1014A00089F80A4900206A46135C0C5CA34203D108
:1014B000401CC0B20528F7D3052801D001201CBD6F
:1014C00000201CBDA5A5A5A5A500000018000020B2
:1014D00070B570210840044600F0A1F809250646C1
:1014E000ED06002210212846FEF7B5FF272000F068
:1014F000FDFD2046304300F0F9FD01221021284671
:10150000FEF7A9FF00F08BF870BD10B50924E406C2
:10151000002208212046FEF79EFF012210212046CE
:10152000FEF799FF10BD00001CB520A103C9009073
:101530000191092001220821C006FEF78CFF7020CE
:10154000FFF7C6FF01211C2000F009F907211D202B
:1015500000F005F91C2000F04BF81D2000F048F8C1
:101560000A21002000F0FBF80121084600F0F7F8FE
:101570000121022000F0F3F80321084600F0EFF803
:10158000FF21042000F0EBF83C21052000F0E7F8F3
:101590002621062000F0E3F80521684600F0B6F8A1
:1015A00005226946002000F0A5F81CBD1122334435
:1015B00055000000F8B5092715460E460446FF06FB
:1015C000002210213846FEF746FF204600F08EFD2F
:1015D000002405E0FF2000F089FD3055641CE4B2D2
:1015E000AC42F7D3012210213846FEF734FFF8BD94
:1015F00070B509250446ED06002210212846FEF7A5
:101600002AFF204600F072FDFF2000F06FFD044627
:10161000012210212846FEF71EFF204670BD70B53E
:101620000925ED06002210212846FEF714FF0720A9
:1016300000F05CFD0446012210212846FEF70BFF56
:10164000204670BD70B5092605460024F6062246E0
:1016500010213046FEF7FFFEE22000F047FD012298
:1016600010213046FEF7F7FE07E06420FEF70AFE81
:101670002046641CE4B21E281ED004213046FEF72A
:10168000E5FE0028F1D10720FFF7B2FF044601462E
:10169000072000F064F8600616D56020FFF7A8FF69
:1016A0000446024629466120FFF784FFFF21E2201D
:1016B00000F055F8204670BDFFF727FFFFF734FF15
:1016C000012000F003F8DEE7002070BD10B50446ED
:1016D0000020FFF78DFF0146002C02D0012C03D023
:1016E00004E04108490001E001200143002000F02E
:1016F00036F810BD10B5052A00D90522052800D9F5
:1017000005200A30C0B200F00BF810BD10B5052955
:1017100000D905210A460146102000F001F810BD4D
:10172000F8B5092715460E460446FF06002210218B
:101730003846FEF790FE20462021084300F0D6FCF4
:10174000002404E0305D00F0D1FC641CE4B2AC4243
:10175000F8D3012210213846FEF77DFEF8BD70B5A2
:1017600009250E460446ED06002210212846FEF704
:1017700072FE20462021084300F0B8FC304600F0FD
:10178000B5FC012210212846FEF765FE70BD7047AA
:10179000F8B50F460B461546009203210446002279
:1017A000C90200F01BF82026002812D13B46002277
:1017B00080212046009500F07DF8002809D1032102
:1017C0003B46002249022046009500F007F8002819
:1017D00003D0206E304320660320F8BDFFB585B0EE
:1017E0000E460446002069460E9D17460871FEF716
:1017F00039FE411B0898451AFEF734FE0390206815
:1018000023210C3002902A4800684843000D6843A9
:1018100046E003204002864206D1002F04D1029800
:1018200001786846017100790898401C39D0FEF7AC
:1018300019FE0399401AA84205D2002D03D0009842
:1018400000282BD02BE020684168E02291434160C2
:101850006068C11FFD390CD10121A068C90388420D
:1018600002D04911884204D1206801684022914386
:1018700001600120A16A4003814207D121680A6802
:1018800082430A6021680A6802430A6001204034EA
:10189000607700202077032009B0F0BD0025401EAE
:1018A0000090206880683040B842B2D10020F3E751
:1018B00014000020FFB581B01E4604460A9DFEF7C5
:1018C000D1FD401B351AFEF7CDFD074626480068BE
:1018D0004001000D684339E0701C38D0FEF7C2FDAE
:1018E000C01BA84205D2002D03D0009800282BD0A1
:1018F0002BE020684168E022914341606068C11F8D
:10190000FD390CD10121A068C903884202D04911D8
:10191000884204D12068016840229143016001207F
:10192000A16A4003814207D121680A6882430A60A4
:1019300021680A6802430A60012040346077002071
:101940002077032005B0F0BD0025401E00902068E0
:1019500081680298884305D0002103988142BBD159
:101960000020EFE70121F8E714000020704710B5D0
:10197000FEF77EFD10BD70B594B030216846FEF7CD
:101980000DFC00240E941394102009940225049059
:101990000D940F940520129401260095C0040C9418
:1019A000109403960A90119408950B946846FEF7DC
:1019B00005FF07200C900E9401210D950F940CA8A3
:1019C000FEF728FE10A810961294FEF7AFFD14B093
:1019D00070BD704710B5818CC90707D001684A688F
:1019E00001235B049A43836A1A434A60818C890706
:1019F00007D501684A6801231B049A43C36A1A4346
:101A00004A60818C490707D501684A6801239B0415
:101A10009A43036B1A434A60818C090707D5016812
:101A20004A680123DB039A43436B1A434A60818C63
:101A3000C90607D50268916801231B039943836B8C
:101A400019439160818C890607D501688A68012352
:101A50005B039A43C36B1A438A60818C490612D593
:101A600003685A6801210905046C8A4322435A60BD
:101A7000026C8A4207D10268516803235B059943CF
:101A8000436C19435160818C090607D501684A6887
:101A90000123DB04806C9A4302434A6010BD0000BE
:101AA000F8B50446002680300660FEF7DBFC0546EC
:101AB00020680068124F000709D501212B4600223B
:101AC00049052046009700F0DBF900280DD1206879
:101AD000006840070BD501212B46002289052046CE
:101AE000009700F0CDF9002801D00320F8BD202098
:101AF000A067E0672666603426750020F8BD000008
:101B0000FFFFFF0110B5406A0022014640314A83C1
:101B10004A82FFF7D0F910BD10B5EFF31081012212
:101B200082F3108802681368FF242134A3431360F2
:101B300081F31088EFF31081012282F3108802688C
:101B400093685B085B00936081F31088016E012944
:101B50000BD1EFF31081012282F310880268136821
:101B60001024A343136081F310882021C167002152
:101B70000166416610BD70B5014640318B8BC46F64
:101B80000268222C04D0906908210843906170BD3E
:101B9000928C446D1A402280426D921C42654A8BA1
:101BA000521E4A834A8B002AF1D1EFF3108201239F
:101BB00083F3108803681C68FF252135AC431C6043
:101BC00082F31088EFF31082012383F310880368F7
:101BD0009C68640864009C6082F310882022C267BD
:101BE00000224266036E012B02D0FFF74DFB70BD51
:101BF0000266EFF31082012383F3108804682568DE
:101C000010239D43256082F310880268D469E44361
:101C1000E40600D41362098BFFF74CF970BD70B570
:101C2000014640318B8BC46F0268222C04D090692E
:101C300008210843906170BD928C1A40436D1A7060
:101C4000426D521C42654A8B521E4A834A8B002ABF
:101C5000F1D1EFF31082012383F3108803681C682D
:101C6000FF252135AC431C6082F31088EFF310820E
:101C7000012383F3108803689C68640864009C60F7
:101C800082F310882022C26700224266036E012B75
:101C900002D0FFF7F9FA70BD0266EFF3108201235C
:101CA00083F310880468256810239D43256082F320
:101CB00010880268D469E443E40600D41362098BF7
:101CC000FFF7F8F870BD000070B504468068216920
:101CD000E2690843616900251143084321680A68E5
:101CE0003C4B1A4002430A602168486803221203F1
:101CF0009043E26810434860A169206A0843216864
:101D00008A680B231B029A4302438A603248006BA5
:101D10008007800F16D0012818D0022818D0032879
:101D200012D010210120E369C0032C4A2C4E8342BB
:101D30002BD100290ED002290FD004290FD0082959
:101D40003FD110E00021EDE70221EBE70421E9E7B4
:101D50000821E7E7FEF7E2FC03E0104603E0FEF7A8
:101D6000EDFC002831D0616840004A088018FEF779
:101D7000B7F980B201461039B14222D81849491C3E
:101D800001400007400F08431DE0002906D002294A
:101D900007D0042907D0082913D108E0FEF7BEFCBC
:101DA00003E0104603E0FEF7C9FC00280DD061688F
:101DB0004A081018FEF794F980B201461039B14272
:101DC00001D9012501E02168C86000206066A06695
:101DD000284670BDF369FFFF0010024000127A0030
:101DE000EFFF000070B54165014640310A834A8328
:101DF00000224266012385681B03FF249D4204D113
:101E00000569002D31D11B4C2FE0002D29D08A838C
:101E100080210A502221C167EFF31081012484F34D
:101E200010880468A56801263543A56081F31088F1
:101E30008168994202D10169002918D00E49416692
:101E400074210A54EFF31081012282F31088006894
:101E50000268FF2321331A43026081F310880020B7
:101E600070BD0569002D00D07F248C83D0E7034925
:101E7000E5E70000FF0100001F1C0008771B0008B9
:101E8000FFB581B005461746044660350A9E55E009
:101E9000701C53D0FEF7E6FA0499401AB04230D8CD
:101EA000002E2ED020680168490747D5C069C0437D
:101EB000000543D401202168C0020862EFF31080BE
:101EC000012181F3108821680B68FF22A13293431E
:101ED0000B6080F31088EFF31080012181F31088EC
:101EE00021688A68520852008A6080F31088202096
:101EF000A067E0678034206000202875032005B0CB
:101F0000F0BDEFF31080012181F3108821680B6888
:101F1000FF22A13293430B6080F31088EFF310800F
:101F2000012181F3108821688A68520852008A6072
:101F300080F310882020A067E067DDE72068C16992
:101F40000298884304D00020B842A1D00020D6E7F0
:101F50000120F9E710B50248FEF7AEFF10BD000002
:101F6000E8000020F8B5040C8BB2264682B25E432E
:101F70000D0C1046370C5843360480190021794166
:101F800016466E43370C36048019794126466E4357
:101F90008919F8BD8307FF22DB0E9A408907090ED5
:101FA0009940002808DB830809489B001B18186823
:101FB00090430843186070470007000F08388308F3
:101FC00004489B001B18D86990430843D8617047A8
:101FD00000E400E000ED00E002E008C8121F08C1C4
:101FE000002AFAD170477047002001E001C1121F9A
:101FF000002AFBD170470000FEF742FAFFF7BBFC56
:10200000FFF7C6F9FFF7FAF9FFF71EFA3448006840
:10201000016820221143016032493148FFF702F97B
:10202000FFF773FAFFF780FAFFF72CFA2E490880C2
:102030000120FFF74BFB2B4C20342A482030FFF7C0
:1020400001FB2078A328F8D1207F3A28F5D16078C9
:10205000A17800024018234940310880E0782279B5
:102060000002801848806079A27900028018888078
:10207000E079227A00028018C880607AA27A000291
:1020800080180881E07A227B000280184881607BFA
:10209000A27B000280188881E07B08751248227CB0
:1020A000001D0270627C4270A27C8270E27CC27071
:1020B00002688A61227D0270627D4270A27D827018
:1020C000E27DC2700268CA61227E0270627E427046
:1020D000A27E8270E27EC27000680862ADE70000F6
:1020E000E8000020200000200000002001B582B0A0
:1020F00005480090012301AA02A90448FEF7C8FD83
:10210000684600790EBD0000FFFF0000840000203B
:102110000000000000000000010203040607080997
:102120000000000001020304482100080000002014
:1021300020000000D81F00086821000820000020AF
:1021400050050000E81F000800000000000000002B
:1021500001000000040000000000000000127A00EE
:08216000000000000000000077
:04000005080000B13E
:00000001FF
