:020000040800F2
:1000000070040020450100086D0300086503000826
:10001000690300088D010008430C0008000000007F
:10002000000000000000000000000000750800084B
:100030009101000800000000B906000889090008C5
:100040005F0100085F0100085F0100085F01000810
:100050005F0100085F0100085F0100085F01000800
:100060005F0100085F0100085F0100085F010008F0
:100070005F0100085F0100085F0100085F010008E0
:100080005F0100085F0100085F0100085F010008D0
:100090005F0100085F0100085F0100085F010008C0
:1000A0005F0100085F0100085F0100085F010008B0
:1000B0005F010008ED0900085F0100085F0100080A
:1000C0005F0100085F0100085F0100085F01000890
:1000D0005F010008390A00085F0100085F0100089D
:1000E0005F0100085F0100085F0100085F01000870
:1000F0005F0100085F0100085F0100085F01000860
:100100005F0100085F0100085F0100085F0100084F
:100110005F0100085F0100085F0100085F0100083F
:100120005F0100085F0100085F0100085F0100082F
:10013000DFF80CD000F018F800480047910D0008D7
:10014000700400200648804706480047FEE7FEE7A7
:10015000FEE7FEE7FEE7FEE7FEE7FEE7FEE7FEE777
:100160008D09000831010008064C074D06E0E068E3
:1001700040F0010394E8070098471034AC42F6D3EE
:10018000FFF7DAFFE40D0008040E000800BFFEE7E9
:100190007047000010B5044800F04AFDC4B2214683
:1001A000014800F04AFD10BD0038014001490860D7
:1001B00070470000140401402DE9F041024600257B
:1001C0000026002000230024002791F803C00CF033
:1001D0000F0591F803C00CF0100CBCF1000F03D018
:1001E00091F802C04CEA050591F800C0BCF1000F7F
:1001F00031D0146800202BE04FF0010C0CFA00F312
:10020000B1F800C00CEA03069E4220D183004FF0F3
:100210000F0C0CFA03F7BC4305FA03FC4CEA040488
:1002200091F803C0BCF1280F06D14FF0010C0CFA75
:1002300000FCC2F814C00AE091F803C0BCF1480FFA
:1002400005D14FF0010C0CFA00FCC2F810C0401CA4
:100250000828D1D31460B1F800C0BCF1FF0F34DD21
:10026000546800202EE000F1080C4FF0010808FA55
:100270000CF3B1F800C00CEA03069E4221D18300C2
:100280004FF00F0C0CFA03F7BC4305FA03FC4CEAE1
:10029000040491F803C0BCF1280F05D100F1080C4B
:1002A00008FA0CF8C2F8148091F803C0BCF1480FAA
:1002B00007D100F1080C4FF0010808FA0CF8C2F859
:1002C0001080401C0828CED35460BDE8F0810000A7
:1002D000F0B50A46002300240021002500F0004666
:1002E000B6F1004F02D11D4EF16901E01B4E71685D
:1002F000C0F3034583B200F44016B6F5401F08D1A1
:1003000021F07061154E766826F07066134F7E609E
:1003100012E000F48016B6F5801F06D1032606FA17
:1003200005F4A14341F0706106E0460D360103FA81
:1003300006F6B14341F0706122B1460D360103FA71
:1003400006F6314300F00046B6F1004F02D1034EED
:10035000F16101E0014E7160F0BD0000000001405C
:100360000161704700BFFEE700BFFEE77047000075
:1003700010B505220D49302000F026F905220B4961
:10038000102000F0D3F8002406E00848005DAA28F9
:1003900000D003E0601CC4B2052CF6DB00BF052CC6
:1003A00001D0012010BD0020FCE70000300000203B
:1003B00008B50121142000F081F90121080300F0A3
:1003C0007DF90121084600F079F901213A48FFF74B
:1003D0007FFF2020ADF8000018208DF803000320D7
:1003E0008DF8020069463548FFF7E6FE20213348C4
:1003F000FFF7B6FF4020ADF8000069462F48FFF731
:10040000DBFE40212D48FFF7ABFF8020ADF8000058
:1004100069462A48FFF7D0FE80212848FFF7A0FF51
:100420001020ADF800008DF8030003208DF80200C5
:1004300069462348FFF7C0FE10212148FFF790FFCF
:100440001020ADF8000069461C48FFF7B5FE1021EA
:100450001A48FFF785FF0220ADF8000048208DF80C
:10046000030069461548FFF7A7FE02211348FFF76E
:1004700077FF0020134908804FF4827048800020E5
:100480008880C88008814FF40070488110208881DE
:100490000020C881072008820B4800F0CDF9012117
:1004A000094800F0AFF90020084908600120084918
:1004B000C1F8900108BD00000002300000080140B2
:1004C00000100140580000200030014090012142FE
:1004D0000000224210B50020114908600522114990
:1004E0002A2000F071F80121212000F08BF8012171
:1004F000222000F087F82821252000F083F8202111
:10050000312000F07FF80F21262000F07BF80F212A
:10051000202000F077F801200349C1F8900110BDB8
:1005200090012142DD0D0008000021422DE9F0413B
:1005300007460D46164600200A490860384600F076
:1005400037F98046002405E0FF2000F031F92855F6
:10055000601CC4B2B442F7DB012002490860404687
:10056000BDE8F0819001224270B5044600200749A1
:100570000860204600F01CF9FF2000F019F905463C
:1005800001200349C1F89001284670BD9001224224
:100590000000224270B504460720FFF7E5FF05463C
:1005A0002946272000F02EF805F0400050B1202207
:1005B00021466120FFF7BAFFFF21E22000F022F878
:1005C000002070BD0120FCE72DE9F04107460C46F4
:1005D000154600200A490860384600F0E9F88046D0
:1005E000002605E014F8010B00F0E2F8701CC6B21A
:1005F000AE42F7DB0120024908604046BDE8F081C9
:100600009001224270B505460C460020074908605B
:10061000284600F0CDF80646204600F0C9F8012033
:100620000349C1F89001304670BD0000900122429C
:100630000000224270B5002100230F22C47804B3C9
:10064000154C246804F4E064C4F5E064210AC1F1A7
:100650000403CA40447804FA03F184781440214327
:1006600009010E4C0678A155047804F01F050124F9
:10067000AC4005786D11AD0005F1E025C5F80041ED
:1006800009E0047804F01F050124AC40044D06780D
:10069000761145F8264070BD0CED00E000E400E066
:1006A00080E100E002490143024A11607047000006
:1006B0000000FA050CED00E07047000029B1064A81
:1006C00092690243044B9A6104E0034A92698243AF
:1006D000014B9A61704700000010024030B50021C4
:1006E0000022002400232D4D6D6805F00C0121B17E
:1006F000042905D0082923D105E0294D056022E011
:10070000274D05601FE0254D6D6805F47012234DDF
:100710006D6805F48034022505EB92421CB9214D29
:10072000554305600BE01D4D6D6805F400351DB1A6
:100730001C4D5543056002E0194D5543056002E02C
:10074000174D056000BF00BF144D6D6805F0F00146
:100750000909154D6B5C0568DD4045600F4D6D68FE
:1007600005F4E061090A104D6B5C4568DD40856069
:100770000A4D6D6805F46051C90A0B4D6B5C456804
:10078000DD40C560054D6D6805F44041890B074D9E
:100790006B5CC568B5FBF3F5056130BD0010024028
:1007A00000127A0000093D001800002028000020F7
:1007B00070B50546002405E0601CC4B2C82C01DDFC
:1007C000002070BD02210E4800F028F80028F3D068
:1007D00029460B4800F02EF8002405E0601CC4B246
:1007E000C82C01DD0020ECE70121054800F016F8D7
:1007F0000028F3D0024800F01AF8C0B2E1E7000088
:100800000030014021B1028842F04002028004E041
:1008100002884FF6BF731A400280704702460020DC
:1008200013890B400BB1012000E000207047014606
:10083000888970478181704710B50022028802F4D0
:1008400041520B884C8823438C882343CC88234314
:100850000C8923434C8923438C892343CC8923432C
:100860001A430280838B4FF2FF74234083830B8AE9
:10087000038210BD704710B500F002F810BD0000F3
:100880000CB50020019000903348006840F480309F
:100890003149086000BF3048006800F40030009023
:1008A0000198401C0190009818B90198B0F5A06F0C
:1008B000F1D12948006800F4003010B10120009007
:1008C00001E0002000900098012843D123480068EF
:1008D00040F01000214908600846006820F003003D
:1008E00008600846006840F0020008601A48406846
:1008F000194948600846406848600846406840F426
:10090000806048600846406820F47C1048600846D3
:10091000406840F4E81048600846006840F0807085
:10092000086000BF0C48006800F000700028F9D093
:100930000948406820F003000749486008464068BD
:1009400040F00200486000BF0348406800F00C001F
:100950000828F9D10CBD0000001002400020024020
:10096000042808D14FF0E021096941F004014FF05B
:10097000E022116107E04FF0E021096921F0040154
:100980004FF0E022116170477047000010B5134826
:10099000006840F0010011490860084640681049AD
:1009A00008400E494860084600680E4908400B4957
:1009B00008600846006820F4802008600846406807
:1009C00020F4FE0048604FF41F008860FFF753FFDB
:1009D0004FF000600449086010BD000000100240A4
:1009E0000000FFF8FFFFF6FE08ED00E010B5012162
:1009F000054800F00EF828B100F01CF8012102486B
:100A000000F004F810BD000000040040CA43028258
:100A1000704730B50246002000230024158A05EAFD
:100A20000103958905EA010413B10CB1012000E02E
:100A3000002030BD7047000010B540F22551054838
:100A400000F03BF828B1FFF7A5FB40F22550FFF777
:100A5000ADFB10BD0038014070B505460E460024C0
:100A600000BF0BE0295D074800F0E7F800BF402118
:100A7000044800F015F80128F9D1641CB442F1DBF8
:100A800070BD00000038014021B1828942F400525B
:100A9000828104E082894DF6FF731A40828170479B
:100AA00002460020B1F5007F00D100BF13880B4043
:100AB0000BB1012000E00020704770B50246002411
:100AC00000230025002040F66A16B14200D100BF85
:100AD000C1F3421501F01F03012606FA03F3012DAD
:100AE00002D19689334006E0022D02D1168A3340A6
:100AF00001E0968A33400C12012606FA04F41688A7
:100B0000344013B10CB1012000E0002070BDF0B5FD
:100B10000346002400260025002040F66A17B9424B
:100B200000D100BF1846C1F3421401F01F0601278F
:100B300007FA06F5012C01D10C3004E0022C01D19A
:100B4000103000E014301AB107682F43076002E04C
:100B50000768AF430760F0BD2DE9F04786B0054652
:100B60000E460024A24600BFA1460027B08900B16E
:100B700000BF2F462C8A4CF6FF700440F0880443D7
:100B80002C82AC894EF6F3100440B08831890843BA
:100B9000718908430443AC81AC8A4FF6FF4004409E
:100BA000B0890443AC8201A8FFF798FD1F48874233
:100BB00002D1DDF810A001E0DDF80CA0A88900F456
:100BC000004040B10AEBCA0000EB0A10316849004E
:100BD000B0FBF1F807E00AEBCA0000EB0A1031683D
:100BE0008900B0FBF1F86420B8FBF0F004012009A3
:100BF000642101FB1089A88900F4004040B1322033
:100C000000EBC900B0FBF1F000F00700044308E07E
:100C1000322000EB09106421B0FBF1F000F00F006E
:100C200004432C8106B0BDE8F08700000038014085
:100C300001468888C0F308007047C1F3080282802B
:100C4000704700BFFEE702E008C8121F08C1002A73
:100C5000FAD170477047002001E001C1121F002A3D
:100C6000FBD170471FB50446012144F20400FFF791
:100C700025FD4FF40070ADF80C0003208DF80E0038
:100C800018208DF80F0003A91B48FFF795FA4FF4C1
:100C90008060ADF80C0004208DF80F0003A9164801
:100CA000FFF78AFA25208DF80C0003208DF80D003F
:100CB0008DF80E0001208DF80F0003A8FFF7BAFC95
:100CC00000940020ADF80400ADF80600ADF808006F
:100CD000ADF80C000C20ADF80A0069460748FFF794
:100CE0003BFF012240F225510448FFF710FF01218C
:100CF0000248FFF7C9FE1FBD00080140003801404F
:100D000010B56FF00400FFF72BFE0A4800680A498F
:100D1000B0FBF1F0094908700846007800EB40018B
:100D2000C1EBC0104FF6FF7101EAC0000449088012
:100D300010BD00000400002000127A002C000020EA
:100D40002E0000200146114A12884A434FF0E0234A
:100D50005A6100229A611A46126942F001021A6130
:100D600000BF4FF0E022106900F001021AB100F458
:100D70008032002AF5D04FF0E022126922F0010201
:100D80004FF0E0231A6100229A6170472E00002084
:100D90004FF4A060FFF786FC4FF4E130FFF762FFED
:100DA000FFF7AEFFFFF704FBFFF7E2FA0849088000
:100DB000FFF790FB0AE00748FFF7ECFB18B920218A
:100DC0000448FFF749FE0520FFF7BCFFF3E70000EA
:100DD0000000002038000020112233445511223336
:100DE00044550000040E00080000002038000000F8
:100DF000460C00083C0E00083800002038040000B3
:100E0000560C00080000000000A24A040000000088
:100E100000000000010203040607080900000000AA
:100E2000010203040102030406070809020406087C
:0C0E300000000000AAAAAAAAAA00000064
:0400000508000131BD
:00000001FF
