:020000040800F2
:1000000068050020C5000008E11A0008C1190008B1
:1000100000000000000000000000000000000000E0
:100020000000000000000000000000008D1F00081C
:100030000000000000000000231D00088F1F0008C2
:10004000D700000800000000D7000008D700000813
:10005000D7000008D7000008D7000008D700000824
:1000600000000000D7000008D7000008D7000008F3
:10007000D7000008D7000008D700000800000000E3
:10008000D70000080000000000000000D7000008B2
:1000900000000000D7000008D7000008D7000008C3
:1000A00000000000D7000008000000008D270008B5
:1000B0000348854600F08EF8004800477128000884
:1000C000680500200448804704480047FEE7FEE733
:1000D000FEE7FEE7FEE7FEE719200008B100000892
:1000E00030B50B46014600202022012409E00D46D0
:1000F000D5409D4205D31D469540491B2546954058
:1001000040191546521E002DF1DC30BDF0B51FB46C
:100110000646002082B005464024019100901BE075
:10012000019922460F46304600F020F8049A059BBC
:10013000801A994110D310461946224600F039F82A
:10014000361A8F410197224601200021009F00F0BE
:1001500030F838184D4100902046641E0028DFDC3E
:10016000019B00982946324607B0F0BD10B5202A01
:1001700004DB0846203AD040002110BD0B46D34096
:10018000D0402024A21A91400843194610BDD2B293
:1001900001E00270401C491EFBD270470022F6E7C6
:1001A00010B513460A4604461946FFF7F0FF2046ED
:1001B00010BD10B5202A04DB0146203A91400020F2
:1001C00010BD914020239C1A0346E3401943904000
:1001D00010BD0000064C0125064E05E0E36807CC83
:1001E0002B430C3C98471034B442F7D3FFF764FF1D
:1001F0003029000850290008704701462120405C42
:10020000022808D00420886300BF00222020425426
:1002100000BF01207047086800680E2290430A68FA
:10022000106008680068400840000A6810600120FB
:100230000A6C9040CA6B506001222120425400BFDA
:1002400000222020425400BF0020E3E770B504469E
:1002500000252120005D022803D00420A063012591
:100260001EE0206800680E2188432168086020682D
:10027000006840084000216808600120216C884027
:10028000E16B486001212120015500BF00212020A1
:10029000015500BF606B002802D02046616B884783
:1002A000284670BD70B5044600F010F90646254694
:1002B000681C002802D0054800782D1800BF00F007
:1002C00005F9801BA842FAD370BD00002C00002065
:1002D00078B503460A460021DFE001268E40146807
:1002E0003440002C7ED01579AD07AD0F012D04D020
:1002F0001579AD07AD0F022D18D198684E00032572
:10030000B5400646AE4330464E00D568B54028435A
:100310009860586801258D400646AE433046102649
:10032000556835402D098D40284358601579AD0733
:10033000AD0F032D0BD0D8684E000325B5400646FF
:10034000AE4330464E009568B5402843D8601579D5
:10035000AD07AD0F022D15D1CD08AE001D462035DD
:10036000A8594D07EE0E0F25B5400646AE43304660
:100370004E07F60E1569B5402843CD08AD001E4660
:100380002036705118684E000325B5400646AE432E
:1003900030461579AD07AD0F4E00B54028431860C3
:1003A0000326360455683540002D75D000BF3E4DFC
:1003B000AD69012635433C4EB5613546AD69ED0763
:1003C000ED0F009500BF00BF384D8E08B600A8594C
:1003D0008D072E0F0F25B5400646AE433046092542
:1003E000ED0600E058E0AB4201D100250FE0304DB2
:1003F000AB4201D101250AE02E4DAB4201D10225CD
:1004000005E02D4DAB4201D1032500E005258E0707
:10041000360FB5402843254D8E08B600A851274D0C
:1004200028680546A5432846012636045568354008
:10043000002D02D0054625432846204D28606868D7
:100440000546A54328460126760455683540002D0B
:1004500002D0054625432846184D6860A868054621
:10046000A54328460126360555683540002D02D0A3
:10047000054625432846114DA860E8680546A54372
:1004800028460126760555683540002D02D00546E0
:1004900025432846094DE860491C1568CD40002DCC
:1004A00000D01AE778BD00000010024008000140AB
:1004B0000004004800080048000C00480004014007
:1004C000002A01D0816100E0816270470148006824
:1004D00070470000240000200348006803490978A1
:1004E0004018014908607047240000202C000020BB
:1004F00010B5064800681021084304490860002030
:1005000000F006F800F02EF8002010BD0020024098
:1005100070B50446104801787D20C000FFF7E0FD6B
:10052000064631460D480068FFF7DAFD054600F043
:10053000EFFE002801D0012070BD042C07D200225C
:100540002146501E00F03CF80548046001E00120FF
:10055000F2E70020F0E700002C000020300000202F
:100560002800002008B500BF0D488069012108431C
:100570000B49886108468069C007C00F009000BF22
:1005800000BF00BF0846C069090408430449C861A8
:100590000846C06909040840009000BF00BF08BDBC
:1005A000001002400146002905DBCB06DB0E0122CC
:1005B0009A40024B1A6000BF7047000000E100E063
:1005C00070B504460D4616462946204602F0FEF850
:1005D00070BD0000F8B5044600260025012109047D
:1005E0002068084088427AD100274B48C069090337
:1005F000084000280DD100BF4748C069084346495C
:10060000C8610846C06909040840009000BF00BFE7
:10061000012742480068FF2101310840002816D117
:100620003E48006808433D490860FFF74FFF064613
:1006300006E0FFF74BFF801B642801D90320F8BDBB
:1006400036480068FF21013108400028F1D03248C7
:10065000006A0321090208400546002D2DD060687C
:100660000840A84229D02C48006A884305462A48F9
:10067000006A012109040843274908620846006A04
:100680000121090488432449086208460562E807F5
:10069000C00F002811D0FFF719FF064607E0FFF74B
:1006A00015FF801B1E49884201D90320C7E71A485D
:1006B000006A022108400028F1D01748006A03218F
:1006C000090288436168084313490862012F05D174
:1006D0000846C069090488430F49C86100BF2078F3
:1006E000C007C00F002807D00B48006B80088000AF
:1006F000A168084308490863202120680840202891
:1007000007D10548006B10218843E168084302497E
:100710000863002093E700000010024000700040D2
:100720008813000070B504460D46002C01D101204D
:1007300070BD52480068C007C00FA8420ED24F4893
:1007400000684008400028434C490860084600689B
:10075000C007C00FA84201D00120E9E702212068AC
:100760000840022814D1042120680840042807D139
:1007700043484068072109028843401840494860BF
:100780003F484068F0218843A16808433C494860DD
:100790002078C007C00F00283BD06068012808D12E
:1007A00037480068012149040840002815D101207C
:1007B000BEE76068022808D1314800680121490677
:1007C0000840002809D10120B2E72D480068022125
:1007D0000840002801D10120AAE729484068800884
:1007E00080006168084326494860FFF76FFE0646AF
:1007F00007E0FFF76BFE801B2249884201D90320E6
:1008000096E71F4840680C210840616889008842CB
:10081000EFD11A480068C007C00FA8420ED9174888
:1008200000684008400028431449086008460068F2
:10083000C007C00FA84201D0012079E70421206839
:100840000840042808D10E4840680721090288435F
:10085000E16808430A49486000F032F808494968ED
:10086000F02211400909084A515CC8400749086054
:100870000020FFF74DFE00205AE700000020024054
:1008800000100240881300000C29000830000020EE
:1008900001480068704700003000002000B5FFF7F5
:1008A000F7FF05494968072212021140090A034A65
:1008B000515CC84000BD0000001002401C29000827
:1008C000F0B589B027A001460EC9C06805AC0EC4BA
:1008D000089028A001460EC9C06801AC0EC404905F
:1008E00000240025002700260020009025484468A9
:1008F0000C20204000282DD0042802D0082828D120
:1009000002E02148009028E00F2080042040800C65
:1009100005A90E5C1B48C06A0007000F01A90D5C09
:100920000120000420400121090488420AD12A46FE
:10093000002315481946FFF7E9FB314601F02EFF69
:10094000074604E01148314601F028FF07460097AA
:1009500003E000BF0C48009000BF00BF009809B042
:10096000F0BD000002030405060708090A0B0C0D80
:100970000E0F10100102030405060708090A0B0CEC
:100980000D0E0F100010024000127A0000093D0009
:10099000FEB50446002C01D10120FEBD2078C00721
:1009A000C00F002871D0FC4840680C210840042882
:1009B0000BD0F94840680840082812D1F648406832
:1009C00001210904084088420BD1F3480068012145
:1009D0004904084000286BD06068002868D10120D5
:1009E000DBE700BF6068012807D1EB480068012100
:1009F00009040843E849086031E0606800280ED126
:100A0000E5480068012109048843E3490860084675
:100A10000068012189048843DF4908601FE060689D
:100A200005280ED1DC480068012189040843DA4911
:100A3000086008460068012109040843D649086097
:100A40000DE0D5480068012109048843D2490860B7
:100A500008460068012189048843CF49086000BF27
:100A60006068002812D0FFF731FD054606E0FFF769
:100A70002DFD401B642801D903208EE7C64800687D
:100A80000121490408400028F1D011E0FFF71EFDC4
:100A9000054606E0FFF71AFD401B642801D9032034
:100AA0007BE7BD4800680121490408400028F1D1D6
:100AB000022120680840022861D1B74840680C2113
:100AC000084000280BD0B4484068084008281BD1D3
:100AD000B1484068012109040840002814D1AE48FB
:100AE000006802210840002804D0E068012801D0F5
:100AF000012052E7A8480068F82188432169C9000D
:100B00000843A54908603AE0E068002820D0A248E0
:100B1000006801210843A0490860FFF7D7FC05469B
:100B200006E0FFF7D3FC401B022801D9032034E77D
:100B300099480068022108400028F2D096480068D1
:100B4000F82188432169C90008439349086016E0E9
:100B500091480068400840008F490860FFF7B6FCE4
:100B6000054606E0FFF7B2FC401B022801D903202E
:100B700013E789480068022108400028F2D10821C3
:100B800020680840082831D1E069002817D0824841
:100B9000406A0121084380494862FFF797FC0546F7
:100BA00006E0FFF793FC401B022801D90320F4E67E
:100BB0007948406A022108400028F2D016E07648C1
:100BC000406A4008400074494862FFF77FFC0546D0
:100BD00006E0FFF77BFC401B022801D90320DCE67E
:100BE0006D48406A022108400028F2D104212068A3
:100BF0000840042873D1002001906748C069890625
:100C0000084000280ED100BF6348C069084362490C
:100C1000C8610846C06909040840009000BF00BFD1
:100C2000012001905D480068FF2101310840002843
:100C300016D15A480068084358490860FFF746FC37
:100C4000054606E0FFF742FC401B642801D903205B
:100C5000A3E652480068FF21013108400028F1D086
:100C600000BFA068012806D14B48006A0121084353
:100C7000494908622BE0A06800280CD14648006A68
:100C800040084000444908620846006A042188433D
:100C9000414908621BE0A06805280CD13E48006A63
:100CA000042108433C4908620846006A01210843C0
:100CB000394908620BE03848006A4008400036496C
:100CC00008620846006A042188433349086200BF6D
:100CD000A068002813D0FFF7F9FB054608E02BE0D9
:100CE000FFF7F4FB401B2E49884201D9032054E64C
:100CF0002948006A022108400028F1D011E0FFF7DE
:100D0000E5FB054607E0FFF7E1FB401B244988426D
:100D100001D9032041E62048006A0221084000284A
:100D2000F1D10198012806D11B48C06901210907AA
:100D300088431949C86100BF102120680840102865
:100D400060D1606901282DD11348406B042108430C
:100D5000114948630846406B012108430E49486326
:100D6000FFF7B4FB054606E0FFF7B0FB401B022887
:100D700001D9032011E60848406B022108400028F1
:100D8000F2D00548406BF8218843A169C9000843A7
:100D90000149486336E00000001002400070004046
:100DA000881300006069401D00280FD15A48406B2D
:100DB00004218843584948630846406BF82188431A
:100DC000A169C9000843544948631BE05248406B7D
:100DD00004210843504948630846406B40084000DE
:100DE0004863FFF773FB054606E0FFF76FFB401B08
:100DF000022801D90320D0E54748406B0221084072
:100E00000028F2D1206A00284FD0434840680C21C6
:100E10000840082864D0206A022847D13E4800686C
:100E20000121090688433C490860FFF74FFB05464E
:100E300006E0FFF74BFB401B022801D90320ACE57D
:100E4000354800680121490608400028F1D100BF5B
:100E50003148C06A00090001E16A08432E49C862AE
:100E6000616AA06A08432C4949683D2212049143F3
:100E700008432949486000BF084600680121090667
:100E8000084325490860FFF721FB054606E0FFF708
:100E90001DFB401B022801D903207EE51E48006887
:100EA0000121490608400028F1D033E01A480068C3
:100EB00001210906884318490860FFF707FB05462A
:100EC00006E0FFF703FB401B022801D9032064E57D
:100ED000114800680121490608400028F1D119E0B5
:100EE000206A012800D158E50B484668C76A0120EE
:100EF00000043040616A88420AD13907090FE06A6C
:100F0000814205D10F2080043040A16A884201D07F
:100F1000012042E5002040E50010024070B5044683
:100F2000002C01D1012070BD606A002808D1FF218A
:100F300005316068884200D105E00021E16102E0EE
:100F40000021216161610021A1625D20005D002816
:100F500004D15C200155204600F066F802215D2096
:100F600001552068006840218843216808600721F6
:100F70000902E068884201D9002501E001252D031E
:100F80000F210902E068884206D007210902E068C3
:100F9000884201D00021A162FF210531606808402C
:100FA00021229202A16811400843022221691140C6
:100FB0000843217DC907C90F08431202A1691140E6
:100FC00008433822E169114008438022216A114018
:100FD00008439201A16A1140084321680860A06992
:100FE000000C042108401022616A114008430822C5
:100FF000616B114008430F221202E168114008435F
:101000000121090329400843216848602068C0691C
:101010000121C90288432168C8610020206601219E
:101020005D20015500207EE710B586B004461421EE
:1010300001A8FFF7B3F81949206888422BD100BFF7
:1010400017488069891408431549886108468069F2
:1010500089140840009000BF00BF00BF10484069DD
:10106000490108430E494861084640690121490485
:101070000840009000BF00BFE020019002200290D5
:1010800000200390032004900020059001A909206E
:10109000C006FFF71DF906B010BD0000003001408A
:1010A00000100240FFB585B004461D460E9E01208B
:1010B00001900020009000BF5C20005D012802D15B
:1010C000022009B0F0BD01215C20015500BFFFF7EF
:1010D000FDF907465D20005D02906068039004956D
:1010E000029801280DD0FF2105310398884205D1CF
:1010F000A068002802D10298042802D002200090A3
:10110000FBE00698002804D00798002801D0002DA5
:1011100002D101200090F0E05D20005D042802D0A3
:1011200005215D2001550020206607982064462097
:101130000553442005530698A063E587A587002042
:10114000E064206507210902E068884207D9206829
:1011500040680121090388432168486006E020684F
:10116000406801210903084321684860206800683D
:1011700040210840402804D02068006808432168C6
:10118000086007210902E068884254D96068002895
:1011900002D00498012809D1A06B00882168C8609A
:1011A000A06B801CA063E08F401EE0873BE02068BE
:1011B000806802210840022811D1E08F00280ED05B
:1011C000019801280BD1A06B00882168C860A06B32
:1011D000801CA063E08F401EE08700200190206803
:1011E0008068C007C00F002812D04620005B00288E
:1011F0000ED02068C068216C0880206C801C2064A0
:101200004620005B401E81B2462001530120019020
:10121000FFF75CF9C01BB04205D3701C002802D058
:101220000320009069E0E08F0028C0D14620005BD9
:101230000028BCD155E06068002802D0049801283D
:1012400009D1A06B007821680873A06B401CA063D3
:10125000E08F401EE0873DE0206880680221084062
:10126000022811D1E08F00280ED0019801280BD15F
:10127000A06B007821680873A06B401CA063E08F0E
:10128000401EE0870020019020688068C007C00FE2
:10129000002812D04620005B00280ED02068007B7A
:1012A000216C0870206C401C20644620005B401EAE
:1012B00081B24620015301200190FFF707F9C01BBE
:1012C000B04202D3701C002801D1002E02D10320AD
:1012D000009012E0E08F0028BED14620005B00287D
:1012E000BAD13A463146204600F02EFD002803D000
:1012F000012000902020206600BF01215D200155C3
:1013000000BF00215C20015500BF0098D9E6000015
:1013100070B504462546681E0949884201D9012056
:101320000CE0681E074948610321081F01F04EFACE
:1013300000200449886107200861002070BD00007A
:10134000FFFFFF0000E000E070477047F0B585B098
:1013500004462068C5692068066820688768E048F8
:1013600028400390039800280FD12020284000280F
:101370000BD020203040002807D0606E002802D01B
:101380002046616E884705B0F0BD039800287DD0E7
:10139000F807C00F002803D1D24830400028F6D00B
:1013A000E807C00F00280DD0FF2001303040002892
:1013B00008D00120216808628020005901210843DB
:1013C000802108510220284000280CD0F807C00FC7
:1013D000002808D0022021680862802000590421DA
:1013E0000843802108510420284000280CD0F80729
:1013F000C00F002808D0042021680862802000590E
:10140000022108438021085108202840002810D0DC
:1014100020203040002803D1F807C00F002808D052
:101420000820216808628020005908210843802193
:1014300008510120C002284000280ED0012080065B
:101440003040002809D00120C002216808628020B5
:10145000005920210843802108518020005900288C
:1014600054D020202840002809D0202030400028D7
:1014700005D0606E002802D02046616E884780202B
:101480000059029020688068402100E03FE0084059
:10149000402804D0282102980840002830D0204657
:1014A00000F07AFE2068806840210840402823D15F
:1014B00000BF01F0C7F90190012001F0D5F92068C3
:1014C00080684021884321688860019801F0CCF948
:1014D00000BF206F00280BD08348216F4863206F26
:1014E000FEF7B4FE002811D0206F416B88470DE055
:1014F0002046FFF72AFF09E02046FFF726FF05E018
:101500002046FFF722FF0021802001513BE7206E9B
:1015100001287AD110202840002876D010203040B1
:101520000028FAD0102021680862206880684021D5
:10153000084040286BD1206F0068406880B201905D
:101540000198002860D05820015B019881425BDD42
:101550005A2101980853206F806920284BD000BF82
:1015600001F070F90090012001F07EF92068006818
:10157000FF210131884321680860009801F074F967
:1015800000BF00BF01F05EF90090012001F06CF98E
:10159000206880684008400021688860009801F059
:1015A00063F900BF00BF01F04DF90090012001F088
:1015B0005BF9206880684021884321688860009832
:1015C00001F052F900BF2020E0670020206600BF34
:1015D00001F038F90090012001F046F92068006818
:1015E0001021884321680860009801F03DF900BF90
:1015F000206FFEF702FE5820025B5A20005B101A93
:1016000081B22046FFF7A0FEBDE64CE0FFE7582080
:10161000015B5A20005B081A80B201905A20005BDF
:1016200000283FD0019800283CD000BF01F00AF903
:101630000090012001F018F920680068FF21213195
:10164000884321680860009801F00EF900BF00BFD0
:1016500001F0F8F80090012001F006F92068806898
:101660004008400021688860009801F0FDF800BF44
:101670002020E06700202066606600BF01F0E2F8ED
:101680000090012001F0F0F82068006810218843E4
:1016900021680860009801F0E7F800BF2046019932
:1016A000FFF752FE6FE68020284000280AD08020F5
:1016B0003040002806D0A06E002802D02046A16E3F
:1016C000884760E640202840002807D0402030406E
:1016D000002803D0204600F09EFD54E600BF52E6ED
:1016E0000F080000200100048121000810B5044605
:1016F000002C01D1012010BDA069002800D000E01D
:1017000000BFA06F002805D100217420015520469C
:1017100000F02CF82420A0672068006840084000F2
:1017200021680860204600F073FE012800D1E2E73E
:10173000606A002802D0204600F06FFC20684068F4
:101740000121C90288432168486020688068082117
:101750008843216888602068006801210843216867
:101760000860204600F0D2FCC5E7000010B586B046
:101770000446142101A8FEF711FD1E492068884285
:1017800036D100BF1C4880690121890308431A49EA
:10179000886108468069012189030840009000BFE4
:1017A00000BF00BF14484069C9000843124948619E
:1017B00008464069012149040840009000BF00BF6D
:1017C0000320400201900220029000200390032099
:1017D00004900120059001A90920C006FEF778FDBC
:1017E000002202211B20FEF7EBFE1B20FEF7DAFE93
:1017F00006B010BD0038014000100240F8B50446A4
:101800000D461646E06F20283ED1002D01D0002E57
:1018100001D10120F8BD01210903A068884208D147
:101820002069002805D1E807C00F002801D0012059
:10183000F0E700BF7420005D012801D10220E9E734
:1018400001217420015500BF0020206620684068F7
:10185000C9050840002811D000BF00F0F3FF07467B
:10186000012001F001F82068006801218906084381
:1018700021680860384600F0F7FF00BF324629466D
:10188000204600F085FEC5E70220C3E710B50446F8
:101890000749206888420AD1202206490648FFF7F6
:1018A000ADFF642320220349034800F007F810BD70
:1018B000003801403C000020E0000020FFB583B06C
:1018C00004460D461746A06F202876D1002D01D082
:1018D000002F02D1012007B0F0BD01210903A0684B
:1018E000884208D12069002805D1E807C00F0028E8
:1018F00001D00120EFE700BF7420005D012801D175
:101900000220E8E701217420015500BF002180205A
:1019100001512120A067FEF7D9FD01905020075307
:101920005220075301210903A068884205D120698C
:10193000002802D10026029502E02E4600200290E7
:1019400000BF00217420015500BF21E006980090DF
:10195000002280212046019B00F08AFE002801D051
:101960000320B8E7002E09D102980088C005C00DF9
:10197000216808850298801C029003E03078216875
:101980000885761C5220005B401E81B25220015314
:101990005220005B0028D9D10698009000224021F7
:1019A0002046019B00F064FE002802D0032092E74D
:1019B00003E02020A06700208DE702208BE770471E
:1019C00000BFFEE700B587B0142102A8FEF7E6FBD2
:1019D00000BF1C4840690121490408431949486176
:1019E00008464069012149040840019000BF00BF3A
:1019F00001221A210920C006FEF762FD0220029092
:101A0000012003900490059002A90920C006FEF76A
:101A10005FFC04200290002003900120049002A9A2
:101A20000920C006FEF754FC182002900120039004
:101A300004900320059002A90920C006FEF748FC87
:101A400007B000BD0010024010B5124812490860EE
:101A5000FF200530486000210F48816007210902FE
:101A6000C1600021016141610121490281611021B0
:101A7000C16100210162416281620721C1620021CE
:101A8000016308214163FFF749FA002801D0FEF7FE
:101A9000B3FB10BD003001407C00002010B50E48A3
:101AA0000E490860E1204002486000210B48816037
:101AB000C16001610C21416100218161C16101624C
:101AC0000020064948620846FFF710FE002801D0B2
:101AD000FEF792FB10BD000000380140E00000203E
:101AE0007047000010B505220D49302000F0E1F8E4
:101AF00005220B49102000F077F8002406E0084882
:101B0000005DAA2800D003E0601CC4B2052CF6DBFF
:101B100000BF052C01D0012010BD0020FCE7000013
:101B20003400002070B5044600257020044000F009
:101B300092F80546002210210920C006FEF7C0FCDD
:101B4000272000F0EFF821462943084600F0EAF884
:101B5000012210210920C006FEF7B2FC00F07BF83C
:101B600070BD10B5002208210920C006FEF7A8FCB0
:101B7000012210210920C006FEF7A2FC0A20FEF770
:101B800091FB7020FFF7CEFF10BD000010B50022C2
:101B900008210920C006FEF793FC052211492A20DE
:101BA00000F087F80121212000F0A3F80121222074
:101BB00000F09FF82821252000F09BF820213120FB
:101BC00000F097F80F21262000F093F80F21202035
:101BD00000F08FF8012208210920C006FEF770FCF2
:101BE00010BD000029290008F8B507460D46164625
:101BF000002210210920C006FEF762FC384600F0E2
:101C000091F80090002405E0FF2000F08BF82855A3
:101C1000601CC4B2B442F7DB012210210920C006C7
:101C2000FEF74EFC0098F8BD70B504460022102166
:101C30000920C006FEF744FC204600F073F8FF20A0
:101C400000F070F80546012210210920C006FEF7B9
:101C500037FC284670BD10B5002210210920C006AF
:101C6000FEF72EFC072000F05DF80446012210214B
:101C70000920C006FEF724FC204610BD70B50446BE
:101C80000720FFF7D1FF05462946272000F031F84D
:101C90004020284000280AD0202221466120FFF75A
:101CA000A3FFFF21E22000F024F8002070BD0120F6
:101CB000FCE7F8B507460C4615460022102109201E
:101CC000C006FEF7FDFB384600F02CF80090002619
:101CD00005E02078641C00F025F8701CC6B2AE4206
:101CE000F7DB012210210920C006FEF7E9FB00986E
:101CF000F8BD70B505460C46002210210920C0062B
:101D0000FEF7DEFB284600F00DF80646204600F000
:101D100009F8012210210920C006FEF7D1FB304648
:101D200070BD704701B582B00548012301AA02A920
:101D300000900448FFF7B6F9684600790EBD000030
:101D4000FFFF00007C000020F8B504460E46154653
:101D5000334600220321C9022046009500F02AF8EC
:101D6000002805D0206E2021084320660320F8BDFE
:101D70003346002280212046009500F099F8002883
:101D800005D0206E2021084320660320EFE733466C
:101D90000022032149022046009500F00BF800289C
:101DA00005D0206E2021084320660320DFE70020B5
:101DB000DDE70000F0B585B004460D4616461F4627
:101DC00000200090FEF782FB0A99401A381A03900F
:101DD000FEF77CFB029020680C30019033480068CD
:101DE00023214843000D03994843049056E0032003
:101DF0004002854206D1002E04D10198017800915D
:101E000068460078781C002848D0FEF75FFB0299EE
:101E1000411A0398814202D20398002837D12068E2
:101E20004068E021884321684860FF2105316068EF
:101E300088420ED10121C903A068884203D049110C
:101E4000A068884205D12068006840218843216845
:101E5000086001214903A06A88420DD100BF2068B3
:101E600000688843216808602068006801214903F0
:101E700008432168086000BF01215D20015500BFB3
:101E800000215C20015500BF032005B0F0BD04987F
:101E9000002800D103900498401E049020688068B8
:101EA0002840B042A3D10020EFE70000300000201E
:101EB000FFB583B004460D461E46FEF707FB0C999E
:101EC000401A371AFEF702FB01902F4800684001C4
:101ED000000D7843029049E0701C002846D0FEF7C0
:101EE000F5FA0199401AB84201D2002F37D1206883
:101EF0004068E021884321684860FF21053160681F
:101F000088420ED10121C903A068884203D049113B
:101F1000A068884205D12068006840218843216874
:101F2000086001214903A06A88420DD100BF2068E2
:101F3000006888432168086020680068012149031F
:101F400008432168086000BF01215D20015500BFE2
:101F500000215C20015500BF032007B0F0BD0298AE
:101F6000002800D100270298401E02902068806857
:101F70002840A84201D1012100E0002105988142BA
:101F8000AAD10020E9E7000030000020704710B51A
:101F9000FEF7A2FA10BD00B595B0302109A8FEF7F2
:101FA000FDF800200590069007900890019002909F
:101FB000039004900220099001200C9010200D90B5
:101FC00002201190002112910521C90413910021D2
:101FD000149109A8FEF7DCFC002801D0FEF70CF9EB
:101FE000072005900220069000200790089001210C
:101FF00005A8FEF797FB002801D0FEF7FDF80120A9
:1020000001900020039001A8FEF7E4FA002801D017
:10201000FEF7F2F815B000BD7047818CC907C90FF3
:10202000002908D001684968012252049143826A5C
:102030001143026851600222416A1140022907D10E
:1020400001684968D2039143C26A11430268516032
:102050000422416A1140042907D101684968120429
:102060009143026B1143026851600822416A11409A
:10207000082907D10168496812039143426B114353
:10208000026851601022416A1140102907D101688D
:10209000896812029143826B114302689160202289
:1020A000416A1140202907D10168896812029143D1
:1020B000C26B1143026891604022416A114040297D
:1020C00015D10168496892039143026C114302687B
:1020D000516001221205016C914208D101684968E2
:1020E000032252059143426C1143026851608022E1
:1020F000416A1140802907D1016849681203914360
:10210000826C1143026851607047000038B5044684
:10211000002180200151FEF7D9F9054620680068AA
:102120000821084008280BD114482B4600228904B6
:102130000090204600F09CFA002801D0032038BD12
:10214000206800680421084004280BD10B482B4666
:10215000002209050090204600F08AFA002801D0EC
:102160000320ECE72020A067E0670020206600BF86
:1021700000217420015500BF0020E0E7FFFFFF01B0
:1021800070B505466C6A00215A2001535220015354
:102190002046FFF7DAF870BD70B5044600BF00F0C6
:1021A00051FB0546012000F05FFB20680068FF211D
:1021B0002131884321680860284600F055FB00BFA4
:1021C00000BF00F03FFB0546012000F04DFB2068FA
:1021D00080684008400021688860284600F044FB81
:1021E00000BF206E012810D100BF00F02BFB054678
:1021F000012000F039FB2068006810218843216825
:102200000860284600F030FB00BF2020E067002077
:102210002066606670BD70B5044600BF00F012FB1A
:102220000546012000F020FB20680068402188431B
:1022300021680860284600F017FB00BF2020A06737
:102240000020A0662046FFF7BAFB70BDF8B5044633
:102250005C20075BE06F222862D12068868C656D68
:10226000304638402880606D801C60655A20005BD5
:10227000401E81B25A200153005B002856D100BF96
:1022800000F0E0FA0090012000F0EEFA206800680B
:10229000FF212131884321680860009800F0E4FAAA
:1022A00000BF00BF00F0CEFA0090012000F0DCFA81
:1022B000206880684008400021688860009800F02D
:1022C000D3FA00BF2020E06700206066206E01285E
:1022D00022D10020206600BF00F0B4FA0090012057
:1022E00000F0C2FA20680068102188432168086065
:1022F000009800F0B9FA00BF2068C06910210840BA
:102300000009002802D01020216808625820015BD3
:102310002046FFF719F809E02046FFF7B7FA05E075
:10232000206880690821084321688861F8BDF8B5F4
:1023300004465C20065BE06F222862D12068858C11
:10234000F0B22840616D0870606D401C60655A20D5
:10235000005B401E81B25A200153005B002856D119
:1023600000BF00F06FFA0746012000F07DFA2068F8
:102370000068FF212131884321680860384600F059
:1023800073FA00BF00BF00F05DFA0746012000F0BD
:102390006BFA2068806840084000216888603846F1
:1023A00000F062FA00BF2020E06700206066206E27
:1023B000012822D10020206600BF00F043FA074622
:1023C000012000F051FA206800681021884321683C
:1023D0000860384600F048FA00BF2068C069102144
:1023E00008400009002802D0102021680862582007
:1023F000015B2046FEF7A8FF09E02046FFF746FAFA
:1024000005E0206880690821084321688861F8BDDB
:10241000FEB50446002000902169A0680843616968
:102420000843E16908430290206800685449084065
:102430000299084321680860206840680321090365
:102440008843E168084321684860A0690290206AD7
:10245000029908430290206880680B210902884392
:10246000029908432168886000BF4648006B8007D6
:10247000800F002806D0012808D0022808D00328A1
:1024800008D101E0002707E0022705E0042703E068
:10249000082701E0102700BF00BF00BF0121C903CA
:1024A000E069884239D1002F06D0022F08D0042FCE
:1024B00008D0082F0DD109E0FEF7F0F905460CE031
:1024C000314D0AE0FEF7FCF9054606E00125ED0373
:1024D00003E000250120009000BF00BF002D49D07F
:1024E0006A0063685B08D0186168FDF7F9FD86B281
:1024F000102E0FD3254886420CD824480F38304080
:1025000001903007400F019908430190019821681C
:10251000C8602FE0012000902CE0002F06D0022F91
:1025200008D0042F08D0082F0DD109E0FEF7B6F926
:1025300005460CE0144D0AE0FEF7C2F9054606E038
:102540000125ED0303E000250120009000BF00BF3E
:10255000002D0FD061684A085019FDF7C1FD86B201
:10256000102E05D30948864202D82068C66001E0D3
:102570000120009000206066A0660098FEBD00006B
:10258000F369FFFF0010024000127A00FFFF000015
:10259000F8B504460E4615466665582005535A2080
:1025A00005530020606600BF01210903A06888422E
:1025B0000AD12069002803D12A495C20015314E084
:1025C000FF215C20015310E0A06800280AD1206997
:1025D000002803D1FF215C20015306E07F215C200D
:1025E000015302E000215C20015300BF0021802044
:1025F00001512220E06700BF00F024F907460120C6
:1026000000F032F920688068012108432168886061
:10261000384600F029F900BF01210903A06888426B
:1026200005D12069002802D10F48606601E00F48FB
:10263000606600BF00217420015500BF00BF00F09C
:1026400001F90746012000F00FF920680068FF211A
:102650002131084321680860384600F005F900BFC1
:102660000020F8BDFF0100004D2200082F230008C4
:10267000FFB581B004460D4617460A9E78E0701CEF
:10268000002875D0FDF722FF0499401AB04201D806
:10269000002E2DD100BF00F0D5F80090012000F0F1
:1026A000E3F820680068FF21A131884321680860B1
:1026B000009800F0D9F800BF00BF00F0C3F8009008
:1026C000012000F0D1F820688068400840002168AF
:1026D0008860009800F0C8F800BF2020A067E0677D
:1026E00000BF00217420015500BF032005B0F0BDDC
:1026F0002068006804210840002839D02068C0699B
:1027000049020840C00A002832D008462168086201
:1027100000BF00F097F80090012000F0A5F82068B5
:102720000068FF21A131884321680860009800F00B
:102730009BF800BF00BF00F085F80090012000F07A
:1027400093F82068806840084000216888600098FD
:1027500000F08AF800BF2020A067E06720218020D9
:10276000015100BF00217420015500BF0320BDE7C7
:102770002068C0692840A84201D1012000E0002063
:10278000B84200D17BE70020B0E7000010B5024856
:10279000FEF7DCFD10BD0000E0000020F8B582B2BD
:1027A0008BB2040C0D0C10465843002126465E43A4
:1027B000370C36048019794116466E43370C3604BF
:1027C0008019794126466E438919F8BD10B5002855
:1027D00019DB1A4A03231B02D21883089B00D25824
:1027E0008307DC0EFF23A3409A438B071B0E84074D
:1027F000E40EA3401A43114B032424021B1984083E
:10280000A4001A5118E00E4A03071B0F083B9B084F
:102810009B00D2588307DC0EFF23A3409A438B070B
:102820001B0E8407E40EA3401A43054B0407240F34
:10283000083CA408A4001A5110BD000000E100E00B
:102840001CED00E0EFF31080704702E008C8121F93
:1028500008C1002AFAD170477047002001E001C189
:10286000121F002AFBD1704780F3108870470000C8
:10287000FDF73EFEFFF78FFBFFF7A4F8FFF7E4F844
:10288000FFF70CF91D4800680068202108431B4928
:102890000968086020221A491848FEF7AFFFFFF7C1
:1028A00060F9FFF71FF917490880FFF76FF923E078
:1028B0001548FFF7E3F9002805D1642320221249C7
:1028C0000E48FEF7FBFF0920C006808A04218843DA
:1028D0000921C90688827D20C000FDF7E3FC09209C
:1028E000C006808A04218843001D0921C906888208
:1028F0007D20C000FDF7D6FCDAE70000E0000020F4
:102900003C000020000000205C00002000000000CF
:10291000000000000102030406070809000000008F
:10292000010203041122334455112233445500009F
:1029300050290008000000203C0000004A28000840
:102940008C2900083C0000202C0500005A280008B3
:1029500000000068656C6C6F20776F726C6400001B
:102960000000000000000000000000000000000067
:102970000000000000000000040000000100000052
:0C29800000127A00AAAAAAAAAA0000006D
:04000005080000B13E
:00000001FF
