:020000040800F2
:10000000A8430020DD01000881320008DD2300083C
:100010007D320008B51D0008CF4000080000000038
:100020000000000000000000000000004501000882
:10003000B91D00080000000089010008853E000885
:10004000F7010008F7010008F7010008F7010008B0
:10005000F7010008F7010008F7010008F7010008A0
:10006000F7010008F7010008F7010008F701000890
:10007000F7010008F7010008F7010008F701000880
:10008000F7010008F7010008F7010008F701000870
:10009000F7010008F7010008F7010008F701000860
:1000A000F7010008F7010008F7010008F701000850
:1000B000F7010008F7010008F7010008F701000840
:1000C000F7010008F7010008F7010008F701000830
:1000D000F7010008F53E0008F7010008F7010008E5
:1000E000F7010008F7010008F7010008F701000810
:1000F000F7010008F7010008F7010008F701000800
:10010000F7010008F7010008F7010008F7010008EF
:10011000F7010008F7010008F7010008F7010008DF
:10012000F7010008F7010008F7010008F7010008CF
:10013000DFF80CD000F026FD004800470557000806
:10014000A8430020224B19680868B0E8F00F80F33C
:100150000988BFF36F8F4FF0000080F311884EF0D5
:100160000D0E70470000000006480068006880F32C
:10017000088862B661B6BFF34F8FBFF36F8F00DFA1
:1001800000BF00BF08ED00E0EFF30980BFF36F8F01
:100190000F4B1A6820E9F00F106008B54FF05000BF
:1001A00080F31188BFF34F8FBFF36F8F08F062F9B0
:1001B0004FF0000080F31188BDE808401968086816
:1001C000B0E8F00F80F30988BFF36F8F704700BF6E
:1001D00008040020EFF305807047000006488047C0
:1001E00006480047FEE7FEE7FEE7FEE7FEE7FEE71C
:1001F000FEE7FEE7FEE7FEE7953E00083101000856
:1002000040EA01039B0703D009E008C9121F08C098
:10021000042AFAD203E011F8013B00F8013B521E18
:10022000F9D27047D2B201E000F8012B491EFBD28F
:1002300070470022F6E710B513460A4604461946F1
:10024000FFF7F0FF204610BD421C10F8011B0029EB
:10025000FBD1801A704710B5002200E0521C835C6D
:100260008C5CA34201D1002BF8D1D8B2E1B2401A84
:1002700010BD30B505460020034600E05B1C9342EC
:1002800005D2EC5CC85C201A01D1002CF6D130BD3F
:10029000F0B480EA0102D40F4200B2EB410F02D267
:1002A0000246084611464A0042D0C30DDDB2C1F3F2
:1002B000C752AD1A202D35DAC1F3160141F4000200
:1002C00004B15242C5F1200602FA06F12A41104457
:1002D000B3EBD05F23D0C4B1012DA0EBC35009DC38
:1002E000F0BC4FF0004202EAC352DBB200F500005E
:1002F00000F02FBB400000F1807000EBC350A0F174
:10030000807040EAD170490009E0490841EAC071B3
:10031000A0EBC35000F50000400800EBC350F0BC58
:1003200000F00EBB6142012202EB4101001BF6E727
:10033000F0BC704781F00041AAE780F00040A7E7D9
:1003400080EA010210B502F00043400022D04A00CA
:100350001FD0010E01EB1261C0F35600C2F356022A
:1003600040F4000042F40002A0FB022000047F39A8
:10037000140400D0401C50EA124001D44000491E31
:10038000C2B20C0604EBD010401C4008802A02D0F8
:1003900003E0002010BD20F00100002900DA002059
:1003A000184310BD30B480EA010202F0004530F07D
:1003B000004221F0004013D090B1C30DD40DC2F320
:1003C0001601C0F31600E41A41F4000140F40002E3
:1003D0007D34914201D3641C00E04900002C02DA14
:1003E00030BC002070474FF400000023914201D33D
:1003F000891A034340084FEA4101F7D151B19142B4
:1004000002D14FF0004105E002D24FF0010101E0BE
:100410006FF0010103EBC450284430BC00F090BAE7
:100420002DE9FE4F804681EA0300C00F0C46009084
:1004300021F0004123F00045B8EB0200A94105D2AC
:100440004046214690461C460B46024623F000409B
:10045000104347D0270DC7F30A00C3F30A51029097
:10046000401A019040286BDAC3F3130040F4801B5C
:100470000098924620B10023D2EB030A63EB0B0BEA
:1004800001985946C0F14002504600F028FA06464D
:100490000D4650465946019A00F040FA10EB08000C
:1004A0006141002487EA115284EAE7731A4340D07D
:1004B000009A62B3019A012A4FEA075215DC001B29
:1004C00061EB02014FF0004202EA0752CDE900421F
:1004D000001C41F5801132462B4600F083FA03B030
:1004E000BDE8F08F40462146F9E7001B61EB0201B1
:1004F000001C41F5801300185B412018A2F500177D
:1005000047EB030140EAD570B6196D4111E06D0863
:100510004FEA360645EAC0754FEA0752001B61EB09
:100520000201001C41F5801149084FEA3000001912
:10053000514132462B4603B0BDE8F04F00F043BABC
:100540000098012240000023D0EB020263EBE0732D
:10055000009821464FEAE074B8EB000061EB04011B
:10056000E9E783F000435BE781F0004158E72DE9BC
:10057000FE4F81EA030404F0004421F0004100949E
:100580004FF0000B23F0004350EA01045ED052EA22
:1005900003045BD0C3F30A54C1F30A552C44A4F2FC
:1005A000F3340194A0FB0254C1F3130141F4801110
:1005B000C3F3130343F4801301FB024400FB034E17
:1005C000840A970A44EA815447EA8357A4FB0768E0
:1005D00002958D0A05FB07854FEA932C04FB0C540A
:1005E0002705029D4FEA065847EA1637B5EB08057E
:1005F0006EEB070C870E920E47EA811742EA8312D0
:10060000A7FB0201B6EB0B0164EB00042B0D43EAE0
:100610000C335E1844EB1C50DA465146E7FB0201EE
:10062000C5F313044FEA0B3343EA14534FEA043281
:10063000019C43EA0603A4F10C040294009CCDE95A
:1006400000B400F0CFF903B0BDE8F08F0020014600
:10065000F9E72DE9F04D81EA030404F0004B21F0A5
:10066000004514464FF0000A23F0004150EA05020D
:1006700020D054EA01021DD0C5F30A570246C5F343
:100680001303C1F31300C1F30A5640F4801543F479
:100690008013A7EB0608101BD64608F2FD3873EB53
:1006A000050002D308F1010801E092185B41B8F19E
:1006B000000F03DA00200146BDE8F08D00204FF462
:1006C0008011064684460EE0171B73EB050705D321
:1006D000121B63EB050306434CEA010C49084FEA81
:1006E000300092185B4150EA0107EDD152EA030055
:1006F00012D082EA040083EA0501084305D0101BEA
:10070000AB4106D20122002306E000224FF0004355
:1007100002E06FF0010253101AEB06004CEB085197
:1007200010EB0A0041EB0B01BDE8F04D00F04BB9B6
:10073000C10F80EAE0700844CA079623002100F048
:1007400008B996230022114600F003B90EB5C10F77
:1007500080EAE0700844CA07002140F233438DE884
:100760000E000A460B4600F03DF903B000BD00F054
:10077000004220F00040C10DC0F3160040F400001C
:100780007F2901DA00207047962903DCC1F1960128
:10079000C84001E096398840002AF4D040427047B2
:1007A00070B5C1F30A5201F000450024C1F31301F2
:1007B00040F2FF3341F480119A4201DA002070BD0B
:1007C00040F233439A42A2F2334203DC524200F039
:1007D00095F800E090402C43F1D0404270BD00F00D
:1007E000004230F000400AD0C10D01F56071C0F345
:1007F000160042EA0151C208400711437047002029
:100800000146704701F0004330B421F0004150EA46
:10081000010206D00A0DA2F56072C1F31301002A8D
:1008200002DC30BC00207047440F44EAC104C10020
:10083000E01830BC00EBC25000F082B8002801DBA9
:10084000C0F10040002901DBC1F100418142704745
:1008500030B50B46014600202022012409E021FA90
:1008600002F59D4205D303FA02F5491B04FA02F58D
:100870002844151EA2F10102F1DC30BD2DE9F05F24
:100880000546002092469B468846064681464024FF
:100890001BE0284641464746224600F02FF85346C3
:1008A0005A46C01A914110D311461846224600F00C
:1008B00016F82D1A67EB01084F4622460120002149
:1008C00000F00DF817EB00094E41201EA4F10104C1
:1008D000DFDC484631462A464346BDE8F09F202AE1
:1008E00004DB203A00FA02F1002070479140C2F187
:1008F000200320FA03F3194390407047202A04DBB9
:10090000203A21FA02F00021704721FA02F3D04088
:10091000C2F120029140084319467047202A06DBA5
:10092000CB17203A41FA02F043EAE07306E041FABD
:1009300002F3D040C2F120029140084319467047AB
:100940000029A8BF7047401C490008BF20F00100E3
:10095000704710B4B0FA80FC00FA0CF050EA0104C1
:1009600004BF10BC704749B1CCF1200421FA04F453
:1009700011FA0CF118BF012121430843A3EB0C012C
:10098000CB1D4FEA00614FEA102042BF002010BC8F
:10099000704700EBC35010440029A4BF10BC70473F
:1009A000401C490008BF20F0010010BC7047420005
:1009B00005D0C0F3C7525242914201DC002070477B
:1009C00000EBC150704710B5141E73F1000408DA33
:1009D000401C41F1000192185B411A4301D120F003
:1009E000010010BD2DE9F04D92469B4611B1B1FAC0
:1009F00081F202E0B0FA80F220329046FFF76FFFFA
:100A000004460F4640EA0A0041EA0B0153465A46A3
:100A1000084313D0114653EA010019D0C8F140022F
:100A20005046FFF76BFF05460E4650465946424674
:100A3000FFF755FF084305D0012004E02046394662
:100A4000BDE8F08D0020054346EAE0762C433743AD
:100A50000A986305E40AA0EB08000022FD0A44EAB4
:100A600047540A3002D500200146E9E70105101974
:100A70006941DDE9084500196941BDE8F04DA2E78B
:100A80002DE9F04D00231A461B1A8A4103DB002092
:100A90000146BDE8F08DC1F30A52C1F3130141F4E0
:100AA00080154FF0000BD10702D100186D41521E86
:100AB0000027044640F2FF11384601EB620A3E4629
:100AC0008046024600204FF48011FFF717FFC2193D
:100AD0007141BB1846EB0100B4EB030C75EB000C45
:100AE00004D3E41A65EB000517460E46241908F1F5
:100AF00001006D4180463428E3DDF91946EB06001C
:100B0000091BA84103D24FF0FF32134601E0002237
:100B100013461BEB070046EB0A51BDE8F04DFFF70B
:100B200052BFC1F30A52C1F3130140F2FF3341F443
:100B300080119A4202DA00200146704740F23343A6
:100B40009A42A2F2334202DC5242FFF7D7BEFFF7CD
:100B5000C6BE000030B5041E71F1000404DB4FF086
:100B60000044404264EB0101141E73F1000405DBF4
:100B70001C464FF00043524263EB0403994208BF06
:100B8000904230BD064C074D06E0E06840F001039E
:100B900094E8070098471034AC42F6D3FFF7CCFA3C
:100BA000E8C5000808C60008F0B4002802DCF0BC64
:100BB00000207047C0F3C751C0F3160040F4000096
:100BC000CA0701D14000491E3F2202EB6105002205
:100BD00011464FF4000626FA01F31344D418844258
:100BE00001D8001B1A464000491C1729F3DD5100AB
:100BF000814202D24FF0FF3100E0002102EBC550EC
:100C0000F0BCFFF79DBE70B521F0004303430CD04C
:100C1000C1F30A550024D5EB040564EB0403D61791
:100C2000AD1AB34102DB0020014670BD201841EB34
:100C3000025170BD70B58C1810F8015B15F00703F8
:100C400001D110F8013B2A1106D110F8012B03E065
:100C500010F8016B01F8016B5B1EF9D12B0705D46D
:100C60000023521E0DD401F8013BFAE710F8013BB6
:100C7000CB1A921C03E013F8015B01F8015B521ED2
:100C8000F9D5A142D8D3002070BD21B1826842F0CD
:100C90000102826003E0826822F0010282607047F4
:100CA00010B504461248844208D10121401502F0D3
:100CB0003BFF0021601502F037FF17E00D4884422A
:100CC00008D10121001502F02FFF0021201502F0AC
:100CD0002BFF0BE00848844208D10121C80302F031
:100CE00023FF00214FF4004002F01EFF10BD000062
:100CF0000024014000280140003C01400146002042
:100D00008A6802F004020AB1012000E00020704766
:100D10000146C86C80B270470246002013680B4041
:100D20000BB1012000E000207047014600208A68D6
:100D300002F008020AB1012000E000207047000024
:100D400030B502460020002350680F4C20400D793A
:100D50000C6844EA05242043506090680B4C204006
:100D6000D1E902542C434D7944EA45042043906074
:100D7000D06A20F470000C7C641EE4B2234340EA85
:100D80000350D06230BD0000FFFEF0FFFDF7F1FF21
:100D9000F0B504460D4600200021092D11DDE06864
:100DA000A5F10A0606EB4607072606FA07F188436F
:100DB000A5F10A0606EB460603FA06F10843E060D1
:100DC0000CE0206905EB4507072606FA07F1884382
:100DD00005EB450603FA06F108432061072A0FDAFE
:100DE000606B561E06EB86071F2606FA07F188433E
:100DF000561E06EB860605FA06F10843606322E0FC
:100E00000D2A0FDA206BD61F06EB86071F2606FA7F
:100E100007F18843D61F06EB860605FA06F108435C
:100E2000206310E0E06AA2F10D0606EB86071F269C
:100E300006FA07F18843A2F10D0606EB860605FACD
:100E400006F10843E062F0BD816841F0080181606D
:100E5000704721B1826842F4A002826003E0826898
:100E600022F4A00282607047816841F00401816031
:100E7000704710B500210022002306E0C45C0C443A
:100E8000E1B25418E2B25C1CA3B28488A41D9C4257
:100E9000F4DC83889B1DC1548388DB1DC25480F819
:100EA000321180F8332110BD70B596B00446E07859
:100EB000C02802D0C1283DD12DE0002526E02846DB
:100EC00000F042F80646552231466846FFF798F989
:100ED000A0799DF80010884216D1E0799DF80110A4
:100EE000884211D1207A9DF8021088420CD194F8E2
:100EF000333194F83221E178607800F07BF9DDF845
:100F00005100804716B070BD681C85B200F016F81D
:100F1000A842D4DC0EE0A07918B9607800F03CFB60
:100F200007E0A079012804D1B4F80710607800F038
:100F3000DBF900BF00BF00BFE4E700000148006824
:100F400070470000DC04002000B50146FFF7F6FF03
:100F5000884201DA002000BD014850F82100FAE77C
:100F60002435002010B54FF0FF32002127E016484D
:100F70000088C0EB401000EB8000144B13F8100009
:100F800068B90120104B1B88C3EB431303EB8303A9
:100F90000E4C04F813000C480288104610BD0A4895
:100FA0000088401C084B188004E007480088401F58
:100FB000054B1880044800880528F6DA491C0529E5
:100FC000D5DB4FF0FF30E9E7E6040020643800206D
:100FD000102802D1202900D000BF70477047704709
:100FE00010B50446204600F08FF810BD70B50446D9
:100FF000E078E02802D0E12848D136E0A07918B99D
:10100000607800F045FB2AE0A079012803D16078E0
:1010100000F0A0FD23E0A079022805D1B4F8071064
:10102000607800F013FE1AE0A079032805D1B4F827
:101030000710607800F02CFC11E0A07910280ED188
:10104000B4F80750AA2D01D1FFF7C8FF94F8333147
:1010500094F83221E178607800F0CCF800BFB4F861
:101060000710A079FFF7B4FF10E0E088A16803F053
:10107000B1FD94F8333194F83221E178607800F0D2
:10108000B9F8E088A168FFF7AAFF00BF00BF70BDF4
:101090000148006870470000E004002000B50146E8
:1010A000FFF7F6FF884201DA002000BD014850F842
:1010B0002100FAE79C35002070B50446FFF7E8FFF1
:1010C000A04201DA002070BD0E4850F82400C0682C
:1010D00028B90C4850F8240000680068F3E7094973
:1010E00051F82410C868FFF72CFB0646054850F855
:1010F0002400006801683046FFF722F90546FFF733
:1011000036FBE0E79C35002010B5044638480078EF
:1011100040B9AB2C6AD10120354908704880084697
:10112000047163E032480078012818D130484188C2
:101130004088401C2E4A5080101D4454001F408897
:10114000062853DB10460089B0F5967F03DB0020AC
:10115000114608704AE002202549087046E02448FC
:101160000078022811D1224841884088401C204A3A
:101170005080101D4454001F41880089801D814209
:1011800034DB03201146087030E01948007803284A
:101190000ED1174841884088401C154A5080101DC8
:1011A0004454001F80F836410420114608701DE0A9
:1011B0000F480078042816D10D4841884088401C0B
:1011C0000B4A5080101D4454001F80F83741002006
:1011D00011460870081D03F0DBFC38B10448001DFF
:1011E00003F0A8FC02E000200149087010BD0000D7
:1011F0002C3700202DE9F04706460F4690469946C9
:101200000025FFF7AFFE0446002C68DB0120C4EB8D
:10121000441101EB8101334A02F81100AB20C4EB09
:10122000441101EB810102EB410188700121C4EB03
:10123000441000EB800002EB4000C170C4EB44108E
:1012400000EB8000114601EB400006710021C4EB69
:10125000441000EB800002EB40004171C4EB4410ED
:1012600000EB8000114601EB4000083029466A1C63
:10127000D5B24754C4EB441000EB8000194901EB90
:101280004000083029466A1CD5B200F80180C4EB42
:10129000441000EB8000134901EB40000830294660
:1012A0006A1CD5B200F80190C4EB441000EB80003A
:1012B0000C4901EB4000C580C4EB441101EB8101F6
:1012C000084A02EB4101881CFFF7D3FD0120C4EB63
:1012D000441101EB8101034A02EB41014870BDE872
:1012E000F0870000643800202DE9F34196B00746EE
:1012F0000025FFF723FEBDF85C10884202DC18B021
:10130000BDE8F081FFF72EFE0446002C7EDB0120B5
:10131000C4EB441101EB81019E4A02F81100AB209D
:10132000C4EB441101EB810102EB41018870012102
:10133000C4EB441000EB800002EB4000C170C4EB32
:10134000441000EB8000114601EB40000771C22100
:10135000C4EB441000EB800002EB400041719DF8AB
:101360005C30C4EB441000EB8000114601EB400000
:10137000083029466A1CD5B243549DF85D30C4EB51
:10138000441000EB8000834901EB400008302946FF
:101390006A1CD5B24354BDF85C00FFF7D5FD00B917
:1013A000ADE7BDF85C00FFF7CFFD80465522414612
:1013B0006846FEF725FF9DF80030C4EB441000EBB3
:1013C0008000744901EB4000083029466A1CD5B200
:1013D00043549DF80130C4EB441000EB80006D498C
:1013E00001EB4000083029466A1CD5B243549DF8F1
:1013F0000230C4EB441000EB8000664901EB400072
:1014000008302A46691CCDB2835400E0BFE09DF845
:101410000330C4EB441000EB80005E4901EB400058
:10142000083029466A1CD5B243549DF80430C4EBF9
:10143000441000EB8000574901EB4000083029467A
:101440006A1CD5B243549DF80530C4EB441000EB40
:101450008000504901EB4000083029466A1CD5B293
:1014600043549DF80630C4EB441000EB800049491A
:1014700001EB4000083029466A1CD5B243549DF860
:101480000730C4EB441000EB8000424901EB400000
:10149000083029466A1CD5B243549DF80830C4EB85
:1014A000441000EB80003B4901EB40000830294626
:1014B0006A1CD5B243549DF80930C4EB441000EBCC
:1014C0008000344901EB4000083029466A1CD5B23F
:1014D00043549DF80A30C4EB441000EB80002D49C2
:1014E00001EB4000083029466A1CD5B24354002065
:1014F00012E00DF10B0111F800C0C4EB441101EB37
:101500008101244A02EB410108312A466B1CDDB2FD
:1015100001F802C0411CC8B21428EADB002614E01E
:101520003046711CCEB20DF11F010B5CC4EB4410B0
:1015300000EB8000174901EB4000083029466A1C87
:10154000D5B24354322E00DD04E00DF11F00805D62
:101550000028E5D100BFC4EB441000EB80000D492A
:1015600001EB4000C580C4EB441101EB8101094A45
:1015700002EB4101881CFFF77CFC0120C4EB441105
:1015800001EB8101034A02EB4101487000BF00BF3B
:10159000B5E6000064380020F8B506460025FFF7E0
:1015A000E1FC0446002C70DB0120C4EB441101EB8C
:1015B0008101364A02F81100AB20C4EB441101EB63
:1015C000810102EB410188700121C4EB441000EB62
:1015D000800002EB4000C170C4EB441000EB8000BF
:1015E000114601EB40000671C121C4EB441000EB31
:1015F000800002EB400041710023C4EB441000EB7B
:101600008000114601EB4000083029466A1CD5B223
:101610004354FFF793FC80B200909DF80030C4EB78
:10162000441000EB8000194901EB400008302946C6
:101630006A1CD5B243549DF80130C4EB441000EB52
:101640008000124901EB4000083029466A1CD5B2DF
:101650004354C4EB441000EB80000C4901EB400004
:10166000C580C4EB441101EB8101084A02EB410142
:10167000881CFFF7FEFB0120C4EB441101EB810144
:10168000024A02EB4101487000BFF8BD64380020F7
:101690002DE9F84307460025FFF764FC0446002CBB
:1016A0007EDB0120C4EB441101EB8101734A02F897
:1016B0001100AB20C4EB441101EB810102EB4101AD
:1016C00088700121C4EB441000EB800002EB400065
:1016D000C170C4EB441000EB8000114601EB4000E8
:1016E0000771E321C4EB441000EB800002EB4000E3
:1016F00041710123C4EB441000EB8000114601EB63
:101700004000083029466A1CD5B243544FF4FA70A1
:1017100000909DF80030C4EB441000EB8000574966
:1017200001EB4000083029466A1CD5B243549DF8AD
:101730000130C4EB441000EB8000504901EB400045
:10174000083029466A1CD5B24354642000909DF8A5
:101750000030C4EB441000EB8000484901EB40002E
:10176000083029466A1CD5B243549DF80130C4EBB9
:10177000441000EB8000414901EB4000083029464D
:101780006A1CD5B243544FF4487000909DF8003065
:10179000C4EB441000EB8000384901EB400000E04E
:1017A0006AE0083029466A1CD5B243549DF80130DE
:1017B000C4EB441000EB8000304901EB40000830DE
:1017C00029466A1CD5B243544FF4487000909DF8E6
:1017D0000030C4EB441000EB8000284901EB4000CE
:1017E000083029466A1CD5B243549DF80130C4EB39
:1017F000441000EB8000214901EB400008302946ED
:101800006A1CD5B2435400260FF2740813E0304628
:10181000711CCEB218F80030C4EB441000EB80000D
:10182000164901EB4000083029466A1CD5B24354E2
:10183000142E00DD03E018F806000028E7D100BFF1
:10184000C4EB441000EB80000C4901EB4000C58064
:10185000C4EB441101EB8101084A02EB4101881CF1
:10186000FFF707FB0120C4EB441101EB8101034AA0
:1018700002EB4101487000BFBDE8F88364380020E6
:1018800054657374446576696365313233000000D2
:101890002DE9F3419CB007460025FFF7F9FBBDF8A1
:1018A0007410884202DC1EB0BDE8F081FFF75AFBDD
:1018B0000446002C7EDB0120C4EB441101EB8101C6
:1018C000A34A02F81100AB20C4EB441101EB8101E3
:1018D00002EB410188700121C4EB441000EB800051
:1018E00002EB4000C170C4EB441000EB80001146D5
:1018F00001EB40000771E221C4EB441000EB8000D3
:1019000002EB400041719DF87430C4EB441000EBD1
:101910008000114601EB4000083029466A1CD5B210
:1019200043549DF87530C4EB441000EB80008849A7
:1019300001EB4000083029466A1CD5B24354BDF87B
:101940007400FFF7ABFB00B9ADE7BDF87400FFF71B
:10195000A5FB80466A22414601A8FEF751FC9DF88E
:101960000830C4EB441000EB8000794901EB4000E3
:10197000083029466A1CD5B243549DF80930C4EB9F
:10198000441000EB8000724901EB4000083029460A
:101990006A1CD5B243549DF80A30C4EB441000EBE6
:1019A00080006B4901EB4000083029466A1CD5B223
:1019B000435400E0CAE09DF80B30C4EB441000EB48
:1019C0008000634901EB4000083029466A1CD5B20B
:1019D00043549DF80C30C4EB441000EB80005C498C
:1019E00001EB4000083029466A1CD5B243549DF8EB
:1019F0000D30C4EB441000EB8000554901EB400072
:101A0000083029466A1CD5B243549DF80E30C4EB09
:101A1000441000EB80004E4901EB4000083029469D
:101A20006A1CD5B243549DF80F30C4EB441000EB50
:101A30008000474901EB4000083029466A1CD5B2B6
:101A400043549DF81030C4EB441000EB8000404933
:101A500001EB4000083029466A1CD5B243549DF87A
:101A60001130C4EB441000EB8000394901EB400019
:101A7000083029466A1CD5B243549DF81230C4EB95
:101A8000441000EB8000324901EB40000830294649
:101A90006A1CD5B243549DF81330C4EB441000EBDC
:101AA00080002B4901EB4000083029466A1CD5B262
:101AB0004354002011E005A911F800C0C4EB441103
:101AC00001EB8101224A02EB410108312A466B1CDD
:101AD000DDB201F802C0411CC8B21428EBDB0026BD
:101AE00013E03046711CCEB20AA90B5CC4EB441063
:101AF00000EB8000164901EB4000083029466A1CC3
:101B0000D5B24354322E00DD03E00AA8805D0028E0
:101B1000E7D100BFC4EB441000EB80000C4901EB9F
:101B20004000C580C4EB441101EB8101084A02EB7F
:101B30004101881CFFF79DF90120C4EB441101EB22
:101B40008101034A02EB4101487000BF00BFAAE6D1
:101B500064380020F8B506460025FFF703FA04466E
:101B6000002C70DB0120C4EB441101EB8101364AEB
:101B700002F81100AB20C4EB441101EB810102EB30
:101B8000410188700121C4EB441000EB800002EB9E
:101B90004000C170C4EB441000EB8000114601EB23
:101BA00040000671E021C4EB441000EB800002EB22
:101BB000400041710123C4EB441000EB800011464A
:101BC00001EB4000083029466A1CD5B24354FFF7A8
:101BD0005FFA80B200909DF80030C4EB441000EB37
:101BE0008000194901EB4000083029466A1CD5B233
:101BF00043549DF80130C4EB441000EB80001249BF
:101C000001EB4000083029466A1CD5B24354C4EBAE
:101C1000441000EB80000C4901EB4000C580C4EB90
:101C2000441101EB8101084A02EB4101881CFFF7D6
:101C300020F90120C4EB441101EB8101024A02EBBF
:101C40004101487000BFF8BD6438002073B582B010
:101C500006460025FFF71CFABDF80C10884200DC90
:101C60007FBDFFF77FF90446002C7DDB0120C4EB2C
:101C7000441101EB81014E4A02F81100AB20C4EB84
:101C8000441101EB810102EB410188700121C4EB99
:101C9000441000EB800002EB4000C170C4EB441024
:101CA00000EB8000114601EB40000671E121C4EB1E
:101CB000441000EB800002EB400041719DF80C30B5
:101CC000C4EB441000EB8000114601EB40000830EB
:101CD00029466A1CD5B243549DF80D30C4EB44101C
:101CE00000EB8000324901EB4000083029466A1CB5
:101CF000D5B24354BDF80C00FFF7DEF901909DF812
:101D00000430C4EB441000EB8000294901EB400093
:101D1000083029466A1CD5B243549DF80530C4EBFF
:101D2000441000EB8000224901EB400008302946B6
:101D30006A1CD5B243549DF80630C4EB441000EB46
:101D400080001B4901EB4000083029466A1CD5B2CF
:101D500043549DF80730C4EB441000EB8000144955
:101D600001EB4000083000E01FE029466A1CD5B2B4
:101D70004354C4EB441000EB80000D4901EB4000DC
:101D8000C580C4EB441101EB8101094A02EB41011A
:101D9000881CFFF76EF80120C4EB441101EB8101B0
:101DA000034A02EB4101487000BF00BF58E7000042
:101DB0006438002000BFFEE77047000010B50448FB
:101DC00002F07CF9C4B22046FFF70AF910BD00000A
:101DD00000380140F8B504460E46174600251FA1FD
:101DE000201DFEF738FA20B901F012FC01F042FA8A
:101DF0002EE0012000901B4800780007010E102300
:101E00002022002001F01AFD012000903007010E71
:101E100010233E22002001F011FD002511E00120D9
:101E20000090E81900EB800303EBC00004EB800096
:101E300000F113022807010E1023082001F007FE0D
:101E40006D1C2068007821684978401AA842E6DCB9
:101E500001F0C0FC03480670F8BD00004D61696EDA
:101E60005549000048000020F8B504460F461646C4
:101E7000002500BF11E001200090A81900EB8003AD
:101E800003EBC00004EB800000F113022807010EF1
:101E90001023082001F0DBFD6D1C2068007821680C
:101EA0004978401AA842E6DC01F094FCF8BD000035
:101EB0000149086070470000140401402DE9F04119
:101EC000024600250026002000230024002791F868
:101ED00003C00CF00F0591F803C00CF0100CBCF11E
:101EE000000F03D091F802C04CEA050591F800C03C
:101EF000BCF1000F31D0146800202BE04FF0010C32
:101F00000CFA00F3B1F800C00CEA03069E4220D19F
:101F100083004FF00F0C0CFA03F7BC4305FA03FCE7
:101F20004CEA040491F803C0BCF1280F06D14FF02D
:101F3000010C0CFA00FCC2F814C00AE091F803C0CE
:101F4000BCF1480F05D14FF0010C0CFA00FCC2F8AF
:101F500010C0401C0828D1D31460B1F800C0BCF1F7
:101F6000FF0F34DD546800202EE000F1080C4FF024
:101F7000010808FA0CF3B1F800C00CEA03069E420F
:101F800021D183004FF00F0C0CFA03F7BC4305FA84
:101F900003FC4CEA040491F803C0BCF1280F05D1FE
:101FA00000F1080C08FA0CF8C2F8148091F803C08C
:101FB000BCF1480F07D100F1080C4FF0010808FAF6
:101FC0000CF8C2F81080401C0828CED35460BDE83D
:101FD000F0810000F0B50A4600230024002100250E
:101FE00000F00046B6F1004F02D11D4EF16901E04C
:101FF0001B4E7168C0F3034583B200F44016B6F57A
:10200000401F08D121F07061154E766826F0706689
:10201000134F7E6012E000F48016B6F5801F06D1E3
:10202000032606FA05F4A14341F0706106E0460D6F
:10203000360103FA06F6B14341F0706122B1460D54
:10204000360103FA06F6314300F00046B6F1004FC0
:1020500002D1034EF16101E0014E7160F0BD00005C
:1020600000000140416170470161704710B5BB48F5
:10207000007801283ED10020B8490870B84800789F
:10208000401E40B2B6490870084690F9000000288A
:102090000BDAB448007840B100200870B1480078ED
:1020A000401E40B2AF4908701BE0AD4890F90000F7
:1020B000002816DAAB48007898B9AB480068006889
:1020C0000078401EA849096809684978401A40B25A
:1020D000A3490870A44800680068407840B2A1494C
:1020E0000870A04802789E4801789F480068FFF772
:1020F00071FE2EE19D48007801285AD100209B49AD
:10210000087097480078401C40B29549087096487E
:10211000006800680078401E93490968096849789A
:10212000401A8F4991F9001088421CDA8E480068E5
:10213000006840788B4991F90010884213D08A4892
:10214000006800680078401E874909680968497876
:10215000401A40B28249087082480078401C40B260
:10216000804908701CE08048006800680078401EC4
:102170007D49096809684978401A794991F9001040
:1021800088420DDA7848006800684078754991F90E
:102190000010884204D1002071490870714908700C
:1021A000704802786E4801786F480068FFF712FEA9
:1021B000CFE06F48007801282DD1694890F90000E0
:1021C000684991F90010084400EB800101EBC00060
:1021D0006549096801EB8000406A80B1604991F966
:1021E0000010604A92F90020114401EB810202EBD9
:1021F000C1015D4A126802EB8101486A80470020F4
:102200005B4908705748027855480178564800687D
:10221000FFF7E0FD9DE05748007801286BD150485A
:102220000078F0B94F480078D8B94D4890F90000CF
:1022300000EB800101EBC0004B49096801EB800015
:10224000C06A70B1464890F9000000EB800101EBD4
:10225000C0004549096801EB8000C06A4249086036
:102260006CE03F4890F900003E4991F900100844A5
:1022700000EB800101EBC0003B49096801EB8000E5
:10228000006BB8B3364890F90000364991F9001058
:10229000084400EB800101EBC0003349096801EB01
:1022A0008000806A80B12E4991F900102D4A92F980
:1022B0000020114401EB810202EBC1012A4A12689D
:1022C00002EB8101886A8047254890F90000254982
:1022D00091F90010084400EB800101EBC000224995
:1022E000096801EB8000006B1F49086000201C4951
:1022F000087023E000E02CE0194890F9000019492B
:1023000091F90010084400EB800101EBC000164970
:10231000096801EB8000806A80B1114991F90010D1
:10232000104A92F90020114401EB810202EBC10135
:102330000D4A126802EB8101886A804700200D492E
:102340000870084802780648017807480068FFF7D7
:1023500041FD0548006800F00FF810BD4C0000205A
:102360004000002041000020440000204D000020DB
:102370004E0000204F00002010B50446204605F016
:10238000B1FC09A1201DFDF766FF20B900F072FF26
:1023900001F020FA06E00648027806480178204657
:1023A000FFF762FD10BD00004D61696E55490000E8
:1023B000410000204000002010B505F003FD044856
:1023C00002780448017804480068FFF703FD10BD57
:1023D00041000020400000204400002000BFFEE734
:1023E00010B580210A48FFF73FFE20210848FFF77B
:1023F0003BFE00F011F980210548FFF733FE00F0A5
:102400000BF920210248FFF72DFE00F005F910BD61
:102410000008014010B580210648FFF723FE202167
:102420000448FFF721FE00F0F7F880210148FFF78C
:102430001BFE10BD0008014010B580210848FFF7C1
:1024400013FE00F0E9F820210548FFF70DFE00F02B
:10245000E3F820210248FFF705FE00F0DDF810BD8B
:102460000008014010B500200949086001F0E8FBB0
:1024700000200849C1F89C0100F012FB012004492A
:10248000086000F00DFB00200249C1F8980110BD62
:10249000988121420080214210B50020094908603E
:1024A00001F0CEFB01200849C1F89C0100F0F8FAC8
:1024B00001200449086000F0F3FA00200249C1F845
:1024C000980110BD988121420080214270B50546D7
:1024D000002401F0A3FB002614E000200E49086050
:1024E00000F0DEFA01200D49C1F898016006040EE3
:1024F00009487C38006808B1601CC4B200F0D0FA0A
:10250000701CC6B2082EE8DB15B9FFF7C5FF01E065
:10251000FFF7A8FF204670BD98812142008021422C
:1025200070B5044601F08CFB00200D4908600025C1
:1025300012E0E0090A49091D08606006040E012046
:102540000849C1F8980100F0ABFA0020044908607E
:1025500000F0A6FA681CC5B2082DEADB70BD0000C9
:10256000988121420080214210B501F069FB0120D1
:10257000084908600849C1F8980100F091FA002064
:102580000449086000F08CFA00200349C1F8980162
:1025900010BD00009C8121420080214210B501F055
:1025A0004FFB0020074908600749C1F89C0100F073
:1025B00077FA0120034908600349C1F89C0100F043
:1025C0006FFA10BD988121420080214210B500248D
:1025D00001F024FB01200E49086000F061FA01209F
:1025E0000C49C1F8980100F05BFA07E0601CC4B226
:1025F000FA2C03DDFFF7D2FF012010BD044880381C
:1026000000680028F2D10249091F086000BFF4E702
:102610009C81214200802142032000BF011EA0F1C5
:102620000102D0B2FAD170472DE9F04105460C46BF
:10263000894801682046FDF77DFE07468748016806
:102640003846FDF77DFE0646854801683046FDF7B1
:102650001FFE834908608348416883480068FDF78E
:1026600069FE06467F4881683046FDF763FE7F4974
:1026700008607C48C06880F0004048607948C068C5
:1026800080F0004088607A480068C8600868734934
:102690000968FDF755FE0646724801683046FDF7A9
:1026A000F7FD70490860714948686C490968FDF791
:1026B00047FE06466B4841683046FDF7E9FD69492B
:1026C00048606A49886865490968FDF739FE064629
:1026D000644881683046FDF7DBFD624988606349E4
:1026E000C8685E490968FDF72BFE06465D48C1686B
:1026F0003046FDF7CDFD5B49C86059480168284662
:10270000FDF718FE5B4908605B480078FEF719F892
:102710000646544801683046FDF712FE57490860E6
:1027200055480078FEF70DF806464E488168304659
:10273000FDF706FE524908604F480078FEF701F8A1
:1027400007464E4801683846FDF7FAFD06464D48F3
:1027500001683046FDF79CFD4B490860084601685A
:1027600046480068FDF71EFE484908604648016873
:1027700043480068FDF716FE454908603F48006879
:10278000444908603C480078FDF7DBFF06463548C1
:1027900041683046FDF7D4FD3F4908603D48016877
:1027A0003A480068FDF7CCFD06462E4801683046E1
:1027B000FDF7C3FD2B4908603748016833480068BE
:1027C000FDF7BEFD0646274841683046FDF7B5FDDA
:1027D000244948602F4801682D480068FDF7B0FD86
:1027E0000646204881683046FDF7A7FD1D498860F0
:1027F0002948016826480068FDF7A2FD06461948E9
:10280000C1683046FDF799FD1649C860194801684E
:102810001E480068FDF794FD0646114801683046E1
:10282000FDF736FD0E490860124801681848006837
:10283000FDF786FD0646084801683046FDF728FD8D
:1028400005490860084601682046FDF773FD1349F5
:102850000860BDE8F08100009000002088000020A2
:10286000C4000020B40000207C0000208409002067
:1028700080000020940000208C00002098000020A0
:102880009C00002084000020A0000020A400002064
:10289000A8000020AC000020B0000020780000203C
:1028A0000748007810B901200549087005480068FC
:1028B00008B9012000E000200249086070470000CC
:1028C0004D000020B40122420748007810B90120D1
:1028D000054908700548006808B9012000E000209B
:1028E00002490860704700004E000020B4012242F7
:1028F0000748007810B901200549087005480068AC
:1029000008B9012000E0002002490860704700007B
:102910004F000020B401224200B50246012A02D134
:1029200000202949086028480068002836D1274837
:10293000006850B12648006838B12548001D00687D
:1029400018B123480830006840BB22480068401C8A
:102950002049086008460068022834DD01201A4931
:10296000086000201B4908601848006810B900F092
:1029700033F828E01648006810B9FFF791FF22E00D
:102980001348001D006810B9FFF79EFF1BE01048B8
:1029900008300068B8B9FFF7ABFF14E00B480068D7
:1029A000012810D10A48006801280CD10848001DF0
:1029B0000068012807D1064808300068012802D1C4
:1029C00000200149086000BD540000203C01214264
:1029D0000C812142500000200748007810B90120E6
:1029E000054908700548006808B9012000E000208A
:1029F00002490860704700004C000020B4012242E8
:102A00002DE9FC4104460D4616466B4606223B2145
:102A1000682000F0E6F80746BFB99DF801009DF870
:102A2000001040EA012000B220809DF803009DF8CC
:102A3000021040EA012000B228809DF805009DF8B0
:102A4000041040EA012000B230803846BDE8FC8125
:102A50002DE9FC4104460D4616466B4606224321ED
:102A6000682000F0BEF80746BFB99DF801009DF848
:102A7000001040EA012000B220809DF803009DF87C
:102A8000021040EA012000B228809DF805009DF860
:102A9000041040EA012000B230803846BDE8FC81D5
:102AA00010B5022002F06EFD10BD000008B5012136
:102AB000082001F029F84020ADF8000003208DF82F
:102AC000020014208DF8030069460B48FFF7F6F961
:102AD0008020ADF8000003208DF8020014208DF84E
:102AE000030069460448FFF7E9F90120034908603B
:102AF0000349C1F89C0108BD000C014098812142A6
:102B00000080214210B5FFF7D1FF80226B216820A1
:102B100000F0F1F8642002F013FD00226B21682020
:102B200000F0E9F8032000F09FF8002000F093F88F
:102B3000C82000F0C2F801223821682000F0DBF83C
:102B400000226A21682000F0D6F8002223216820A4
:102B500000F0D1F89C223721682000F0CCF87521D4
:102B6000682000F019F80B490870084600786828BA
:102B70000CD101226B2100F0BEF800226C216820EC
:102B800000F0B9F8C82000F098F801E0012010BD6D
:102B90000020FCE73800002070B504460D460026F2
:102BA000FFF7E2FC002141EA4401C8B2FFF7B8FC9C
:102BB000FFF70CFD2846FFF7B3FCFFF707FDFFF713
:102BC000D3FC012101EB4401C8B2FFF7A9FCFFF7D8
:102BD000FDFC0020FFF77AFC0646FFF7DFFC3046DD
:102BE00070BD2DE9F04106460F4614461D46FFF71D
:102BF000BBFC002141EA4601C8B2FFF791FCFFF798
:102C0000E5FC20B1FFF7CAFC0120BDE8F0813846A1
:102C1000FFF786FCFFF7DAFCFFF7A6FC012101EBCA
:102C20004601C8B2FFF77CFCFFF7D0FC0DE0012C99
:102C300004D10020FFF74AFC287003E00120FFF7D1
:102C400045FC2870601EC4B26D1C002CEFD1FFF74C
:102C5000A5FC0020D9E710B50446E006020E1C21B1
:102C6000682000F048F810BD10B50446032000EBC2
:102C7000C400C2B21B21682000F03DF810BD70B541
:102C800004460025BC2C01DB012510E0622C01DB91
:102C900002250CE02A2C01DB032508E0142C01DBC3
:102CA000042504E00A2C01DB052500E006252A4660
:102CB0001A21682000F01FF870BD70B50446B4F505
:102CC0007A7F01DD4FF47A74042C00DA04244FF487
:102CD0007A7090FBF4F0401EC5B22A461921682094
:102CE00000F009F80546264604EBD671C1F34F0003
:102CF000FFF7C5FF70BD70B504460D461646FFF7D9
:102D000033FC002141EA4401C8B2FFF709FCFFF798
:102D10005DFC18B1FFF742FC012070BD2846FFF7AB
:102D2000FFFBFFF753FC3046FFF7FAFBFFF74EFCC3
:102D300018B1FFF733FC0120EFE7FFF72FFC00206D
:102D4000EBE700002DE9FF4F99B01E46289CFE4896
:102D500001680068FDF7F4FA1390FC480168FA482E
:102D60000068FDF7EDFA1290F9480168F64800682E
:102D7000FDF7E6FA1190F7480168F3480068FDF79F
:102D8000DFFA1090F14801680068FDF7D9FA0F905A
:102D9000EF480168ED480068FDF7D2FA0E90ED4863
:102DA0000168EA480068FDF7CBFA0D90E848016831
:102DB0000068FDF7C5FA0C90E6480168E448006831
:102DC000FDF7BEFA0B90E34801680068FDF7B8FA1A
:102DD0000A9000213046FDF731FD0CD100212698E4
:102DE000FDF72CFD07D100212798FDF727FD02D123
:102DF0001DB0BDE8F08F27990846FDF7A1FA0490B1
:102E000026990846FDF79CFA314602903046FDF7B8
:102E100097FA01900299FDF73BFA03900499FDF7A8
:102E200037FA0590FDF7DBFCCDE9060104F0A0FEC2
:102E3000CDE90801FDF7E6FC189030461899FDF73A
:102E4000B1FA064618992698FDF7ACFA269018991B
:102E50002798FDF7A7FA279011990D98FDF76AFAC0
:102E60004FF080410990FDF76BFA17900B9912987B
:102E7000FDF70EFA4FF080410990FDF761FA1690C8
:102E80000F991398FDF756FA08900C99FDF752FA2E
:102E900009900A99FDF7FCF9159016992798FDF706
:102EA0004FFA099015992698FDF74AFA0890099962
:102EB000FDF740FA824630461599FDF741FA099030
:102EC00017992798FDF73CFA08900999FDF732FA0F
:102ED000834617992698FDF733FA099030461699DC
:102EE000FDF72EFA08900999FDF724FA14909A49F3
:102EF0005046FDF725FA0990984801680998FDF7B2
:102F0000C7F99649086094495846FDF719FA09909F
:102F1000934801680998FDF7BBF9914908608E490B
:102F20001498FDF70DFA09908E4801680998FDF78D
:102F3000AFF98C49086051464FF08240FDF700FA26
:102F400008901999FDF7A4F9099084480168099837
:102F5000FDF79EF9199059464FF08240FDF7F0F9C0
:102F600008901A99FDF794F909907D48016809982D
:102F7000FDF78EF91A904FF082401499FDF7E0F9B1
:102F800008901B99FDF784F9099076480168099823
:102F9000FDF77EF91B906C4807686C4805686C4823
:102FA000D0F800806B48D0F8009048461B99FDF798
:102FB000C7F9079040461A99FDF7C2F9059085F0C8
:102FC000004003901999FDF7BBF904900599FDF7AE
:102FD000B1F906900799FDF7ADF963490890FDF73F
:102FE000AFF939460990FDF753F95749086048464B
:102FF0001A99FDF7A5F9079040461B99FDF7A0F92E
:10300000394605901998FDF79BF904900599FDF74D
:103010003FF906900799FDF78DF953490890FDF7A0
:103020008FF929460990FDF733F948490860494668
:103030001998FDF785F9079028461B99FDF780F947
:10304000059038461A99FDF77BF904900599FDF72C
:1030500071F906900799FDF71BF943490890FDF7B0
:103060006FF941460990FDF713F939490860414667
:103070001998FDF765F9079028461A99FDF760F948
:10308000059038461B99FDF75BF904900599FDF70B
:10309000FFF806900799FDF74DF933490890FDF7C1
:1030A0004FF949460990FDF7F3F82A4908600F994E
:1030B0001398FDF7EDF803900C99FDF7E9F80490EB
:1030C0000A99FDF7E5F80590FDF789FBCDE90601C2
:1030D00004F04EFDCDE90801FDF794FB18901A4865
:1030E00018990068FDF75EF91749086017481899A4
:1030F0000068FDF757F915490860154818990068E8
:10310000FDF750F912490860124818990068FDF758
:1031100049F9104908600D4801680B480068FDF73F
:103120000FF912900A48016807480068FDF708F98E
:1031300011900848016804480068FDF701F91090F3
:1031400002480168006811E0580000205C0000207F
:1031500060000020640000206F12033C6800002023
:103160006C000020700000200AD7A33BFDF7E8F8B0
:103170000F903C4801683C480068FDF7E1F80E906C
:103180003A48016838480068FDF7DAF80D9035488C
:1031900001680068FDF7D4F80C90344801683148A4
:1031A0000068FDF7CDF80B90304801680068FDF726
:1031B000C7F80A900C990F98FDF7BCF84FF08041C2
:1031C0000690FDF7BDF84FF07E510790FDF7B5F87A
:1031D00009900B991298FDF75BF84FF0804107902A
:1031E000FDF7AEF80890099901F082FF20600D9973
:1031F0001198FDF79FF84FF080410890FDF7A0F877
:10320000099001F013FD60600A990C98FDF740F8F1
:103210004FF080410690FDF793F84FF07E510790F4
:10322000FDF78BF809900E991098FDF731F84FF0E3
:1032300080410790FDF784F80890099901F058FF44
:10324000A0600B492068FDF77BF8206008496068A2
:10325000FDF776F860600649A068FDF771F8A06098
:1032600000BFC5E5600000205C0000206400002075
:103270003333654210B504F0BBFD10BD00BFFEE75F
:103280007047000010B505220D49302000F048F9C4
:1032900005220B49102000F0A9F8002406E0084898
:1032A000005DAA2800D003E0601CC4B2052CF6DB48
:1032B00000BF052C01D0012010BD0020FCE700005C
:1032C0003900002008B501210C2000F01DFC01216F
:1032D000880300F009FC4FF40050ADF800001820FE
:1032E0008DF8030003208DF8020069463948FEF787
:1032F000E5FD4FF400513748FEF7B6FE4FF480402D
:10330000ADF8000069463348FEF7D8FD4FF4804120
:103310003048FEF7A9FE4FF40040ADF800006946C2
:103320002C48FEF7CBFD4FF400412A48FEF79CFEE7
:103330004FF40060ADF8000010208DF8030003206A
:103340008DF8020069462448FEF7B8FD4FF400618D
:103350002148FEF789FE4FF48050ADF80000694621
:103360001C48FEF7ABFD4FF480511A48FEF77CFE77
:103370004FF48070ADF8000048208DF803006946D6
:103380001548FEF79BFD4FF480711348FEF76CFE65
:103390000020124908804FF4827048800020888005
:1033A000C88008814FF40070488110208881002077
:1033B000C881072008820A4800F098FC01210848CB
:1033C00000F07AFC00200749086001200649C1F896
:1033D000AC0108BD000C014000080140700900204C
:1033E00000380040B0812142000021422DE9F04127
:1033F00007460D46164600200A490860384600F088
:1034000031FC8046002405E0FF2000F02BFC28550D
:10341000601CC4B2B442F7DB012002490860404698
:10342000BDE8F081AC01214270B504460020074997
:103430000860204600F016FCFF2000F013FC054653
:1034400001200349C1F8AC01284670BDAC012142FE
:103450000000214210B500201449086005221449DB
:10346000302000F05DF8052212492A2000F058F8BB
:103470000121212000F072F80121222000F06EF8D5
:103480001A21242000F06AF82821252000F066F88F
:103490000F21262000F062F80E21202000F05EF8B7
:1034A00001200549C1F8B00110BD0000B0812142E2
:1034B00038B400083DB400080080214270B50546CC
:1034C00000201449086020222946A02000F028F896
:1034D00001201149C1F8B00100BF10480068002860
:1034E000FBD10720FFF7A0FF04462146272000F06C
:1034F00035F804F0100028B1FF21E12000F02EF88B
:10350000102070BD04F0200008B12020F9E7FF2052
:10351000F7E70000B08121420080214220012142D2
:103520002DE9F04107460C46154600200A4908607F
:10353000384600F097FB8046002605E014F8010BA2
:1035400000F090FB701CC6B2AE42F7DB01200249CE
:1035500008604046BDE8F081AC01214270B50546E7
:103560000C46002007490860284600F07BFB064611
:10357000204600F077FB01200349C1F8AC0130463A
:1035800070BD0000AC0121420000214270B5002155
:1035900000230F22C47804B3154C246804F4E064BB
:1035A000C4F5E064210AC1F10403CA40447804FA76
:1035B00003F184781440214309010E4C0678A1558B
:1035C000047804F01F050124AC4005786D11AD00AE
:1035D00005F1E025C5F8004109E0047804F01F0575
:1035E0000124AC40044D0678761145F8264070BDA4
:1035F0000CED00E000E400E080E100E0024901435E
:10360000024A1160704700000000FA050CED00E06E
:1036100070B500240CE0002506E00020074901EB0E
:10362000C5010855681CC5B2802DF6DB601CC4B20C
:10363000082CF0DB00F0CEF870BD0000F004002094
:10364000F0B514460B46CF1701EB5777C7F3C70207
:10365000CF1701EB5777FF10A1EBC707FEB201238D
:10366000B340DDB24CB1134B03EBC0039B5C2B4367
:10367000104F07EBC007BB541AE00E4B03EBC0031F
:103680009B5CDB430B4F07EBC007BB54094B03EBC1
:10369000C0039B5C2B43074F07EBC007BB54054B94
:1036A00003EBC0039B5CDB43024F07EBC007BB543B
:1036B000F0BD0000F004002008B50121042000F056
:1036C00023FA2020ADF8000014208DF80300032019
:1036D0008DF8020069463E48FEF7F0FB20213C4889
:1036E000FEF7C2FC8020ADF8000069463848FEF7BE
:1036F000E5FB80213648FEF7B7FC0021AE2000F044
:10370000CBF90021084600F0C7F90021102000F095
:10371000C3F90021402000F0BFF90021812000F012
:10372000BBF90021CF2000F0B7F90021A12000F063
:10373000B3F90021C82000F0AFF90021A62000F065
:10374000ABF90021A82000F0A7F900213F2000F0EC
:10375000A3F90021D32000F09FF90021084600F0D2
:103760009BF90021D52000F097F90021802000F07E
:1037700093F90021D92000F08FF90021F12000F009
:103780008BF90021DA2000F087F90021122000F0E7
:1037900083F90021DB2000F07FF90021302000F0C8
:1037A0007BF90021202000F077F90021022000F0B1
:1037B00073F900218D2000F06FF90021142000F032
:1037C0006BF9FFF725FF0021AF2000F065F908BD78
:1037D0000008014070B500242BE004F1B001C8B22C
:1037E000002100F059F90021084600F055F90021A8
:1037F000102000F051F9FEF7F3FD782000F094FA64
:10380000FEF71AFE402000F08FFAFEF715FE0025A5
:1038100009E0094901EBC501085D00F085FAFEF7F2
:103820000BFE681CC5B2802DF3DBFEF7F3FD601CB8
:10383000C4B2082CD1DB70BDF00400202DE9FE4F8E
:103840000746884692461C460197CDF80080082C12
:1038500002D14FF006091FE02046E31704EB537333
:10386000DB1021464FEAE47C04EB5C7C4FEAEC0C75
:10387000A4EBCC0CBCF1000F02D04FF0010C01E026
:103880004FF0000C6344224604EBD27C4FEA6C0CF0
:1038900003FB0CF303F0FF09AAF12000C6B20025D8
:1038A0005EE0082C07D106EB46002F4901EB4000F3
:1038B00010F805B01DE00C2C07D106EB46002B4993
:1038C00001EB800010F805B013E0102C05D128485A
:1038D00000EB061010F805B00BE0182C07D106EB32
:1038E000C600244901EB800010F805B001E0BDE8F6
:1038F000FE8F002002901CE00BF0010028B1414631
:1039000038460C9AFFF79CFE09E00C9808B9012094
:1039100000E00020024641463846FFF791FE4FEA9C
:103920006B0B08F1010000F0FF080298401CC0B2C8
:10393000029002980828DFDB781CC7B2082C0BD055
:1039400004EBD4714A100199791A8A4204D1019F7B
:1039500000980830C0B20090DDF80080681CC5B245
:103960004D459EDB00BFC2E7089400083096000872
:10397000A49A000894A000082DE9FF4F05460E46C2
:1039800017461C46DDF838904FF0000A0095B34604
:103990002046E21704EB5272D2102146E31704EBE3
:1039A0005373DB10A4EBC3030BB1012300E000232E
:1039B0001A44D4B24FF0000845E0002003903BE0E9
:1039C0000D9810F80A0002900AF101001FFA80FA1F
:1039D000002001901DE0029800F0010028B14A4645
:1039E00031462846FFF72CFE0AE0B9F1000F01D15D
:1039F000012000E00020024631462846FFF720FE65
:103A0000029840100290701CC6B20198401CC0B2CF
:103A1000019001980828DEDB681CC5B20098281ABE
:103A2000B84204D1009D0BF1080000F0FF0B5E4688
:103A30000398401CC0B203900398B842C0DB08F161
:103A4000010000F0FF08A045B7DBBDE8FF8F2DE9BE
:103A5000F84106460F4614461D46DDF81C8013E06B
:103A6000CDF8008022782B4639463046FFF7E6FE37
:103A7000082D02D1B01DC6B205E0284605EBD07175
:103A800006EB6101CEB2641C2078202802DB20788E
:103A90007E28E5DDBDE8F88170B505460C46FEF7E9
:103AA0009FFC782000F040F9FEF7C6FC1CB14020D6
:103AB00000F03AF902E0002000F036F9FEF7BCFC15
:103AC000284600F031F9FEF7B7FCFEF7A3FC70BD05
:103AD00001460020034A506820F4404008435060EB
:103AE000704700000010024029B1064AD269024323
:103AF000044BDA6104E0034AD2698243014BDA6184
:103B0000704700000010024029B1064A9269024342
:103B1000044B9A6104E0034A92698243014B9A6123
:103B2000704700000010024029B1064AD2680243E3
:103B3000044BDA6004E0034AD2688243014BDA6046
:103B4000704700000010024030B500210022002420
:103B500000232D4D6D6805F00C0121B1042905D01D
:103B6000082923D105E0294D056022E0274D056095
:103B70001FE0254D6D6805F47012234D6D6805F446
:103B80008034022505EB92421CB9214D5543056056
:103B90000BE01D4D6D6805F400351DB11C4D5543FE
:103BA000056002E0194D5543056002E0174D0560C0
:103BB00000BF00BF144D6D6805F0F0010909154DF7
:103BC0006B5C0568DD4045600F4D6D6805F4E06194
:103BD000090A104D6B5C4568DD4085600A4D6D68D3
:103BE00005F46051C90A0B4D6B5C4568DD40C5604A
:103BF000054D6D6805F44041890B074D6B5CC56848
:103C0000B5FBF3F5056130BD0010024000127A00EB
:103C100000093D00140000202400002008B5802089
:103C2000ADF8000003208DF8020048208DF8030055
:103C300069460248FEF742F908BD0000000C014049
:103C400008B58020ADF8000003208DF80200142094
:103C50008DF8030069460248FEF730F908BD000000
:103C6000000C014070B50546002405E0601CC4B29C
:103C7000C82C01DD002070BD02210E4800F028F89C
:103C80000028F3D029460B4800F02EF8002405E068
:103C9000601CC4B2C82C01DD0020ECE701210548FE
:103CA00000F016F80028F3D0024800F01AF8C0B26D
:103CB000E1E700000038004021B1028842F04002F4
:103CC000028004E002884FF6BF731A4002807047FA
:103CD0000246002013890B400BB1012000E00020B8
:103CE00070470146888970478181704710B500226E
:103CF000028802F441520B884C8823438C8823436A
:103D0000CC8823430C8923434C8923438C89234348
:103D1000CC8923431A430280838B4FF2FF742340E4
:103D200083830B8A038210BD70B5044600251BE017
:103D300004F0800020B180210D48FEF795F903E0E2
:103D400080210B48FEF78EF9FEF766FC202108481B
:103D5000FEF78AF9FEF760FC20210548FEF782F99C
:103D60006006040E681CC5B2082DE1DB70BD0000C2
:103D70000008014010B500F001F810BD0CB500209E
:103D8000019000903348006840F480303149086069
:103D900000BF3048006800F4003000900198401CDB
:103DA0000190009818B90198B0F5A06FF1D1294899
:103DB000006800F4003010B10120009001E0002004
:103DC00000900098012843D12348006840F010007B
:103DD000214908600846006820F003000860084692
:103DE000006840F0020008601A48406819494860BD
:103DF0000846406848600846406840F48060486073
:103E00000846406820F47C1048600846406840F44A
:103E1000E81048600846006840F08070086000BF05
:103E20000C48006800F000700028F9D0094840688C
:103E300020F00300074948600846406840F002004F
:103E4000486000BF0348406800F00C000828F9D122
:103E50000CBD00000010024000200240042808D1E0
:103E60004FF0E021096941F004014FF0E0221161B7
:103E700007E04FF0E021096921F004014FF0E02252
:103E80001161704710B505F00FF8012801D004F05A
:103E9000B3FB10BD10B51348006840F00100114994
:103EA000086008464068104908400E4948600846C6
:103EB00000680E4908400B4908600846006820F475
:103EC000802008600846406820F4FE0048604FF4F7
:103ED0001F008860FFF74EFF4FF000600449086044
:103EE00010BD0000001002400000FFF8FFFFF6FECA
:103EF00008ED00E010B540F22551054800F023F828
:103F000028B1FDF75BFF40F22550FDF7D1FF10BD52
:103F10000038014021B1828942F40052828104E0DC
:103F200082894DF6FF731A40828170470246002055
:103F3000B1F5007F00D100BF13880B400BB1012009
:103F400000E00020704770B50246002400230025E1
:103F5000002040F66A16B14200D100BFC1F34215FD
:103F600001F01F03012606FA03F3012D02D1968901
:103F7000334006E0022D02D1168A334001E0968AD2
:103F800033400C12012606FA04F41688344013B1AB
:103F90000CB1012000E0002070BDF0B50346002404
:103FA00000260025002040F66A17B94200D100BF64
:103FB0001846C1F3421401F01F06012707FA06F55F
:103FC000012C01D10C3004E0022C01D1103000E0B2
:103FD00014301AB107682F43076002E00768AF4347
:103FE0000760F0BD2DE9F04786B005460E46002477
:103FF000A24600BFA1460027B08900B100BF2F46EE
:104000002C8A4CF6FF700440F08804432C82AC8963
:104010004EF6F3100440B088318908437189084393
:104020000443AC81AC8A4FF6FF400440B08904439E
:10403000AC8201A8FFF788FD1F48874202D1DDF856
:1040400010A001E0DDF80CA0A88900F4004040B108
:104050000AEBCA0000EB0A1031684900B0FBF1F826
:1040600007E00AEBCA0000EB0A1031688900B0FBD8
:10407000F1F86420B8FBF0F004012009642101FB91
:104080001089A88900F4004040B1322000EBC9003B
:10409000B0FBF1F000F00700044308E0322000EB31
:1040A00009106421B0FBF1F000F00F0004432C81F3
:1040B00006B0BDE8F087000000380140014688885E
:1040C000C0F308007047C1F308028280704700BF48
:1040D000FEE700000FB4054B10B503A9044A02988F
:1040E00000F08CF910BC5DF814FB0000CD55000801
:1040F000E80400200FB4084B10B504A902AA0398E5
:1041000000F07CF9044602A9002000F00EFD2046D4
:1041100010BC5DF814FB00002B4B0008490050EA6E
:10412000C12018BF04204A0D18BF40F0010040F222
:10413000FF72B2EB515F08BF40F00200012808BFD8
:10414000052070474100080218BF04200A0E18BF5E
:1041500040F001004FF07F4232EA010108BF40F019
:104160000200012808BF052070472DE9F0414F1ECD
:1041700000EBC7010446D1E9000115461E4637F0A1
:1041800006020DD02A463346FCF7F1F97F1E04EBF8
:10419000C703D3E90023FCF743F937F00602F1D156
:1041A000022F25D0042F13D0062F18BFBDE8F081B1
:1041B0002A463346FCF7DBF9D4E90A23FCF730F949
:1041C0002A463346FCF7D3F9D4E90823FCF728F94B
:1041D0002A463346FCF7CBF9D4E90623FCF720F94D
:1041E0002A463346FCF7C3F9D4E90423FCF718F94F
:1041F0002A463346FCF7BBF9D4E90223FCF710F951
:104200002A463346FCF7B3F9D4E90023BDE8F04170
:10421000FCF706B90122FCF7F6BCFCF701B9000077
:10422000024A00201107FCF7EEBC000001FDFFFF71
:104230000121FCF7BCBBFCF72BB800210846FCF7BA
:10424000B1B86FF05E010807FCF7B1BB02E008C827
:10425000121F08C1002AFAD170477047002001E000
:1042600001C1121F002AFBD17047000001490860FC
:1042700070470000EC0400202DE9FF5F82B00021B0
:10428000DDE90430020DDDF840B0034318D044F6F8
:104290001050A2F2FF3242431514119801281FD08A
:1042A000A5EB0B00401C5FEA000A4FF000064E4FE2
:1042B000DFF83891B046504615D5CAF1000413E036
:1042C000119801244AA3012801D16FEA0B01029839
:1042D000119AC0E90031C0E9024206B0BDE8F09F82
:1042E000CBF10000DFE704460021404A491842EBC9
:1042F0000450CDE9001012E0E00707D032463B46FB
:1043000040464946FCF733F98046894632463B46EB
:1043100010461946FCF72BF906460F466410002C90
:10432000EAD1DDE90401DDE90023BAF1000F06DA84
:10433000FCF71DF942464B46FCF719F905E0FCF77E
:1043400088F942464B46FCF784F904460E460022A3
:10435000284BFCF7FFFB03D84FF0FF30014607E086
:104360000022254B20463146FCF75AF8FCF7D9FBD2
:10437000102409E0002C0ADB0A220023FCF77EFA55
:10438000039B30321A55641E50EA0102F2D1641CBC
:10439000039AC4F111031444119A012A03D0012293
:1043A00008430DD10AE0084304D000204FF0110B60
:1043B000119072E7A3EB0B056D1E0DE05B4504DD6C
:1043C0004FF0000205F1010504E003DA4FF00002AE
:1043D000A5F10105002AECD002981199C0E902313B
:1043E000C0E9004579E70000000014400000F03FFC
:1043F000300000000000F0430000E03F2DE9FF4FD7
:1044000095B09B468946064600250FE2252877D1C0
:1044100000242746F84A0121059400E0044316F8D9
:10442000013F203B01FA03F01042F7D130782A28EF
:1044300011D06FF02F033078A0F13002092A16D87E
:10444000059A44F0020402EB820203EB420210449C
:10445000761C0590EFE759F8042B0592002A03DA41
:10446000504244F40054059044F00204761C307825
:104470002E2816D116F8010F44F004042A280DD076
:104480006FF02F023078A0F13003092B09D807EB29
:10449000870302EB4303C718761CF3E759F8047B44
:1044A000761C30786C280FD006DC4C2817D0682892
:1044B0000DD06A2814D104E0742810D07A280FD1C6
:1044C0000DE044F400140AE044F4801401E044F4E4
:1044D00040147278824202D104F58014761C761C56
:1044E000307866280BD013DC582877D009DC0028F8
:1044F00075D04528F6D04628F4D047281AD19DE13A
:1045000018E0632835D0642879D0652812D195E168
:10451000702873D008DC6728F1D069286FD06E2826
:104520000DD06F2806D1B5E073282CD0752875D032
:10453000782874D05A46179990476D1C75E1C4F3DA
:104540000250022809D003280DD0D9F80010042801
:104550000DD00D6009F1040967E1D9F80010EA17E0
:10456000C1E90052F6E7D9F800100D80F2E70D70AE
:10457000F0E719F8041B8DF8001000208DF80100F9
:10458000EA46012003E059F804AB4FF0FF30610721
:104590004FF0000102D40DE008F101018846B94254
:1045A0000FDA8045F8DB1AF808100029F4D108E08A
:1045B00008F1010188468142FADB1AF80810002947
:1045C000F6D105985B46A0EB080721463846179AB6
:1045D00000F094FA284400EB080507E04DE029E1DB
:1045E0000DE01AF8010B5A4617999047B8F10108E7
:1045F000F7D25B4621463846179A13E142E00A2279
:104600000092C4F302524FF0000A022A08D059F86F
:1046100004CB032A4FEAEC710AD00DE029E02AE02E
:1046200009F1070121F00702F2E802C1914609E011
:104630000FFA8CFC4FEAEC71042A03D14FFA8CFC80
:104640004FEAEC71002907DA0A460021DCF1000C80
:1046500061EB02012D2202E0220504D52B228DF808
:104660000420012203E0E20701D02022F7E7904670
:1046700059E00A2102E010220DE010214FF0000A5B
:1046800000910BE010224FF0000A44F004040827C8
:10469000009203E008224FF0000A0092C4F3025295
:1046A000022A05D059F804CB0021032A08D009E0DA
:1046B00009F1070121F00702F2E802C1914605E085
:1046C0001FFA8CFC042A01D10CF0FF0C4FF00008FB
:1046D000220728D5702806D0009B83F0100353EAE8
:1046E0000A0305D00EE040228DF80420012208E0E4
:1046F0005CEA010206D030228DF804208DF8050016
:1047000002229046009B83F0080353EA0A030AD171
:104710005CEA010201D1620705D530228DF8042040
:104720004FF001087F1E582804D034A003900EA833
:1047300002900DE036A0F9E753466046009AFCF778
:104740009DF884460398825C0298401E0290027095
:104750005CEA0100F0D1029806A9081A00F1200ACB
:10476000600702D524F4803400E00127574502DDBC
:10477000A7EB0A0000E0002000EB0A01009005987A
:104780004144401A0590E00306D45B462146179A3F
:10479000059800F0B3F90544002706E001A85A4641
:1047A000C05D179990476D1C7F1C4745F6DBE00301
:1047B0000CD55B462146179A059800F09FF90544F1
:1047C00004E030205A46179990476D1C0099481E06
:1047D00000900029F5DC08E0029802995A4600781A
:1047E000491C0291179990476D1CBAF10001AAF17A
:1047F000010AF1DC65E100000928010030313233A3
:10480000343536373839616263646566000000000C
:1048100030313233343536373839414243444546F6
:104820000000000000F058F90544761C307800289C
:104830007FF4ECAD19B02846BDE8F08F620700D4D4
:10484000062709F1070222F0070CFCE80223E146E3
:1048500003F000485FEA080C02D00FF2702C0DE064
:104860005FEA045C02D50FF2682C07E05FEAC47CC3
:1048700002D00FF2602C01E0AFF2700C4FF0FF3865
:1048800023F00043CDF850C065280CD006DC452845
:1048900009D046281DD047283DD13DE0662818D0D4
:1048A00067287ED138E00021112F01DB112000E0C4
:1048B000781CCDE9000106A90EA8FFF7DDFCDDE9B3
:1048C0000F010E9A03910021009207F1010A049151
:1048D0004DE04FF000400097CDE9011006A90EA869
:1048E000FFF7CAFCDDE90F0203920E9B119900222B
:1048F000DDF80CA00093049211B9791C00EB010AB9
:10490000B7EB0A0004D4C0F1FF3007F1010A0490AC
:10491000AAEB0700019044E0012F00DA01270021F3
:10492000112F01DD112000E03846CDE9000106A974
:104930000EA8FFF7A1FCDDE90F010E9A03910021FB
:1049400004910092BA4621070CD40399514500DA2C
:104950008A46BAF1010F05DD009AAAF10101515C06
:10496000302908D0B84202DA10F1040F06DA01212A
:10497000CDE9011015E0AAF10101E9E7002805DC05
:10498000049901440491AAEB000102E0411C514545
:1049900000DD8A460499401A401C01904FF0004007
:1049A0000290200704D40198504501DBCDF8048023
:1049B00000208DF84F0002980DF14F07B0F1004F25
:1049C00025D02B200E9002984FF0020800280CDA18
:1049D000404202902D200E9007E00A210298FBF73A
:1049E00037FF3031029007F8011DB8F10001A8F13E
:1049F0000108F2DC02980028EFD1791E0E980870A9
:104A0000307800F0200040F0450007F8020D12A8B1
:104A1000C01B00F107081498007800B1012000EBDA
:104A20000A01019801EBE07105984144401A401ECB
:104A30000590E00306D45B462146179A059800F0DE
:104A40005DF805441498007818B15A4617999047B4
:104A50006D1CE00324D55B462146179A059800F0AB
:104A60004DF805441CE00498002807DBDDE903014C
:104A7000884203DD0098405C179901E017993020C7
:104A80005A469047049805F10105401C049001988E
:104A9000401E019004D12E205A46179990476D1C54
:104AA000BAF10001AAF1010ADDDC05E017F8010BFB
:104AB0005A46179990476D1CB8F10001A8F10108FA
:104AC000F4DC5B462146179A0598ABE62D00000002
:104AD0002B000000200000002DE9F04104460025D5
:104AE0001E461746880404D405E039462020B04706
:104AF0006D1C641EF9D52846BDE8F0812DE9F04112
:104B0000044600251E469046C80301D5302700E024
:104B10002027880404D505E041463846B0476D1C7F
:104B2000641EF9D52846BDE8F0810A68531C0B6065
:104B30001070704710B50446A078012803D0A07803
:104B4000FF2800D010BD4FF49A7221460F48FBF7A2
:104B500057FBE078E0280FD004DCC02807D0C1283C
:104B600010D105E0E12808D0F0280BD109E000BF02
:104B70002046FCF799F905E000BF2046FCF736FA1D
:104B800000E000BF00BF00BFDCE70000723E002075
:104B900010B50146002200230878AB2801D0002080
:104BA00010BD002006E00C5C1444E2B29C18E3B295
:104BB000441CA0B28C88A41D8442F4DC91F832011C
:104BC000904205D191F83301984201D10120E7E7E5
:104BD0000020E5E72DE9F04104460D46FCF758FAC0
:104BE000A04201DABDE8F0810F4850F82400C06807
:104BF00028B90D4850F824000068056012E00A4901
:104C000051F82410C868FBF79CFD06462846FBF7C0
:104C10008FFD07463146FBF7C5FB034951F82410C9
:104C20000968086000BFDDE79C3500202DE9F041F0
:104C300004464FF00E4000EB4400B0F1506F2046A8
:104C400055D84FF0FC41B1EB440F1CD224F000408A
:104C50004FF07E51FBF771FB4FF0FF31FBF7A7FEE2
:104C6000054602F0ABFF14F0004F1DBF2F4F304E32
:104C700080F000402F4F08BF2F4E4FF04041FBF710
:104C80005FFB044605E000273E460146FBF758FB64
:104C900005462A492846FBF753FB2949FBF7F8FA52
:104CA0002946FBF74DFB2749FBF7F2FA2946FBF7AC
:104CB00047FB2549FBF7ECFA2946FBF741FB234963
:104CC000FBF7E6FA804629462046FBF739FB4146CA
:104CD000FBF736FB054631462046FBF7D9FA294655
:104CE000FBF7D6FA3946BDE8F041FBF7D1BA4FF0F1
:104CF000E441B1EB440F08D9FFF724FA042808BFB8
:104D0000FFF79FFA2046BDE8F0814FF07F41B1EBFD
:104D1000440F03D2BDE8F041FFF78ABA0120FFF744
:104D2000A5FABDE8F041FFF788BA00000000C9BF4E
:104D300022AAFDB90000C93F22AAFD3924FE1C3D6C
:104D4000C78AD83C1E67383D1B93993DAFAA2A3EBF
:104D50002DE9F84F04460D4621F0004000917349BB
:104D6000814211DC7249884201DC06D12CB1204617
:104D70002946BDE8F84FFFF74DBA6E48002DCCBF6D
:104D80006D496E49BDE8F88F6D49814211DD6D496D
:104D90008142D8BF4FF0FF366DDD20462946FFF730
:104DA000BDF9042808BFFFF73BFA20462946BDE8B5
:104DB000F88F6549654F25F00045814233DD644930
:104DC000814219DD002632464FF0804320462946B5
:104DD000FBF726FB80468A46012220462946FBF740
:104DE00012FF00223B46FBF7BCFB42465346FBF753
:104DF00030FC04460D463EE001260022BA463B4602
:104E000020462946FBF70CFB80460F4600225346FE
:104E100020462946FBF7A5FB42463B46FBF719FC1B
:104E200004460D4627E04B4981421BDDDFF828A1EF
:104E300002260022534620462946FBF798FB002213
:104E40003B46FBF7EDFA80460F46002253462046CC
:104E50002946FBF786FB42463B46FBF7FAFB044636
:104E60000D4608E0032622462B4600203B49FBF76F
:104E7000F0FB04460D4622462B4610461946FBF72A
:104E800076FB8B46824602460B46FBF770FB0746D5
:104E90000246334888460B4606217844FFF765F9F9
:104EA00052465B46FBF763FB82462E488B463A46EA
:104EB000434605217844FFF758F93A464346FBF745
:104EC00056FB02460B46002E504659460CDAFBF7BD
:104ED000A7FA22462B46FBF74AFB01B022462B4697
:104EE000BDE8F04FFBF740BBFBF79AFA22462B4692
:104EF000FBF73DFB1C4A7A4402EBC603D3E90023CF
:104F0000FBF72FFB22462B46FBF72BFB174A7A4475
:104F100002EBC603D3E90023FBF726FB009A002A25
:104F2000B8BF81F00041BDE8F88F000000001044D8
:104F30000000F07F182D4454FB21F93FFB21F9BFFD
:104F40000000DC3F0000203E0000F33F0000F03F87
:104F50000000E63F008003400000F83F0000F0BF83
:104F60006A74000028740000C67300008E7300008D
:104F70002DE9F04D9446CCF1000423F000464CEAB4
:104F80000404524F46EAD4749A46884621F00042FF
:104F9000BC4206D8454240EA050442EAD474BC4209
:104FA00004D9BDE8F04D6246FFF737B9AAF1405584
:104FB000A5F17F6555EA0C040BD0022404EAAA741B
:104FC000434DDFF810E144EAD87452EA000B04D0F4
:104FD0000CE0BDE8F04DFFF7BBBE002C14BF012C68
:104FE000BDE8F08D022C30D0032C32D056EA0C0BE9
:104FF0000AD0BE4220D1BA4209D126F0804622F022
:1050000080423346114617E000291ADB25E0DFF81D
:10501000C8B0FB44002C04BFDBE90001BDE8F08D03
:10502000012C02BFDBE9000181F00041BDE8F08DF9
:10503000022C0AD0032C0CD0BA4212D1B8F1000FC6
:105040000BDA23482549BDE8F08D28462449BDE800
:10505000F08D28467146BDE8F08D1D482149BDE818
:10506000F08D921B12153C2AC4BF19481D490EDC55
:10507000BAF1000FBEBF12F13C0F0020014606DB63
:105080006246FBF7E6FA21F00041FFF761FE002CD3
:1050900008BFBDE8F08D012C04BF81F00041BDE8E0
:1050A000F08D114A114B022C07D0FBF75AFA2A4611
:1050B000BDE8F04D0A4BFBF754BAFBF752FA2A460B
:1050C000BDE8F04D064BFBF74FBA00000000F07F43
:1050D000182D4454FB2109C022730000FB21F9BFA5
:1050E000FB210940FB21F93F075C143326A6A13CB4
:1050F0002DE9F0474FF0684202EB40030C460546AD
:10510000B3F1654F3CBF02EB4102B2F1654F7CD277
:10511000C0F3C753C1F3C7529A1A1B2A06DD10F019
:10512000004F14BF76487748BDE8F08712F11A0F98
:1051300017DA11F0004F06D010F0004F0CBF724884
:105140007248BDE8F08721462846FBF72BF9044654
:10515000FEF7F8FF042808BFFFF773F82046BDE804
:10516000F0874200B2EB410F25D910F0004F19BF74
:10517000674F684E684F694E224685F000441546D9
:105180000A4680F0004110460A1A5200B2F1807FB0
:1051900040D248406249DFF88CA110F0004F18D08F
:1051A0004FF03F483846FBF7C5F8074651463046B2
:1051B000FBF7C0F817E011F0004F04BF0026374698
:1051C000E2D010F0004F19BF574F584E584F594E6C
:1051D000DAE74FF07C583846FBF75AF80746514655
:1051E0003046FBF755F8064641462846FBF7A8F837
:1051F0002146FBF74DF8824621464046FBF7A0F8D2
:105200002946FBF79AF8514600E037E0FBF7CAF869
:10521000044604E021462846FBF7C4F8044601464C
:10522000FBF78EF880464449FBF78AF84349FBF7C1
:105230002FF84146FBF784F84149FBF729F841462E
:10524000FBF77EF83F49FBF723F84146FBF778F878
:105250003D49FBF71DF8054641462046FBF770F82F
:105260002946FBF76DF83146FBF712F82146FBF7AC
:105270000FF83946BDE8F047FBF70AB84FF07F4218
:10528000B2EB400F28BFB2EB410F03D2BDE8F047AD
:10529000FEF7D1BF40EA01035B0008BF44F0FF41C5
:1052A0000AD0B2EB400F08BFB2EB410F06D125F098
:1052B000804024F0804105460C4629E7B2EB400FC0
:1052C00012BF5FEA410245F0FF4004F000413FF4A5
:1052D0001FAF4A0092EA40033FF51AAF002AACBF65
:1052E0004FF09F464FF03E563146FBF729F80546F2
:1052F00031462046FBF724F804462846214607E7B6
:10530000DB0FC9BFDB0FC93FDB0F4940DB0F49C0D3
:105310000000C9BF22AAFDB90000C93F22AAFD3979
:105320000060ED3EC30ACE37000049C022AA7DBA14
:105330000000494022AA7D3A2DAD65BD8FB8D53D0C
:105340000FB511BE61C84C3EA8AAAABE00B585B073
:1053500001214FF40170FEF7D7FB1F20ADF81000BC
:1053600000208DF8130004A91948FCF7A7FD4FF49D
:105370000040FEF7ADFB1748FBF792FC00200090C1
:105380008DF804008DF805004FF460200290002095
:10539000039001208DF8100069460E48FBF7D0FC01
:1053A00001210C48FBF771FC0A48FBF74DFD00BFDB
:1053B0000848FBF7BAFC0028FAD10648FBF754FD71
:1053C00000BF0448FBF79AFC0028FAD105B000BDE5
:1053D000000801400024014008B501210420FEF727
:1053E00093FB01210820FEF78FFB01210846FEF701
:1053F0008BFB01210B48FCF7EDFD49F24000ADF8B5
:10540000000048208DF8030069460748FCF756FD68
:105410004FF44E70ADF8000069460448FCF74EFDAD
:1054200008BD00000002300000080140000C0140EF
:1054300008B501211020FEF767FB4FF40050ADF8CE
:10544000000010208DF8030003208DF8020069464B
:105450000148FCF733FD08BD001001401FB50446AC
:10546000012144F20400FEF74FFB4FF40070ADF849
:105470000C0003208DF80E0018208DF80F0003A9F2
:105480001C48FCF71BFD4FF48060ADF80C000420B5
:105490008DF80F0003A91748FCF710FD25208DF8A3
:1054A0000C0003208DF80D0000208DF80E00012067
:1054B0008DF80F0003A8FEF769F800940020ADF8FE
:1054C0000400ADF80600ADF80800ADF80C000C20A3
:1054D000ADF80A0069460848FEF784FD012240F253
:1054E00025510548FEF759FD01210348FEF712FD3D
:1054F0001FBD0000000801400038014010B5042025
:10550000FEF7ACFC48200C49087048244FF47A7030
:1055100044430120094908804FF0E020006940F031
:1055200002004FF0E021086108464461006940F044
:105530000100086110BD0000280000202A000020A2
:1055400070B5044603F0B0FC012811D00C48008867
:10555000844206DB0A48008894FBF0F5284602F0F6
:10556000CBFD0748008894FBF0F100FB114084B2AA
:105570004FF47A7104FB01F000F004F870BD0000F4
:105580002A00002070B5034600224FF0E02675691E
:105590000D4E367803FB06F44FF0E026B16910E0BB
:1055A0004FF0E026B06988420BD0884202D20E1A32
:1055B000324402E02E1A0E4432440146A24200D385
:1055C00000E0EDE700BF70BD2800002070B5044684
:1055D0000D46E1B20548FEF776FD00BF8021034885
:1055E000FEF7A4FC0028F9D0204670BD0038014029
:1055F00010B50723012200210848FBF7C9FB012150
:105600000648FBF726FC00BF02210448FBF784FB99
:105610000028F9D00148FBF77BFB10BD00240140B6
:1056200010B50723012211460848FBF7B1FB012101
:105630000648FBF70EFC00BF02210448FBF76CFB99
:105640000028F9D00148FBF763FB10BD002401409E
:1056500010B50723012204210848FBF799FB01211B
:105660000648FBF7F6FB00BF02210448FBF754FB9A
:105670000028F9D00148FBF74BFB10BD0024014086
:1056800010B50723012202210848FBF781FB012105
:105690000648FBF7DEFB00BF02210448FBF73CFB9A
:1056A0000028F9D00148FBF733FB10BD002401406E
:1056B00010B50723012203210848FBF769FB0121EC
:1056C0000648FBF7C6FB00BF02210448FBF724FB9A
:1056D0000028F9D00148FBF71BFB10BD0024014056
:1056E000FDF7EAFFFCF768FE08E0FCF7BFFC0448A2
:1056F000006802F0F7FA142002F0FEFCF5E7000063
:10570000440000204FF44070FDF778FF4FF4E13083
:10571000FFF7A4FEFFF7F2FEFFF78AFEFFF716FE83
:10572000FFF75AFE02F060FA02F04EFE00BFFEE7FD
:1057300000B593B0202101A8FAF77BFD4FF0FF31AF
:105740004F48006803F05CFA01280BD124224D4930
:1057500009A8FAF755FD00231A461946484800687B
:1057600003F012F8A3208DF80400BDF83E00000AF3
:105770008DF80500BDF83E00C0B28DF80600BDF8FA
:105780004000000A8DF80700BDF84000C0B28DF857
:105790000800BDF84200000A8DF80900BDF842007B
:1057A000C0B28DF80A00BDF84400000A8DF80B0065
:1057B000BDF84400C0B28DF80C00BDF82400000A0A
:1057C0008DF80D00BDF82400C0B28DF80E00BDF8B4
:1057D0002600000A8DF80F00BDF82600C0B28DF833
:1057E0001000BDF82800000A8DF81100BDF828004F
:1057F000C0B28DF812009DF83C008DF813000C9893
:1058000012909DF848008DF814009DF849008DF81D
:1058100015009DF84A008DF816009DF84B008DF894
:1058200017000D9812909DF848008DF818009DF80B
:1058300049008DF819009DF84A008DF81A009DF86E
:105840004B008DF81B000E9812909DF848008DF8C3
:105850001C009DF849008DF81D009DF84A008DF848
:105860001E009DF84B008DF81F003A208DF8200097
:1058700001A8FDF723FE0449087013B000BD000025
:10588000E400002094090020EA000020FDF71AFD42
:10589000FDF7F8FC05490880FDF7DCFD04E0FFF7A3
:1058A00047FF322002F028FCF9E70000E800002062
:1058B0002DE9F04105460E461C4807681C48006863
:1058C000001D02F0A8FA50B91948006890F82C1091
:1058D0000120884017490968814316480160681C07
:1058E00038B936B112480168091D134802F0D1FADF
:1058F0001AE07C190E4800684460BC4207D20C488C
:105900000168091D0D48006802F0A9FA0CE008487A
:105910000168091D0A48006802F0A1FA09480068F8
:10592000844201D207480460BDE8F0811C040020D5
:105930000804002020040020C80C002010040020CF
:105940000C0400203804002010B5044602F0AEFA22
:1059500024480068401C234908602348006840B977
:10596000214804600846006801280DD100F0F2F9D2
:105970000AE01E48006838B91B480068C06AE16A3E
:10598000884201D81848046019480068401C18492A
:10599000086008460068606494F82C100120884074
:1059A00014490968084313490860E16A01EB810161
:1059B000114A02EB8100211D02F06BFA02F0A0FAFD
:1059C0000A48006868B108480068C06AE16A88420D
:1059D00007D24FF0805009490860BFF34F8FBFF3E3
:1059E0006F8F10BD1804002008040020240400203C
:1059F0003404002020040020F809002004ED00E019
:105A000010B502F053FA10480068D0B90F4802F000
:105A100016FA0F4802F013FA0C480E4908600C48B9
:105A20000D49086000221021052002F010FE0649F1
:105A300008600846006820B108A10348006802F029
:105A40001FFB02F05DFA10BD50040020DC0C0020AA
:105A5000F00C0020480400204C040020546D7251CA
:105A60000000000010B516E002F020FA0C48C068F3
:105A7000C468201D02F0CFF90A480068401E094999
:105A8000086009480068401E0749086002F038FABB
:105A9000204600F05FF8044800680028E4D110BDFB
:105AA000B40C0020180400201404002070B5044633
:105AB0000D46206C70B1216CE0680144E160D4E9CE
:105AC0000210884201D32168E1602846226CE16817
:105AD000FAF796FB70BD2DE9F04104460F461546D6
