:020000040800F2
:1000000070390020DD0100088F1500082510000858
:100010008D150008210D00081123000800000000C4
:100020000000000000000000000000004501000882
:10003000230D000800000000890100083921000894
:10004000F7010008F7010008F7010008F7010008B0
:10005000F7010008F7010008F7010008F7010008A0
:10006000F7010008F7010008F7010008F701000890
:10007000F7010008F7010008F7010008F701000880
:10008000F7010008F7010008F7010008F701000870
:10009000F7010008F7010008F7010008F701000860
:1000A000F7010008F7010008F7010008F701000850
:1000B000F7010008F7010008F7010008F701000840
:1000C000F7010008F7010008F7010008F701000830
:1000D000F70100089D210008F7010008F70100085A
:1000E000F7010008F7010008F7010008F701000810
:1000F000F7010008F7010008F7010008F701000800
:10010000F7010008F7010008F7010008F7010008EF
:10011000F7010008F7010008F7010008F7010008DF
:10012000F7010008F7010008F7010008F7010008CF
:10013000DFF80CD000F0C2FC00480047013A00088C
:1001400070390020224B19680868B0E8F00F80F37E
:100150000988BFF36F8F4FF0000080F311884EF0D5
:100160000D0E70470000000006480068006880F32C
:10017000088862B661B6BFF34F8FBFF36F8F00DFA1
:1001800000BF00BF08ED00E0EFF30980BFF36F8F01
:100190000F4B1A6820E9F00F106008B54FF05000BF
:1001A00080F31188BFF34F8FBFF36F8F06F0F0FA23
:1001B0004FF0000080F31188BDE808401968086816
:1001C000B0E8F00F80F30988BFF36F8F704700BF6E
:1001D000EC040020EFF305807047000006488047DC
:1001E00006480047FEE7FEE7FEE7FEE7FEE7FEE71C
:1001F000FEE7FEE7FEE7FEE74D21000831010008BB
:1002000040EA01039B0703D009E008C9121F08C098
:10021000042AFAD203E011F8013B00F8013B521E18
:10022000F9D27047D2B201E000F8012B491EFBD28F
:1002300070470022F6E710B513460A4604461946F1
:10024000FFF7F0FF204610BD421C10F8011B0029EB
:10025000FBD1801A704710B5002200E0521C835C6D
:100260008C5CA34201D1002BF8D1D8B2E1B2401A84
:1002700010BD30B505460020034600E05B1C9342EC
:1002800005D2EC5CC85C201A01D1002CF6D130BD3F
:10029000F0B480EA0102D40F4200B2EB410F02D267
:1002A0000246084611464A0042D0C30DDDB2C1F3F2
:1002B000C752AD1A202D35DAC1F3160141F4000200
:1002C00004B15242C5F1200602FA06F12A41104457
:1002D000B3EBD05F23D0C4B1012DA0EBC35009DC38
:1002E000F0BC4FF0004202EAC352DBB200F500005E
:1002F00000F0D8BA400000F1807000EBC350A0F1CC
:10030000807040EAD170490009E0490841EAC071B3
:10031000A0EBC35000F50000400800EBC350F0BC58
:1003200000F0B7BA6142012202EB4101001BF6E77F
:10033000F0BC704781F00041AAE780F00040A7E7D9
:1003400080EA010210B502F00043400022D04A00CA
:100350001FD0010E01EB1261C0F35600C2F356022A
:1003600040F4000042F40002A0FB022000047F39A8
:10037000140400D0401C50EA124001D44000491E31
:10038000C2B20C0604EBD010401C4008802A02D0F8
:1003900003E0002010BD20F00100002900DA002059
:1003A000184310BD30B480EA010202F0004530F07D
:1003B000004221F0004013D090B1C30DD40DC2F320
:1003C0001601C0F31600E41A41F4000140F40002E3
:1003D0007D34914201D3641C00E04900002C02DA14
:1003E00030BC002070474FF400000023914201D33D
:1003F000891A034340084FEA4101F7D151B19142B4
:1004000002D14FF0004105E002D24FF0010101E0BE
:100410006FF0010103EBC450284430BC00F039BA3E
:10042000420005D0C0F3C7525242914201DC002085
:10043000704700EBC15070472DE9FE4F804681EABE
:100440000300C00F0C46009021F0004123F000454E
:10045000B8EB0200A94105D24046214690461C4611
:100460000B46024623F00040104347D0270DC7F348
:100470000A00C3F30A510290401A019040286BDA37
:10048000C3F3130040F4801B0098924620B1002370
:10049000D2EB030A63EB0B0B01985946C0F1400203
:1004A000504600F0D5F906460D4650465946019A89
:1004B00000F0DDF910EB08006141002487EA1152D9
:1004C00084EAE7731A4340D0009A62B3019A012A82
:1004D0004FEA075215DC001B61EB02014FF00042AE
:1004E00002EA0752CDE90042001C41F58011324674
:1004F0002B4600F014FA03B0BDE8F08F40462146C9
:10050000F9E7001B61EB0201001C41F580130018A4
:100510005B412018A2F5001747EB030140EAD570B4
:10052000B6196D4111E06D084FEA360645EAC0750F
:100530004FEA0752001B61EB0201001C41F58011DC
:1005400049084FEA30000019514132462B4603B0AA
:10055000BDE8F04F00F0D4B900980122400000231C
:10056000D0EB020263EBE073009821464FEAE0749F
:10057000B8EB000061EB0401E9E783F000435BE7BF
:1005800081F0004158E72DE9FE4F81EA030404F0B1
:10059000004421F0004100944FF0000B23F0004391
:1005A00050EA01045ED052EA03045BD0C3F30A545C
:1005B000C1F30A552C44A4F2F3340194A0FB025475
:1005C000C1F3130141F48011C3F3130343F4801307
:1005D00001FB024400FB034E840A970A44EA81545B
:1005E00047EA8357A4FB076802958D0A05FB078538
:1005F0004FEA932C04FB0C542705029D4FEA065842
:1006000047EA1637B5EB08056EEB070C870E920E1E
:1006100047EA811742EA8312A7FB0201B6EB0B01FE
:1006200064EB00042B0D43EA0C335E1844EB1C50C2
:10063000DA465146E7FB0201C5F313044FEA0B33D8
:1006400043EA14534FEA0432019C43EA0603A4F13F
:100650000C040294009CCDE900B400F060F903B0F2
:10066000BDE8F08F00200146F9E72DE9F04D81EA61
:10067000030404F0004B21F0004514464FF0000A3B
:1006800023F0004150EA050220D054EA01021DD0B7
:10069000C5F30A570246C5F31303C1F31300C1F3B0
:1006A0000A5640F4801543F48013A7EB0608101B8C
:1006B000D64608F2FD3873EB050002D308F10108B5
:1006C00001E092185B41B8F1000F03DA0020014607
:1006D000BDE8F08D00204FF48011064684460EE000
:1006E000171B73EB050705D3121B63EB05030643CA
:1006F0004CEA010C49084FEA300092185B4150EA7D
:100700000107EDD152EA030012D082EA040083EA25
:100710000501084305D0101BAB4106D2012200237E
:1007200006E000224FF0004302E06FF00102531098
:100730001AEB06004CEB085110EB0A0041EB0B01E1
:10074000BDE8F04D00F0DCB8C10F80EAE07008446D
:10075000CA079623002100F0A5B89623002211466F
:1007600000F0A0B800F0004230F000400AD0C10D07
:1007700001F56071C0F3160042EA0151C20840075A
:100780001143704700200146704701F0004330B428
:1007900021F0004150EA010206D00A0DA2F5607274
:1007A000C1F31301002A02DC30BC00207047440F63
:1007B00044EAC104C100E01830BC00EBC25000F0B4
:1007C00068B830B50B46014600202022012409E01C
:1007D00021FA02F59D4205D303FA02F5491B04FAFA
:1007E00002F52844151EA2F10102F1DC30BD2DE90D
:1007F000F05F0546002092469B46884606468146A5
:1008000040241BE0284641464746224600F068F94E
:1008100053465A46C01A914110D3114618462246F3
:1008200000F016F82D1A67EB01084F46224601200A
:10083000002100F00DF817EB00094E41201EA4F135
:100840000104DFDC484631462A464346BDE8F09FB6
:10085000202A04DB203A00FA02F100207047914080
:10086000C2F1200320FA03F3194390407047202A75
:1008700006DBCB17203A41FA02F043EAE07306E0C8
:1008800041FA02F3D040C2F12002914008431946D8
:1008900070470029A8BF7047401C490008BF20F0DE
:1008A0000100704710B4B0FA80FC00FA0CF050EA76
:1008B000010404BF10BC704749B1CCF1200421FAF7
:1008C00004F411FA0CF118BF012121430843A3EBF2
:1008D0000C01CB1D4FEA00614FEA102042BF0020FF
:1008E00010BC704700EBC35010440029A4BF10BCDB
:1008F0007047401C490008BF20F0010010BC704741
:1009000010B5141E73F1000408DA401C41F1000117
:1009100092185B411A4301D120F0010010BD2DE96E
:10092000F04D92469B4611B1B1FA81F202E0B0FA65
:1009300080F220329046FFF78BFF04460F4640EAD4
:100940000A0041EA0B0153465A46084313D01146A8
:1009500053EA010019D0C8F14002504600F0C0F837
:1009600005460E46504659464246FFF771FF08437A
:1009700005D0012004E020463946BDE8F08D002076
:10098000054346EAE0762C4337430A986305E40AB8
:10099000A0EB08000022FD0A44EA47540A3002D5C1
:1009A00000200146E9E7010510196941DDE9084524
:1009B00000196941BDE8F04DA2E72DE9F04D002393
:1009C0001A461B1A8A4103DB00200146BDE8F08D60
:1009D000C1F30A52C1F3130141F480154FF0000B2B
:1009E000D10702D100186D41521E0027044640F283
:1009F000FF11384601EB620A3E468046024600205F
:100A00004FF4801100F06CF8C2197141BB1846EB2D
:100A10000100B4EB030C75EB000C04D3E41A65EB96
:100A2000000517460E46241908F101006D41804665
:100A30003428E3DDF91946EB0600091BA84103D26F
:100A40004FF0FF32134601E0002213461BEB070074
:100A500046EB0A51BDE8F04DFFF752BFC1F30A5211
:100A6000C1F3130140F2FF3341F480119A4202DADC
:100A700000200146704740F233439A42A2F23342CB
:100A800002DC524200F02CB8FFF7E2BE30B5041E83
:100A900071F1000404DB4FF00044404264EB0101BB
:100AA000141E73F1000405DB1C464FF00043524254
:100AB00063EB0403994208BF904230BD064C074DDA
:100AC00006E0E06840F0010394E80700984710341E
:100AD000AC42F6D3FFF730FBFC9900081C9A0008E3
:100AE000202A04DB203A21FA02F00021704721FA83
:100AF00002F3D040C2F120029140084319467047EA
:100B0000F0B4002802DCF0BC00207047C0F3C751ED
:100B1000C0F3160040F40000CA0701D14000491E8E
:100B20003F2202EB6105002211464FF4000626FA2F
:100B300001F31344D418844201D8001B1A46400024
:100B4000491C1729F3DD5100814202D24FF0FF31D9
:100B500000E0002102EBC550F0BCFFF79ABE70B573
:100B60008C1810F8015B15F0070301D110F8013B58
:100B70002A1106D110F8012B03E010F8016B01F8DF
:100B8000016B5B1EF9D12B0705D40023521E0DD437
:100B900001F8013BFAE710F8013BCB1A921C03E085
:100BA00013F8015B01F8015B521EF9D5A142D8D3BD
:100BB000002070BD0029816802D041F0010101E0F0
:100BC00021F00101816070470D4910B5884202D1C2
:100BD000012144150AE00B49884202D10121041584
:100BE00004E0094988420AD10121CC03204601F0E2
:100BF00059F92046BDE81040002101F053B910BD5D
:100C00000024014000280140003C01400146002032
:100C10008968490700D501207047C06C80B27047D1
:100C20000246002012680A4200D0012070470146A7
:100C300000208968090700D50120704710B5426877
:100C40000E4B0C791A400B6842EA042213434360AE
:100C500083680B4A1340D1E9024222434C7943EAAC
:100C600044031A438260C26A097C22F47002491E5E
:100C7000C9B242EA0151C16210BD0000FFFEF0FF9F
:100C8000FDF7F1FF70B5072409290AD9C568A1F15C
:100C90000A0606EB4606B440A543B3401D43C560B3
:100CA00007E0056901EB4106B440A543B3401D438D
:100CB00005611F23072A09D2446B521E02EB8202F0
:100CC00093409C4391400C43446370BD0D2A09D26C
:100CD000046BD21F02EB820293409C4391400C4371
:100CE000046370BDC46A0D3A02EB820293409C43D8
:100CF00091400C43C46270BD816841F0080181607D
:100D000070470029816802D041F4A00101E021F47C
:100D1000A00181607047816841F0040181607047E3
:100D2000FEE77047014801F0EBBA000000380140CF
:100D30002DE9FC4706460025224800F073FD224CB1
:100D4000606800698047A07000F0D4F8606881682E
:100D5000304688476068C168301DFFF77CFA78B17B
:100D60004FF001081027CDE9007820783E230007D6
:100D7000020E0021134800F009FFA146444616E088
:100D800000F0FEFB19E000BFCDE9007499F9010005
:100D9000284400EB800101EBC00006EB800328072C
:100DA000020E08210748133300F0EDFF6D1C306878
:100DB00001784078081AA842E6DCBDE8FC47014803
:100DC00000F0C2BEA40400202C00002001490860ED
:100DD0007047000014040140F0B5CA78002502F005
:100DE0000F03D20601D58A7813430A784FF00F0E0D
:100DF00012F0FF0F4FF001021CD004680F8802FAB6
:100E000005F63740B74211D14FEA850C0EFA0CF7C0
:100E100024EA070703FA0CF43C43CF78282F02D0CA
:100E2000482F02D002E0466100E006616D1C082DEB
:100E3000E4D304600C88FF2C1ED944685FF00006E0
:100E400006F1080702FA07F50F882F40AF420FD1CD
:100E50004FEA860C0EFA0CF7BC4303FA0CF73C433E
:100E6000CF78282F00D14561CF78482F00D1056178
:100E7000761C082EE4D34460F0BD0000F0B5144C9D
:100E8000002801DAE36900E06368420D120185B2CF
:100E9000C0F301579540C0F30346032F05D0C202AB
:100EA0000AD50322B240934307E023F070626368DF
:100EB00023F07063636002E0AB4343F0706201B102
:100EC0002A43002801DAE261F0BD6260F0BD000053
:100ED000000001400246002092680A4200D0012032
:100EE0007047016170470000014840680068004792
:100EF0002C0000202DE9F041374C00252146A67832
:100F000091F9002091F901008B68012E14D0022E76
:100F100025D091F9017091F900C08968674407EB09
:100F2000870C0CEBC70701EB8701032E2DD0042E95
:100F300013D110432FD038E0521E51B22170002936
:100F40000BDA10B12570401E06E01868017842786F
:100F5000891A491E217040786070BDE8F081521CEA
:100F600051B221701A68137852789B1A5B1E8B421B
:100F700004DA824202D02370401CEDE78B42ECDAA7
:100F80008242EAD125706570E7E7486A0028E4D01C
:100F9000BDE8F041004702EB820000EBC20003EB2A
:100FA0008000C06A08B1A060D7E7086B0028886A93
:100FB000ECD000B1804794F9000094F90110084486
:100FC00000EB800101EBC000A16801EB8000006B29
:100FD000A0602570C1E700002C0000200D4A002011
:100FE00001461378012B0DD00B4A1378012B0BD03F
:100FF0000A4A1378012B0AD0094A1378012B05D12C
:10100000042002E0012000E002201170704703205C
:10101000FBE7000038000020390000203A000020E3
:101020003B000020FEE700000748417809B9012194
:1010300041700648D0F8B41119B10021C0F8B411BC
:1010400070470121FAE7000038000020000022422A
:101050000748817809B9012181700648D0F8B41198
:1010600019B10021C0F8B41170470121FAE700005E
:1010700038000020000022420748C17809B9012148
:10108000C1700648D0F8B41119B10021C0F8B411EC
:1010900070470121FAE700003800002000002242DA
:1010A00010B40024244B254A2549012802D0106998
:1010B00008B10CE01461D3F83C01D8B1D1F80C01AF
:1010C000C0B1D1F81001A8B1D1F8140190B1D3F892
:1010D0003C0101280CD1D1F80C01012808D1D1F82C
:1010E0001001012804D1D1F81401012800D11461A4
:1010F00010BC7047D068401CD0600228F8DD012089
:10110000C2E90340D3F83C0160B1D1F80C0160B1F1
:10111000D1F8100160B1D1F814010028E8D110BC59
:10112000FFF7AABF10BC00F00DB810BCFFF77CBFE2
:1011300010BCFFF78DBF00000000214238000020E6
:10114000008021420748017809B901210170064851
:10115000D0F8B41119B10021C0F8B41170470121C1
:10116000FAE7000038000020000022422DE9FF4F7E
:10117000DFF8FC838BB01E46D8F80010DDE919A516
:101180008B464446DDF860905846FFF7D9F8029048
:10119000616858460F46FFF7D3F80690A168584695
:1011A0000791FFF7CDF804903946E4680846FFF749
:1011B000C7F8039021463846FFF7C2F807998346DF
:1011C0000846FFF7BDF8009021460798FFF7B8F8EA
:1011D000214607900846FFF7B3F816F0FF4F01903D
:1011E00005D119F0FF4F02D11AF0FF4F7DD05146C3
:1011F0000846FFF7A5F8074649460846FFF7A0F856
:10120000044631460846FFF79BF82146FFF740F8B1
:101210003946FFF73DF8FFF7A5FA04F039FEFFF76E
:10122000B4FA044601463046FFF7BCF80E9021465A
:101230004846FFF7B7F8189021465046FFF7B2F836
:10124000824658460499FFF775F80121FFF7E8F840
:101250000746DDE90601FFF71BF80121FFF7E0F87B
:101260000646DDE90201FFF765F80099FFF762F82D
:101270000199FFF70DF8044631465046FFF760F834
:10128000814621461898FFF75BF84946FFF752F868
:10129000834621460E98FFF753F8044639465046D8
:1012A000FFF74EF82146FFF745F882463946189871
:1012B000FFF746F8044631460E98FFF741F82146FD
:1012C000FFF738F8AB4E814631465846FFF738F8FD
:1012D0004446D8F81010FEF7DBFF80462061314607
:1012E0005046FFF72DF8616900E03EE1FEF7D0FFC0
:1012F0000746606131464846FFF722F8A169FEF7CC
:10130000C7FF0646A06103215846FFF789F80B99ED
:10131000FEF7BEFF4146FEF7BBFF0B900321504690
:10132000FFF77EF80C99FEF7B3FF3946FEF7B0FFE2
:10133000834603214846FFF773F80D99FEF7A8FF8F
:101340003146FEF7A5FF8246D4E90160E768804692
:1013500051463846D4F80090FEF7F2FF08905946FF
:101360004046FEF7EDFF0A9086F000400B99FEF72D
:10137000E7FF0A99FEF7DEFF0899FEF7DBFF7E49DB
:10138000FEF7DEFF4946FEF783FF206059463846E8
:10139000FEF7D6FF099051464046FEF7D1FF0A906E
:1013A00049460B98FEF7CCFF0A99FEF771FF0999A1
:1013B000FEF7C0FF7049FEF7C3FF3146FEF768FF36
:1013C000606039460B98FEF7BBFF099051463046E6
:1013D000FEF7B6FF0A9059464846FEF7B1FF0A9954
:1013E000FEF7A8FF0999FEF753FF6349FEF7A8FF30
:1013F0004146FEF74DFFA06041460B98FEF7A0FF67
:10140000804659463046FEF79BFF06465146484601
:10141000FEF796FF3146FEF73BFF4146FEF78AFF97
:101420005549FEF78DFF3946FEF732FFE060DDE9F2
:101430000201FEF72DFF0099FEF72AFF0199FEF742
:1014400027FFFFF78FF904F023FDFFF79EF9804691
:1014500001462068FEF7A6FF81462060414660688D
:10146000FEF7A0FF074660604146A068FEF79AFFBE
:101470000646A0604146E068FEF794FF8046E060C3
:1014800039464846FEF75CFF069031464846FEF76F
:1014900057FF049041464846FEF752FF39460990EF
:1014A0000846FEF74DFF039031463846FEF748FFE9
:1014B000834641463846FEF743FF8246314608469A
:1014C000FEF73EFF044641463046FEF739FF8146AF
:1014D00041460846FEF734FF804621460398FEF752
:1014E00029FF0121FEF79CFF4FF07E573946FEF79A
:1014F00024FF064649460698FEF7CAFE0121FEF77C
:101500008FFF314601F050FC286051460498FEF7E9
:1015100011FF0121FEF784FF01F0B4FB6860414632
:101520002046FEF7B5FE0121FEF77AFF3946FEF7A9
:1015300004FF044659460998FEF7AAFE0121FEF76A
:101540006FFF214601F030FC0C4E044631462868FE
:10155000FEF7F6FE286031466868FEF7F1FE686027
:1015600031462046FEF7ECFEA8600FB0BDE8F08FD4
:101570004C0000206F12033C0AD7A33B3333654273
:1015800001484068406800472C000020FEE7704793
:101590001CB510A10446D1E90001CDE900010523E5
:1015A0006A463021204600F0B9F805236A4610212A
:1015B000204600F01FF8002069460A5CAA2A03D1E1
:1015C000401CC0B20528F8D3052801D001201CBD5D
:1015D00000201CBDAAAAAAAAAA00000010B50446B1
:1015E00000688047A168002088476168BDE8104016
:1015F000012008472DE9F0419046054642681E4605
:101600000C4600209047E96820468847074600249A
:1016100006E0E968FF20884708F80400641CE4B28B
:10162000B442F6D36968012088473846BDE8F081A6
:1016300070B5044642680D4600209047E26828468F
:101640009047E168FF208847054661680120884788
:10165000284670BD10B504468168002088470523E0
:10166000174A3021204600F059F8154A0523521D2B
:101670002A21204600F052F801222121204600F0C4
:101680006BF801222221204600F066F81A2224215C
:10169000204600F061F828222521204600F05CF861
:1016A0000F222621204600F057F80E222021204646
:1016B00000F052F8A168BDE8104001200847000082
:1016C0005C96000870B50C46054681680020884786
:1016D00020232246A021284600F020F8A9680120F6
:1016E0008847286980470028FBD107212846FFF753
:1016F0009FFF044602462721284600F02DF8E00609
:1017000006D5FF22E121284600F026F8102070BD02
:10171000A00601D5202070BDFF2070BD2DE9F0414D
:101720000C46054641681F46164600208847E96872
:10173000204688478046002406E000BFE96816F886
:10174000010B8847641CE4B2BC42F7D369680120EE
:1017500088474046BDE8F08170B5044643681646A8
:101760000D4600209847E168284688470546E1680D
:1017700030468847616801208847284670BD0000D0
:1017800070B50F23C47801780122F4B1144C246899
:10179000457804F4E064C4F5E064240AC4F1040666
:1017A000E3408478B5401C402C4301F1E021230143
:1017B00081F80034007800F01F018A404009800061
:1017C00000F1E020C0F8002170BD01F01F00824050
:1017D0004809800000F1E020C0F8802170BD0000C1
:1017E0000CED00E002490843024908607047000020
:1017F0000000FA050CED00E030B40022084C13465E
:10180000002104EBC2156B54491CC9B28029FAD3DC
:10181000521CD2B2082AF3D330BC00F095B90000B4
:101820000006002010B50021074C0A46002004EBFA
:10183000C1131A54401CC0B28028FAD3491CC9B243
:101840000829F3D310BD0000000600202DE9FF4F4A
:101850001E4681B01746884600251C4603FB06F944
:101860005AE000BF08EB0500A7EB040AC1B20090E4
:101870000AF0FF020E9B019800F0A8F8A8EB050BF8
:101880000AF0FF020BF0FF010E9B019800F09EF89A
:1018900007EB040A0AF0FF020BF0FF010E9B019810
:1018A00000F094F800980AF0FF02C1B20E9B019874
:1018B00000F08CF87819C2B208EB040B00900BF022
:1018C000FF010E9B019800F081F8A7EB050A0AF0D2
:1018D000FF020BF0FF010E9B019800F077F80AF071
:1018E000FF02A8EB040A0AF0FF010E9B019800F02A
:1018F0006DF800980AF0FF01C2B20E9B019800F04B
:1019000065F86D1C05FB05F004FB040006FB1600E2
:10191000002801DD641E6D1E600060434845A1DAA9
:1019200005B0BDE8F08F2DE9FF4F83B04FF0000800
:101930001098CDE90021861A5D1A47464FF0FF3016
:10194000002D02DD4FF0010102E003D14FF0000154
:101950008B4602E08346C5F10005002E02DD4FF004
:10196000010002E003D14FF00000824602E082460F
:10197000C5F10006B54201DD2C4600E03446601C8E
:101980004FF0000902901AE00098119BC2B2019832
:10199000C1B2039800F01AF8A8443744A04504DD0A
:1019A0000198A8EB040858440190A74203DD009871
:1019B0003F1B5044009009F101001FFA80F9029981
:1019C0008945E1DB07B0BDE8F08F000010B502F0FB
:1019D0000700012484400748D20800EBC210E4B29B
:1019E000425C0BB1224302E064EA0202D243425459
:1019F00010BD00000006002010B5044690F820003D
:101A000040B92169002088476169642088472169BD
:101A1000012088470022AE21204600F0D4F90022A0
:101A20001146204600F0CFF900221021204600F098
:101A3000CAF900224021204600F0C5F90022812188
:101A4000204600F0C0F90022CF21204600F0BBF96B
:101A50000022A121204600F0B6F90022C82120462C
:101A600000F0B1F90022A621204600F0ACF90022D6
:101A7000A821204600F0A7F900223F21204600F0CF
:101A8000A2F90022D321204600F09DF90022114640
:101A9000204600F098F90022D521204600F093F965
:101AA00000228021204600F08EF90022D921204614
:101AB00000F089F90022F121204600F084F900228B
:101AC000DA21204600F07FF900221221204600F0A2
:101AD0007AF90022DB21204600F075F9002240212E
:101AE000204600F070F900222021204600F06BF91A
:101AF00000220221204600F066F900228D212046B6
:101B000000F061F900221421204600F05CF9002267
:101B1000A421204600F057F90022A621204600F01B
:101B200052F92046FFF768FE20460022BDE810402B
:101B3000AF2100F048B90246012000E05043491EA1
:101B4000C9B2FBD27047000070B50F4D06460024A5
:101B500004F1B000C1B20022304600F034F9002296
:101B60001146304600F02FF900221021304600F0D7
:101B70002AF905EBC4118022304600F04EF9641CAE
:101B8000E4B2082CE4D370BD000600202DE9FF4F1D
:101B900082B016460F9C8A4693460191082C0DD0C0
:101BA000600700D0012000EBD40061084843C0B2B8
:101BB0008146203BD8B2009000204BE00620F7E79A
:101BC000082C12D00C2C17D0102C1AD0182C44D161
:101BD0000098244900EBC00001EB8001002711F8B8
:101BE0000850E80712D0109B13E000981E4900EB44
:101BF000400001EB4001F1E700981C4900EB400078
:101C0000EAE71B49009801EB0011E7E7109838B3A9
:101C10000023324651460298FFF7D8FE761C7F1CFF
:101C20006D08FFB2F6B2082FDBD30AF1010000F015
:101C3000FF0A082C0AD00199AAEB0100B0EB540F5F
:101C400004D10BF108008A4600F0FF0B08F10100F7
:101C50005E46C0B280464845B2D306B0BDE8F08FBC
:101C60000123D6E7B88200082C76000854780008D3
:101C7000C87C00082DE9FF4F82B00026DDE90F7512
:101C8000DDF844909A4693468846082D00D10226F6
:101C900000241CE0381B401EC1B20A20FFF74BFF96
:101CA000BAFBF0F00A21B0FBF1F201FB120098B18F
:101CB0003030C3B206EB550101FB0480C1B2CDE95F
:101CC00000595A460298FFF761FF641CE4B2BC4217
:101CD000E0D306B0BDE8F08F06EB550101FB0480B0
:101CE000C1B23023EBE72DE9FF4F82B088460F9851
:101CF00001919A4614464FF000099346410700D0DF
:101D0000012101EBD0000F90002033E000262CE0F1
:101D10001098002510F8097009F101001FFA80F9E8
:101D2000F80701D0119B02E0119850B3002322461E
:101D300041460298FFF74AFE641C6D1C7F08EDB215
:101D4000E4B2082DECD308F10100019900F0FF087E
:101D5000A8EB0101514505D10BF10800DDF8048025
:101D600000F0FF0B761C5C46F6B25645D0D30098C7
:101D7000401CC0B200900F998842C7D306B0BDE89E
:101D8000F08F0123D3E72DE9FC431D46DDE9096708
:101D900090460C4681460CE0424621464846CDE935
:101DA0000067FFF7F3FE082E0AD004EB5600C4B21A
:101DB0006D1C2B78A3F120005E28EDD9BDE8FC83D3
:101DC000A41DE4B2F4E770B5044690F820000D4677
:101DD0004AB1012804D000281ED10120A16807E0E3
:101DE0004020A26915E0012811D0002814D1A16873
:101DF0008847E16800208847216828468847A1680D
:101E000001208847E168BDE8704001200847A269C9
:101E10000020BDE87040104770BD70B5044690F8D2
:101E2000200015460E46012813D0002816D1A168BF
:101E300001208847E16800208847626829463046CB
:101E40009047A16801208847E168BDE87040012003
:101E50000847E369BDE870404020184770BD0000A6
:101E6000034A516821F4404101435160704700002A
:101E700000100240044A0029D16901D0014300E06A
:101E80008143D1617047000000100240044A0029DC
:101E9000916901D0014300E08143916170470000E6
:101EA00000100240044A0029D16801D0014300E03B
:101EB0008143D160704700000010024030B51F49D7
:101EC0004A6812F00C031E4A03D0042B01D0082BE1
:101ED00021D002604A680F231A4C03EA1212A35C55
:101EE0000268DA4042604B68072505EA1323E35C89
:101EF00022FA03F383604B6805EAD323E35CDA40FC
:101F0000C2604968032303EA9131231F595CB2FB85
:101F1000F1F1016130BD4A684B6802F470124FF074
:101F2000020413F4803F04EB924202D04B689B03FF
:101F300001D5054B00E0024B5A43CAE700100240AE
:101F400000127A001800002000093D0038B5012178
:101F50000820FFF79BFF01218803FFF78BFF4FF459
:101F60006044ADF8004018208DF803000320124DA6
:101F70008DF8020069462846FEF72EFF21462846C6
:101F8000FEF7AFFF0D4800214FF4827201804280BE
:101F90008180C18001816A15428110228281C181C4
:101FA00007210182064C0146204600F048F8012135
:101FB000204600F02FF838BD000C0140C805002075
:101FC0000038004070B506460024114D03E0641C43
:101FD000E4B2C82C0FD80221284600F025F80028CA
:101FE000F5D03146284600F028F8002405E0641CAE
:101FF000E4B2C82C01D9002070BD0121284600F0B0
:1020000013F80028F3D0284600F015F8C0B270BDD0
:10201000003800400029018802D041F0400101E071
:1020200021F04001018070470246002012890A42D7
:1020300000D001207047808970478181704730B59A
:1020400002884C8802F441530A88CD8822438C8848
:102050002C4322430C8922434C8922438C892243FE
:10206000CC8922431A430280828B22F4006282834D
:10207000098A018230BD00000CB50021264801917B
:102080000091026842F4803202604FF4A06302685B
:1020900002F400320092019A521C0192009A12B985
:1020A000019A9A42F3D10268920333D5012100913B
:1020B0001A490A6842F010020A600A6822F0030214
:1020C0000A600A6842F002020A60416841604168A1
:1020D0004160416841F480614160416821F47C11B4
:1020E0004160416841F4E8114160016841F080714C
:1020F000016001688901FCD5416821F0030141605C
:10210000416841F0020141604168C1F38101022947
:10211000FAD10CBD00910CBD00100240002002401D
:102120004FF0E0210428086903D020F00400086182
:10213000704740F00400FAE710B504F04DFF0128A5
:1021400003D0BDE8104004F0A5BB10BD0F4810B58A
:10215000016841F00101016041680D4A1140416090
:1021600001680C4A11400160016821F4802101607E
:10217000416821F4FE0141604FF41F018160FFF7C7
:102180007BFF05494FF00060086010BD0010024061
:102190000000FFF8FFFFF6FE08ED00E010B540F28A
:1021A00025542146064800F01EF8002806D0FEF708
:1021B000B9FD2046BDE81040FEF708BE10BD000086
:1021C000003801400029818902D041F4005101E02A
:1021D00021F40051818170470246002012880A4292
:1021E00000D00120704730B501F01F020124002506
:1021F000C1F3421304FA02F2012B0FD0022B0FD0CD
:10220000838A4FEA11210088134204FA01F400EA9C
:10221000040001D000B10125284630BD8389F0E7D4
:10222000038AEEE710B5C1F3421301F01F04012148
:10223000A140012B07D0022B07D01430002A0268DE
:1022400005D00A4304E00C30F8E71030F6E78A4383
:10225000026010BD30B50446008A85B00D464CF6CC
:10226000FF710840E98801432182A1894EF6F310ED
:102270000140A8882A8910436A890A431043A08133
:10228000A08A4FF6FF410840A9890143A182684610
:10229000FFF714FE1948844201D1039800E0029828
:1022A000A189090400EBC00101EB0010296801D5E8
:1022B000490000E08900B0FBF1F06422B0FBF2F1CC
:1022C00009010B096FF018056B4300EB8300A3892C
:1022D0001D044FF0320306D503EBC000B0FBF2F053
:1022E00000F0070005E003EB0010B0FBF2F000F097
:1022F0000F000843208105B030BD000000380140C8
:102300008088C0F308007047C1F3080181807047DE
:10231000FEE700000FB4054B10B503A9044A02986C
:1023200000F014F910BC5DF814FB0000E53700085C
:10233000C00500200FB4084B10B504A902AA0398E9
:1023400000F004F9044602A9002000F096FC2046A3
:1023500010BC5DF814FB00007B2C00084100080253
:1023600018BF04200A0E18BF40F001004FF07F4252
:1023700032EA010108BF40F00200012808BF052031
:1023800070470121FEF74CB8FDF782BF00210846D7
:10239000FEF708B86FF05E010807FEF741B802E0EB
:1023A00008C8121F08C1002AFAD1704770470020E0
:1023B00001E001C1121F002AFBD1704701490860EA
:1023C00070470000C40500202DE9FF5F82B00021A6
:1023D000DDE90430020DDDF840B0034318D044F6C7
:1023E0001050A2F2FF3242431514119801281FD059
:1023F000A5EB0B00401C5FEA000A4FF000064E4FB1
:10240000DFF83891B046504615D5CAF1000413E004
:10241000119801244AA3012801D16FEA0B01029807
:10242000119AC0E90031C0E9024206B0BDE8F09F50
:10243000CBF10000DFE704460021404A491842EB97
:102440000450CDE9001012E0E00707D032463B46C9
:1024500040464946FEF797F88046894632463B4655
:1024600010461946FEF78FF806460F466410002CFA
:10247000EAD1DDE90401DDE90023BAF1000F06DA53
:10248000FEF781F842464B46FEF77DF805E0FEF781
:10249000ECF842464B46FEF7E8F804460E460022AA
:1024A000284BFEF7F3FA03D84FF0FF30014607E060
:1024B0000022254B20463146FDF7BEFFFEF7CEFA3F
:1024C000102409E0002C0ADB0A220023FEF78FF912
:1024D000039B30321A55641E50EA0102F2D1641C8B
:1024E000039AC4F111031444119A012A03D0012262
:1024F00008430DD10AE0084304D000204FF0110B2F
:10250000119072E7A3EB0B056D1E0DE05B4504DD3A
:102510004FF0000205F1010504E003DA4FF000027C
:10252000A5F10105002AECD002981199C0E9023109
:10253000C0E9004579E70000000014400000F03FCA
:10254000300000000000F0430000E03F2DE9FF4FA5
:1025500095B09B468946064600250FE2252877D18F
:1025600000242746F84A0121059400E0044316F8A8
:10257000013F203B01FA03F01042F7D130782A28BE
:1025800011D06FF02F033078A0F13002092A16D84D
:10259000059A44F0020402EB820203EB420210446B
:1025A000761C0590EFE759F8042B0592002A03DA10
:1025B000504244F40054059044F00204761C3078F4
:1025C0002E2816D116F8010F44F004042A280DD045
:1025D0006FF02F023078A0F13003092B09D807EBF8
:1025E000870302EB4303C718761CF3E759F8047B13
:1025F000761C30786C280FD006DC4C2817D0682861
:102600000DD06A2814D104E0742810D07A280FD194
:102610000DE044F400140AE044F4801401E044F4B2
:1026200040147278824202D104F58014761C761C24
:10263000307866280BD013DC582877D009DC0028C6
:1026400075D04528F6D04628F4D047281AD19DE108
:1026500018E0632835D0642879D0652812D195E137
:10266000702873D008DC6728F1D069286FD06E28F5
:102670000DD06F2806D1B5E073282CD0752875D001
:10268000782874D05A46179990476D1C75E1C4F3A9
:102690000250022809D003280DD0D9F800100428D0
:1026A0000DD00D6009F1040967E1D9F80010EA17AF
:1026B000C1E90052F6E7D9F800100D80F2E70D707D
:1026C000F0E719F8041B8DF8001000208DF80100C8
:1026D000EA46012003E059F804AB4FF0FF306107F0
:1026E0004FF0000102D40DE008F101018846B94223
:1026F0000FDA8045F8DB1AF808100029F4D108E059
:1027000008F1010188468142FADB1AF80810002915
:10271000F6D105985B46A0EB080721463846179A84
:1027200000F094FA284400EB080507E04DE029E1A9
:102730000DE01AF8010B5A4617999047B8F10108B5
:10274000F7D25B4621463846179A13E142E00A2247
:102750000092C4F302524FF0000A022A08D059F83E
:1027600004CB032A4FEAEC710AD00DE029E02AE0FD
:1027700009F1070121F00702F2E802C1914609E0E0
:102780000FFA8CFC4FEAEC71042A03D14FFA8CFC4F
:102790004FEAEC71002907DA0A460021DCF1000C4F
:1027A00061EB02012D2202E0220504D52B228DF8D7
:1027B0000420012203E0E20701D02022F7E790463F
:1027C00059E00A2102E010220DE010214FF0000A2A
:1027D00000910BE010224FF0000A44F00404082797
:1027E000009203E008224FF0000A0092C4F3025264
:1027F000022A05D059F804CB0021032A08D009E0A9
:1028000009F1070121F00702F2E802C1914605E053
:102810001FFA8CFC042A01D10CF0FF0C4FF00008C9
:10282000220728D5702806D0009B83F0100353EAB6
:102830000A0305D00EE040228DF80420012208E0B2
:102840005CEA010206D030228DF804208DF80500E4
:1028500002229046009B83F0080353EA0A030AD140
:102860005CEA010201D1620705D530228DF804200F
:102870004FF001087F1E582804D034A003900EA802
:1028800002900DE036A0F9E753466046009AFDF746
:10289000AEFF84460398825C0298401E029002704C
:1028A0005CEA0100F0D1029806A9081A00F1200A9A
:1028B000600702D524F4803400E00127574502DD8B
:1028C000A7EB0A0000E0002000EB0A010090059849
:1028D0004144401A0590E00306D45B462146179A0E
:1028E000059800F0B3F90544002706E001A85A4610
:1028F000C05D179990476D1C7F1C4745F6DBE003D0
:102900000CD55B462146179A059800F09FF90544BF
:1029100004E030205A46179990476D1C0099481ED4
:1029200000900029F5DC08E0029802995A460078E8
:10293000491C0291179990476D1CBAF10001AAF148
:10294000010AF1DC65E10000092801003031323371
:1029500034353637383961626364656600000000DB
:1029600030313233343536373839414243444546C5
:102970000000000000F058F90544761C307800286B
:102980007FF4ECAD19B02846BDE8F08F620700D4A3
:10299000062709F1070222F0070CFCE80223E146B2
:1029A00003F000485FEA080C02D00FF2702C0DE033
:1029B0005FEA045C02D50FF2682C07E05FEAC47C92
:1029C00002D00FF2602C01E0AFF2700C4FF0FF3834
:1029D00023F00043CDF850C065280CD006DC452814
:1029E00009D046281DD047283DD13DE0662818D0A3
:1029F00067287ED138E00021112F01DB112000E093
:102A0000781CCDE9000106A90EA8FFF7DDFCDDE981
:102A10000F010E9A03910021009207F1010A04911F
:102A20004DE04FF000400097CDE9011006A90EA837
:102A3000FFF7CAFCDDE90F0203920E9B11990022F9
:102A4000DDF80CA00093049211B9791C00EB010A87
:102A5000B7EB0A0004D4C0F1FF3007F1010A04907B
:102A6000AAEB0700019044E0012F00DA01270021C2
:102A7000112F01DD112000E03846CDE9000106A943
:102A80000EA8FFF7A1FCDDE90F010E9A03910021CA
:102A900004910092BA4621070CD40399514500DAFB
:102AA0008A46BAF1010F05DD009AAAF10101515CD5
:102AB000302908D0B84202DA10F1040F06DA0121F9
:102AC000CDE9011015E0AAF10101E9E7002805DCD4
:102AD000049901440491AAEB000102E0411C514514
:102AE00000DD8A460499401A401C01904FF00040D6
:102AF0000290200704D40198504501DBCDF80480F2
:102B000000208DF84F0002980DF14F07B0F1004FF3
:102B100025D02B200E9002984FF0020800280CDAE6
:102B2000404202902D200E9007E00A210298FDF706
:102B300048FE3031029007F8011DB8F10001A8F1FC
:102B40000108F2DC02980028EFD1791E0E98087077
:102B5000307800F0200040F0450007F8020D12A880
:102B6000C01B00F107081498007800B1012000EBA9
:102B70000A01019801EBE07105984144401A401E9A
:102B80000590E00306D45B462146179A059800F0AD
:102B90005DF805441498007818B15A461799904783
:102BA0006D1CE00324D55B462146179A059800F07A
:102BB0004DF805441CE00498002807DBDDE903011B
:102BC000884203DD0098405C179901E01799302096
:102BD0005A469047049805F10105401C049001985D
:102BE000401E019004D12E205A46179990476D1C23
:102BF000BAF10001AAF1010ADDDC05E017F8010BCA
:102C00005A46179990476D1CB8F10001A8F10108C8
:102C1000F4DC5B462146179A0598ABE62D000000D0
:102C20002B000000200000002DE9F04104460025A3
:102C30001E461746880404D405E039462020B047D4
:102C40006D1C641EF9D52846BDE8F0812DE9F041E0
:102C5000044600251E469046C80301D5302700E0F3
:102C60002027880404D505E041463846B0476D1C4E
:102C7000641EF9D52846BDE8F0810A68531C0B6034
:102C8000107070472DE9F04104464FF00E4000EB04
:102C90004400B0F1506F204655D84FF0FC41B1EBE5
:102CA000440F1CD224F000404FF07E51FDF745FB4D
:102CB0004FF0FF31FDF7B4FB054603F00FF914F0B8
:102CC000004F1DBF2F4F304E80F000402F4F08BFE8
:102CD0002F4E4FF04041FDF733FB044605E000273F
:102CE0003E460146FDF72CFB05462A492846FDF7DE
:102CF00027FB2949FDF7CCFA2946FDF721FB274997
:102D0000FDF7C6FA2946FDF71BFB2549FDF7C0FA7A
:102D10002946FDF715FB2349FDF7BAFA80462946F7
:102D20002046FDF70DFB4146FDF70AFB05463146FF
:102D30002046FDF7ADFA2946FDF7AAFA3946BDE867
:102D4000F041FDF7A5BA4FF0E441B1EB440F08D9CB
:102D5000FFF704FB042808BFFFF71CFB2046BDE873
:102D6000F0814FF07F41B1EB440F03D2BDE8F04159
:102D7000FFF707BB0120FFF721FBBDE8F041FFF79C
:102D800005BB00000000C9BF22AAFDB90000C93F71
:102D900022AAFD3924FE1C3DC78AD83C1E67383D57
:102DA0001B93993DAFAA2A3E2DE9F0474FF06842A8
:102DB00002EB40030C460546B3F1654F3CBF02EB06
:102DC0004102B2F1654F7CD2C0F3C753C1F3C75281
:102DD0009A1A1B2A06DD10F0004F14BF7648774878
:102DE000BDE8F08712F11A0F17DA11F0004F06D084
:102DF00010F0004F0CBF72487248BDE8F0872146C2
:102E00002846FDF7CFFA0446FFF7A8FA042808BFC2
:102E1000FFF7C0FA2046BDE8F0874200B2EB410F51
:102E200025D910F0004F19BF674F684E684F694EA3
:102E3000224685F0004415460A4680F000411046BF
:102E40000A1A5200B2F1807F40D248406249DFF84E
:102E50008CA110F0004F18D04FF03F483846FDF7D6
:102E600069FA074651463046FDF764FA17E011F05B
:102E7000004F04BF00263746E2D010F0004F19BFC4
:102E8000574F584E584F594EDAE74FF07C58384656
:102E9000FDF7FEF9074651463046FDF7F9F90646BB
:102EA00041462846FDF74CFA2146FDF7F1F98246E6
:102EB00021464046FDF744FA2946FDF73EFA5146C1
:102EC00000E037E0FDF76EFA044604E021462846AC
:102ED000FDF768FA04460146FDF732FA8046444998
:102EE000FDF72EFA4349FDF7D3F94146FDF728FADD
:102EF0004149FDF7CDF94146FDF722FA3F49FDF77B
:102F0000C7F94146FDF71CFA3D49FDF7C1F90546F1
:102F100041462046FDF714FA2946FDF711FA3146DD
:102F2000FDF7B6F92146FDF7B3F93946BDE8F0479C
:102F3000FDF7AEB94FF07F42B2EB400F28BFB2EBC6
:102F4000410F03D2BDE8F047FFF71EBA40EA010384
:102F50005B0008BF44F0FF410AD0B2EB400F08BF4E
:102F6000B2EB410F06D125F0804024F080410546A8
:102F70000C4629E7B2EB400F12BF5FEA410245F071
:102F8000FF4004F000413FF41FAF4A0092EA4003C3
:102F90003FF51AAF002AACBF4FF09F464FF03E56A8
:102FA0003146FDF7CDF9054631462046FDF7C8F913
:102FB00004462846214607E7DB0FC9BFDB0FC93FA0
:102FC000DB0F4940DB0F49C00000C9BF22AAFDB991
:102FD0000000C93F22AAFD390060ED3EC30ACE378A
:102FE000000049C022AA7DBA0000494022AA7D3AC9
:102FF0002DAD65BD8FB8D53D0FB511BE61C84C3E36
:10300000A8AAAABE94B014210DA8FDF712F90026B3
:1030100002A801F083FCB04647464546A148FEF7AA
:1030200001FCA14CA1A10DA8627BFFF783F94FF031
:10303000010A4FF0100BCDE900BA0DAB1922372170
:103040009848FEF7A0FE627BE17A207B00F0DEFA72
:103050009448FEF779FD4FF47A7003F0AFF9914888
:10306000FEF7E0FB627BE17A207B00F0CFFA8D482F
:10307000FEF76AFD8B48FEF7D5FB8F4C4FF0FF3112
:10308000206803F083FE01280AD124228B4902A87C
:10309000FDF7B6F800231A461946206803F0A8FC8D
:1030A000BDF82800A0F2FF7010F57A7F01DA032046
:1030B00005E0B0F57A7F01DD012000E002207A4CC6
:1030C0008146627BE17A207B00F0A0FAE07A00285A
:1030D0007ED015B9484600F02DF9761CA07BF6B2DB
:1030E000A14686422BD9002655BB00F005F999F878
:1030F000011048463A2928D301788279914215D99E
:10310000837A1A448A4211D9017B3A22491CC9B2F6
:1031100001734270FE224271022916D999F80D00FE
:10312000042801D9012525E0022540E0382101705D
:1031300003214170C17A491E89F80B1005E025B1C1
:10314000012D17D0022D32D092E099F8001089F8A5
:10315000021099F8011089F8031099F8061089F8FF
:10316000081099F8071089F8091000F021FA00F00A
:103170002FFA7DE0CDE900BA544651A31922372138
:103180004848FEF700FE50480178012970D100221E
:103190000270022089F80B004B4689F80D4000F0C0
:1031A0009FF828209872052098731A7329E099F8DF
:1031B0000D204C463DA10DA8521CFFF7BBF8CDE9F0
:1031C00000BA0DAB192237213648FEF7DCFD00E0CE
:1031D00019E008F101001FFA80F8B8F1140F47D97F
:1031E000607B4FF00008401C607384F80C80022064
:1031F000E07200F075F8A07A0838A072A07B401E3B
:10320000A073002534E017B1012F10D030E0CDE9D4
:1032100000BA2EA3192232212248FEF7B4FD2A4813
:103220000178012924D100210170012720E084F8D0
:103230000DA052461DA10DA8FFF77CF8CDE900BAFC
:103240000DAB192237211748FEF79DFD08F101004B
:103250001FFA80F8B8F1140F0AD902204FF00008C5
:10326000E07200F03DF82820A0720520A07300272E
:103270000C48FEF769FC1848017801290ED100219D
:1032800001701648006803F0A7F90648FEF7CAFA6D
:103290000448FEF759FC002003F0B6F80A2003F0BA
:1032A0008DF8E7E6A4040020DC0400206C65766558
:1032B0006C202575000000007C000020DC0500204B
:1032C000796F752077696E003900002067616D6540
:1032D0005F6F7665720000003800002074000020E7
:1032E00004483821017003214170022101714171AC
:1032F00070470000DC0400200D4801780279114479
:10330000C9B20170427843791A44D3B202224370A1
:103310007B2904D97B210170FE21017102E02C2957
:1033200000D20271032B02D8032141704271704711
:10333000DC0400200B4903288A7902D0012802D03E
:1033400002E0521D00E0521F8A71D2B2282A01D237
:10335000282004E0887AC0F17F00904200DA88716A
:1033600070470000DC04002030B585B001214FF427
:103370000170FEF78BFD1F20ADF8000000248DF8D2
:10338000034069461848FDF727FD4FF40040FEF75B
:1033900067FD164D2846FDF717FC4FF46020CDE978
:1033A000020401208DF804408DF8100000948DF87F
:1033B000054069462846FDF741FC01212846FDF7F6
:1033C000F9FB2846FDF798FC2C462046FDF72FFC1C
:1033D0000028FAD12046FDF79EFC2046FDF716FC9A
:1033E0000028FAD105B030BD00080140002401409A
:1033F00008B501210420FEF749FD01210820FEF750
:1034000045FD01210846FEF741FD01210B48FDF76E
:1034100035FD49F24000ADF8000048208DF803006A
:1034200069460748FDF7D8FC4FF44E70ADF8000030
:1034300069460448FDF7D0FC08BD000000023000DA
:1034400000080140000C014008B501211020FEF7E2
:103450001DFD4FF40050ADF8000010208DF8030062
:1034600003208DF8020069460148FDF7B5FC08BD50
:10347000001001407FB50546012144F20400FEF72B
:1034800005FD4FF40070ADF8000003248DF80240F4
:1034900018201D4E8DF8030069463046FDF79CFC50
:1034A0003015ADF8000004208DF803006946304661
:1034B000FDF792FC25208DF800008DF801400024D6
:1034C0008DF8024001208DF803006846FEF758F998
:1034D000ADF80440ADF80640ADF80840ADF80C403A
:1034E0000C200A4CADF80A00009569462046FEF70C
:1034F000B1FE012240F225512046FEF793FE012144
:103500002046FEF75FFE7FBD000801400038014005
:1035100010B50420FEF704FE08484821012201707E
:1035200042804FF0E0200649026942F00202026147
:103530004161016941F00101016110BD28000020D5
:103540004019010070B5044603F046FD01280CD077
:10355000094D6888844203D3B4FBF0F002F02EFFDB
:103560006888B4FBF0F100FB11444FF47A706043BB
:10357000BDE8704000F002B82800002070B54FF0A0
:10358000E024002265690949A36909784843A169D3
:103590009942FCD002D2A3EB010302E0A5EB0106A5
:1035A00033441A440B468242F1D370BD28000020F8
:1035B00008B50120009004480223427801780348AE
:1035C000FEF744F908BD0000DC040020A40400203C
:1035D0007CB50C4C0125E279CDE90025A179A07AD2
:1035E0000844C3B20848FEF79EF9E079401CC2B215
:1035F000CDE90025A179A07A0844C3B20248FEF7BC
:1036000092F97CBDDC040020A40400202DE9FE4FCB
:10361000814600200124CDE90004924688460246F6
:1036200001467F232D48FEF77EF93F25CDE9005462
:103630007F232A4600212948FEF775F90023CDE9AA
:1036400000541A4619462548FEF76DF9CDE9005495
:103650007F23002219462148FEF765F9CDE9005481
:103660002723002219461D48FEF75DF90C25CDE9F8
:10367000005402221AA311461848FEF784FB0327C0
:1036800008260097CDE901644B460E22022113481B
:10369000FEF7F0FACDE9005413A3162202210F48D9
:1036A000FEF771FB0097CDE9016443462222022117
:1036B0000A48FEF7DFFACDE900540DA32A220221C1
:1036C0000648FEF760FB0097CDE9016453463622B9
:1036D00002210248FEF7CEFABDE8FE8FA4040020C6
:1036E00073636F72650000006C69666520000000FE
:1036F0006C6576656C0000002DE9FE4F8146002068
:103700000124CDE9000492468846024601467F2303
:103710002D48FEF708F93F25CDE900547F232A46BE
:1037200000212948FEF7FFF80023CDE900541A468E
:1037300019462548FEF7F7F8CDE900547F2300220B
:1037400019462148FEF7EFF8CDE90054272300225F
:1037500019461D48FEF7E7F80C25CDE90054022272
:103760001AA311461848FEF70EFB032708260097F8
:10377000CDE901644B460E2202211348FEF77AFA86
:10378000CDE9005413A3162202210F48FEF7FBFADD
:103790000097CDE901644346222202210A48FEF740
:1037A00069FACDE900540DA32A2202210648FEF74A
:1037B000EAFA0097CDE90164534636220221024815
:1037C000FEF758FABDE8FE8FA404002073636F7201
:1037D000650000006C696665200000006C65766518
:1037E0006C00000070B5074D0446C1B22846FEF7D4
:1037F0008BFD80212846FEF7EFFC0028F9D02046FB
:1038000070BD0000003801401CB508490620CDE914
:10381000000101231A0206A1084803F0B1FB084881
:103820000068BDE81C4002F04DBF0000840000208D
:1038300067616D655F7461736B000000813800081B
:10384000740000201CB508490620CDE900010223C0
:10385000DA0106A1084803F093FB08480068BDE8B8
:103860001C4002F02FBF00008800002067616D65DA
:103870005F7461736B0000008138000874000020E1
:1038800080B2012803D0022803D102F03FB9FFF72C
:10389000B9BB704710B50B4C07230122002120460D
:1038A000FDF7F0F901212046FDF72BFA0221204611
:1038B000FDF7B6F90028F9D02046BDE81040FDF725
:1038C000ACB900000024014010B50B4C01220723C5
:1038D00011462046FDF7D6F901212046FDF711FAE1
:1038E00002212046FDF79CF90028F9D02046BDE8CA
:1038F0001040FDF792B900000024014010B50B4CB8
:103900000723012204212046FDF7BCF901212046AE
:10391000FDF7F7F902212046FDF782F90028F9D0DA
:103920002046BDE81040FDF778B9000000240140B2
:1039300010B50B4C0723012202212046FDF7A2F906
:1039400001212046FDF7DDF902212046FDF768F947
:103950000028F9D02046BDE81040FDF75EB9000010
:103960000024014010B50B4C0723012203212046FF
:10397000FDF788F901212046FDF7C3F90221204611
:10398000FDF74EF90028F9D02046BDE81040FDF7BC
:1039900044B900000024014001494860704700001C
:1039A0002C00002000F08EFA0648FFF7F5FFFDF727
:1039B0009BFA054C2068FDF7BBF9142002F0FEFCD1
:1039C000F8E700008C000020340000200949416025
:1039D000094981604FF07C51C160084901610121B2
:1039E00001754FF07E510022C0E91312C0E9152184
:1039F000704700006F12833AA69B443B0AD7A33B53
:103A00004FF44070FDF7EEFE4FF4E130FFF732FD6A
:103A1000FFF77EFDFFF718FDFFF7A6FCFFF7E8FCB8
:103A200002F072FA02F016FEFEE77CB51C4615465F
:103A30000E460622836869463B20984710F0FF0037
:103A40000BD1BDF8001049BA3180BDF8021049BA57
:103A50002980BDF8041049BA21807CBD7CB51C4684
:103A600015460E460622836869464320984710F0A3
:103A7000FF000BD1BDF8001049BA3180BDF802102B
:103A800049BA2980BDF8041049BA21807CBD38B5F7
:103A9000044600208DF80000802122686B209047AA
:103AA000E16864208847002122686B209047032149
:103AB000204600F055F80021204600F049F8C821C2
:103AC000204600F072F8012122683820904700213A
:103AD00022686A20904700212268232090479C2179
:103AE00022683720904762686946752090479DF8A4
:103AF0000000682801D0012038BD012122686B2018
:103B00009047002122686C209047002038BD0000BB
:103B100010B5044802F022F80248BDE810401C30FD
:103B2000FFF7B5BF5C04002008B5134602460091BC
:103B30006821024802F067F8002008BD5C040020FC
:103B40000B4602466821014802F09EB85C04002042
:103B500010B5C906090E02681C209047C0B210BDFE
:103B6000032210B502EBC1010268C9B21B209047C5
:103B7000C0B210BD10B5BC2901D3012110E06229EB
:103B800001D302210CE02A2901D3032108E01429E2
:103B900001D3042104E00A2901D3052100E0062114
:103BA00002681A209047C0B210BD70B50C464FF4A1
:103BB0007A7105468C4201D90C4602E0042C00D2F1
:103BC0000424B1FBF4F0401EC1B22A6819209047CA
:103BD00061082846BDE87040FFF7CCBF10B50B4622
:103BE00002466821024802F027F9002010BD0000BB
:103BF0005C0400207047000080210148FDF76AB98D
:103C0000000C0140402110B102480160704701489A
:103C1000001DFAE7100C0140802110B1024801603C
:103C200070470148001DFAE7100C0140F8B501216A
:103C30000820FEF72BF94020ADF8000003240F4EBA
:103C40008DF8024014258DF8035069463046FDF783
:103C5000C3F88020ADF800008DF802408DF80350C5
:103C600069463046FDF7B8F880213046FDF739F94E
:103C700040213046FDF735F9F8BD0000000C014049
:103C800008B58020ADF8000003208DF80200482020
:103C90008DF8030069460248FDF79EF808BD000054
:103CA000000C014008B58020ADF8000003208DF81D
:103CB000020014208DF8030069460248FDF78CF8D5
:103CC00008BD0000000C0140F8B501210C20FEF7F2
:103CD000DDF84FF40064ADF8004010208DF80300CB
:103CE0000320134D8DF8020069462846FDF774F84D
:103CF00021462846FDF7F5F80E4E6400ADF8004069
:103D000069463046FDF768F821463046FDF7E9F888
:103D10002411ADF8004048208DF80300694628467C
:103D2000FDF75AF821462846FDF7DBF80020F8BDDC
:103D300000080140000C014010B5FEF707F9BDE88E
:103D400010400148FDF74ABCC80400204FF48071C0
:103D50000148FDF7BFB8000000080140FEF732B986
:103D60000349012801D0002801D1C1F8B0017047F2
:103D7000008021420349012801D0002801D1C1F867
:103D8000AC0170470000214210B592B02021684676
:103D9000FCF74FFA3C4C4FF0FF31206802F0F6FF81
:103DA00001280AD12422394908A8FCF729FA00235E
:103DB0001A461946206802F01BFEA3208DF8000069
:103DC000BDF83A00010A8DF801108DF80200BDF827
:103DD0003C008DF80400010A8DF80310BDF83E0088
:103DE000010A8DF805108DF80600BDF840008DF829
:103DF0000800010ABDF820008DF80710010A8DF8AF
:103E000009108DF80A00BDF822008DF80C00010A97
:103E1000BDF824008DF80B10010A8DF80D108DF8F7
:103E20000E009DF838008DF80F000B988DF81000EB
:103E3000010A8DF81110010C8DF81210000E8DF88A
:103E400013000C988DF81400010A8DF81510010C60
:103E50008DF81610000E8DF817000D988DF81800CB
:103E6000010A8DF81910010C8DF81A10000E8DF84A
:103E70001B003A208DF81C0069460548FDF722FC1E
:103E80000449087012B010BD7C000020DC05002041
:103E9000C804002080000020FFF74EFF0748FDF710
:103EA00077FB074948800548FDF7D4FB4FF4FA74C7
:103EB000FFF76AFF204602F081FAF9E7C804002004
:103EC0008000002010B5044801F048FE0248BDE81B
:103ED00010401C30FDF790BD8804002070470000A2
:103EE00080210148FCF7F6BF00080140202110B1F5
:103EF0000248016070470148001DFAE710080140C0
:103F0000802110B10248016070470148001DFAE7A6
:103F100010080140F8B501210420FDF7B7FF20206B
:103F2000ADF8000003240F4E8DF8024014258DF8E3
:103F3000035069463046FCF74FFF8020ADF8000083
:103F40008DF802408DF8035069463046FCF744FF77
:103F500080213046FCF7C5FF20213046FCF7C1FF29
:103F6000F8BD00000008014008B58020ADF8000051
:103F700003208DF8020048208DF8030069460248AE
:103F8000FCF72AFF08BD00000008014008B58020AA
:103F9000ADF8000003208DF8020014208DF8030016
:103FA00069460248FCF718FF08BD00000008014000
:103FB00010B50B4602463C21024801F03DFF0020AF
:103FC00010BD00008804002008B5D3B2024600915D
:103FD0003C21024801F0FDFE002008BD88040020BD
:103FE0002DE9F041184C0F460546E6682068001D93
:103FF00002F0C6F838B9206890F82C1001208840EB
:10400000216981432161681C07D137B12168BDE86E
:10401000F0410E48091D02F0ECB820683544B54265
:104020004560216805D2E06BBDE8F041091D02F052
:10403000C8B8A06B091D02F0C4F8A06A854200D27E
:10404000A562BDE8F0810000EC040020100D002006
:104050002DE9F041054602F0D9F82D4CA068401C2E
:10406000A06020682B4F10B1606930B32BE0256051
:10407000A068012827D1002606EB860007EB800008
:1040800002F091F8761C202EF6D3234802F08BF82C
:104090002148143002F087F81F48283002F083F8D6
:1040A0001D483C3002F07FF81B48503002F07BF88E
:1040B0001948A0631430E06305E02068E96AC06A2B
:1040C000884200D82560606A401C60626864E96AC2
:1040D0000120226988401043206101EB810007EB39
:1040E0008000291D02F085F802F0B0F86069002810
:1040F0000CD02068E96AC06A884207D207494FF0AD
:1041000080500860BFF34F8FBFF36F8FBDE8F08121
:10411000EC040020400A0020C00C002004ED00E068
:1041200010B502F073F80E4C2068A0B90D4802F0EB
:104130003AF80C48143002F036F80A48E0601430BF
:10414000206100221021052002F0CCFB206010B17C
:1041500005A102F0FDF8BDE8104002F077B80000BC
:104160002C050020240D0020546D72510000000029
:1041700030B4026C0B46002A0BD0C1681144C160F8
:104180008468A14201D30168C16030BC1846FCF7C5
:1041900037B830BC70472DE9F041856B17460446AF
:1041A0000026026C82B1C7B1E068FCF729F8E1682B
:1041B000206C091AE1602268914202D2A168081AB3
:1041C000E060022F16D017E02068A8B9A06802F0BE
:1041D0007DFF06460020A0600EE06068FCF710F846
:1041E000216C606808446060A168884204D320683C
:1041F000606001E005B16D1E6D1CA5633046BDE831
:10420000F08110B50446006B02F034F82046BDE89A
:10421000104002F02FB8000010484FF42051420720
:1042200006D0C01D0D4920F00700411AC1F52051EC
:104230000B4A00230144C2E900030839183A21F06F
:10424000070111604B600B600B1AC0E9001393600B
:104250004FF0004053605061704700004C0D00204B
:1042600058050020144E154CA6F52F774FF08058B6
:10427000DFF84C9012E000BF01F0C8FFF068C5689D
:10428000281D01F07DFFA068401EA0606068401EF0
:10429000606001F0DBFF2846FFF7B3FF606800288D
:1042A000EAD138680128F9D9C9F80080BFF34F8FE7
:1042B000BFF36F8FF2E70000FC0C0020EC0400203D
:1042C00004ED00E02DE9F05F8846DDE90B9415462A
:1042D000834691009A460A9EA522206BFBF7A2FF17
:1042E0006FF00301206B01EB8501084420F0070704
:1042F000780707D0502080F31188BFF34F8FBFF3AA
:104300006F8FFEE70025B8F1000F0FD05FF00000BF
:10431000221818F8001082F8341018F8001011B1A3
:10432000401C1028F4D384F8435001E084F8345042
:10433000202E00D31F26E662C4E91365201D01F07C
:104340003DFF04F1180001F039FF2461C6F120009F
:104350006462A061656584F85850524659463846F3
:1043600000F0CAFA2060B9F1000F01D0C9F800408E
:10437000BDE8F09F30B5114900E011460A6882425D
:10438000FBD34B685C18844203D1406818444860F2
:10439000084643681C18944209D1084C183C24680C
:1043A000A24209D052681A4442600A681268026048
:1043B000814200D0086030BD0460F9E75805002054
:1043C00070B5002441600B4D0061914206D8D11AAE
:1043D0008269914206D2011D286907E09A4203D200
:1043E000994201D3012403E0011DE86801F0E9FED0
:1043F000204670BD2C05002010B5044601F006FFD4
:10440000A06B28B15FF0000401F020FF204610BD32
:104410000124F9E7F1B500260098846C5CB1A16B2A
:10442000E06B81420FD3502080F31188BFF34F8F90
:10443000BFF36F8FFEE7502080F31188BFF34F8FDB
:10444000BFF36F8FFEE7A16B81420ED294F9455006
:10445000002269462046FFF79EFE0646681C06D0ED
:104460007F2D0FD06D1C84F845503046F8BD606A32
:104470000028FAD004F1240002F0B6FE0028F4D09F
:104480000126F2E7502080F31188BFF34F8FBFF36E
:104490006F8FFEE730B589B03C4D6EE00498002880
:1044A00006DADDE90601059A90470498002864DBE6
:1044B000069C606910B1201D01F062FE03A800F0A7
:1044C000D5F8024604980A2857D2DFE800F005051F
:1044D000052D334A05052D3394F8280040F00100DE
:1044E00084F828000599A069059B01442046FFF740
:1044F00067FF68B3216A2046884794F82800400780
:104500003BD5002000900598A16900234218194668
:10451000204602F02DFFD8B9502080F31188BFF358
:104520004F8FBFF36F8FFEE714F8280F20F00100C4
:10453000207022E094F8280040F0010084F8280060
:104540000598A06128B1811813462046FFF738FF6F
:1045500013E0502080F31188BFF34F8FBFF36F8FAC
:10456000FEE794F82800810703D4204601F082FE7C
:1045700003E020F0010084F82800002204A9286844
:1045800002F068FB002889D109B030BD2C0500205D
:104590002DE9FC410F46054602F0F2F801A800F0B3
:1045A00065F80446019818B102F05AFEBDE8FC8196
:1045B000254EAFB130690068D0B30027291B3A46B9
:1045C000306801F0D9FE02F04BFE0028EED11F4901
:1045D0004FF080500860BFF34F8FBFF36F8FE5E758
:1045E000A542EBD802F03CFEF0682746C068C468DC
:1045F000201D01F0C5FD94F82800410719D5A069D8
:104600002B4641193A462046FFF7DAFEA8B10020B2
:104610000346014600902A46204602F0A9FE60B9F2
:10462000502080F31188BFF34F8FBFF36F8FFEE7E9
:1046300007E020F0010084F82800216A204688471E
:10464000B4E70127BAE700002C05002004ED00E0E4
:104650000548816B096821B1816BC968096881626D
:1046600070474FF0FF31FAE7EC04002070B50546C3
:1046700002F0C0FC064E0446B068844203D200F04B
:1046800009F8012000E0002028602046B46070BDD9
:104690002C050020F8B5194D20E0C068C4680668F4
:1046A000201D01F06DFD216A2046884794F82800FE
:1046B000400713D5A0693044B04206D92461606038
:1046C000211DE86801F07DFD08E000200346014659
:1046D00000903246204602F04BFE38B1E86801688F
:1046E0000029DAD12969C5E90310F8BD502080F30B
:1046F0001188BFF34F8FBFF36F8FFEE72C050020AB
:1047000008484068401C4FF0500080F3118804D0E6
:10471000BFF34F8FBFF36F8FFEE7BFF34F8FBFF332
:104720006F8FFEE760050020002150B10A4B4269FF
:104730009A420FD1806AA3F1280290420AD040B178
:1047400008E0502080F31188BFF34F8FBFF36F8FC5
:10475000FEE7012108467047100D0020074CE06875
:10476000016841B1C0680021D0F80000FFF710FFD8
:10477000FFF790FEF3E701210020F7E72C0500206A
:104780002DE9F041044601F041FD94F9455004F152
:1047900024060FE0A06C18B12046FFF73BFE04E0B2
:1047A000606A48B1304602F01FFD08B101F08AFE90
:1047B0006D1E6DB2002DEDDC4FF0FF3684F84560C4
:1047C00001F044FD01F022FD94F9445004F110077A
:1047D00009E0206948B1384602F006FD08B101F051
:1047E00071FE6D1E6DB2002DF3DC84F84460BDE8EF
:1047F000F04101F02BBD00002DE9F04105460027F6
:1048000001F0BEFF354E306808B9FFF705FD70694D
:10481000054254D1F5B305F10804AC424FD9600705
:1048200011D004F00700C0F108002044A04246D98E
:104830000446400707D0502080F31188BFF34F8F04
:10484000BFF36F8FFEE72CB37068844237D82348DC
:10485000183001460D6801E028460D466968A142FE
:1048600002D229680029F7D131688D4227D0076824
:104870002968016068680837011B10290FD92819B9
:10488000420708D0502080F31188BFF34F8FBFF349
:104890006F8FFEE713E041606C60FFF76BFD6968A6
:1048A0007068401A7060B268904200D2B06070695F
:1048B00001430020C5E90001F068401CF06002F0EF
:1048C000CFFC780707D0502080F31188BFF34F8FBB
:1048D000BFF36F8FFEE73846BDE8F081400500204A
:1048E0000449086818B10868026D521C026508681E
:1048F00070470000EC04002010B5031F4FF08074D7
:104900001C601B1F21F001011960191F024B0B6075
:10491000143940380A6010BD014700080021418366
:104920008183C18301844184018041808180C18071
:1049300001814181C160016141617047C2B003A83A
:10494000FFF7ECFF5648FFF7E9FF13A8FFF73EF823
:104950002AA8FFF73BF8FFF7DBF80DF116000E90E1
:1049600005A80DF10C09DFF83CB10DF1180A0D9006
:10497000FEF790FFADF82600FEF7A6FFADF8280081
:10498000FEF7D6FFADF82A00FEF7ECFFADF82C00DD
:10499000FEF7B4FF4449ADF82E00D1F83C01C20146
:1049A0004248D0F80C3142EA8312D0F8103142EA82
:1049B0004312D0F8143142EA0312D0F82431D0F86F
:1049C000200142EAC30242EA8000D1F83021D1F846
:1049D000181140EA420008438DF824000020FCF73B
:1049E0005FFB4C46231D9A1E03A93148FFF736F89A
:1049F000DDE90D23A11D2E48FFF717F8BDF90C00C6
:104A0000FBF7A2FE2B4D2946FBF79AFC8046BDF929
:104A10000E00FBF799FE2946FBF792FC0446BDF910
:104A20001000FBF791FE2946FBF78AFC0546BDF90D
:104A30001200FBF789FE5946FBF782FC0646BDF9DA
:104A40001400FBF781FE5946FBF77AFC0746BDF9D7
:104A50001600FBF779FE5946FBF772FCCDE90070B2
:104A600033462A462146CDF808A04046FCF77EFB97
:104A7000114C4FF0FF31206802F088F901280AD16B
:104A8000242203A90648FBF7BBFB00231A4619465C
:104A9000206801F0ADFF052001F090FC68E7000000
:104AA000DC050020CDCC9C39000021420080214251
:104AB0007804002058A08B3A7C000020012100F0EF
:104AC00047B80A7842B14B7803F00F03082B03D0A4
:104AD00003681B781A4208D090F86000C00702D122
:104AE0004878C00601D5002070474FF0FF3070476E
:104AF00010B500F065FA002805D00349896BBDE8C0
:104B0000104000F0D5BF10BD6C05002070B5054603
:104B10008089E989401A04B204E0A96E2020884700
:104B2000641E24B2002CF8DC297B2846BDE87040C6
:104B300000F06AB810B500F043FA002803D0BDE8D1
:104B4000104000F041BB10BD4FF0FF31AFF30080CB
:104B500070B50446481C03D00023E28912B103E07B
:104B60000123FAE701294DD0A089824201D14D1CD1
:104B700048D00025824201D1012901D0184613E016
:104B8000521E401EE28180B2A08121690D54204650
:104B9000BDE87040012100F037B822691144421E7F
:104BA000465C401C8E5400B2A289E189521A8242AE
:104BB000F3DCA089401EA0812BB9E089401EE08172
:104BC000A16E08208847A18920694554B4F90E5088
:104BD00005E02069A16E405D88476D1C2DB2A0895B
:104BE000A842F6DCA16E20208847A089E189401AFE
:104BF000401C05B204E0A16E082088476D1E2DB24E
:104C0000002DF8DC70BD000070B50C46054603E0D1
:104C100003A1284600F04CFF641EE4B2F8D270BD38
:104C2000082008004FF0FF3100F038BA10B50446F4
:104C300000F006F82046BDE81040012100F0CABE91
:104C400070B504468089002835D0216900251E4EA4
:104C50000D5494F86000C00721D0204600F06AFA95
:104C6000204600F0C5FBE581A581E08E002822D01A
:104C700016A1204600F01CFF00232046A26D6169AA
:104C800000F05AFC010004D02046BDE8704000F05E
:104C9000F7BB2046B169BDE8704000F009BF20684D
:104CA00081682069FBF7D7FA30B1716B204600F0BC
:104CB000FFFEA581E58170BD94F8600040F0010021
:104CC00084F860003168F1E76C0500200D0A0000EF
:104CD000411C00200A785C2A01D0104670474978B0
:104CE0006E290FD004DC3029F8D0622904D105E008
:104CF000722905D0742907D00846704708207047EC
:104D00000D2070470A207047092070472DE9F041B7
:104D10000746002300780A2601221D461C462D283E
:104D200008D000203844002190F800C0BCF1300FBA
:104D300004D01FE04FF0FF320120F3E741787829DB
:104D400007D0582905D0622905D0422903D0022175
:104D500010E003210EE001210CE000BF90F800C03C
:104D6000BCF12E0F06D190F801C0BCF1000F01D0AC
:104D7000042111E010F801CBBCF1000FEED10129A4
:104D800008D0022903D0032906D1102603E0082603
:104D9000012301E0022602233B44501C02D00020E4
:104DA00003441FE00120FBE72E2805D0A0F13007C7
:104DB000092F03D8F8B20FE0012412E0A0F1610737
:104DC000052F01D8573804E0A0F14107052F02D87C
:104DD0003738C0B200E0002005FB060504EB840074
:104DE00044005B1C18780028DED1042913D194B14B
:104DF0001046FBF7A9FC06462046FBF7AEFC04462E
:104E00002846FBF7AAFC2146FBF7CCFA3146BDE861
:104E1000F041FBF795BA05FB02F0BDE8F0812DE902
:104E2000F0410446087827280AD02D2803D0A0F1A5
:104E30003002092A0CD8BDE8F0410846FFF766BFEA
:104E40004A78002AF3D0BDE8F0410846FFF740BF9A
:104E50000026242807D0002816D000270D460C462F
:104E6000222813D01DE04A78002AF6D000232046DD
:104E7000491CA26D00F060FB010004D02046BDE893
:104E8000F04100F0B1B83046BDE8F0816C1C254619
:104E900007E05C280BD022280FD0E8557F1CBFB25A
:104EA000641C20780028F4D1EE552846ECE7601EFB
:104EB000FFF70EFFE855641CF0E7EE55EEE72DE92D
:104EC000F0478CB00C46824699461546202103A82F
:104ED000FBF7AFF9A0786E1E00F00F07B74200DCB9
:104EE000374600250DF10C0808E009EB8500416804
:104EF0005046FFF794FF48F825006D1CB542F4DBDF
:104F0000082F3CD2DFE807F004090D12181E2630E6
:104F1000A06880470CB0BDE8F087A1680398884777
:104F2000F8E7DDE90301A2689047F3E703AB93E8F4
:104F30000700A3689847EDE703ADA46895E80F0064
:104F4000A047E7E70798009003ADA46895E80F0035
:104F5000A047DFE7DDE90701CDE9000103ADA46863
:104F600095E80F00A047D5E707AB03AD93E807002E
:104F70008DE8070095E80F00A468A047CAE74FF046
:104F8000FF30C7E7C068704700B500210B4A3023E7
:104F90005354491CC9B20929FAD3417801F00F01D1
:104FA000012903D9072901D9082901D8406800BD82
:104FB0004068024900F0E2FC004800BD6035002076
:104FC0000849002051F8202032B192F86020920761
:104FD00002D551F820007047401C00B20528F1DBD3
:104FE000002070474C3500204A78002002F00F0264
:104FF000921E062A06D2DFE802F003060A0D0D0F04
:105000008868006870478868B0F900007047886851
:1050100000787047886870478868416809B10068FF
:10502000084700207047000070B50B460546FFF7A3
:10503000C7FF04002DD0012D21D02ADD5968A26DB3
:105040004FF0000300F078FA050012481BD0C16A47
:10505000204600F02DFD2846FFF796FF014620462A
:1050600000F026FD0CA1204600F022FD2846FFF7A7
:1050700089FF0146204600F01BFD07A104E0BDE8C2
:10508000704000F0A1B881692046BDE8704000F092
:105090000FBD70BD6C0500200D0A000070B5002525
:1050A0000446002918DDB4F95430A3F10100A4F836
:1050B0005400B4F85010B4F85200814201D90A46A5
:1050C00000E002465242934212DC814200D9084677
:1050D0004042A4F854000BE009DAB4F85400401C34
:1050E00000B2A4F85400002802DDA4F8545070BDAA
:1050F0002046FFF70BFDB4F95400C0B1B4F85210CC
:1051000008440521401D90FBF1F201FB120004EB65
:105110008000C16B206900F045FBA0810028E6D02B
:10512000E08120462169BDE8704000F0C1BCA58146
:10513000E58170BD70B500250446A0F85450B0F864
:10514000500058B1B4F85200216900B9052004EBB1
:105150008000806BFBF77FF800281ED0B4F8520067
:10516000216904EB8000C06B00F01CFB20B1B4F897
:105170005200401CA4F85200B4F85000401C80B209
:10518000A4F85000052802D90520A4F85000B4F86E
:105190005200052801D3A4F8525070BD10B5FFF796
:1051A0000FFF002803D0BDE8104000F0A9B810BDE3
:1051B00010B50446C089002805D0A16E0820884794
:1051C000E089401EE08110BD2DE9F0410646876D63
:1051D0000F488168304600F06BFC002412E000BFED
:1051E00007EB0415687800F00F00012808D829465D
:1051F0003046FFF766FC18B92946304600F00AF839
:10520000641C24B2B6F85C00A042E9DCBDE8F08181
:105210006C0500202DE9F04104460E460846FFF7D4
:10522000B3FE0146204600F043FCC0F1160005B273
:10523000002D00DC0425A16E202088476D1E2DB2B4
:10524000002DF8D1707800F00F012A48012901D80B
:10525000016C0CE0072901D8416C08E0082901D84D
:10526000816C04E0092901D8C16C00E0016D204681
:1052700000F01EFC20A1204600F01AFC07250127A3
:10528000307807FA05F1084201D0782000E02D209F
:10529000A16E88476D1E6DB2002DF1DA16A1204671
:1052A00000F006FC3046FFF76DFE0546A06E0026B6
:1052B000D0B111E0A16E6D1C8847761CB6B2242EC9
:1052C0000AD3687840B1A16E2E208847A16E2E20A7
:1052D0008847A16E2E208847287828B10D2803D052
:1052E0000A2801D0242EE5D32046BDE8F04103A1D1
:1052F00000F0DEBB6C050020202000000D0A00003D
:105300002DE9F0410646876D10484169304600F0AE
:10531000CFFB002414E000BF07EB0415687800F011
:105320000F0008280AD9092808D829463046FFF76F
:10533000C8FB18B929463046FFF76CFF641C24B23D
:10534000B6F85C00A042E7DCBDE8F0816C05002007
:105350002DE9F0410646876D10480169304600F09E
:10536000A7FB002414E000BF07EB0415687800F0E9
:105370000F0007280AD9082808D829463046FFF721
:10538000A0FB18B929463046FFF744FF641C24B23D
:10539000B6F85C00A042E7DCBDE8F0816C050020B7
:1053A0002DE9F0410646876D1048C168304600F08F
:1053B0007FFB002413E000BF07EB0415687800F0C2
:1053C0000F00801E052808D829463046FFF779FBD4
:1053D00018B929463046FFF71DFF641C24B2B6F801
:1053E0005C00A042E8DCBDE8F08100006C05002014
:1053F00070B50022012311464FEA020400EB81053B
:10540000491C09B26C610829F8DBC486002127E039
:1054100022B905696E5C202E1ED0EEB105696E5C66
:10542000222E01D11AB10022012B02D00BE0012261
:10543000FAE7C38E082B05D200EB83065B1C0D44F4
:10544000C3867561002305696E5C5C2E06D14E1C17
:10545000AD5D1DB1B1B201E06C540123491C89B2AC
:1054600085898D42D4D870BDC1898289914206D286
:1054700003694A1CC2815A5C816E10460847704716
:105480002DE9F047044690F860000F4640F0020016
:1054900084F86000497800250A0704F114090BD04C
:1054A00001F00F0001282AD0811E052936D839467F
:1054B000204600F00DF937E00025A84617E000BFB0
:1054C00004EB850670690178222904D180F80080F8
:1054D0007069401C7061FAF7B7FE80B27169401EB6
:1054E0000A5C222A01D101F800806D1CADB2E08E69
:1054F000A842E5D8BA68E08E4946904705E0E28EBA
:105500004B4639462046FFF7DAFC05467878800698
:105510000AD42946204600F08BFA05E0082803D17A
:105520003946204600F040F814F8600F20F00200E1
:1055300020702846BDE8F0872DE9F04706468A46E8
:10554000B16DB0F85C00511AA0EB111099461546E8
:1055500087B200241BE000BF05EB041898F8010097
:1055600000F00F00092810D041463046FFF7A9FA95
:1055700058B94046FFF708FD0146B9F100000BD0CD
:1055800002465046FAF775FE50B1641CA4B2BC4204
:10559000E2D30020BDE8F0875046FAF75CFEF3E75F
:1055A00005EB0410F6E7000070B50446016088685A
:1055B0000D4600B3FAF748FEE8B1E08E022804D3A6
:1055C000A169A868FAF747FEA8B194F8600020F036
:1055D000010000BF0B4D84F860002046A96B00F06D
:1055E00067FA94F86000C0070AD020462968BDE831
:1055F000704000F05DBA94F8600040F00100E9E707
:1056000070BD00006C0500202DE9F0410E460746F4
:10561000FFF7D6FC041E16D000233946A26DFFF713
:105620008BFF0E4D010010D0487800F00F00801E57
:1056300006280CD33946204600F03AFA696A20461B
:1056400000F036FA0020BDE8F081A96AF7E732469B
:105650002046BDE8F04100F003B800006C050020D2
:1056600070B50C460546497818484B0601D5016AC5
:1056700018E001F00F01891E062921D2DFE801F0B0
:105680000306090C1116A068026019E0A0680280E8
:1056900016E0A068027013E01146A06800F082F8DE
:1056A0000EE0C169284600F003FA09E0A0688368AB
:1056B00033B1006810B11146984701E01046984791
:1056C00021462846BDE8704000F002B86C05002075
:1056D000FEB523A20C46064607CA8DE80700214600
:1056E0003046FFF781FC05463046616800F0E0F97E
:1056F0001EA1304600F0DCF9607800F00F000528AC
:1057000023D06946284600F013F9C0F10B006C461F
:105710000119304600F0CCF915A1304600F0C8F967
:10572000002130206054491C09B20B29FADB69467C
:10573000284600F023F96946304600F0B9F90EA179
:10574000304600F0B5F92846FEBD0CA1304600F009
:10575000AFF92946304600F0ABF908A1ECE70000AC
:10576000303030303030303030303000203D2000AC
:105770002C203078000000000D0A000022000000FC
:1057800030B504460020024605E0AB4209D1401C7A
:10579000521C80B292B2A35C002B02D08D5C002D13
:1057A000F3D130BD0246002002E01354401C80B209
:1057B0000B5C002BF9D10021115470472DE9F05FEB
:1057C0000446B0F834804FF0000980894D4630B16E
:1057D0002269CA46564602F800A0A76D3FE020465F
:1057E000FFF7F2FC0121204600F0F4F801F002FC82
:1057F000002876D1BDE8F09F07EB06118B462046C6
:10580000FFF75FF948BB5846FFF7BEFB014620692A
:10581000FFF7B6FFA18988421FD1D5B1012D03D171
:1058200040A1204600F044F907EB091949462046FB
:10583000FFF7F0FC5846FFF7A7FB83464846FFF703
:10584000A3FB5946FFF79CFF4146804500D8084618
:1058500080466D1C1FFA86F9ADB2761C36B2B4F8DC
:105860005C00B042C8DC002DC4D0012D02D120461E
:10587000FFF74CF907EB09100646FFF785FB0146D9
:105880002069FFF78FFFA081012D09D931462046FD
:10589000FFF7C0FC0121204600F09CF8A4F80C8022
:1058A000A289216901F802A0A089E081204621692E
:1058B00000F0FEF801F09EFB00289BD0012D2AD1BC
:1058C00094F86000400726D501F094FB014660681B
:1058D000081AC8281FD22046FFF718F9B4F90C009F
:1058E00006E018E02169421D0B5C401E8B5400B29B
:1058F0000028F7DA0CA12069FFF754FF2169202066
:105900000871A089401DA081E08120462169BDE881
:10591000F05F00F0CDB814F8600F40F00400207084
:1059200068E700000D0A000068656C700000000068
:1059300030B50B22031E00DA43420024CC720A2445
:105940000AE000BF93FBF4F504FB153593FBF4F379
:10595000521ED2B230358D54002BF3D1002802DA1A
:105960004FF02D0002E005D14FF03000A2F101020E
:10597000D2B28854C2F10B0040B230BD08220023DD
:105980000B720AE000F00F03092B01D9573300E036
:105990003033521ED2B200098B540028F2D1C2F12A
:1059A000080040B270470121FFF778BB10B5FFF740
:1059B00007FB002803D0BDE81040FFF7C9BC10BDAD
:1059C00010B5FFF7FDFA002803D0BDE81040FFF73F
:1059D000E7BC10BD10B5044690F86000C00719D0B0
:1059E00019B10EA1204600F063F8206841682046F6
:1059F00000F05EF80AA1204600F05AF8A16801B94B
:105A000008A1204600F054F807A12046BDE8104048
:105A100000F04EB80548016BF7E700000D0A0000E2
:105A20003A0000002F000000242000006C05002038
:105A3000FEB516A20D46064607CA8DE8070016A158
:105A4000304600F035F869462846FFF771FFC0F18F
:105A50000B006C460119304600F02AF811A13046BF
:105A600000F026F800223020A054521C12B20B2A5B
:105A7000FADB69462846FFF781FF6946304600F0A9
:105A800017F80AA1304600F013F8FEBD3030303070
:105A9000303030303030300052657475726E3A20DC
:105AA000000000002C203078000000000D0A0000EB
:105AB00070B50646806E00240D46002809D004E02B
:105AC000B16E6D1C8847641CA4B228780028F7D1F9
:105AD000204670BD10B5014402A0FCF71BFC00205D
