:020000040800F2
:1000000020440020DD01000839210008DD1200082D
:10001000912000086B090008CF2F000800000000A5
:100020000000000000000000000000004501000882
:100030008D0900080000000089010008292D000832
:10004000F7010008F7010008F7010008F7010008B0
:10005000F7010008F7010008F7010008F7010008A0
:10006000F7010008F70100086D0A0008F701000811
:10007000F7010008F7010008F7010008F701000880
:10008000F7010008F7010008F7010008F701000870
:10009000F7010008F7010008F7010008F701000860
:1000A000F7010008F7010008F7010008F701000850
:1000B000F7010008992D0008F7010008F701000872
:1000C000F7010008F7010008F7010008F701000830
:1000D000F70100080D2E0008F7010008F7010008DD
:1000E000F7010008F7010008F7010008F701000810
:1000F000F7010008F7010008F7010008F701000800
:10010000F7010008F7010008F7010008F7010008EF
:10011000F7010008F7010008F7010008F7010008DF
:10012000F7010008F7010008F7010008F7010008CF
:10013000DFF80CD000F0A8FA00480047413B000867
:1001400020440020224B19680868B0E8F00F80F3C3
:100150000988BFF36F8F4FF0000080F311884EF0D5
:100160000D0E70470000000006480068006880F32C
:10017000088862B661B6BFF34F8FBFF36F8F00DFA1
:1001800000BF00BF08ED00E0EFF30980BFF36F8F01
:100190000F4B1A6820E9F00F106008B54FF05000BF
:1001A00080F31188BFF34F8FBFF36F8F04F0B2FF5E
:1001B0004FF0000080F31188BDE808401968086816
:1001C000B0E8F00F80F30988BFF36F8F704700BF6E
:1001D000580F0020EFF30580704700000648804765
:1001E00006480047FEE7FEE7FEE7FEE7FEE7FEE71C
:1001F000FEE7FEE7FEE7FEE7392D000831010008C3
:1002000040EA01039B0703D009E008C9121F08C098
:10021000042AFAD203E011F8013B00F8013B521E18
:10022000F9D27047D2B201E000F8012B491EFBD28F
:1002300070470022F6E710B513460A4604461946F1
:10024000FFF7F0FF204610BDF0B480EA0102D40FA2
:100250004200B2EB410F02D20246084611464A0064
:1002600042D0C30DDDB2C1F3C752AD1A202D35DA2D
:10027000C1F3160141F4000204B15242C5F1200657
:1002800002FA06F12A411044B3EBD05F23D0C4B187
:10029000012DA0EBC35009DCF0BC4FF0004202EA94
:1002A000C352DBB200F5000000F006B9400000F1D7
:1002B000807000EBC350A0F1807040EAD17049001B
:1002C00009E0490841EAC071A0EBC35000F5000005
:1002D000400800EBC350F0BC00F0E5B861420122D9
:1002E00002EB4101001BF6E7F0BC704781F00041D2
:1002F000AAE780F00040A7E780EA010210B502F00B
:100300000043400022D04A001FD0010E01EB1261D1
:10031000C0F35600C2F3560240F4000042F400025B
:10032000A0FB022000047F39140400D0401C50EAD6
:10033000124001D44000491EC2B20C0604EBD0109A
:10034000401C4008802A02D003E0002010BD20F0AD
:100350000100002900DA0020184310BD30B480EA03
:10036000010202F0004530F0004221F0004013D0BD
:1003700090B1C30DD40DC2F31601C0F31600E41AF8
:1003800041F4000140F400027D34914201D3641C29
:1003900000E04900002C02DA30BC002070474FF426
:1003A00000000023914201D3891A034340084FEA19
:1003B0004101F7D151B1914202D14FF0004105E026
:1003C00002D24FF0010101E06FF0010103EBC450D4
:1003D000284430BC00F067B8C10F80EAE0700844E0
:1003E000CA079623002100F067B800F0004230F001
:1003F00000400AD0C10D01F56071C0F3160042EA59
:100400000151C20840071143704700200146704760
:1004100001F0004330B421F0004150EA010206D05F
:100420000A0DA2F56072C1F31301002A02DC30BC90
:1004300000207047440F44EAC104C100E01830BCFA
:1004400000EBC25000F02FB8002801DBC0F10040E3
:10045000002901DBC1F100418142704730B50B46F4
:10046000014600202022012409E021FA02F59D42E4
:1004700005D303FA02F5491B04FA02F52844151EB8
:10048000A2F10102F1DC30BD202A04DB203A00FA9F
:1004900002F1002070479140C2F1200320FA03F3DB
:1004A0001943904070470029A8BF7047401C49007D
:1004B00008BF20F00100704710B4B0FA80FC00FAC9
:1004C0000CF050EA010404BF10BC704749B1CCF1F4
:1004D000200421FA04F411FA0CF118BF0121214380
:1004E0000843A3EB0C01CB1D4FEA00614FEA10203B
:1004F00042BF002010BC704700EBC35010440029DD
:10050000A4BF10BC7047401C490008BF20F0010088
:1005100010BC7047420005D0C0F3C752524291420E
:1005200001DC0020704700EBC150704710B5141E6D
:1005300073F1000408DA401C41F1000192185B419C
:100540001A4301D120F0010010BD2DE9F04D924673
:100550009B4611B1B1FA81F202E0B0FA80F220328A
:100560009046FFF791FF04460F4640EA0A0041EA31
:100570000B0153465A46084313D0114653EA010073
:1005800019D0C8F14002504600F090F805460E46DA
:10059000504659464246FFF777FF084305D00120F1
:1005A00004E020463946BDE8F08D0020054346EAC8
:1005B000E0762C4337430A986305E40AA0EB080071
:1005C0000022FD0A44EA47540A3002D500200146C1
:1005D000E9E7010510196941DDE90845001969419C
:1005E000BDE8F04DA2E72DE9F04D00231A461B1A95
:1005F0008A4103DB00200146BDE8F08DC1F30A52B9
:10060000C1F3130141F480154FF0000BD10702D163
:1006100000186D41521E0027044640F2FF11384673
:1006200001EB620A3E468046024600204FF48011EC
:1006300000F03CF8C2197141BB1846EB0100B4EB65
:10064000030C75EB000C04D3E41A65EB00051746A8
:100650000E46241908F101006D4180463428E3DD7F
:10066000F91946EB0600091BA84103D24FF0FF32EF
:10067000134601E0002213461BEB070046EB0A512C
:10068000BDE8F04DFFF752BF064C074D06E0E068AD
:1006900040F0010394E8070098471034AC42F6D3C9
:1006A000FFF74AFD547E0008747E0008202A04DB10
:1006B000203A21FA02F00021704721FA02F3D040DB
:1006C000C2F120029140084319467047F0B4002857
:1006D00002DCF0BC00207047C0F3C751C0F3160025
:1006E00040F40000CA0701D14000491E3F2202EB3E
:1006F0006105002211464FF4000626FA01F3134467
:10070000D418844201D8001B1A464000491C1729FE
:10071000F3DD5100814202D24FF0FF3100E00021B1
:1007200002EBC550F0BCFFF7BEBE70B58C1810F8D8
:10073000015B15F0070301D110F8013B2A1106D126
:1007400010F8012B03E010F8016B01F8016B5B1E40
:10075000F9D12B0705D40023521E0DD401F8013B1B
:10076000FAE710F8013BCB1A921C03E013F8015B87
:1007700001F8015B521EF9D5A142D8D3002070BD0B
:1007800021B1826842F00102826003E0826822F0B7
:10079000010282607047000010B50446124884428E
:1007A00008D10121401502F003F90021601502F083
:1007B000FFF817E00D48844208D10121001502F02E
:1007C000F7F80021201502F0F3F80BE00848844206
:1007D00008D10121C80302F0EBF800214FF40040DA
:1007E00002F0E6F810BD000000240140002801409E
:1007F000003C0140014600208A6802F004020AB170
:10080000012000E0002070470146C86C80B27047AC
:100810000246002013680B400BB1012000E00020CD
:100820007047014600208A6802F008020AB10120E0
:1008300000E000207047000030B502460020002391
:1008400050680F4C20400D790C6844EA0524204381
:10085000506090680B4C2040D1E902542C434D79F4
:1008600044EA450420439060D06A20F470000C7C78
:10087000641EE4B2234340EA0350D06230BD00005E
:10088000FFFEF0FFFDF7F1FFF0B504460D46002036
:100890000021092D11DDE068A5F10A0606EB4607E7
:1008A000072606FA07F18843A5F10A0606EB460675
:1008B00003FA06F10843E0600CE0206905EB450708
:1008C000072606FA07F1884305EB450603FA06F109
:1008D00008432061072A0FDA606B561E06EB860775
:1008E0001F2606FA07F18843561E06EB860605FA10
:1008F00006F10843606322E00D2A0FDA206BD61F51
:1009000006EB86071F2606FA07F18843D61F06EB7B
:10091000860605FA06F10843206310E0E06AA2F1BA
:100920000D0606EB86071F2606FA07F18843A2F19B
:100930000D0606EB860605FA06F10843E062F0BDF7
:10094000816841F008018160704721B1826842F4FA
:10095000A002826003E0826822F4A00282607047F5
:10096000816841F004018160704700BFFEE700002C
:100970000548C079401C0449C8710846C0791E2842
:1009800001DD0120C8717047080F0020704700008A
:1009900010B5044802F012FBC4B22146014802F02F
:1009A00012FB10BD00380140F8B504460E4617464C
:1009B00000251C48844204D101F086FD01F0D4FAE0
:1009C0002BE001200090184800780007010E10234A
:1009D0002022002001F09AFE012000903007010E35
:1009E00010233E22002001F091FE00250EE00120A0
:1009F0000090E81900EBC00004EB8000021D2807FE
:100A0000010E1023082001F065FF6D1C206800789E
:100A100021684978401AA842E9DC01F043FE024807
:100A20000670F8BD800B0020F00E0020F8B50446DB
:100A30000F461646002500BF0EE001200090A819C1
:100A400000EBC00004EB8000021D2807010E1023FC
:100A5000082001F03FFF6D1C20680078216849786C
:100A6000401AA842E9DC01F01DFEF8BD10B51020C7
:100A700000F00CF810B1102000F002F810BD0000DA
:100A8000014908607047000014040140014600203D
:100A90000022074B1B6803EA0102054B14331B6855
:100AA0000B4013B10AB1012000E0002070470000A4
:100AB00000040140002123498279002A3AD00A46E5
:100AC000126803689A430B461A600A1D126803688D
:100AD0009A430B1D1A60027911440A6803681A438D
:100AE0000A60184A0832126803689A43154B0833A3
:100AF0001A601A1D126803689A43124B0C331A606D
:100B00004279102A0ED11A1F126803681A430D4B3E
:100B100008331A601A1D126803681A43094B0C3314
:100B20001A600DE00749427911440A6803681A43C4
:100B30000A6005E0027911440A6803689A430A6072
:100B4000704700000004014030B500228B071C0FE5
:100B50000F2303FA04F20B4B8C1053F82430934309
:100B6000084C8D1044F8253023468C1053F824305F
:100B70008C07240F00FA04F42343024C8D1044F830
:100B8000253030BD080001402DE9F0410246002526
:100B90000026002000230024002791F803C00CF059
:100BA0000F0591F803C00CF0100CBCF1000F03D03E
:100BB00091F802C04CEA050591F800C0BCF1000FA5
:100BC00031D0146800202BE04FF0010C0CFA00F338
:100BD000B1F800C00CEA03069E4220D183004FF01A
:100BE0000F0C0CFA03F7BC4305FA03FC4CEA0404AF
:100BF00091F803C0BCF1280F06D14FF0010C0CFA9C
:100C000000FCC2F814C00AE091F803C0BCF1480F20
:100C100005D14FF0010C0CFA00FCC2F810C0401CCA
:100C20000828D1D31460B1F800C0BCF1FF0F34DD47
:100C3000546800202EE000F1080C4FF0010808FA7B
:100C40000CF3B1F800C00CEA03069E4221D18300E8
:100C50004FF00F0C0CFA03F7BC4305FA03FC4CEA07
:100C6000040491F803C0BCF1280F05D100F1080C71
:100C700008FA0CF8C2F8148091F803C0BCF1480FD0
:100C800007D100F1080C4FF0010808FA0CF8C2F87F
:100C90001080401C0828CED35460BDE8F0810000CD
:100CA000F0B50A46002300240021002500F000468C
:100CB000B6F1004F02D11D4EF16901E01B4E716883
:100CC000C0F3034583B200F44016B6F5401F08D1C7
:100CD00021F07061154E766826F07066134F7E60C5
:100CE00012E000F48016B6F5801F06D1032606FA3E
:100CF00005F4A14341F0706106E0460D360103FAA8
:100D000006F6B14341F0706122B1460D360103FA97
:100D100006F6314300F00046B6F1004F02D1034E13
:100D2000F16101E0014E7160F0BD00000000014082
:100D3000416170470161704710B5B14800780128E2
:100D40003ED10020AE490870AE480078401E40B247
:100D5000AC490870084690F9000000280BDAAA4850
:100D6000007840B100200870A7480078401E40B2CB
:100D7000A54908701BE0A34890F90000002816DA86
:100D8000A148007898B9A148006800680078401E22
:100D90009E49096809684978401A40B29949087023
:100DA0009A4800680068407840B2974908709648B1
:100DB00002789448017895480068FFF7F5FD1BE13B
:100DC0009348007801285AD10020914908708D4835
:100DD0000078401C40B28B4908708C48006800685D
:100DE0000078401E8949096809684978401A854990
:100DF00091F9001088421CDA844800680068407845
:100E0000814991F90010884213D080480068006839
:100E10000078401E7D49096809684978401A40B247
:100E20007849087078480078401C40B276490870CC
:100E30001CE07648006800680078401E7349096825
:100E400009684978401A6F4991F9001088420DDA13
:100E50006E480068006840786B4991F9001088423C
:100E600004D1002067490870674908706648027815
:100E70006448017865480068FFF796FDBCE0654866
:100E80000078012829D15F4890F900005E4991F966
:100E90000010084400EBC0005C49096801EB8000C9
:100EA000406970B1574991F90010574A92F90020F2
:100EB000114401EBC101554A126802EB81014869F6
:100EC00080470020534908704F4802784D48017808
:100ED0004E480068FFF768FD8EE04F480078012813
:100EE0007ED148480078D0B947480078B8B945481D
:100EF00090F9000000EBC0004449096801EB800054
:100F0000C06960B13F4890F9000000EBC0003F4964
:100F1000096801EB8000C0693C4908605FE039481E
:100F200090F90000384991F90010084400EBC00026
:100F30003649096801EB8000006A88B3314890F9AE
:100F40000000314991F90010084400EBC0002F491E
:100F5000096801EB8000806970B12A4991F900109D
:100F6000294A92F90020114401EBC101274A126875
:100F700002EB810188698047224890F900002249EC
:100F800091F90010084400EBC0002049096801EB0A
:100F90008000006A1D49086000201A4908701EE0A0
:100FA000FFE7184890F90000174991F9001008442C
:100FB00000EBC0001549096801EB8000806970B141
:100FC000104991F90010104A92F90020114401EBE8
:100FD000C1010E4A126802EB81018869804700E076
:100FE0000AE000200C49087007480278054801789B
:100FF00006480068FFF7D8FC00F010F810BD0000AC
:10100000F40E0020650B0020660B0020680B00200A
:10101000F50E0020F60E0020F70E002010B54F4808
:1010200000684F4988422BD14E4802884EA14C4857
:10103000283001F0D7FF5048028850A148484C3072
:1010400001F0D0FF5148028851A14548703001F0AD
:10105000C9FF5348028853A14148943001F0C2FFB0
:101060005448028854A13E48B83001F0BBFF5648AE
:1010700002785648017839480068FFF7D7FC6CE0E1
:10108000364800685249884226D1524890F90020DB
:1010900051A14F48283001F0A5FF534890F9002096
:1010A00052A14B484C3001F09DFF544890F900206C
:1010B00053A14748703001F095FF002254A14448E5
:1010C000943001F08FFF404802784048017823486F
:1010D0000068FFF7ABFC40E02048006850498842B8
:1010E00032D15048027850A14D48283001F07AFFA3
:1010F0004C48427850A14A484C3001F073FF4948AF
:10110000827851A14648703001F06CFF45488288D2
:1011100051A14348943001F065FF4248827952A1C1
:101120003F48B83001F05EFF3E48C27952A13C48CA
:10113000DC3001F057FF2448027824480178074842
:101140000068FFF773FC08E0044800684E498842D5
:1011500003D100F009FF01F0A5FA10BD680B0020D3
:101160003C0C0020720B002062756C6C2020253333
:101170006420202020200000740B0020626972642B
:10118000202025336420202020200000760B002022
:10119000646F672020202533642020202020000059
:1011A000780B0020626F77202020253364202020D8
:1011B000202000007A0B0020666973682020253308
:1011C0006420202020200000660B0020650B0020FA
:1011D000180D00206C0B00204B502020202533647C
:1011E00020202020202000006D0B00204B492020D3
:1011F0002025336420202020202000006E0B0020BA
:101200004B44202020253364202020202020000073
:1012100050574D202025336420202020202000001E
:10122000D00D0020080F0020486F75722020202567
:1012300032642020202000004D696E7574652025E1
:1012400032642020202000005365636F6E642025E7
:101250003264202020200000596561722020202562
:1012600034642020202000004D6F6E7468202025FB
:101270003264202020200000446179202020202595
:101280003264202020200000800B002010B50B4885
:101290000B4908620B4941640B4981660B49C0F850
:1012A0008C1007480A4908600A4802780A48017801
:1012B00007480068FFF778FB10BD0000A80B00206E
:1012C000800B00203C0C0020180D0020D00D0020C9
:1012D000680B0020660B0020650B002000BFFEE7B6
:1012E00005480078401C0449087008460078172813
:1012F00001DD002008707047080F002010B5802124
:101300000A48FFF717FD20210848FFF713FD00F0FA
:1013100011F980210548FFF70BFD00F00BF92021A2
:101320000248FFF705FD00F005F910BD0008014077
:1013300010B580210648FFF7FBFC20210448FFF789
:10134000F9FC00F0F7F880210148FFF7F3FC10BD2D
:101350000008014010B580210848FFF7EBFC00F0C1
:10136000E9F820210548FFF7E5FC00F0E3F820212B
:101370000248FFF7DDFC00F0DDF810BD0008014079
:1013800010B500200949086001F09EFB00200849C3
:10139000C1F89C0100F0FEF901200449086000F04A
:1013A000F9F900200249C1F8980110BD9881214245
:1013B0000080214210B500200949086001F084FB3B
:1013C00001200849C1F89C0100F0E4F9012004491A
:1013D000086000F0DFF900200249C1F8980110BD53
:1013E000988121420080214270B50546002401F019
:1013F00059FB002614E000200E49086000F0CAF9ED
:1014000001200D49C1F898016006040E09487C3896
:10141000006808B1601CC4B200F0BCF9701CC6B210
:10142000082EE8DB15B9FFF7C5FF01E0FFF7A8FFBD
:10143000204670BD988121420080214270B504464B
:1014400001F042FB00200D490860002512E0E00990
:101450000A49091D08606006040E01200849C1F808
:10146000980100F097F900200449086000F092F913
:10147000681CC5B2082DEADB70BD000098812142CE
:101480000080214210B501F01FFB012008490860CF
:101490000849C1F8980100F07DF90020044908606E
:1014A00000F078F900200349C1F8980110BD000050
:1014B0009C8121420080214210B501F005FB0020F3
:1014C000074908600749C1F89C0100F063F9012051
:1014D000034908600349C1F89C0100F05BF910BDA5
:1014E000988121420080214210B5002401F0DAFAEF
:1014F00001200E49086000F04DF901200C49C1F8A7
:10150000980100F047F907E0601CC4B2FA2C03DD33
:10151000FFF7D2FF012010BD044880380068002882
:10152000F2D10249091F086000BFF4E79C81214203
:1015300000802142032000BF011EA0F10102D0B2B1
:10154000FAD1704703480078401C40B20149087046
:10155000704700006E0B00200748007810B901208A
:10156000054908700548006808B9012000E000201E
:101570000249086070470000F50E0020B4012242C5
:101580000748007810B9012005490870054800682F
:1015900008B9012000E000200249086070470000FF
:1015A000F60E0020B40122420748007810B901204D
:1015B000054908700548006808B9012000E00020CE
:1015C0000249086070470000F70E0020B401224273
:1015D00000B50246012A02D10020294908602848A6
:1015E0000068002836D12748006850B126480068B6
:1015F00038B12548001D006818B12348083000683C
:1016000040BB22480068401C20490860084600682A
:10161000022834DD01201A49086000201B490860B7
:101620001848006810B900F033F828E01648006840
:1016300010B9FFF791FF22E01348001D006810B9B0
:10164000FFF79EFF1BE0104808300068B8B9FFF7AD
:10165000ABFF14E00B480068012810D10A4800686D
:1016600001280CD10848001D0068012807D1064850
:1016700008300068012802D100200149086000BD3F
:10168000FC0E00203C0121420C812142F80E00207A
:101690000748007810B9012005490870054800681E
:1016A00008B9012000E000200249086070470000EE
:1016B000F40E0020B401224203480078401C40B2DE
:1016C00001490870704700006D0B00200348007846
:1016D000401C40B201490870704700006C0B0020AC
:1016E00003480078401E40B201490870704700006E
:1016F0006C0B00202DE9FC4104460D4616466B4656
:1017000006223B21682000F0E6F80746BFB99DF8A5
:1017100001009DF8001040EA012000B220809DF8F1
:1017200003009DF8021040EA012000B228809DF8D5
:1017300005009DF8041040EA012000B230803846D0
:10174000BDE8FC812DE9FC4104460D4616466B467A
:1017500006224321682000F0BEF80746BFB99DF875
:1017600001009DF8001040EA012000B220809DF8A1
:1017700003009DF8021040EA012000B228809DF885
:1017800005009DF8041040EA012000B23080384680
:10179000BDE8FC8110B5022002F028F910BD000060
:1017A00008B50121082001F0F3F84020ADF8000051
:1017B00003208DF8020014208DF8030069460B48C1
:1017C000FFF7E2F98020ADF8000003208DF8020059
:1017D00014208DF8030069460448FFF7D5F901206D
:1017E000034908600349C1F89C0108BD000C014091
:1017F000988121420080214210B5FFF7D1FF80225D
:101800006B21682000F0F1F8642002F0CDF800228E
:101810006B21682000F0E9F8032000F09FF8002019
:1018200000F093F8C82000F0C2F8012238216820A7
:1018300000F0DBF800226A21682000F0D6F80022D0
:101840002321682000F0D1F89C223721682000F085
:10185000CCF87521682000F019F80B49087008468B
:10186000007868280CD101226B2100F0BEF800221C
:101870006C21682000F0B9F8C82000F098F801E069
:10188000012010BD0020FCE73800002070B50446A0
:101890000D460026FFF7F6FD002141EA4401C8B2DB
:1018A000FFF7CCFDFFF720FE2846FFF7C7FDFFF747
:1018B0001BFEFFF7E7FD012101EB4401C8B2FFF772
:1018C000BDFDFFF711FE0020FFF78EFD0646FFF776
:1018D000F3FD304670BD2DE9F04106460F46144633
:1018E0001D46FFF7CFFD002141EA4601C8B2FFF7D0
:1018F000A5FDFFF7F9FD20B1FFF7DEFD0120BDE8F2
:10190000F0813846FFF79AFDFFF7EEFDFFF7BAFDCD
:10191000012101EB4601C8B2FFF790FDFFF7E4FD9E
:101920000DE0012C04D10020FFF75EFD287003E0DC
:101930000120FFF759FD2870601EC4B26D1C002CF9
:10194000EFD1FFF7B9FD0020D9E710B50446E00656
:10195000020E1C21682000F048F810BD10B50446A6
:10196000032000EBC400C2B21B21682000F03DF848
:1019700010BD70B504460025BC2C01DB012510E02C
:10198000622C01DB02250CE02A2C01DB032508E098
:10199000142C01DB042504E00A2C01DB052500E002
:1019A00006252A461A21682000F01FF870BD70B580
:1019B0000446B4F57A7F01DD4FF47A74042C00DA22
:1019C00004244FF47A7090FBF4F0401EC5B22A460E
:1019D0001921682000F009F80546264604EBD67167
:1019E000C1F34F00FFF7C5FF70BD70B504460D464B
:1019F0001646FFF747FD002141EA4401C8B2FFF750
:101A00001DFDFFF771FD18B1FFF756FD012070BDF8
:101A10002846FFF713FDFFF767FD3046FFF70EFD81
:101A2000FFF762FD18B1FFF747FD0120EFE7FFF771
:101A300043FD0020EBE700002DE9FF4F99B01E4663
:101A4000289CFE4801680068FEF756FC1390FC488D
:101A50000168FA480068FEF74FFC1290F9480168E7
:101A6000F6480068FEF748FC1190F7480168F34813
:101A70000068FEF741FC1090F14801680068FEF72D
:101A80003BFC0F90EF480168ED480068FEF734FC1E
:101A90000E90ED480168EA480068FEF72DFC0D90B5
:101AA000E84801680068FEF727FC0C90E6480168EA
:101AB000E4480068FEF720FC0B90E34801680068EA
:101AC000FEF71AFC0A9000213046FEF7BDFC0CD14F
:101AD00000212698FEF7B8FC07D100212798FEF7D1
:101AE000B3FC02D11DB0BDE8F08F27990846FEF780
:101AF00003FC049026990846FEF7FEFB314602904F
:101B00003046FEF7F9FB01900299FEF79DFB03902A
:101B10000499FEF799FB0590FEF767FCCDE90601F5
:101B200002F020FFCDE90801FEF772FC1890304664
:101B30001899FEF713FC064618992698FEF70EFC36
:101B4000269018992798FEF709FC279011990D986F
:101B5000FEF7CCFB4FF080410990FEF7CDFB1790CC
:101B60000B991298FEF770FB4FF080410990FEF739
:101B7000C3FB16900F991398FEF7B8FB08900C99C9
:101B8000FEF7B4FB09900A99FEF75EFB15901699D3
:101B90002798FEF7B1FB099015992698FEF7ACFB44
:101BA00008900999FEF7A2FB824630461599FEF788
:101BB000A3FB099017992798FEF79EFB08900999B7
:101BC000FEF794FB834617992698FEF795FB09903C
:101BD00030461699FEF790FB08900999FEF786FBB0
:101BE00014909A495046FEF787FB0990984801687F
:101BF0000998FEF729FB9649086094495846FEF774
:101C00007BFB0990934801680998FEF71DFB9149F9
:101C100008608E491498FEF76FFB09908E480168A2
:101C20000998FEF711FB8C49086051464FF082403D
:101C3000FEF762FB08901999FEF706FB09908448AD
:101C400001680998FEF700FB199059464FF0824051
:101C5000FEF752FB08901A99FEF7F6FA09907D48B4
:101C600001680998FEF7F0FA1A904FF08240149933
:101C7000FEF742FB08901B99FEF7E6FA09907648BA
:101C800001680998FEF7E0FA1B906C4807686C48F9
:101C900005686C48D0F800806B48D0F80090484642
:101CA0001B99FEF729FB079040461A99FEF724FB83
:101CB000059085F0004003901999FEF71DFB0490F4
:101CC0000599FEF713FB06900799FEF70FFB634992
:101CD0000890FEF711FB39460990FEF7B5FA57490F
:101CE000086048461A99FEF707FB079040461B9983
:101CF000FEF702FB394605901998FEF7FDFA0490AD
:101D00000599FEF7A1FA06900799FEF7EFFA5349F5
:101D10000890FEF7F1FA29460990FEF795FA48492E
:101D2000086049461998FEF7E7FA079028461B997C
:101D3000FEF7E2FA059038461A99FEF7DDFA0490AC
:101D40000599FEF7D3FA06900799FEF77DFA434905
:101D50000890FEF7D1FA41460990FEF775FA394925
:101D6000086041461998FEF7C7FA079028461A9965
:101D7000FEF7C2FA059038461B99FEF7BDFA0490AB
:101D80000599FEF761FA06900799FEF7AFFA334915
:101D90000890FEF7B1FA49460990FEF755FA2A492C
:101DA00008600F991398FEF74FFA03900C99FEF70D
:101DB0004BFA04900A99FEF747FA0590FEF715FBD7
:101DC000CDE9060102F0CEFDCDE90801FEF720FBCA
:101DD00018901A4818990068FEF7C0FA1749086069
:101DE000174818990068FEF7B9FA154908601548B0
:101DF00018990068FEF7B2FA12490860124818995B
:101E00000068FEF7ABFA104908600D4801680B48FE
:101E10000068FEF771FA12900A48016807480068E6
:101E2000FEF76AFA11900848016804480068FEF756
:101E300063FA109002480168006811E0140F002056
:101E4000180F00201C0F0020200F00206F12033CF1
:101E5000240F0020280F00202C0F00200AD7A33BBE
:101E6000FEF74AFA0F903C4801683C480068FEF7CC
:101E700043FA0E903A48016838480068FEF73CFA89
:101E80000D90354801680068FEF736FA0C9034482A
:101E9000016831480068FEF72FFA0B90304801685E
:101EA0000068FEF729FA0A900C990F98FEF71EFABF
:101EB0004FF080410690FEF71FFA4FF07E510790D9
:101EC000FEF717FA09900B991298FEF7BDF94FF03B
:101ED00080410790FEF710FA0890099901F004FB81
:101EE00020600D991198FEF701FA4FF0804108909B
:101EF000FEF702FA099001F065FA60600A990C9801
:101F0000FEF7A2F94FF080410690FEF7F5F94FF089
:101F10007E510790FEF7EDF909900E991098FEF7A3
:101F200093F94FF080410790FEF7E6F90890099980
:101F300001F0DAFAA0600B492068FEF7DDF92060B5
:101F400008496068FEF7D8F960600649A068FEF7A6
:101F5000D3F9A06000BFC5E51C0F0020180F0020BA
:101F6000200F0020333365422DE9FC4112240C2759
:101F70001A254FF02808012612E00120F1060090F2
:101F8000080E10232D22002100F0C0FB0120F106D5
:101F90000090080E10232D22302100F0B7FB761C94
:101FA0000F2EEADB01201821CDE900103748027816
:101FB00002233946204600F047FC012004F11801B5
:101FC0000090C8B218233A22394600F09FFB012046
:101FD0001821CDE900102D494A7804F12401C8B236
:101FE0000223394600F030FC012004F13C0100904E
:101FF000C8B218233A22394600F088FB0120182184
:10200000CDE9001021498A7804F14801C8B20223C1
:10201000394600F019FC01201021CDE900101B48C1
:10202000828804234146284600F00EFC012005F179
:1020300020010090C8B210232F22414600F066FB19
:1020400001201021CDE9001010498A7905F12801FD
:10205000C8B20223414600F0F7FB012005F1380128
:102060000090C8B210232F22414600F04FFB012000
:102070001021CDE900100549CA7905F14001C8B227
:102080000223414600F0E0FBBDE8FC81000F002088
:1020900000BFFEE705484078401C044948700846E8
:1020A00040783B2801DD002048707047080F002071
:1020B00005488079401C04498871084680790C28BD
:1020C00001DD012088717047080F00200E488078DC
:1020D0003B2806DD00200C49887008464078401CEB
:1020E0004870094840783B2806DD002006494870C2
:1020F00008460078401C087003480078172802DD65
:102100000020014908707047000F0020084800684F
:10211000401C0749086008460068C72806DD002003
:10212000086004488078401C0249887070470000AD
:10213000100F0020000F00207047000010B505228E
:102140000D49302000F048F905220B49102000F01D
:10215000A9F8002406E00848005DAA2800D003E0A2
:10216000601CC4B2052CF6DB00BF052C01D0012099
:1021700010BD0020FCE700003900002008B5012157
:102180000C2000F005FC0121880300F0F1FB4FF466
:102190000050ADF8000018208DF8030003208DF8E2
:1021A000020069463948FEF7EFFC4FF4005137480A
:1021B000FEF7C0FD4FF48040ADF80000694633489B
:1021C000FEF7E2FC4FF480413048FEF7B3FD4FF4D8
:1021D0000040ADF8000069462C48FEF7D5FC4FF4EE
:1021E00000412A48FEF7A6FD4FF40060ADF800005C
:1021F00010208DF8030003208DF802006946244862
:10220000FEF7C2FC4FF400612148FEF793FD4FF446
:102210008050ADF8000069461C48FEF7B5FC4FF44D
:1022200080511A48FEF786FD4FF48070ADF800002B
:1022300048208DF8030069461548FEF7A5FC4FF4C9
:1022400080711348FEF776FD0020124908804FF494
:102250008270488000208880C88008814FF4007018
:102260004881102088810020C881072008820A4800
:1022700000F080FC0121084800F062FC00200749C2
:10228000086001200649C1F8AC0108BD000C0140FE
:10229000000801405C14002000380040B081214259
:1022A000000021422DE9F04107460D461646002068
:1022B0000A490860384600F019FC8046002405E011
:1022C000FF2000F013FC2855601CC4B2B442F7DBB9
:1022D0000120024908604046BDE8F081AC0121427E
:1022E00070B50446002007490860204600F0FEFB58
:1022F000FF2000F0FBFB054601200349C1F8AC01BB
:10230000284670BDAC0121420000214210B50020DA
:102310001449086005221449302000F05DF80522B8
:1023200012492A2000F058F80121212000F072F80B
:102330000121222000F06EF81A21242000F06AF812
:102340002821252000F066F80F21262000F062F8F1
:102350000E21202000F05EF801200549C1F8B001EF
:1023600010BD0000B0812142487E00084D7E00086B
:102370000080214270B505460020144908602022E3
:102380002946A02000F028F801201149C1F8B00129
:1023900000BF104800680028FBD10720FFF7A0FF0E
:1023A00004462146272000F035F804F0100028B13B
:1023B000FF21E12000F02EF8102070BD04F0200075
:1023C00008B12020F9E7FF20F7E70000B0812142A3
:1023D00000802142200121422DE9F04107460C46B0
:1023E000154600200A490860384600F07FFB804609
:1023F000002605E014F8010B00F078FB701CC6B253
:10240000AE42F7DB0120024908604046BDE8F0819A
:10241000AC01214270B505460C4600200749086012
:10242000284600F063FB0646204600F05FFB0120D3
:102430000349C1F8AC01304670BD0000AC01214237
:102440000000214270B5002100230F22C47804B39C
:10245000154C246804F4E064C4F5E064210AC1F179
:102460000403CA40447804FA03F1847814402143F9
:1024700009010E4C0678A155047804F01F050124CB
:10248000AC4005786D11AD0005F1E025C5F80041BF
:1024900009E0047804F01F050124AC40044D0678DF
:1024A000761145F8264070BD0CED00E000E400E038
:1024B00080E100E002490143024A116070470000D8
:1024C0000000FA050CED00E070B500240CE00025DA
:1024D00006E00020074901EBC5010855681CC5B29C
:1024E000802DF6DB601CC4B2082CF0DB00F0DAF8BB
:1024F00070BD0000DC0F0020F0B514460B46CF176E
:1025000001EB5777C7F3C702CF1701EB5777FF10DF
:10251000A1EBC707FEB20123B340DDB24CB1134BB0
:1025200003EBC0039B5C2B43104F07EBC007BB546E
:102530001AE00E4B03EBC0039B5CDB430B4F07EB36
:10254000C007BB54094B03EBC0039B5C2B43074FF5
:1025500007EBC007BB54054B03EBC0039B5CDB439D
:10256000024F07EBC007BB54F0BD0000DC0F00209A
:1025700008B50121042000F00BFA2020ADF800007E
:1025800014208DF8030003208DF8020069463E48B0
:10259000FEF7FAFA20213C48FEF7CCFB8020ADF88C
:1025A000000069463848FEF7EFFA80213648FEF70A
:1025B000C1FB0021AE2000F0B2F90021084600F076
:1025C000AEF90021102000F0AAF90021402000F00F
:1025D000A6F90021812000F0A2F90021CF2000F00F
:1025E0009EF90021A12000F09AF90021C82000F0F6
:1025F00096F90021A62000F092F90021A82000F011
:102600008EF900213F2000F08AF90021D32000F04C
:1026100086F90021084600F082F90021D52000F05B
:102620007EF90021802000F07AF90021D92000F005
:1026300076F90021F12000F072F90021DA2000F093
:102640006EF90021122000F06AF90021DB2000F071
:1026500066F90021302000F062F90021202000F00E
:102660005EF90021022000F05AF900218D2000F0CF
:1026700056F90021142000F052F9FFF725FF002140
:10268000AF2000F04CF908BD0008014010B502462B
:10269000012000E050430B1EA1F10104E1B2F9D189
:1026A00010BD000070B500242BE004F1B001C8B2E9
:1026B000002100F034F90021084600F030F9002133
:1026C000102000F02CF9FEF719FE782000F07EFAB9
:1026D000FEF740FE402000F079FAFEF73BFE0025B1
:1026E00009E0094901EBC501085D00F06FFAFEF74A
:1026F00031FE681CC5B2802DF3DBFEF719FE601CAD
:10270000C4B2082CD1DB70BDDC0F00202DE9FE4FD8
:102710000746884692461C460197CDF80080082C53
:1027200002D14FF006091FE02046E31704EB537374
:10273000DB1021464FEAE47C04EB5C7C4FEAEC0CB6
:10274000A4EBCC0CBCF1000F02D04FF0010C01E067
:102750004FF0000C6344224604EBD27C4FEA6C0C31
:1027600003FB0CF303F0FF09AAF12000C6B2002519
:102770005EE0082C07D106EB46002F4901EB400034
:1027800010F805B01DE00C2C07D106EB46002B49D4
:1027900001EB800010F805B013E0102C05D128489B
:1027A00000EB061010F805B00BE0182C07D106EB73
:1027B000C600244901EB800010F805B001E0BDE837
:1027C000FE8F002002901CE00BF0010028B1414672
:1027D00038460C9AFFF790FE09E00C9808B90120E2
:1027E00000E00020024641463846FFF785FE4FEAEA
:1027F0006B0B08F1010000F0FF080298401CC0B20A
:10280000029002980828DFDB781CC7B2082C0BD096
:1028100004EBD4714A100199791A8A4204D1019FBC
:1028200000980830C0B20090DDF80080681CC5B286
:102830004D459EDB00BFC2E7185E000840600008FF
:10284000B4640008A46A00082DE9FF4F82B0064670
:1028500091461F46DDE90F4A4FF0000B082C01D1CD
:102860004FF0020B002530E0781B401EC1B20A2059
:10287000FFF70CFFB9FBF0F00A21B0FBF1F201FB0E
:102880001208B8F1000F0ED104EBD4710BEB61010B
:1028900001FB0561C8B223463022CDE900A40399AB
:1028A000FFF734FF0FE004EBD4710BEB610101FB88
:1028B0000561C8B208F13001CAB22346CDE900A4CF
:1028C0000399FFF723FF681CC5B2BD42CCDB06B0FD
:1028D000BDE8F08F2DE9F84106460F4614461D4627
:1028E000DDF81C8013E0CDF8008022782B463946B5
:1028F0003046FFF70BFF082D02D1B01DC6B205E030
:10290000284605EBD07106EB6101CEB2641C20783D
:10291000202802DB20787E28E5DDBDE8F88170B54F
:1029200005460C46FEF7EAFC782000F04FF9FEF76A
:1029300011FD1CB1402000F049F902E0002000F038
:1029400045F9FEF707FD284600F040F9FEF702FDC5
:10295000FEF7EEFC70BD000001460020034A5068FF
:1029600020F44040084350607047000000100240CF
:1029700029B1064AD2690243044BDA6104E0034AF2
:10298000D2698243014BDA617047000000100240B7
:1029900029B1064A92690243044B9A6104E0034A52
:1029A00092698243014B9A61704700000010024017
:1029B00029B1064AD2680243044BDA6004E0034AB4
:1029C000D2688243014BDA60704700000010024079
:1029D00030B500210022002400232D4D6D6805F044
:1029E0000C0121B1042905D0082923D105E0294D86
:1029F000056022E0274D05601FE0254D6D6805F458
:102A00007012234D6D6805F48034022505EB924267
:102A10001CB9214D554305600BE01D4D6D6805F453
:102A200000351DB11C4D5543056002E0194D55435D
:102A3000056002E0174D056000BF00BF144D6D68D2
:102A400005F0F0010909154D6B5C0568DD40456036
:102A50000F4D6D6805F4E061090A104D6B5C456827
:102A6000DD4085600A4D6D6805F46051C90A0B4D63
:102A70006B5C4568DD40C560054D6D6805F44041FF
:102A8000890B074D6B5CC568B5FBF3F5056130BD7F
:102A90000010024000127A0000093D0014000020DE
:102AA0002400002008B58020ADF8000003208DF838
:102AB000020048208DF8030069460248FEF764F8DA
:102AC00008BD0000000C014008B58020ADF80000F2
:102AD00003208DF8020014208DF803006946024897
:102AE000FEF752F808BD0000000C014070B5054625
:102AF000002405E0601CC4B2C82C01DD002070BDBC
:102B000002210E4800F028F80028F3D029460B488F
:102B100000F02EF8002405E0601CC4B2C82C01DDD2
:102B20000020ECE70121054800F016F80028F3D05A
:102B3000024800F01AF8C0B2E1E700000038004097
:102B400021B1028842F04002028004E002884FF680
:102B5000BF731A40028070470246002013890B4061
:102B60000BB1012000E000207047014688897047C2
:102B70008181704710B50022028802F441520B880F
:102B80004C8823438C882343CC8823430C892343DC
:102B90004C8923438C892343CC8923431A430280E5
:102BA000838B4FF2FF74234083830B8A038210BD13
:102BB00005488078401C04498870084680783B2886
:102BC00001DD002088707047080F002070B50446B2
:102BD00000251BE004F0800020B180210D48FEF7A5
:102BE000A9F803E080210B48FEF7A2F8FEF7A2FC4B
:102BF00020210848FEF79EF8FEF79CFC202105489E
:102C0000FEF796F86006040E681CC5B2082DE1DBDD
:102C100070BD00000008014010B500F001F810BDC3
:102C20000CB50020019000903348006840F48030DB
:102C30003149086000BF3048006800F4003000905F
:102C40000198401C0190009818B90198B0F5A06F48
:102C5000F1D12948006800F4003010B10120009043
:102C600001E0002000900098012843D1234800682B
:102C700040F01000214908600846006820F0030079
:102C800008600846006840F0020008601A48406882
:102C9000194948600846406848600846406840F462
:102CA000806048600846406820F47C104860084610
:102CB000406840F4E81048600846006840F08070C2
:102CC000086000BF0C48006800F000700028F9D0D0
:102CD0000948406820F003000749486008464068FA
:102CE00040F00200486000BF0348406800F00C005C
:102CF0000828F9D10CBD000000100240002002405D
:102D0000042808D14FF0E021096941F004014FF097
:102D1000E022116107E04FF0E021096921F0040190
:102D20004FF0E0221161704710B502F021FE01283A
:102D300001D002F0B1FA10BD10B51348006840F0A0
:102D400001001149086008464068104908400E49D2
:102D50004860084600680E4908400B49086008466C
:102D6000006820F4802008600846406820F4FE00D7
:102D700048604FF41F008860FFF74EFF4FF000607F
:102D80000449086010BD0000001002400000FFF878
:102D9000FFFFF6FE08ED00E010B50121044800F049
:102DA0000CF818B10121024800F004F810BD000031
:102DB00000040040CA430282704730B5024600203A
:102DC00000230024158A05EA0103958905EA010418
:102DD00013B10CB1012000E0002030BD03480449CC
:102DE0000A6802604968416070470000000F0020D7
:102DF000080F0020034804490A68026049684160DE
:102E000070470000080F0020000F002010B540F2AE
:102E10002551054800F016F828B1FDF7B9FD40F23C
:102E20002550FDF72DFE10BD0038014021B18289EB
:102E300042F40052828104E082894DF6FF731A4009
:102E40008281704770B502460024002300250020CF
:102E500040F66A16B14200D100BFC1F3421501F03D
:102E60001F03012606FA03F3012D02D19689334090
:102E700006E0022D02D1168A334001E0968A3340E3
:102E80000C12012606FA04F41688344013B10CB172
:102E9000012000E0002070BDF0B5034600240026AC
:102EA0000025002040F66A17B94200D100BF18463D
:102EB000C1F3421401F01F06012707FA06F5012CA1
:102EC00001D10C3004E0022C01D1103000E01430AC
:102ED0001AB107682F43076002E00768AF43076035
:102EE000F0BD00002DE9F04786B005460E460024EF
:102EF000A24600BFA1460027B08900B100BF2F46FF
:102F00002C8A4CF6FF700440F08804432C82AC8974
:102F10004EF6F3100440B0883189084371890843A4
:102F20000443AC81AC8A4FF6FF400440B0890443AF
:102F3000AC8201A8FFF74CFD1F48874202D1DDF8A3
:102F400010A001E0DDF80CA0A88900F4004040B119
:102F50000AEBCA0000EB0A1031684900B0FBF1F837
:102F600007E00AEBCA0000EB0A1031688900B0FBE9
:102F7000F1F86420B8FBF0F004012009642101FBA2
:102F80001089A88900F4004040B1322000EBC9004C
:102F9000B0FBF1F000F00700044308E0322000EB42
:102FA00009106421B0FBF1F000F00F0004432C8104
:102FB00006B0BDE8F087000000380140014688886F
:102FC000C0F308007047C1F308028280704700BF59
:102FD000FEE7000002488088401C01498880704755
:102FE000080F00200FB4084B10B504A902AA0398DB
:102FF00000F042F8044602A9002000F0DEF9204665
:1030000010BC5DF814FB0000BB330008410008024F
:1030100018BF04200A0E18BF40F001004FF07F4295
:1030200032EA010108BF40F00200012808BF052074
:1030300070470121FDF76EBAFDF706B90021084679
:10304000FDF78CB96FF05E010807FDF763BA02E087
:1030500008C8121F08C1002AFAD170477047002023
:1030600001E001C1121F002AFBD17047014908602D
:1030700070470000D80F00202DE9FF4F8BB0884625
:103080000546002606E025280BD0DDE90D12904705
:103090006D1C761C28780028F5D10FB03046BDE8AD
:1030A000F08F0024A146A2460122AE4900E004436D
:1030B00015F8013F203B02FA03F00842F7D12878C7
:1030C0002A2810D06FF02F022878A0F130010929AA
:1030D00015D809EB890102EB410144F0020400EB31
:1030E00001096D1CF0E758F8041B5FEA010903D5DC
:1030F00044F40054C9F1000944F002046D1C28781E
:103100002E2817D115F8010F44F004042A280ED0F8
:103110006FF02F022878A0F1300109290AD80AEBB4
:103120008A0102EB410100EB010A6D1CF2E758F83D
:1031300004AB6D1C28786C280FD006DC4C2817D007
:1031400068280DD06A2814D104E0742810D07A2899
:103150000FD10DE044F400140AE044F4801401E0BF
:1031600044F440146978814202D104F580146D1C46
:103170006D1C2878692865D006DC00288DD063286E
:1031800027D0642806D15DE06E2808D073282AD0A5
:10319000752877D0DDE90D129047761CE0E0C4F386
:1031A0000250022809D003280DD0D8F800100428B6
:1031B0000DD00E6008F10408D2E0D8F80010F21724
:1031C000C1E90062F6E7D8F800100E80F2E70E7051
:1031D000F0E718F8041B8DF8001000208DF80100AE
:1031E000EB46012003E058F804BB4FF0FF306107C5
:1031F0004FF0000701D40AE07F1C57450DDA8742E3
:10320000FADB1BF807100029F6D106E07F1C874285
:10321000FCDB1BF807100029F8D1DDE90D23A9EB31
:1032200007008146214600F0B1F83044C61904E099
:10323000DDE90D121BF8010B90477F1EF8D22146E5
:10324000484688E058F8040BC4F302514FF00A0BCB
:10325000032900D100B2042900D140B2002802DACB
:1032600040422D2102E0210505D52B218DF82410A7
:10327000012104E006E0E10710D02021F6E708AFC5
:10328000089113E058F8040BC4F302514FF00A0BF5
:10329000032900D180B2042900D1C0B20021EEE799
:1032A0005946FDF7DBF8303107F8011D0028F7D14A
:1032B000ADEB070000F1200B600702D524F4803449
:1032C00001E04FF0010ADA4502DDAAEB0B0000E055
:1032D0000020824600EB0B0108980144A9EB010095
:1032E0000A90E00306D4DDE90D2321460A9800F098
:1032F0004DF806444FF0000908E009A911F809004B
:10330000DDE90D12904709F10109761C08998945FC
:10331000F3DBE0030CD5DDE90D2321460A9800F02C
:1033200035F8064404E0DDE90D1230209047761CA4
:10333000BAF10001AAF1010AF5DC05E0DDE90D12A0
:1033400017F8010B9047761CBBF10001ABF1010BA4
:10335000F4DC0A982146DDE90D2300F005F8064467
:103360006D1C97E6092801002DE9F041044600256F
:103370001E461746880404D405E039462020B0478D
:103380006D1C641EF9D52846BDE8F0812DE9F04199
:10339000044600251E469046C80301D5302700E0AC
:1033A0002027880404D505E041463846B0476D1C07
:1033B000641EF9D52846BDE8F0810A68531C0B60ED
:1033C000107070472DE9F04104464FF00E4000EBBD
:1033D0004400B0F1506F204655D84FF0FC41B1EB9E
:1033E000440F1CD224F000404FF07E51FCF781FFC7
:1033F0004FF0FF31FDF78EF8054601F0D9FA14F0D1
:10340000004F1DBF2F4F304E80F000402F4F08BFA0
:103410002F4E4FF04041FCF76FFF044605E00027B8
:103420003E460146FCF768FF05462A492846FCF758
:1034300063FF2949FCF708FF2946FCF75DFF274990
:10344000FCF702FF2946FCF757FF2549FCF7FCFE75
:103450002946FCF751FF2349FCF7F6FE8046294632
:103460002046FCF749FF4146FCF746FF054631463A
:103470002046FCF7E9FE2946FCF7E6FE3946BDE8A2
:10348000F041FCF7E1BE4FF0E441B1EB440F08D945
:10349000FFF7BCFD042808BFFFF7D4FD2046BDE8B8
:1034A000F0814FF07F41B1EB440F03D2BDE8F04112
:1034B000FFF7BFBD0120FFF7D9FDBDE8F041FFF7E1
:1034C000BDBD00000000C9BF22AAFDB90000C93F70
:1034D00022AAFD3924FE1C3DC78AD83C1E67383D10
:1034E0001B93993DAFAA2A3E2DE9F0474FF0684261
:1034F00002EB40030C460546B3F1654F3CBF02EBBF
:103500004102B2F1654F7CD2C0F3C753C1F3C75239
:103510009A1A1B2A06DD10F0004F14BF7648774830
:10352000BDE8F08712F11A0F17DA11F0004F06D03C
:1035300010F0004F0CBF72487248BDE8F08721467A
:103540002846FCF70BFF0446FFF760FD042808BF80
:10355000FFF778FD2046BDE8F0874200B2EB410F4F
:1035600025D910F0004F19BF674F684E684F694E5C
:10357000224685F0004415460A4680F00041104678
:103580000A1A5200B2F1807F40D248406249DFF807
:103590008CA110F0004F18D04FF03F483846FCF790
:1035A000A5FE074651463046FCF7A0FE17E011F095
:1035B000004F04BF00263746E2D010F0004F19BF7D
:1035C000574F584E584F594EDAE74FF07C5838460F
:1035D000FCF73AFE074651463046FCF735FE0646F4
:1035E00041462846FCF788FE2146FCF72DFE824620
:1035F00021464046FCF780FE2946FCF77AFE5146FC
:1036000000E037E0FCF7AAFE044604E02146284625
:10361000FCF7A4FE04460146FCF76EFE80464449D2
:10362000FCF76AFE4349FCF70FFE4146FCF764FED7
:103630004149FCF709FE4146FCF75EFE3F49FCF7B5
:1036400003FE4146FCF758FE3D49FCF7FDFD0546EB
:1036500041462046FCF750FE2946FCF74DFE314618
:10366000FCF7F2FD2146FCF7EFFD3946BDE8F047D7
:10367000FCF7EABD4FF07F42B2EB400F28BFB2EB40
:10368000410F03D2BDE8F047FFF7D6BC40EA010383
:103690005B0008BF44F0FF410AD0B2EB400F08BF07
:1036A000B2EB410F06D125F0804024F08041054661
:1036B0000C4629E7B2EB400F12BF5FEA410245F02A
:1036C000FF4004F000413FF41FAF4A0092EA40037C
:1036D0003FF51AAF002AACBF4FF09F464FF03E5661
:1036E0003146FCF709FE054631462046FCF704FE4C
:1036F00004462846214607E7DB0FC9BFDB0FC93F59
:10370000DB0F4940DB0F49C00000C9BF22AAFDB949
:103710000000C93F22AAFD390060ED3EC30ACE3742
:10372000000049C022AA7DBA0000494022AA7D3A81
:103730002DAD65BD8FB8D53D0FB511BE61C84C3EEE
:10374000A8AAAABE00B585B001214FF40170FFF709
:103750001FF91F20ADF8100000208DF8130004A9F8
:103760001948FDF711FA4FF40040FFF7F5F8174834
:10377000FDF712F8002000908DF804008DF8050088
:103780004FF4602002900020039001208DF810007B
:1037900069460E48FDF750F801210C48FCF7F0FF90
:1037A0000A48FDF7CDF800BF0848FDF73AF80028B1
:1037B000FAD10648FDF7D4F800BF0448FDF71AF81F
:1037C0000028FAD105B000BD0008014000240140E6
:1037D0001CB501210420FFF7DBF801210846FFF7A3
:1037E000D7F81020ADF8040048208DF8070001A993
:1037F0001248FDF7C9F91020009000208DF8040050
:1038000008208DF8050001208DF806006846FDF7B8
:1038100051F904210020FDF797F90A208DF80400E2
:1038200002208DF8050000208DF8060001208DF89B
:10383000070001A8FEF706FE1CBD000000080140BD
:1038400008B501210420FFF7A3F801210820FFF7A4
:103850009FF801210846FFF79BF801210B48FDF76F
:103860001FFA49F24000ADF8000048208DF803002F
:1038700069460748FDF788F94FF44E70ADF800002F
:1038800069460448FDF780F908BD000000023000D9
:1038900000080140000C014008B501211020FFF78D
:1038A00077F84FF40050ADF8000010208DF80300B9
:1038B00003208DF8020069460148FDF765F908BD4F
:1038C000001001401FB50446012144F20400FFF737
:1038D0005FF84FF40070ADF80C0003208DF80E0077
:1038E00018208DF80F0003A91C48FDF74DF94FF47F
:1038F0008060ADF80C0004208DF80F0003A9174874
:10390000FDF742F925208DF80C0003208DF80D00FD
:1039100000208DF80E0001208DF80F0003A8FEF79F
:1039200091FD00940020ADF80400ADF80600ADF85C
:103930000800ADF80C000C20ADF80A0069460848F4
:10394000FFF7D0FA012240F225510548FFF7A4FA0B
:1039500001210348FFF76AFA1FBD0000000801407B
:103960000038014010B50420FFF7CAF948200C497F
:10397000087048244FF47A704443012009490880B4
:103980004FF0E020006940F002004FF0E0210861B4
:1039900008464461006940F00100086110BD000064
:1039A000280000202A00002070B5044601F0E0FF46
:1039B000012811D00C480088844206DB0A480088A0
:1039C00094FBF0F5284601F059FA0748008894FB6B
:1039D000F0F100FB114084B24FF47A7104FB01F066
:1039E00000F004F870BD00002A00002070B5034606
:1039F00000224FF0E02675690D4E367803FB06F481
:103A00004FF0E026B16910E04FF0E026B06988423F
:103A10000BD0884202D20E1A324402E02E1A0E4413
:103A200032440146A24200D300E0EDE700BF70BD82
:103A30002800002010B50723012200210848FCF7C8
:103A400023FF01210648FCF780FF00BF0221044844
:103A5000FCF7DEFE0028F9D00148FCF7D5FE10BDCA
:103A60000024014010B50723012211460848FCF745
:103A70000BFF01210648FCF768FF00BF0221044844
:103A8000FCF7C6FE0028F9D00148FCF7BDFE10BDCA
:103A90000024014010B50723012202210848FCF749
:103AA000F3FE01210648FCF750FF00BF0221044845
:103AB000FCF7AEFE0028F9D00148FCF7A5FE10BDCA
:103AC0000024014010B50723012203210848FCF718
:103AD000DBFE01210648FCF738FF00BF0221044845
:103AE000FCF796FE0028F9D00148FCF78DFE10BDCA
:103AF000002401401AE00E480088401C0C49088050
:103B00000C480088401C0B4908800B480088401C6A
:103B10000949088009480088401C08490880FDF7C9
:103B20000BF9FDF77BFA142001F0A8F9E3E7000098
:103B3000720B0020740B0020760B0020780B002005
:103B40004FF44070FEF7B6FC4FF4E130FFF7BAFED9
:103B5000FFF708FFFFF7A0FEFFF73AFEFFF7F2FDC1
:103B6000FFF76EFEFDF748FEFEF702FDFDF78EFB48
:103B7000FEF704FB00F032FF01F076FA00BFFEE72B
:103B800008B5FFF757FF50490880FFF76BFF4F4913
:103B90000880FFF77FFF4E490880FFF793FF4D49EC
:103BA00008804D480068C0014C49D1F80C1140EA2A
:103BB00081104A49D1F8101140EA41104749D1F823
:103BC000141140EA01104549D1F8241140EAC1001E
:103BD0004249D1F8201140EA81004149D1F8301121
:103BE00040EA41003C492439096808433D490870CE
:103BF000A3203D49087034480088000A48703248C4
:103C00000078887031480088000AC8702F48007812
:103C100008712F480088000A48712D480078887183
:103C20002C480088000AC8712A48007808722F487A
:103C30000088000A48722D48007888722C48008855
:103C4000000AC8722A48007808732A480088000AC7
:103C5000487328480078887322480078C87326483B
:103C6000006800909DF8000008749DF801004874F9
:103C70009DF8020088749DF80300C8741E484068CF
:103C800000909DF8000008759DF8010048759DF8AA
:103C9000020088759DF80300C87517488068009079
:103CA0009DF8000008769DF8010048769DF8020016
:103CB00088769DF80300C8763A2008770846FEF714
:103CC00059FB0E49087008BD480F00204A0F00201C
:103CD0004C0F00204E0F00203C0121420080214269
:103CE00000002142550F0020941400202C000020D9
:103CF0002E0000203000002088140020540F0020E7
:103D0000FEF71CFA05490880FEF700FB04E0FFF708
:103D100037FF142001F0B2F8F9E70000520F00203D
:103D20002DE9F04105460E461C4807681C4800680E
:103D3000001D00F033FF50B91948006890F82C10AE
:103D40000120884017490968814316480160681CB2
:103D500038B936B112480168091D134800F05CFFFC
:103D60001AE07C190E4800684460BC4207D20C4837
:103D70000168091D0D48006800F034FF0CE0084898
:103D80000168091D0A48006800F02CFF0948006816
:103D9000844201D207480460BDE8F0816C0F002026
:103DA000580F0020700F0020E4170020600F002043
:103DB0005C0F0020880F002010B5044600F038FF8B
:103DC00024480068401C234908602348006840B923
:103DD000214804600846006801280DD100F0D8F998
:103DE0000AE01E48006838B91B480068C06AE16AEA
:103DF000884201D81848046019480068401C1849D6
:103E0000086008460068606494F82C10012088401F
:103E100014490968084313490860E16A01EB81010C
:103E2000114A02EB8100211D00F0F6FE00F02AFF8E
:103E30000A48006868B108480068C06AE16A8842B8
:103E400007D24FF0805009490860BFF34F8FBFF38E
:103E50006F8F10BD680F0020580F0020740F0020D6
:103E6000840F0020700F00201415002004ED00E0E6
:103E700010B500F0DDFE10480068D0B90F4800F022
:103E8000A1FE0F4800F09EFE0C480E4908600C4849
:103E90000D49086000221021052001F017FA06499B
:103EA00008600846006820B108A10348006800F0D7
:103EB000A9FF00F0E7FE10BDA00F0020F8170020BA
:103EC0000C180020980F00209C0F0020546D725198
:103ED0000000000010B516E000F0AAFE0C48C06813
:103EE000C468201D00F05AFE0A480068401E0949B7
:103EF000086009480068401E0749086000F0C2FEDB
:103F0000204600F05FF8044800680028E4D110BDA6
:103F1000D0170020680F0020640F002070B5044601
:103F20000D46206C70B1216CE0680144E160D4E979
:103F30000210884201D32168E1602846226CE168C2
:103F4000FCF75EF970BD2DE9F04104460F461546B9
:103F50004FF00008A66B206C48B9206800282CD1CF
:103F6000A06801F0BFFD80460020A06025E07DB97B
:103F70003946226C6068FCF743F9216C606808449C
:103F80006060D4E90101884217D32068606014E0C2
:103F90003946226CE068FCF733F9216CE068411A7D
:103FA000E1602168E068884203D2216CA068411A70
:103FB000E160022D01D106B1761E701CA06340465F
:103FC000BDE8F08110B50446206B00F079FE204674
:103FD00000F076FE10BD00000146084A1268126823
:103FE0000AB9012200E000220A600A6822B9034AE5
:103FF0001268D268106800E000207047980F002017
:1040000030B54FF42053174800F007042CB1C01D01
:1040100020F00700134C041B1B1B0246124C2260AD
:104020000024114D6C60D018083820F007000F4CA8
:10403000206000240D4D2D686C600C4D2D682C60A7
:104040001146441A4C60094C24680C60084D4C68B9
:104050002C60084D4C682C604FF00044064D2C60DD
:1040600030BD000020180020AC0F0020B40F00204D
:10407000BC0F0020B80F0020C80F002000BFFFF7C2
:1040800029FF064800680128F9D94FF080500449FB
:104090000860BFF34F8FBFF36F8FF0E71415002058
:1040A00004ED00E02DE9F04106460D46174698461E
:1040B000069C0DB9246000E02760E66325640121B9
:1040C000204601F055F984F850800020A064BDE836
:1040D000F0812DE9F05F82460E4690469B460A9F8E
:1040E0000C9C4FEA8801A522206BFCF79BF8A8F1F5
:1040F0000100216B01EB800929F0070909F0070095
:1041000008B9012000E0002050B900BF502080F322
:104110001188BFF34F8FBFF36F8F00BF00BFFEE763
:1041200086B1002507E0715D04F134004155705DF2
:1041300000B902E06D1C102DF5D300BF0021432013
:10414000015502E0002084F83400202F00D31F27FF
:10415000E762E76400202065201D00F040FD04F1C7
:10416000180000F03CFD2461C7F12000A0616462EA
:104170000020606584F858005A465146484600F0D1
:10418000DFFB20600B9808B10B980460BDE8F09F3E
:1041900010B5002407E004EB84010F4A02EB810014
:1041A00000F010FD641C202CF5D30C4800F00AFD33
:1041B0000B4800F007FD0B4800F004FD0A4800F032
:1041C00001FD0A4800F0FEFC044809490860044863
:1041D0000849086010BD0000141500209417002045
:1041E000A8170020BC170020D0170020E4170020DB
:1041F0005C0F0020600F002010B50146164800E05B
:10420000006803688B42FBD30246436813448B4229
:1042100004D143684C682344436001460A464B6816
:1042200013440468A34211D10C4C03682468A342D0
:1042300008D04B680468646823444B6003681B68BB
:104240000B6005E0054B1B680B6001E003680B6029
:10425000884200D0016010BDAC0F0020B40F0020D8
:104260002DE9F04104460D4616461F464FF0000862
:1042700065602461B5420CD8F01BA169884202D365
:104280004FF0010811E0211D0948006800F0AAFC68
:104290000BE0BE4204D2BD4202D34FF0010804E05D
:1042A000211D0448006800F09DFC4046BDE8F081F7
:1042B0009C0F0020980F002070B5054600F0B8FC58
:1042C000A86B08B9012400E0002400F0DBFC2046C4
:1042D00070BD70B5054600F0ABFCA86BE96B884279
:1042E00001D1012400E0002400F0CCFC204670BD88
:1042F000F1B50098846C002654B900BF502080F3BB
:104300001188BFF34F8FBFF36F8F00BF00BFFEE771
:10431000A06BE16B884201D2012000E0002050B97F
:1043200000BF502080F31188BFF34F8FBFF36F8F12
:1043300000BF00BFFEE7A06BE16B88422CD294F96E
:104340004550002269462046FFF7FDFD0646681CE1
:1043500060B9606A08B9012000E00020D8B904F112
:10436000240001F01DFCB0B1012614E07F2D01D026
:10437000012000E0002050B900BF502080F31188D8
:10438000BFF34F8FBFF36F8F00BF00BFFEE7681C06
:1043900040B284F8450000BF3046F8BDF8B5054688
:1043A0000F461A480068C068C468201D00F0F6FB7C
:1043B00094F8280000F00400E8B1A06941192B46E8
:1043C0003A462046FFF74CFFD8B1002003462A4664
:1043D00001460090204601F0DDFC064656B900BFBC
:1043E000502080F31188BFF34F8FBFF36F8F00BF52
:1043F00000BFFEE705E094F8280020F0010084F8F3
:1044000028002046216A8847F8BD0000980F002048
:10441000F0B587B0A0E00398002811DA04AE56B9D1
:1044200000BF502080F31188BFF34F8FBFF36F8F11
:1044300000BF00BFFEE7D6E90020B168904700BF8B
:1044400003980028E6DB059C606908B9012000E0BC
:10445000002010B9201D00F0A1FB02A800F0DCF83C
:10446000054603980A2875D2DFE800F009050739E8
:10447000416306083A4200BF00BF00BF00BF94F886
:10448000280040F0010084F828000498A2698118EF
:1044900003462A462046FFF7E3FEF8B12046216A8C
:1044A000884794F8280000F00400B8B1002000907C
:1044B0000498A169421800231946204601F06AFCBD
:1044C000074657B900BF502080F31188BFF34F8FC4
:1044D000BFF36F8F00BF00BFFEE700BF3BE000BF30
:1044E00094F8280020F0010084F8280033E000BF91
:1044F00094F8280040F0010084F828000498A06196
:10450000A06908B1012000E0002050B900BF502090
:1045100080F31188BFF34F8FBFF36F8F00BF00BFD1
:10452000FEE7A06941192B462A462046FFF798FE70
:1045300011E094F8280000F0020018B9204600F0BD
:10454000BFFB05E094F8280020F0010084F8280063
:1045500001E0FFE700BF00BF002203A90448006894
:1045600001F0DAF800287FF456AF07B0F0BD000084
:10457000A00F0020F8B505460C4600F0C3FD6846C4
:1045800000F04AF80646009820BB44B9B54206D868
:1045900001F052FB31462846FFF700FF1CE03CB11A
:1045A0000E480068006808B9012000E000200446B9
:1045B000A91B22460A48006800F03AFC01F03CFBC7
:1045C00050B94FF0805007490860BFF34F8FBFF3D9
:1045D0006F8F01E001F030FBF8BD00009C0F002060
:1045E000A00F002004ED00E009480068006808B949
:1045F000012000E0002020B14FF0FF3005490860A5
:1046000005E003480068C068006802490860704718
:104610005C0F0020880F002070B5044601F0B8F947
:10462000054607480068854204D200F00BF80120D7
:10463000206001E00020206001480560284670BD30
:10464000A80F00202DE9F84334E025480068C06831
:10465000056823480068C068C468201D00F09EFA01
:104660002046216A884794F8280000F0040008B327
:10467000A0694619AE4207D966602461211D184819
:10468000006800F0AFFA15E0002003462A46014614
:104690000090204601F07EFB074657B900BF50202E
:1046A00080F31188BFF34F8FBFF36F8F00BF00BF40
:1046B000FEE700BF0A480068006808B9012000E072
:1046C00000200028C1D00648D0F8008005480068C6
:1046D000034908600348C0F80080BDE8F883000083
:1046E000980F00209C0F00200E480068401C08B95D
:1046F000012000E0002050B900BF502080F3118855
:10470000BFF34F8FBFF36F8F00BF00BFFEE700BF47
:10471000502080F31188BFF34F8FBFF36F8F00BF1E
:1047200000BFFEE7CC0F002008B500BF6846FFF7CA
:1047300053FC044620460099FFF71CFFFFF768FE74
:10474000F4E770B5044600F073FA94F9455019E0A7
:10475000A06C30B12046FFF7CBFD88B100F042FCE1
:104760000EE0606A08B9012000E0002038B904F1C9
:10477000240001F015FA18B100F034FC00E003E069
:10478000681E45B2002DE3DC00BFFF2084F8450021
:1047900000F078FA00F04CFA94F9445010E02069E7
:1047A00008B9012000E0002048B904F1100001F030
:1047B000F7F908B100F016FC681E45B200E001E010
:1047C000002DECDC00BFFF2084F8440000F05AFA12
:1047D00070BD00002DE9F04104464FF0000800F0E4
:1047E00091FC5148006808B9FFF70AFC4F4800687F
:1047F000204000287ED13CB304F10800A04223D918
:10480000083404F0070000B304F00700C0F108000A
:104810002044A04216D904F00700C0F10800044467
:1048200004F0070008B9012000E0002068B900BFCB
:10483000502080F31188BFF34F8FBFF36F8F00BFFD
:1048400000BFFEE7002400E00024002C54D03848CC
:104850000068844250D8374E3046056801E02E4645
:104860002D686868A04202D228680028F7D12E4837
:104870000068854240D0306800F108082868306040
:104880006868001B102819D92F1907F0070008B90C
:10489000012000E0002050B900BF502080F31188B3
:1048A000BFF34F8FBFF36F8F00BF00BFFEE7686895
:1048B000001B78606C603846FFF79EFC1C496868F6
:1048C0000968081A1A490860084600681A49096800
:1048D000884203D21648006817490860134968687F
:1048E0000968084368600020286014480068401C7C
:1048F000124900E000E0086001F09EF908F00700AE
:1049000008B9012000E0002050B900BF502080F31A
:104910001188BFF34F8FBFF36F8F00BF00BFFEE75B
:104920004046BDE8F0810000B40F0020C80F002011
:10493000B80F0020AC0F0020BC0F0020C00F0020DB
:10494000001F4FF080730360001F21F0010303601C
:10495000001F034B036014380260203870470000CA
:10496000E94600082DE9F04106460F46FBF73BFEFD
:10497000041E0D4618BF0120284320F00040C0F15E
:104980007F6000F1E040C00F0ED0301C18BF012046
:10499000384320F00040C0F17F6000F1E040C00FDC
:1049A00004BF0120FEF762FB20462946BDE8F081E6
:1049B00070B50546FBF78AFE044620F00040C0F1C2
:1049C000FF40C00F08D025F00040C0F1FF40C00FED
:1049D00004BF0120FEF74AFB204670BD1CB5054808
:1049E000012100238022CDE9001003A1054800F039
:1049F0008FFF1CBD300F002073746172745F74618F
:104A0000736B0000094A00081CB5044600F010F959
:104A10001348082100238A01CDE9001011A1144890
:104A200000F076FF1348062100234FF40072CDE911
:104A3000001011A1134800F06BFF1348052100235B
:104A40004FF40072CDE9001010A1134800F060FF90
:104A50001248006800F040FA00F014F91CBD000094
:104A6000340F0020757365725F7461736B00000012
:104A7000A14A0008380F00206E72665F7461736B84
:104A800000000000013D00083C0F00206775695FD1
:104A90007461736B00000000F53A0008300F0020CD
:104AA0000EB563E00020FCF793FD314A31493248EE
:104AB000FCF748FE314A32493248FCF71BFE2E48CB
:104AC000B0F90000FBF788FC04462F49FBF714FC03
:104AD0002E4908602748B0F90000FBF77DFC04462A
:104AE0002949FBF709FC294948602148B0F9000031
:104AF000FBF772FC04462449FBF7FEFB2349886060
:104B00002048B0F90000FBF767FC04462049FBF79A
:104B1000F3FB204908601A48B0F90000FBF75CFC81
:104B200004461B49FBF7E8FB1A4948601348B0F9F3
:104B30000000FBF751FC04461549FBF7DDFB154966
:104B40008860154A084681684068124C8DE8070065
:104B500023680E4CA26861682068FCF76DFFFDF7C2
:104B6000D5FAFDF7B3FA052000F088F99AE70000BE
:104B7000300000202E0000202C00002036000020F5
:104B8000340000203200002058A08B3A701400201E
:104B9000CDCC9C397C1400208814002001460A6981
:104BA000D1E901309860D1E901035860506888422A
:104BB00001D188685060002008611068401E1060B4
:104BC0001068704700F1080141604FF0FF318160CB
:104BD00000F10801C16001610021016070470021FE
:104BE0000161704710B502460B685C1C0CB9106976
:104BF00007E002F1080000E04068446824689C4235
:104C0000FAD944684C604C68A160886041600A61D0
:104C10001468641C146010BD42684A6093688B601D
:104C2000936859609160086103685B1C036070477A
:104C300000BF502080F31188BFF34F8FBFF36F8FF9
:104C400000BF0E480068401C0C4908600846006818
:104C5000012812D10A480068C0B208B9012000E05A
:104C6000002050B900BF502080F31188BFF34F8F50
:104C7000BFF36F8F00BF00BFFEE77047CC0F00206F
:104C800004ED00E00D48006850B900BF502080F3EB
:104C90001188BFF34F8FBFF36F8F00BF00BFFEE7D8
:104CA00006480068401E054908600846006820B9AB
:104CB000002080F3118800BF00BF7047CC0F002098
:104CC00070B506463546002E44D0083D2C46224994
:104CD00060680968084008B1012000E0002050B970
:104CE00000BF502080F31188BFF34F8FBFF36F8F49
:104CF00000BF00BFFEE7206808B9012000E00020E7
:104D000050B900BF502080F31188BFF34F8FBFF31D
:104D10006F8F00BF00BFFEE70F4960680968084059
:104D2000C0B12068B0B90C49606809688843606008
:104D300000F0E8F909496068096808440749086013
:104D40002046FFF759FA06480068401C04490860ED
:104D500000F072FF70BD0000C80F0020B80F0020E7
:104D6000C40F002000204FF0E02108618861064850
:104D700000684FF47A71B0FBF1F0401E4FF0E02173
:104D800048610720086170470000002070B5FBF7FC
:104D900021FA0446102C16D304F1E02090F8F053C9
:104DA00015480078854201DB012000E0002050B961
:104DB00000BF502080F31188BFF34F8FBFF36F8F78
:104DC00000BF00BFFEE70D48006800F4E0600C493A
:104DD0000968884201D8012000E0002050B900BFD6
:104DE000502080F31188BFF34F8FBFF36F8F00BF48
:104DF00000BFFEE770BD0000D00F00200CED00E00A
:104E0000D40F0020024600200BE0084B53F830304E
:104E100033B9064B43F8301003EBC0035A6002E08D
:104E2000401C0828F1D300BF70470000D4140020B4
:104E30002DE9F04105460E4617462C46FFF7F8FED1
:104E400094F94400401C10B9002084F8440094F9FF
:104E50004500401C10B9002084F84500FFF712FF00
:104E6000A06B28B93A46314604F1240000F0DCF882
:104E70002046FFF766FCBDE8F081000070B50446EF
:104E80000025D4B11248006808B9012000E00020D4
:104E900050B900BF502080F31188BFF34F8FBFF38C
:104EA0006F8F00BF00BFFEE700F02CF90021204605
:104EB000FEF736FF00F0C0FE05463DB94FF08050CA
:104EC00004490860BFF34F8FBFF36F8F70BD0000C0
:104ED000940F002004ED00E070B50546FFF7A8FE32
:104EE00015B93048006800E028460446201DFFF749
:104EF00055FE78B9E06A00EB80002B4951F820009C
:104F000040B994F82C100120884028490968814351
:104F100026480160A06A18B104F11800FFF73EFEB0
:104F200023480068401C224908601E4800688442EB
:104F300009D1211D1F48FFF76FFE1F480068401C64
:104F40001D49086009E01D480068401E1B490860B3
:104F50002046FFF737F8FFF747FBFFF793FE1848A7
:104F60000068E8B10F480068844219D1154800680C
:104F700008B9012000E0002050B900BF502080F3A4
:104F80001188BFF34F8FBFF36F8F00BF00BFFEE7E5
:104F90004FF080500C490860BFF34F8FBFF36F8F05
:104FA00070BD0000580F002014150020700F002065
:104FB000840F0020D0170020640F0020680F00200D
:104FC000740F0020940F002004ED00E003490968ED
:104FD000016003490968416070470000800F0020AC
:104FE0006C0F002001200149086070477C0F0020F1
:104FF00070B504460D4654B900BF502080F31188A7
:10500000BFF34F8FBFF36F8F00BF00BFFEE70548B0
:10501000016818312046FFF7E5FD01212846FEF71B
:105020007FFE70BD580F002070B505460E46144631
:1050300055B900BF502080F31188BFF34F8FBFF3E5
:105040006F8F00BF00BFFEE7064801681831284691
:10505000FFF7E2FD0CB14FF0FF3621463046FEF778
:105060005FFE70BD580F00201CB51E4800210B4686
:105070008222CDE900101CA11D4800F049FC044625
:10508000012C02D100F05AFE0446012C15D100BFBC
:10509000502080F31188BFF34F8FBFF36F8F00BF95
:1050A0004FF0FF30134908600120134908600020C9
:1050B0001249086000F074F810E0601C08B101208B
:1050C00000E0002050B900BF502080F31188BFF3EA
:1050D0004F8FBFF36F8F00BF00BFFEE70848006827
:1050E0001CBD00008C0F002049444C45000000000E
:1050F0007D400008880F0020740F00206C0F0020F6
:10510000900F002002480068401C01490860704769
:10511000940F00201D48006818B101201C49086048
:1051200032E000201A4908601A480068B0FA80F09E
:10513000C0F11F0101EB8100174A52F8200008B1AD
:10514000012000E0002050B900BF502080F31188FA
:10515000BFF34F8FBFF36F8F00BF00BFFEE701EBC0
:1051600081020D4B03EB820042685268426000F1FD
:1051700008024368934202D1426852684260426822
:10518000D268064B1A6000BF70470000940F0020E1
:105190007C0F0020700F002014150020580F0020F5
:1051A0001CB53849084600780190FF200A46107067
:1051B0000846007800909DF8000000F0F0009DF88F
:1051C0000020904201D1012000E0002050B900BF32
:1051D000502080F31188BFF34F8FBFF36F8F00BF54
:1051E00000BFFEE79DF8000000F05000264A107056
:1051F0000720264A106009E024480068401E234A20
:1052000010609DF800004006000E00909DF8000020
:1052100000F080008028EFD01C480068C0F1070033
:10522000042801D1012000E0002050B900BF502027
:1052300080F31188BFF34F8FBFF36F8F00BF00BFA4
:10524000FEE7124800680002104A1060104600880D
:1052500000F4E06010600B4A019810700C48006880
:1052600040F470000A4908600846006840F0704049
:105270000860FFF777FD002006490860FAF774FF21
:1052800000201CBD00E400E0D00F0020D40F00205F
:1052900020ED00E0CC0F002010B500BF502080F3BF
:1052A0001188BFF34F8FBFF36F8F00BF00F076FB05
:1052B00018B14FF080500449086000BF002080F30F
:1052C000118800BF10BD000004ED00E02DE9F84397
:1052D00006460F4690460EB1012000E0002050B96E
:1052E00000BF502080F31188BFF34F8FBFF36F8F43
:1052F00000BF00BFFEE706FB07F51FB1B5FBF7F0E7
:10530000B04201D1012000E0002050B900BF502080
:1053100080F31188BFF34F8FBFF36F8F00BF00BFC3
:10532000FEE705F15400A84201D9012000E0002069
:1053300050B900BF502080F31188BFF34F8FBFF3E7
:105340006F8F00BF00BFFEE705F15400FFF742FA80
:1053500004464CB1A14609F1540943464A46394630
:1053600030460094FEF79EFE2046BDE8F88300001C
:1053700070B505460E462C4654B900BF502080F348
:105380001188BFF34F8FBFF36F8F00BF00BFFEE7E1
:10539000FFF74EFCD4E90F12206801FB0200A06069
:1053A0000020A06320686060E06B401E226C2168D2
:1053B00000FB0211E160FF2084F8440084F84500FE
:1053C0009EB9206908B9012000E00020A8B904F1C5
:1053D000100000F0E5FB80B14FF0805009490860F3
:1053E000BFF34F8FBFF36F8F07E004F11000FFF79B
:1053F000E9FB04F12400FFF7E5FBFFF743FC012084
:1054000070BD000004ED00E02DE9FF4782B00646C4
:1054100088461D464FF00009344654B900BF50205D
:1054200080F31188BFF34F8FBFF36F8F00BF00BFB2
:10543000FEE7B8F1000F01D1206C08B9012000E0AF
:10544000002050B900BF502080F31188BFF34F8F68
:10545000BFF36F8F00BF00BFFEE7022D02D1E06BEC
:10546000012801D1012000E0002050B900BF5020E8
:1054700080F31188BFF34F8FBFF36F8F00BF00BF62
:10548000FEE700F075FA08B9049808B9012000E0B9
:10549000002050B900BF502080F31188BFF34F8F18
:1054A000BFF36F8F00BF00BFFEE700BFFFF7C0FB79
:1054B000A06BE16B884201D3022D3ED1D4F838A015
:1054C0002A4641462046FEF73EFD0746A06C88B1BD
:1054D000022D02D1BAF1000F29D12046FEF708FFB4
:1054E00028B34FF080503D490860BFF34F8FBFF3A2
:1054F0006F8F1CE0606A08B9012000E0002068B9E5
:1055000004F1240000F04CFB88B14FF08050334987
:105510000860BFF34F8FBFF36F8F08E03FB14FF0CC
:1055200080502E490860BFF34F8FBFF36F8FFFF796
:10553000A9FB012006B0BDE8F087049818B9FFF771
:10554000A1FB0020F6E7B9F1000F04D16846FFF790
:105550003DFD4FF00109FFF795FBFFF7D3FDFFF786
:1055600067FB94F94400401C10B9002084F8440003
:1055700094F94500401C10B9002084F84500FFF75D
:1055800081FB04A9684600F07BF9F8B92046FEF7D4
:10559000A0FEA8B104F110000499FFF729FD2046F0
:1055A000FFF7CFF800F048FB00287FF47FAF4FF003
:1055B00080500A490860BFF34F8FBFF36F8F75E7C4
:1055C0002046FFF7BEF800F037FB6FE72046FFF7F5
:1055D000B8F800F031FB0020ACE7000004ED00E07B
:1055E0002DE9F84F80468B4615461E46444654B971
:1055F00000BF502080F31188BFF34F8FBFF36F8F30
:1056000000BF00BFFEE7BBF1000F01D1206C08B95D
:10561000012000E0002050B900BF502080F3118825
:10562000BFF34F8FBFF36F8F00BF00BFFEE7022EA7
:1056300002D1E06B012801D1012000E0002050B927
:1056400000BF502080F31188BFF34F8FBFF36F8FDF
:1056500000BF00BFFEE7FFF799FB00BF5021EFF34B
:10566000118081F31188BFF34F8FBFF36F8F00BF9D
:105670000746A06BE16B884201D3022E42D194F918
:1056800045A0A06B0090324659462046FEF75BFCD1
:105690000AF10100E0B9A06C58B1022E01D10098C6
:1056A00068BB2046FEF724FE48B345B301202860BE
:1056B00025E0606A08B9012000E00020F8B904F193
:1056C000240000F06DFAD0B1CDB10120286016E0C1
:1056D000BAF17F0F01D0012000E0002050B900BFD7
:1056E000502080F31188BFF34F8FBFF36F8F00BF3F
:1056F00000BFFEE70AF1010040B284F845004FF018
:10570000010901E04FF0000900BF87F3118800BFD5
:105710004846BDE8F88F00002DE9F74183B0054603
:105720000E464FF000082C4654B900BF502080F3BD
:105730001188BFF34F8FBFF36F8F00BF00BFFEE72D
:105740000EB9206C08B9012000E0002050B900BF5C
:10575000502080F31188BFF34F8FBFF36F8F00BFCE
:1057600000BFFEE700F004F908B9059808B9012068
:1057700000E0002050B900BF502080F31188BFF333
:105780004F8FBFF36F8F00BF00BFFEE700BFFFF773
:105790004FFAA76BF7B131462046FEF7BFFB781EE4
:1057A000A063206908B9012000E0002060B904F17D
:1057B000100000F0F5F938B14FF080502F49086023
:1057C000BFF34F8FBFF36F8FFFF75CFA012006B076
:1057D000BDE8F081059818B9FFF754FA0020F6E704
:1057E000B8F1000F04D101A8FFF7F0FB4FF001085A
:1057F000FFF748FAFFF786FCFFF71AFA94F944001E
:10580000401C10B9002084F8440094F94500401C65
:1058100010B9002084F84500FFF734FA05A901A863
:1058200000F02EF8F0B92046FEF746FDA0B104F1D5
:1058300024000599FFF7DCFB2046FEF782FF00F00D
:10584000FBF90028A3D14FF080500C490860BFF34A
:105850004F8FBFF36F8F9AE72046FEF772FF00F07D
:10586000EBF994E72046FEF76CFF00F0E5F92046DF
:10587000FEF722FD00288AD00020A8E704ED00E012
:1058800070B505460C4655B900BF502080F311880D
:10589000BFF34F8FBFF36F8F00BF00BFFEE754B958
:1058A00000BF502080F31188BFF34F8FBFF36F8F7D
:1058B00000BF00BFFEE7FFF7BBF913480268686846
:1058C000131A2068401C08B9002619E00F492868FF
:1058D0000968884206D06868904203D801260020F3
:1058E00020600DE02068984207D92068C01A206027
:1058F0002846FFF76BFB002602E00020206001260F
:10590000FFF7C0F9304670BD6C0F0020800F0020FB
:105910002DE9FF4F85B0804689461746DDE912AB79
:10592000B800FEF757FF064656B15C20FEF752FF5F
:1059300004460CB1266304E03046FFF7C1F900E0ED
:1059400000247CB10020CDE900ABCDE902403A460D
:1059500049464046089BFEF7BCFB2046FEF72CFA62
:10596000012501E04FF0FF35284609B0BDE8F08F72
:105970000549096809B9012005E00449096809B920
:10598000022000E000207047740F0020940F0020D8
:1059900001490868704700006C0F00202DE9F041B4
:1059A0004FF000084448006800287CD14348006854
:1059B000451C4248056015BB41480068006808B9AD
:1059C000012000E0002050B900BF502080F3118872
:1059D000BFF34F8FBFF36F8F00BF00BFFEE73848A4
:1059E0000768384800683649086036480760364816
:1059F0000068401C34490860FEF7F6FD00BF3348DC
:105A0000006885423CD300BF2D480068006808B993
:105A1000012000E0002020B14FF0FF302B4908604A
:105A20002DE027480068C068C4686668B54202D2A5
:105A30002648066023E0201DFFF7B0F8A06A18B1E1
:105A400004F11800FFF7AAF894F82C100120884000
:105A50001F49096808431E490860E16A01EB81019A
:105A60001C4A02EB8100211DFFF7D6F81A49E06AB3
:105A70000968C96A8842C7D34FF00108C4E700BF6C
:105A800015480068C06A00EB8000124951F82000F8
:105A9000012801D94FF001081048006808B14FF003
:105AA000010805E0FFE70E480068401C0C4908604B
:105AB0004046BDE8F0810000940F00206C0F0020EC
:105AC0005C0F0020600F0020800F0020880F002056
:105AD000700F002014150020580F00207C0F0020AC
