:020000040800F2
:1000000070390020DD0100081F110008D50F00081D
:100010001D110008590C00088D1E0008000000008A
:100020000000000000000000000000004501000882
:100030005B0C00080000000089010008B51C0008E6
:10004000F7010008F7010008F7010008F7010008B0
:10005000F7010008F7010008F7010008F7010008A0
:10006000F7010008F7010008F7010008F701000890
:10007000F7010008F7010008F7010008F701000880
:10008000F7010008F7010008F7010008F701000870
:10009000F7010008F7010008F7010008F701000860
:1000A000F7010008F7010008F7010008F701000850
:1000B000F7010008F7010008F7010008F701000840
:1000C000F7010008F7010008F7010008F701000830
:1000D000F7010008191D0008F7010008F7010008E2
:1000E000F7010008F7010008F7010008F701000810
:1000F000F7010008F7010008F7010008F701000800
:10010000F7010008F7010008F7010008F7010008EF
:10011000F7010008F7010008F7010008F7010008DF
:10012000F7010008F7010008F7010008F7010008CF
:10013000DFF80CD000F076FC004800475937000883
:1001400070390020224B19680868B0E8F00F80F37E
:100150000988BFF36F8F4FF0000080F311884EF0D5
:100160000D0E70470000000006480068006880F32C
:10017000088862B661B6BFF34F8FBFF36F8F00DFA1
:1001800000BF00BF08ED00E0EFF30980BFF36F8F01
:100190000F4B1A6820E9F00F106008B54FF05000BF
:1001A00080F31188BFF34F8FBFF36F8F06F042F9D2
:1001B0004FF0000080F31188BDE808401968086816
:1001C000B0E8F00F80F30988BFF36F8F704700BF6E
:1001D000F0040020EFF305807047000006488047D8
:1001E00006480047FEE7FEE7FEE7FEE7FEE7FEE71C
:1001F000FEE7FEE7FEE7FEE7C91C00083101000844
:1002000040EA01039B0703D009E008C9121F08C098
:10021000042AFAD203E011F8013B00F8013B521E18
:10022000F9D27047D2B201E000F8012B491EFBD28F
:1002300070470022F6E710B513460A4604461946F1
:10024000FFF7F0FF204610BD421C10F8011B0029EB
:10025000FBD1801A704710B5002200E0521C835C6D
:100260008C5CA34201D1002BF8D1D8B2E1B2401A84
:1002700010BD30B505460020034600E05B1C9342EC
:1002800005D2EC5CC85C201A01D1002CF6D130BD3F
:10029000F0B480EA0102D40F4200B2EB410F02D267
:1002A0000246084611464A0042D0C30DDDB2C1F3F2
:1002B000C752AD1A202D35DAC1F3160141F4000200
:1002C00004B15242C5F1200602FA06F12A41104457
:1002D000B3EBD05F23D0C4B1012DA0EBC35009DC38
:1002E000F0BC4FF0004202EAC352DBB200F500005E
:1002F00000F0DDBA400000F1807000EBC350A0F1C7
:10030000807040EAD170490009E0490841EAC071B3
:10031000A0EBC35000F50000400800EBC350F0BC58
:1003200000F0BCBA6142012202EB4101001BF6E77A
:10033000F0BC704781F00041AAE780F00040A7E7D9
:1003400080EA010210B502F00043400022D04A00CA
:100350001FD0010E01EB1261C0F35600C2F356022A
:1003600040F4000042F40002A0FB022000047F39A8
:10037000140400D0401C50EA124001D44000491E31
:10038000C2B20C0604EBD010401C4008802A02D0F8
:1003900003E0002010BD20F00100002900DA002059
:1003A000184310BD30B480EA010202F0004530F07D
:1003B000004221F0004013D090B1C30DD40DC2F320
:1003C0001601C0F31600E41A41F4000140F40002E3
:1003D0007D34914201D3641C00E04900002C02DA14
:1003E00030BC002070474FF400000023914201D33D
:1003F000891A034340084FEA4101F7D151B19142B4
:1004000002D14FF0004105E002D24FF0010101E0BE
:100410006FF0010103EBC450284430BC00F03EBA39
:100420002DE9FE4F804681EA0300C00F0C46009084
:1004300021F0004123F00045B8EB0200A94105D2AC
:100440004046214690461C460B46024623F000409B
:10045000104347D0270DC7F30A00C3F30A51029097
:10046000401A019040286BDAC3F3130040F4801B5C
:100470000098924620B10023D2EB030A63EB0B0BEA
:1004800001985946C0F14002504600F0E6F9064690
:100490000D4650465946019A00F0EEF910EB08005F
:1004A0006141002487EA115284EAE7731A4340D07D
:1004B000009A62B3019A012A4FEA075215DC001B29
:1004C00061EB02014FF0004202EA0752CDE900421F
:1004D000001C41F5801132462B4600F025FA03B08E
:1004E000BDE8F08F40462146F9E7001B61EB0201B1
:1004F000001C41F5801300185B412018A2F500177D
:1005000047EB030140EAD570B6196D4111E06D0863
:100510004FEA360645EAC0754FEA0752001B61EB09
:100520000201001C41F5801149084FEA3000001912
:10053000514132462B4603B0BDE8F04F00F0E5B91B
:100540000098012240000023D0EB020263EBE0732D
:10055000009821464FEAE074B8EB000061EB04011B
:10056000E9E783F000435BE781F0004158E72DE9BC
:10057000FE4F81EA030404F0004421F0004100949E
:100580004FF0000B23F0004350EA01045ED052EA22
:1005900003045BD0C3F30A54C1F30A552C44A4F2FC
:1005A000F3340194A0FB0254C1F3130141F4801110
:1005B000C3F3130343F4801301FB024400FB034E17
:1005C000840A970A44EA815447EA8357A4FB0768E0
:1005D00002958D0A05FB07854FEA932C04FB0C540A
:1005E0002705029D4FEA065847EA1637B5EB08057E
:1005F0006EEB070C870E920E47EA811742EA8312D0
:10060000A7FB0201B6EB0B0164EB00042B0D43EAE0
:100610000C335E1844EB1C50DA465146E7FB0201EE
:10062000C5F313044FEA0B3343EA14534FEA043281
:10063000019C43EA0603A4F10C040294009CCDE95A
:1006400000B400F071F903B0BDE8F08F002001465E
:10065000F9E72DE9F04D81EA030404F0004B21F0A5
:10066000004514464FF0000A23F0004150EA05020D
:1006700020D054EA01021DD0C5F30A570246C5F343
:100680001303C1F31300C1F30A5640F4801543F479
:100690008013A7EB0608101BD64608F2FD3873EB53
:1006A000050002D308F1010801E092185B41B8F19E
:1006B000000F03DA00200146BDE8F08D00204FF462
:1006C0008011064684460EE0171B73EB050705D321
:1006D000121B63EB050306434CEA010C49084FEA81
:1006E000300092185B4150EA0107EDD152EA030055
:1006F00012D082EA040083EA0501084305D0101BEA
:10070000AB4106D20122002306E000224FF0004355
:1007100002E06FF0010253101AEB06004CEB085197
:1007200010EB0A0041EB0B01BDE8F04D00F0EDB815
:10073000C10F80EAE0700844CA079623002100F048
:10074000B6B896230022114600F0B1B80EB5C10F1D
:1007500080EAE0700844CA07002140F233438DE884
:100760000E000A460B4600F0DFF803B000BD00F0B3
:10077000004230F000400AD0C10D01F56071C0F3B5
:10078000160042EA0151C208400711437047002099
:100790000146704701F0004330B421F0004150EAB7
:1007A000010206D00A0DA2F56072C1F31301002AFE
:1007B00002DC30BC00207047440F44EAC104C10091
:1007C000E01830BC00EBC25000F068B830B50B4602
:1007D000014600202022012409E021FA02F59D4271
:1007E00005D303FA02F5491B04FA02F52844151E45
:1007F000A2F10102F1DC30BD2DE9F05F05460020D9
:1008000092469B4688460646814640241BE0284681
:1008100041464746224600F017F953465A46C01A49
:10082000914110D311461846224600F016F82D1AB1
:1008300067EB01084F4622460120002100F00DF829
:1008400017EB00094E41201EA4F10104DFDC4846ED
:1008500031462A464346BDE8F09F202A04DB203A71
:1008600000FA02F1002070479140C2F1200320FA03
:1008700003F3194390407047202A06DBCB17203A38
:1008800041FA02F043EAE07306E041FA02F3D04095
:10089000C2F1200291400843194670470029A8BFC1
:1008A0007047401C490008BF20F00100704710B499
:1008B000B0FA80FC00FA0CF050EA010404BF10BC4E
:1008C000704749B1CCF1200421FA04F411FA0CF17B
:1008D00018BF012121430843A3EB0C01CB1D4FEAB4
:1008E00000614FEA102042BF002010BC704700EBAF
:1008F000C35010440029A4BF10BC7047401C4900DD
:1009000008BF20F0010010BC704710B5141E73F131
:10091000000408DA401C41F1000192185B411A43BF
:1009200001D120F0010010BD2DE9F04D92469B460B
:1009300011B1B1FA81F202E0B0FA80F220329046B1
:10094000FFF78BFF04460F4640EA0A0041EA0B011D
:1009500053465A46084313D0114653EA010019D0B2
:10096000C8F14002504600F06FF805460E4650466A
:1009700059464246FFF771FF084305D0012004E0C5
:1009800020463946BDE8F08D0020054346EAE07672
:100990002C4337430A986305E40AA0EB08000022C1
:1009A000FD0A44EA47540A3002D500200146E9E72F
:1009B000010510196941DDE9084500196941BDE8E3
:1009C000F04DA2E7C1F30A52C1F3130140F2FF3325
:1009D00041F480119A4202DA00200146704740F249
:1009E00033439A42A2F2334202DC524200F02CB866
:1009F000FFF733BF30B5041E71F1000404DB4FF084
:100A00000044404264EB0101141E73F1000405DB55
:100A10001C464FF00043524263EB0403994208BF67
:100A2000904230BD064C074D06E0E06840F00103FF
:100A300094E8070098471034AC42F6D3FFF77CFBEC
:100A40003897000858970008202A04DB203A21FA3A
:100A500002F00021704721FA02F3D040C2F12002D7
:100A6000914008431946704770B521F00043034395
:100A70000CD0C1F30A550024D5EB040564EB040344
:100A8000D617AD1AB34102DB0020014670BD201815
:100A900041EB025170BD70B58C1810F8015B15F078
:100AA000070301D110F8013B2A1106D110F8012BE0
:100AB00003E010F8016B01F8016B5B1EF9D12B0705
:100AC00005D40023521E0DD401F8013BFAE710F8BB
:100AD000013BCB1A921C03E013F8015B01F8015BA8
:100AE000521EF9D5A142D8D3002070BD00298168DB
:100AF00002D041F0010101E021F001018160704765
:100B00000D4910B5884202D1012144150AE00B4974
:100B1000884202D10121041504E0094988420AD122
:100B20000121CC03204600F07BFF2046BDE81040A9
:100B3000002100F075BF10BD0024014000280140D5
:100B4000003C0140014600208968490700D501208A
:100B50007047C06C80B270470246002012680A429B
:100B600000D001207047014600208968090700D5A0
:100B70000120704710B542680E4B0C791A400B6883
:100B800042EA04221343436083680B4A1340D1E9CD
:100B9000024222434C7943EA44031A438260C26A08
:100BA000097C22F47002491EC9B242EA0151C162B5
:100BB00010BD0000FFFEF0FFFDF7F1FF70B5072448
:100BC00009290AD9C568A1F10A0606EB4606B44010
:100BD000A543B3401D43C56007E0056901EB41062D
:100BE000B440A543B3401D4305611F23072A09D222
:100BF000446B521E02EB820293409C4391400C4393
:100C0000446370BD0D2A09D2046BD21F02EB82022D
:100C100093409C4391400C43046370BDC46A0D3AF9
:100C200002EB820293409C4391400C43C46270BD2E
:100C3000816841F00801816070470029816802D015
:100C400041F4A00101E021F4A001816070478168B6
:100C500041F0040181607047FEE77047014801F0F0
:100C60000DB90000003801402DE9F8430F46064653
:100C7000914600241EA1001DFFF7EDFADFF87880F1
:100C800098B10125009598F8020010230007010E85
:100C90002022002000F040FD3807010E10233E22E4
:100CA0000020009500F038FD15E000F07DFB05F018
:100CB000A7F816E004EB090000EB800101EBC0008F
:100CC00006EB80022007010E102308201332009546
:100CD00000F019FE641C306801784078081AA042C0
:100CE000E8DC00F0E1FC88F80270BDE8F883000061
:100CF0004D61696E554900002C000020F8B50024B4
:100D00001646054601270FE0A01900EB800101EB14
:100D1000C00005EB80022007010E102308201332CB
:100D2000009700F0F0FD641C286801784078081AEC
:100D3000A042E9DCBDE8F84000F0B6BC014908601B
:100D40007047000014040140F0B5CA78002502F095
:100D50000F03D20601D58A7813430A784FF00F0E9D
:100D600012F0FF0F4FF001021CD004680F8802FA46
:100D700005F63740B74211D14FEA850C0EFA0CF751
:100D800024EA070703FA0CF43C43CF78282F02D05B
:100D9000482F02D002E0466100E006616D1C082D7C
:100DA000E4D304600C88FF2C1ED944685FF0000671
:100DB00006F1080702FA07F50F882F40AF420FD15E
:100DC0004FEA860C0EFA0CF7BC4303FA0CF73C43CF
:100DD000CF78282F00D14561CF78482F00D1056109
:100DE000761C082EE4D34460F0BD0000F0B5144C2E
:100DF000002801DAE36900E06368420D120185B260
:100E0000C0F301579540C0F30346032F05D0C2023B
:100E10000AD50322B240934307E023F0706263686F
:100E200023F07063636002E0AB4343F0706201B192
:100E30002A43002801DAE261F0BD6260F0BD0000E3
:100E4000000001400246002092680A4200D00120C2
:100E50007047416170470161704700002DE9F04122
:100E6000424C414B002594F900201E7894F9011062
:100E70006068012E1BD03E4B1E78012E2CD02346DD
:100E80003C4E93F9017093F900E096F800C0774466
:100E900007EB870E5B680EEBC70703EB8703BCF11C
:100EA000010F30D0344E3778012F30D056E0521E2B
:100EB00052B21D702270002A0BDA11B12570491E42
:100EC00006E001680A784B78D21A521E22704978DF
:100ED0006170627821783FE0521C1D7052B222701E
:100EE00003681F785E78BB1B5B1E934204DA8E4258
:100EF00002D02370491CEBE79342EADA8E42E8D134
:100F000025706570E5E7586A10B3804720E011430B
:100F100009D102EB820101EBC20100EB8100C06A42
:100F200008B1606014E0186B0028986AECD000B13A
:100F3000804794F9000094F90110084400EB800107
:100F400001EBC000616801EB8000006B6060257000
:100F50003570627821786068FFF786FE6068BDE8CA
:100F6000F04100F00BB80000340000202C000020FD
:100F700035000020360000203700002010B5044660
:100F800004F082FE09A1201DFFF765F938B1094878
:100F9000427801782046BDE81040FFF7AFBE04F06C
:100FA0002FFFBDE8104000F07FBB00004D61696E6F
:100FB000554900002C00002010B504F00DFF044836
:100FC000427801784068BDE81040FFF74DBE000050
:100FD0002C000020FEE700000748417809B90121F4
:100FE00041700648D0F8B41119B10021C0F8B4110D
:100FF00070470121FAE7000034000020000022427F
:101000000748817809B9012181700648D0F8B411E8
:1010100019B10021C0F8B41170470121FAE70000AE
:1010200034000020000022420748C17809B901219C
:10103000C1700648D0F8B41119B10021C0F8B4113C
:1010400070470121FAE7000034000020000022422E
:1010500010B40024244B254A2549012802D0906869
:1010600008B10CE09460D3F83C01D8B1D1F80C0180
:10107000C0B1D1F81001A8B1D1F8140190B1D3F8E2
:101080003C0101280CD1D1F80C01012808D1D1F87C
:101090001001012804D1D1F81401012800D1946075
:1010A00010BC70475068401C50600228F8DD0120D9
:1010B000C2E90140D3F83C0160B1D1F80C0160B144
:1010C000D1F8100160B1D1F814010028E8D110BCAA
:1010D000FFF7AABF10BC00F00DB810BCFFF77CBF33
:1010E00010BCFFF78DBF000000002142340000203B
:1010F000008021420748017809B9012101700648A2
:10110000D0F8B41119B10021C0F8B4117047012111
:10111000FAE700003400002000002242FEE770479A
:1011200010B505220B49302000F0C4F8052209490A
:10113000102000F023F8074900200A5CAA2A03D1F6
:10114000401CC0B20528F8D3052801D0012010BDED
:10115000002010BDC404002010B5074C20680068B2
:101160008047206881680020884720684168BDE882
:101170001040012008470000C00400202DE9F04184
:101180000F4D044688462868164641680020884767
:101190002868C168204688470746002406E0C168E1
:1011A000FF20884708F80400641CE4B22868B442B1
:1011B000F5D34168012088473846BDE8F08100003A
:1011C000C004002070B50A4C054620684168002024
:1011D00088472068C168284688472068C168FF2082
:1011E000884705462068416801208847284670BD29
:1011F000C004002010B5174C206881680020884783
:1012000005221549302000F055F813490522491DE3
:101210002A2000F04FF80121212000F06FF8012171
:10122000222000F06BF81A21242000F067F8282112
:10123000252000F063F80F21262000F05FF80E2132
:10124000202000F05BF820688168BDE81040012094
:1012500008470000C00400200093000870B5144C3B
:101260000546206881680020884720222946A02062
:1012700000F020F820688168012088472068006914
:101280000028FDD10720FFF79DFF044601462720D7
:1012900000F034F8E00605D5FF21E12000F02EF83B
:1012A000102070BDA00601D5202070BDFF2070BDAC
:1012B000C00400202DE9F0410F4C05460E46206881
:1012C00017464168002088472068C168284688473B
:1012D0008046002507E000BF216816F8010BC968A9
:1012E00088476D1CEDB2BD42F6D3206841680120ED
:1012F00088474046BDE8F081C004002070B50B4C23
:1013000005460E4620684268002090472068C16864
:101310002846884705462068C168304688472068C7
:10132000416801208847284670BD0000C0040020A5
:1013300070B50F23C47801780122F4B1144C2468ED
:10134000457804F4E064C4F5E064240AC4F10406BA
:10135000E3408478B5401C402C4301F1E021230197
:1013600081F80034007800F01F018A4040098000B5
:1013700000F1E020C0F8002170BD01F01F008240A4
:101380004809800000F1E020C0F8802170BD000015
:101390000CED00E002490843024908607047000074
:1013A0000000FA050CED00E030B40021084C0A46BC
:1013B000002004EBC1131A54401CC0B28028FAD399
:1013C000491CC9B20829F3D330BC00F06DB9000044
:1013D000000600202DE9FF4F164681B00F468046DB
:1013E0000025144602FB06F952E000BF08EB050099
:1013F000A7EB040A00900AF0FF01C0B2049A00F0C3
:101400009DF8A8EB050B0AF0FF010BF0FF00049A12
:1014100000F094F807EB040A0AF0FF010BF0FF005C
:10142000049A00F08BF800980AF0FF01C0B2049A09
:1014300000F084F87819C1B208EB040B00900BF0AF
:10144000FF00049A00F07AF8A7EB050A0AF0FF0102
:101450000BF0FF00049A00F071F80AF0FF01A8EB0E
:10146000040A0AF0FF00049A00F068F80098049A51
:10147000C1B20AF0FF0000F061F86D1C05FB05F039
:1014800004FB040006FB1600002801DD641E6D1E2F
:10149000600060434845A9DA05B0BDE8F08F2DE94A
:1014A000FE4F151ACDE900104FF000085E1A4746AE
:1014B0004FF0FF30002D02DD4FF0010102E003D1BB
:1014C0004FF000018B4602E08346C5F10005002E77
:1014D00002DD4FF0010002E003D14FF00000824630
:1014E00002E08246C5F10006B54201DD2C4600E06F
:1014F0003446601C4FF00009029019E000980C9AE5
:10150000C1B20198C0B200F019F8A8443744A04510
:1015100004DD0198A8EB040858440190A74203DDBC
:1015200000983F1B5044009009F101001FFA80F918
:1015300002998945E2DBBDE8FE8F000010B501F09D
:10154000070301249C40074BC90803EBC111E4B217
:101550000B5C12B123430B5410BD64EA0302D24367
:101560000A5410BD0006002010B54A4C206840689F
:101570008047206800210268AE2090472068002143
:1015800002680846904720680021026810209047B2
:1015900020680021026840209047206800210268EE
:1015A00081209047206800210268CF209047206862
:1015B00000210268A1209047206800210268C8200D
:1015C0009047206800210268A620904720680021EB
:1015D0000268A82090472068002102683F209047B9
:1015E000206800210268D32090472068002102680B
:1015F00008469047206800210268D520904720685F
:101600000021026880209047206800210268D920CC
:101610009047206800210268F1209047206800214F
:101620000268DA2090472068002102681220904763
:10163000206800210268DB209047206800210268B2
:1016400040209047206800210268202090472068B1
:1016500000210268022090472068002102688D2046
:1016600090472068002102681420904720680021DC
:101670000268A4209047206800210268A6209047B5
:10168000FFF792FE206800210268BDE81040AF20FD
:1016900010470000880400200246012000E050436B
:1016A000491EC9B2FBD270472DE9F041184EDFF850
:1016B00064800024316804F1B000C0B20A680021DF
:1016C0009047306800210268084690473068002142
:1016D0000268102090473168087B012801D028B1AA
:1016E00010E0096908EBC41088470BE0002508EBFF
:1016F000C4173168785D0A68012190476D1CEDB20E
:10170000802DF6D3641CE4B2082CD3D3BDE8F0815D
:1017100088040020000600202DE9FC4F1C460E46E0
:1017200082468B460190082B0DD0600700D0012027
:1017300000EBD40061084843C0B28146203AD0B2E1
:10174000009000204BE00620F7E7082C13D00C2C6B
:1017500018D0102C1BD0182C44D10098234900EB32
:10176000C00000BF01EB8001002711F80850E80716
:1017700012D00B9A13E000981D4900EB400001EBDA
:101780004001F1E700981B4900EB4000EAE71A49E5
:10179000009801EB0011E7E70B9828B300223146CF
:1017A0005046FFF7CBFE761C7F1C6D08FFB2F6B2E9
:1017B000082FDCD30AF1010000F0FF0A082C0AD040
:1017C0000199AAEB0100B0EB540F04D10BF1080012
:1017D0008A4600F0FF0B08F101005E46C0B2804669
:1017E0004845B2D3BDE8FC8F0122D8E75C7F0008F2
:1017F000D0720008F87400086C7900082DE9F84FE1
:101800000025DDE90A691F4692468B468046082E70
:1018100000D1022500241CE0381B401EC1B20A2062
:10182000FFF73AFFBAFBF0F00A21B0FBF1F201FB3F
:101830001200CDF8009080B13030C2B205EB5601F5
:1018400001FB0480C0B233465946FFF765FF641CB4
:10185000E4B2BC42E0D3BDE8F88F05EB560101FBD2
:101860000480C0B233463022EEE72DE9FF4F82B04C
:101870008046019092460C464FF000098B4658076F
:1018800000D0012000EBD3000590002032E00026BC
:101890002BE00F98002510F8097009F101001FFADC
:1018A00080F9F80701D0109A02E0109848B300229E
:1018B00021464046FFF742FE641C6D1C7F08EDB2D6
:1018C000E4B2082DEDD308F10100019900F0FF0802
:1018D000A8EB0101514505D10BF10800DDF80480AA
:1018E00000F0FF0B761C5C46F6B25645D1D300984B
:1018F000401CC0B2009005998842C8D306B0BDE82C
:10190000F08F0122D4E72DE9F8411E46154688469E
:101910000446079F0BE03346414620460097FFF7F9
:10192000FBFE082E0AD004EB5600C4B26D1C2A78C8
:10193000A2F120005E28EED9BDE8F881A41DE4B232
:10194000F4E7000070B505460C46104804F0C0F8F6
:1019500078210E4804F0A3F80C4804F0D5F80CB137
:10196000402100E00021094804F099F8074804F0FC
:10197000CBF82946054804F092F8044804F0C4F86E
:10198000BDE87040014804F0B1B800008C040020AC
:1019900070B50546104804F09BF878210E4804F015
:1019A0007EF80D4804F0B0F840210B4804F077F8B9
:1019B000094804F0A9F800240748295D04F06FF8ED
:1019C000054804F0A1F8641CE4B2802CF4D3BDE80F
:1019D0007040014804F08AB88C040020034A516822
:1019E00021F4404101435160704700000010024063
:1019F000044A0029D16901D0014300E08143D1614B
:101A00007047000000100240044A0029916901D08B
:101A1000014300E0814391617047000000100240E3
:101A2000044A0029D16801D0014300E08143D1601C
:101A3000704700000010024030B51F494A6812F09C
:101A40000C031E4A03D0042B01D0082B21D00260C6
:101A50004A680F231A4C03EA1212A35C0268DA40A8
:101A600042604B68072505EA1323E35C22FA03F37F
:101A700083604B6805EAD323E35CDA40C2604968BF
:101A8000032303EA9131231F595CB2FBF1F1016199
:101A900030BD4A684B6802F470124FF0020413F430
:101AA000803F04EB924202D04B689B0301D5054B6B
:101AB00000E0024B5A43CAE70010024000127A00CD
:101AC0001800002000093D0038B501210820FFF76B
:101AD0009BFF01218803FFF78BFF4FF46044ADF8B3
:101AE000004018208DF803000320124D8DF80200ED
:101AF00069462846FFF728F921462846FFF7ABF943
:101B00000D4800214FF48272018042808180C180A3
:101B100001816A15428110228281C18107210182DF
:101B2000064C0146204600F048F80121204600F00E
:101B30002FF838BD000C0140C805002000380040D7
:101B400070B506460024114D03E0641CE4B2C82CB5
:101B50000FD80221284600F025F80028F5D031469C
:101B6000284600F028F8002405E0641CE4B2C82CE4
:101B700001D9002070BD0121284600F013F800288B
:101B8000F3D0284600F015F8C0B270BD0038004010
:101B90000029018802D041F0400101E021F040011C
:101BA000018070470246002012890A4200D00120BD
:101BB0007047808970478181704730B502884C88B2
:101BC00002F441530A88CD8822438C882C43224357
:101BD0000C8922434C8922438C892243CC8922439D
:101BE0001A430280828B22F400628283098A018276
:101BF00030BD00000CB5002126480191009102681B
:101C000042F4803202604FF4A063026802F40032B2
:101C10000092019A521C0192009A12B9019A9A42BA
:101C2000F3D10268920333D5012100911A490A6861
:101C300042F010020A600A6822F003020A600A6891
:101C400042F002020A6041684160416841604168B7
:101C500041F480614160416821F47C114160416838
:101C600041F4E8114160016841F080710160016850
:101C70008901FCD5416821F003014160416841F0D0
:101C8000020141604168C1F381010229FAD10CBD12
:101C900000910CBD00100240002002404FF0E021F6
:101CA0000428086903D020F004000861704740F060
:101CB0000400FAE710B504F0E1FF012803D0BDE805
:101CC000104004F039BC10BD0F4810B5016841F058
:101CD0000101016041680D4A1140416001680C4AF0
:101CE00011400160016821F480210160416821F404
:101CF000FE0141604FF41F018160FFF77BFF054942
:101D00004FF00060086010BD001002400000FFF8B6
:101D1000FFFFF6FE08ED00E010B540F22554214625
:101D2000064800F01EF8002806D0FEF797FF204670
:101D3000BDE81040FFF702B810BD000000380140B8
:101D40000029818902D041F4005101E021F40051C1
:101D5000818170470246002012880A4200D001208B
:101D6000704730B501F01F0201240025C1F3421372
:101D700004FA02F2012B0FD0022B0FD0838A4FEA14
:101D800011210088134204FA01F400EA040001D092
:101D900000B10125284630BD8389F0E7038AEEE7CC
:101DA00010B5C1F3421301F01F040121A140012B22
:101DB00007D0022B07D01430002A026805D00A434E
:101DC00004E00C30F8E71030F6E78A43026010BDFB
:101DD00030B50446008A85B00D464CF6FF710840C8
:101DE000E98801432182A1894EF6F3100140A888B9
:101DF0002A8910436A890A431043A081A08A4FF6BA
:101E0000FF410840A9890143A1826846FFF714FEFB
:101E10001948844201D1039800E00298A18909047D
:101E200000EBC00101EB0010296801D5490000E07A
:101E30008900B0FBF1F06422B0FBF2F109010B095B
:101E40006FF018056B4300EB8300A3891D044FF06E
:101E5000320306D503EBC000B0FBF2F000F0070040
:101E600005E003EB0010B0FBF2F000F00F000843B8
:101E7000208105B030BD0000003801408088C0F3EB
:101E800008007047C1F3080181807047FEE7000039
:101E90000FB4054B10B503A9044A029800F064F989
:101EA00010BC5DF814FB0000E5330008C4050020F9
:101EB0000FB4084B10B504A902AA039800F054F916
:101EC000044602A9002000F0E6FC204610BC5DF8A4
:101ED00014FB000097280008490050EAC12018BFF1
:101EE00004204A0D18BF40F0010040F2FF72B2EB2F
:101EF000515F08BF40F00200012808BF052070476D
:101F00002DE9F0414F1E00EBC7010446D1E9000165
:101F100015461E4637F006020DD02A463346FEF718
:101F200026FB7F1E04EBC703D3E90023FEF778FAF4
:101F300037F00602F1D1022F25D0042F13D0062F3F
:101F400018BFBDE8F0812A463346FEF710FBD4E9FE
:101F50000A23FEF765FA2A463346FEF708FBD4E962
:101F60000823FEF75DFA2A463346FEF700FBD4E964
:101F70000623FEF755FA2A463346FEF7F8FAD4E967
:101F80000423FEF74DFA2A463346FEF7F0FAD4E969
:101F90000223FEF745FA2A463346FEF7E8FAD4E96B
:101FA0000023BDE8F041FEF73BBA0122FEF75CBD1D
:101FB000FEF736BA024A00201107FEF755BD0000B1
:101FC00001FDFFFF02E008C8121F08C1002AFAD174
:101FD00070477047002001E001C1121F002AFBD1A9
:101FE000704700002DE9FF5F82B00021DDE9043079
:101FF000020DDDF840B0034318D044F61050A2F2B1
:10200000FF3242431514119801281FD0A5EB0B0095
:10201000401C5FEA000A4FF000064E4FDFF838918F
:10202000B046504615D5CAF1000413E011980124BA
:102030004AA3012801D16FEA0B010298119AC0E965
:102040000031C0E9024206B0BDE8F09FCBF10000CC
:10205000DFE704460021404A491842EB0450CDE92D
:10206000001012E0E00707D032463B4640464946A2
:10207000FEF77DFA8046894632463B4610461946B1
:10208000FEF775FA06460F466410002CEAD1DDE92A
:102090000401DDE90023BAF1000F06DAFEF767FA62
:1020A00042464B46FEF763FA05E0FEF7D2FA424697
:1020B0004B46FEF7CEFA04460E460022284BFEF7AA
:1020C00099FC03D84FF0FF30014607E00022254B72
:1020D00020463146FEF7A4F9FEF774FC102409E00F
:1020E000002C0ADB0A220023FEF786FB039B30321A
:1020F0001A55641E50EA0102F2D1641C039AC4F11D
:1021000011031444119A012A03D0012208430DD16E
:102110000AE0084304D000204FF0110B119072E741
:10212000A3EB0B056D1E0DE05B4504DD4FF00002D7
:1021300005F1010504E003DA4FF00002A5F1010505
:10214000002AECD002981199C0E90231C0E900459B
:1021500079E70000000014400000F03F300000006C
:102160000000F0430000E03F2DE9FF4F95B09B4693
:102170008946064600250FE2252877D10024274608
:10218000F84A0121059400E0044316F8013F203B82
:1021900001FA03F01042F7D130782A2811D06FF0FD
:1021A0002F033078A0F13002092A16D8059A44F09E
:1021B000020402EB820203EB42021044761C0590FB
:1021C000EFE759F8042B0592002A03DA504244F451
:1021D0000054059044F00204761C30782E2816D165
:1021E00016F8010F44F004042A280DD06FF02F02D6
:1021F0003078A0F13003092B09D807EB870302EBF5
:102200004303C718761CF3E759F8047B761C307833
:102210006C280FD006DC4C2817D068280DD06A280F
:1022200014D104E0742810D07A280FD10DE044F4C2
:1022300000140AE044F4801401E044F4401472787D
:10224000824202D104F58014761C761C3078662810
:102250000BD013DC582877D009DC002875D045282E
:10226000F6D04628F4D047281AD19DE118E063281B
:1022700035D0642879D0652812D195E1702873D0C3
:1022800008DC6728F1D069286FD06E280DD06F2840
:1022900006D1B5E073282CD0752875D0782874D075
:1022A0005A46179990476D1C75E1C4F302500228F5
:1022B00009D003280DD0D9F8001004280DD00D60E6
:1022C00009F1040967E1D9F80010EA17C1E90052E1
:1022D000F6E7D9F800100D80F2E70D70F0E719F875
:1022E000041B8DF8001000208DF80100EA46012043
:1022F00003E059F804AB4FF0FF3061074FF00001E5
:1023000002D40DE008F101018846B9420FDA804598
:10231000F8DB1AF808100029F4D108E008F10101EF
:1023200088468142FADB1AF808100029F6D1059890
:102330005B46A0EB080721463846179A00F094FA4E
:10234000284400EB080507E04DE029E10DE01AF80C
:10235000010B5A4617999047B8F10108F7D25B462E
:1023600021463846179A13E142E00A220092C4F34C
:1023700002524FF0000A022A08D059F804CB032A6F
:102380004FEAEC710AD00DE029E02AE009F10701DB
:1023900021F00702F2E802C1914609E00FFA8CFC35
:1023A0004FEAEC71042A03D14FFA8CFC4FEAEC712E
:1023B000002907DA0A460021DCF1000C61EB02017A
:1023C0002D2202E0220504D52B228DF804200122C3
:1023D00003E0E20701D02022F7E7904659E00A2106
:1023E00002E010220DE010214FF0000A00910BE0F6
:1023F00010224FF0000A44F004040827009203E082
:1024000008224FF0000A0092C4F30252022A05D0BB
:1024100059F804CB0021032A08D009E009F107018B
:1024200021F00702F2E802C1914605E01FFA8CFC98
:10243000042A01D10CF0FF0C4FF00008220728D528
:10244000702806D0009B83F0100353EA0A0305D0DE
:102450000EE040228DF80420012208E05CEA01022F
:1024600006D030228DF804208DF805000222904617
:10247000009B83F0080353EA0A030AD15CEA0102D5
:1024800001D1620705D530228DF804204FF00108F4
:102490007F1E582804D034A003900EA802900DE0AF
:1024A00036A0F9E753466046009AFEF7A5F9844640
:1024B0000398825C0298401E029002705CEA010060
:1024C000F0D1029806A9081A00F1200A600702D587
:1024D00024F4803400E00127574502DDA7EB0A0011
:1024E00000E0002000EB0A01009005984144401AEA
:1024F0000590E00306D45B462146179A059800F044
:10250000B3F90544002706E001A85A46C05D1799B3
:1025100090476D1C7F1C4745F6DBE0030CD55B46FE
:102520002146179A059800F09FF9054404E03020F1
:102530005A46179990476D1C0099481E0090002933
:10254000F5DC08E0029802995A460078491C02918D
:10255000179990476D1CBAF10001AAF1010AF1DC4C
:1025600065E1000009280100303132333435363757
:1025700038396162636465660000000030313233CF
:10258000343536373839414243444546000000006F
:1025900000F058F90544761C307800287FF4ECAD43
:1025A00019B02846BDE8F08F620700D4062709F16C
:1025B000070222F0070CFCE80223E14603F0004882
:1025C0005FEA080C02D00FF2702C0DE05FEA045CA9
:1025D00002D50FF2682C07E05FEAC47C02D00FF24C
:1025E000602C01E0AFF2700C4FF0FF3823F0004395
:1025F000CDF850C065280CD006DC452809D0462807
:102600001DD047283DD13DE0662818D067287ED1EF
:1026100038E00021112F01DB112000E0781CCDE90A
:10262000000106A90EA8FFF7DDFCDDE90F010E9AF7
:1026300003910021009207F1010A04914DE04FF04F
:1026400000400097CDE9011006A90EA8FFF7CAFCCB
:10265000DDE90F0203920E9B11990022DDF80CA018
:102660000093049211B9791C00EB010AB7EB0A0040
:1026700004D4C0F1FF3007F1010A0490AAEB07006F
:10268000019044E0012F00DA01270021112F01DD24
:10269000112000E03846CDE9000106A90EA8FFF799
:1026A000A1FCDDE90F010E9A039100210491009233
:1026B000BA4621070CD40399514500DA8A46BAF18B
:1026C000010F05DD009AAAF10101515C302908D003
:1026D000B84202DA10F1040F06DA0121CDE9011047
:1026E00015E0AAF10101E9E7002805DC049901449D
:1026F0000491AAEB000102E0411C514500DD8A462D
:102700000499401A401C01904FF0004002902007AD
:1027100004D40198504501DBCDF8048000208DF8E9
:102720004F0002980DF14F07B0F1004F25D02B203C
:102730000E9002984FF0020800280CDA40420290F6
:102740002D200E9007E00A210298FEF73FF8303165
:10275000029007F8011DB8F10001A8F10108F2DCB0
:1027600002980028EFD1791E0E980870307800F09A
:10277000200040F0450007F8020D12A8C01B00F130
:1027800007081498007800B1012000EB0A010198B5
:1027900001EBE07105984144401A401E0590E003AA
:1027A00006D45B462146179A059800F05DF805446B
:1027B0001498007818B15A46179990476D1CE00399
:1027C00024D55B462146179A059800F04DF805443C
:1027D0001CE00498002807DBDDE90301884203DDE3
:1027E0000098405C179901E0179930205A469047AD
:1027F000049805F10105401C04900198401E0190C9
:1028000004D12E205A46179990476D1CBAF1000149
:10281000AAF1010ADDDC05E017F8010B5A46179909
:1028200090476D1CB8F10001A8F10108F4DC5B468B
:102830002146179A0598ABE62D0000002B000000FA
:10284000200000002DE9F041044600251E461746F1
:10285000880404D405E039462020B0476D1C641E6E
:10286000F9D52846BDE8F0812DE9F0410446002560
:102870001E469046C80301D5302700E02027880473
:1028800004D505E041463846B0476D1C641EF9D5B5
:102890002846BDE8F0810A68531C0B601070704731
:1028A0002DE9F84F04460D4621F000400091734990
:1028B000814211DC7249884201DC06D12CB12046EC
:1028C0002946BDE8F84FFFF770BB6E48002DCCBF1E
:1028D0006D496E49BDE8F88F6D49814211DD6D4942
:1028E0008142D8BF4FF0FF366DDD20462946FFF705
:1028F000F3FA042808BFFFF75DFB20462946BDE830
:10290000F88F6549654F25F00045814233DD644904
:10291000814219DD002632464FF080432046294689
:10292000FDF77EFD80468A46012220462946FEF7B5
:102930009BF800223B46FDF714FE42465346FDF746
:1029400088FE04460D463EE001260022BA463B467C
:1029500020462946FDF764FD80460F460022534677
:1029600020462946FDF7FDFD42463B46FDF771FE38
:1029700004460D4627E04B4981421BDDDFF828A1C4
:1029800002260022534620462946FDF7F0FD00228C
:102990003B46FDF745FD80460F4600225346204644
:1029A0002946FDF7DEFD42463B46FDF752FE044652
:1029B0000D4608E0032622462B4600203B49FDF742
:1029C00048FE04460D4622462B4610461946FDF7A2
:1029D000CEFD8B46824602460B46FDF7C8FD0746F4
:1029E0000246334888460B4606217844FFF788FAAA
:1029F00052465B46FDF7BBFD82462E488B463A4663
:102A0000434605217844FFF77BFA3A464346FDF7F3
:102A1000AEFD02460B46002E504659460CDAFDF735
:102A2000FFFC22462B46FDF7A2FD01B022462B46B5
:102A3000BDE8F04FFDF798BDFDF7F2FC22462B46AE
:102A4000FDF795FD1C4A7A4402EBC603D3E9002347
:102A5000FDF787FD22462B46FDF783FD174A7A4492
:102A600002EBC603D3E90023FDF77EFD009A002A9E
:102A7000B8BF81F00041BDE8F88F000000001044AD
:102A80000000F07F182D4454FB21F93FFB21F9BFD2
:102A90000000DC3F0000203E0000F33F0000F03F5C
:102AA0000000E63F008003400000F83F0000F0BF58
:102AB0006A6A0000286A0000C66900008E6900008A
:102AC0002DE9F04D9446CCF1000423F000464CEA89
:102AD0000404524F46EAD4749A46884621F00042D4
:102AE000BC4206D8454240EA050442EAD474BC42DE
:102AF00004D9BDE8F04D6246FFF75ABAAAF1405535
:102B0000A5F17F6555EA0C040BD0022404EAAA74EF
:102B1000434DDFF810E144EAD87452EA000B04D0C8
:102B20000CE0BDE8F04DFFF7BBBE002C14BF012C3C
:102B3000BDE8F08D022C30D0032C32D056EA0C0BBD
:102B40000AD0BE4220D1BA4209D126F0804622F0F6
:102B500080423346114617E000291ADB25E0DFF8F2
:102B6000C8B0FB44002C04BFDBE90001BDE8F08DD8
:102B7000012C02BFDBE9000181F00041BDE8F08DCE
:102B8000022C0AD0032C0CD0BA4212D1B8F1000F9B
:102B90000BDA23482549BDE8F08D28462449BDE8D5
:102BA000F08D28467146BDE8F08D1D482149BDE8ED
:102BB000F08D921B12153C2AC4BF19481D490EDC2A
:102BC000BAF1000FBEBF12F13C0F0020014606DB38
:102BD0006246FDF73EFD21F00041FFF761FE002C4B
:102BE00008BFBDE8F08D012C04BF81F00041BDE8B5
:102BF000F08D114A114B022C07D0FDF7B2FC2A468A
:102C0000BDE8F04D0A4BFDF7ACBCFDF7AAFC2A4627
:102C1000BDE8F04D064BFDF7A7BC00000000F07FBB
:102C2000182D4454FB2109C022690000FB21F9BF83
:102C3000FB210940FB21F93F075C143326A6A13C88
:102C400092B014210AA8FDF7F4FA002501A801F0BA
:102C50003DFDFEF7A9FBFEF727FD954C95A10AA8BF
:102C6000627BFFF725F9012610230AAA19213720D4
:102C70000096FEF748FE627BE17A207B00F0E6FAE0
:102C8000FEF712FD4FF47A7003F0EAF9FEF78CFBC1
:102C9000627BE17A207B00F0D9FAFEF705FDDFF8D0
:102CA0002082DFF82092DFF820A2AB464FF0FF3100
:102CB0004746D8F8000003F0BBFE01280AD12422C1
:102CC000824901A8FDF79CFA00231A461946386884
:102CD00003F0E0FCBDF82400A0F2FF70484501DAE3
:102CE000032705E0B0F57A7F01DD012700E0022728
:102CF000627BE17A207B00F0A9FA00F069FA00F02B
:102D00008BFA384600F01CF96D1CA07BEDB28542B1
:102D100067D900F0F7F8607800253A2861D3207869
:102D2000A179884256D9A27A1144814252D93A20D7
:102D30006070FE206071207B401CC0B220730228AE
:102D40004FD984F80CB0607B5F46401CC2B26273FE
:102D5000042A20D910235EA2192137200096FEF7FD
:102D6000D2FDFEF7A1FC02E0322003F079F95A48C7
:102D700000780028F8D0584807700220E072667387
:102D8000FEF712FBFEF790FC00F0B0F82820A072CE
:102D90000520A07325E047A10AA8FFF789F81023B2
:102DA0000AAA192137200096FEF7ADFDFEF77CFC3C
:102DB0004FF47A7003F054F90220E072FEF7F4FA4F
:102DC000FEF772FC00F092F8A07A0838A072A07B9F
:102DD000401EDEE73820207003206070E07A401E3D
:102DE000E072E07AF0BB10233CA219213220009659
:102DF000FEF789FDFEF758FC374F02E0322003F062
:102E00002FF938780028F9D087F800B00220E07256
:102E1000FEF7CAFAFEF748FC00F068F82820A07216
:102E200066730520A073324622A10AA8FFF740F876
:102E300010230AAA192137200096FEF764FD627B51
:102E4000E17A207B00F002FAFEF72EFC4FF47A7054
:102E500003F006F9FEF7A8FA627BE17A207B00F026
:102E6000F5F900E001E0FEF71FFC2078A070607823
:102E7000E070A0792072E079607200F09FF900F0B4
:102E8000B1F9FEF711FC9AF8001001290CD116488F
:102E90008AF800B0006803F0F1F9FEF785FAFEF752
:102EA00003FC002003F002F90A2003F0D9F8FDE644
:102EB000E00400206C6576656C202575000000003C
:102EC0005400002018FCFFFF34000020DC05002027
:102ED000796F752077696E003500002067616D6538
:102EE0005F6F7665720000004C00002004483821B6
:102EF000017003214170022101714171704700008E
:102F0000E00400200D48017802791144C9B2017033
:102F1000427843791A44D3B2022243707B2904D900
:102F20007B210170FE21017102E02C2900D2027187
:102F3000032B02D80321417042717047E004002046
:102F40000B4903288A7902D0012802D002E0521DE1
:102F500000E0521F8A71D2B2282A01D2282004E050
:102F6000887AC0F17F00904200DA887170470000D3
:102F7000E004002030B585B001214FF40170FEF768
:102F800043FD1F20ADF8000000248DF80340694682
:102F90001848FDF7D9FE4FF40040FEF71FFD164D0F
:102FA0002846FDF7ADFD4FF46020CDE90204012075
:102FB0008DF804408DF8100000948DF805406946A6
:102FC0002846FDF7D7FD01212846FDF78FFD28464D
:102FD000FDF72EFE2C462046FDF7C5FD0028FAD150
:102FE0002046FDF734FE2046FDF7ACFD0028FAD15F
:102FF00005B030BD000801400024014008B50121A2
:103000000420FEF701FD01210820FEF7FDFC01214F
:103010000846FEF7F9FC01210B48FDF7E7FE49F2EF
:103020004000ADF8000048208DF8030069460748CD
:10303000FDF78AFE4FF44E70ADF800006946044873
:10304000FDF782FE08BD00000002300000080140CC
:10305000000C014008B501211020FEF7D5FC4FF40B
:103060000050ADF8000010208DF8030003208DF80B
:10307000020069460148FDF767FE08BD00100140E7
:103080007FB50546012144F20400FEF7BDFC4FF474
:103090000070ADF8000003248DF8024018201D4E8A
:1030A0008DF8030069463046FDF74EFE3015ADF849
:1030B000000004208DF8030069463046FDF744FE09
:1030C00025208DF800008DF8014000248DF8024085
:1030D00001208DF803006846FEF72AF9ADF8044098
:1030E000ADF80640ADF80840ADF80C400C200A4C95
:1030F000ADF80A00009569462046FEF769FE0122F8
:1031000040F225512046FEF74BFE01212046FEF7F6
:1031100017FE7FBD000801400038014010B50420B3
:10312000FEF7BCFD084848210122017042804FF0A3
:10313000E0200649026942F0020202614161016930
:1031400041F00101016110BD28000020401901007B
:1031500070B5044603F092FD01280CD0094D688833
:10316000844203D3B4FBF0F002F07AFF6888B4FB2A
:10317000F0F100FB11444FF47A706043BDE87040F9
:1031800000F002B82800002070B54FF0E0240022C3
:1031900065690949A36909784843A1699942FCD046
:1031A00002D2A3EB010302E0A5EB010633441A446B
:1031B0000B468242F1D370BD280000200348012352
:1031C000022241780078FEF705B90000E0040020F3
:1031D000034800230222C1788078FEF7FBB8000084
:1031E000E004002038B50B4C01250095A079A17AA8
:1031F000E3790144CAB21946FEF751F90095E17925
:10320000A079A27A491CCBB20244D2B2C9B2FEF76D
:1032100046F938BDE004002038B50B4C0025009578
:10322000207AA17A637A0144CAB21946FEF737F9C7
:103230000095617A207AA27A491CCBB20244D2B2BC
:10324000C9B2FEF72CF938BDE00400202DE9FC419D
:10325000002390460E46074601247F221946184651
:103260000094FEF71CF93F237F22194600200094AA
:10327000FEF715F900223F23114610460094FEF791
:103280000EF97F223F23002110460094FEF707F934
:1032900027223F23002110460094FEF700F9022167
:1032A0000C2317A208460094FEF72DFB0825CDE954
:1032B000005403233A460E210220FEF79FFA0C2306
:1032C00011A2162102200094FEF71DFBCDE9005447
:1032D0000323324622210220FEF790FA0C230CA28F
:1032E0002A2102200094FEF70EFBCDE900540323AF
:1032F000424636210220FEF781FABDE8FC8100003B
:1033000073636F72650000006C69666520000000E1
:103310006C6576656C0000002DE9FC410023904649
:103320000E46074601247F22194618460094FEF7F0
:10333000B6F83F237F22194600200094FEF7AFF82D
:1033400000223F23114610460094FEF7A8F87F2282
:103350003F23002110460094FEF7A1F827223F23C7
:10336000002110460094FEF79AF802210C2317A2C0
:1033700008460094FEF7C7FA0825CDE90054032358
:103380003A460E210220FEF739FA0C2311A216212B
:1033900002200094FEF7B7FACDE900540323324629
:1033A00022210220FEF72AFA0C230CA22A21022055
:1033B0000094FEF7A8FACDE90054032342463621D3
:1033C0000220FEF71BFABDE8FC81000073636F72F8
:1033D000650000006C696665200000006C6576651C
:1033E0006C00000070B5074D0446C1B22846FEF7D8
:1033F00049FD80212846FEF7ADFC0028F9D0204683
:1034000070BD0000003801401CB508490620CDE918
:10341000000101231A0206A1084803F003FC084832
:103420000068BDE81C4002F09FBF00006000002063
:1034300067616D655F7461736B0000008134000823
:103440004C0000201CB508490620CDE900010223EC
:10345000DA0106A1084803F0E5FB08480068BDE86A
:103460001C4002F081BF00006400002067616D65B0
:103470005F7461736B000000813400084C00002011
:1034800080B2012803D0022803D102F03BBAFFF733
:10349000D7BB704710B50B4C0723012200212046F3
:1034A000FDF78CFB01212046FDF7C7FB02212046DA
:1034B000FDF752FB0028F9D02046BDE81040FDF78B
:1034C00048BB00000024014010B50B4C012207232B
:1034D00011462046FDF772FB01212046FDF7ADFBAA
:1034E00002212046FDF738FB0028F9D02046BDE830
:1034F0001040FDF72EBB00000024014010B50B4C1E
:103500000723012204212046FDF758FB0121204614
:10351000FDF793FB02212046FDF71EFB0028F9D0A2
:103520002046BDE81040FDF714BB00000024014018
:1035300010B50B4C0723012202212046FDF73EFB6C
:1035400001212046FDF779FB02212046FDF704FB0F
:103550000028F9D02046BDE81040FDF7FABA000077
:103560000024014010B50B4C072301220321204603
:10357000FDF724FB01212046FDF75FFB02212046D9
:10358000FDF7EAFA0028F9D02046BDE81040FDF723
:10359000E0BA00000024014000F074FBFDF70CFDD0
:1035A000054C00BFFDF75AFC206802F06DFB1420AB
:1035B00002F056FDF6E70000300000202DE9FF4F35
:1035C00085B00446816907981D460068FCF7B2FE85
:1035D0002169FCF7B5FE2968FCF75AFE2860D4F88B
:1035E00050A060685146FCF7A5FED4F854904946B7
:1035F000FCF7A0FEE063A16D81F0004626648846DA
:103600006664A168A16427698B463946FCF798FE79
:10361000E16CFCF73DFEE064029039463046FCF771
:103620008FFE06465146FCF733FE82462065304643
:103630004946FCF72DFE8146606539465846FCF741
:103640007FFE4146FCF724FE8046A0650698296867
:103650000068FCF76FFE0746E061207DFDF771F81A
:1036600001900299FCF76CFE0646206249460198DB
:10367000FCF766FE8346606231460198FCF760FE07
:10368000E168FCF705FEA062014603903046FCF7B6
:1036900089FEE062009058460399FCF783FEC4E976
:1036A0000C06834651460198FCF74AFEA063019040
:1036B00031460098FCF744FE0299FCF73EFEE064B8
:1036C000DDE90001FCF73CFE5146FCF736FE2065C3
:1036D00031465846FCF734FE4946FCF72EFE60653D
:1036E00058460199FCF72CFE4146FCF726FEA065E2
:1036F00039460098FCF724FE2968FCF7C9FD2860CC
:10370000E169206BFCF71CFEA169FCF7C1FD0146D5
:10371000A06107980068FCF70DFE206009B0BDE8C5
:10372000F08F000009494160094981604FF07C51E8
:10373000C16008490161012101754FF07E510022ED
:10374000C0E91312C0E91521704700006F12833AD7
:10375000A69B443B0AD7A33B4FF44070FDF71AFEEB
:103760004FF4E130FFF78CFCFFF7D8FCFFF772FC59
:10377000FFF700FCFFF742FC02F012FA02F0BCFD7A
:10378000FEE700007CB506460C4814460D4600686E
:103790000622694683683B20984710F0FF000BD152
:1037A000BDF8001049BA3180BDF8021049BA29802D
:1037B000BDF8041049BA21807CBD00004C040020F3
:1037C0007CB506460C4814460D460068062269463C
:1037D00083684320984710F0FF000BD1BDF800101C
:1037E00049BA3180BDF8021049BA2980BDF80410E9
:1037F00049BA21807CBD00004C04002038B5244C1F
:1038000000208DF800002068802102686B2090471E
:103810002068C168642088472068002102686B2006
:103820009047032000F06EF8002000F05FF8C820F9
:1038300000F096F82068012102683820904720683F
:10384000002102686A209047206800210268232036
:10385000904720689C21026837209047206869467D
:103860004268752090479DF80000682801D001202B
:1038700038BD2068012102686B2090472068002134
:1038800002686C209047C82000F06AF8002038BD1C
:103890004C04002010B5054802F056F803482030CB
:1038A00000F006F8BDE81040FFF7A8BF580400205C
:1038B00001490860704700004C04002008B5134619
:1038C000024600916821024802F07DF8002008BD00
:1038D0005804002010B50C4602466821024802F048
:1038E000B2F82070002010BD58040020C006010E60
:1038F000034810B5006802681C209047C0B210BD94
:103900004C040020032101EBC000C1B2034810B5F4
:10391000006802681B209047C0B210BD4C04002014
:1039200010B5BC2801D3012110E0622801D3022187
:103930000CE02A2801D3032108E0142801D3042134
:1039400004E00A2801D3052100E0062103480068AD
:1039500002681A209047C0B210BD00004C0400203D
:1039600010B504464FF47A70844201D9044602E04F
:10397000042C00D20424B0FBF4F0401EC1B2054870
:1039800000680268192090476008BDE81040FFF702
:10399000C7BF00004C04002010B50B46024668214A
:1039A000024802F0CCF8002010BD000058040020AE
:1039B00040210148FDF74FBA000C01404021014869
:1039C000FDF747BA000C014080210148FDF743BADA
:1039D000000C014080210148FDF73BBA000C01407A
:1039E00080210148FDF72EBA000C0140F8B50121F5
:1039F0000820FEF709F84020ADF8000003240F4E20
:103A00008DF8024014258DF8035069463046FDF7C5
:103A10009BF98020ADF800008DF802408DF803502E
:103A200069463046FDF790F980213046FDF713FADC
:103A300040213046FDF70FFAF8BD0000000C0140B0
:103A400008B58020ADF8000003208DF80200482062
:103A50008DF8030069460248FDF776F908BD0000BD
:103A6000000C014008B58020ADF8000003208DF85F
:103A7000020014208DF8030069460248FDF764F93E
:103A800008BD0000000C0140F8B501210C20FDF735
:103A9000BBFF4FF40064ADF8004010208DF8030028
:103AA0000320134D8DF8020069462846FDF74CF9B6
:103AB00021462846FDF7CFF90E4E6400ADF80040D0
:103AC00069463046FDF740F921463046FDF7C3F917
:103AD0002411ADF8004048208DF8030069462846BF
:103AE000FDF732F921462846FDF7B5F90020F8BD6B
:103AF00000080140000C014010B5FDF7E5FF034848
:103B000000F006F8BDE81040FDF726BBCC0400200D
:103B10000149086070470000C00400204FF4807124
:103B20000148FDF78FB9000000080140FEF708B812
:103B30000349012801D0002801D1C1F8B001704724
:103B4000008021420349012801D0002801D1C1F899
:103B5000AC0170470000214210B592B020216846A8
:103B6000FCF767FB3C4C4FF0FF31206802F060FF30
:103B700001280AD12422394908A8FCF741FB002377
:103B80001A461946206802F085FDA3208DF8000032
:103B9000BDF83A00010A8DF801108DF80200BDF859
:103BA0003C008DF80400010A8DF80310BDF83E00BA
:103BB000010A8DF805108DF80600BDF840008DF85B
:103BC0000800010ABDF820008DF80710010A8DF8E1
:103BD00009108DF80A00BDF822008DF80C00010ACA
:103BE000BDF824008DF80B10010A8DF80D108DF82A
:103BF0000E009DF838008DF80F000B988DF810001E
:103C0000010A8DF81110010C8DF81210000E8DF8BC
:103C100013000C988DF81400010A8DF81510010C92
:103C20008DF81610000E8DF817000D988DF81800FD
:103C3000010A8DF81910010C8DF81A10000E8DF87C
:103C40001B003A208DF81C006846FDF707FB04496D
:103C5000087012B010BD000054000020DC050020E8
:103C600058000020FFF748FFFDF75AFA0449488042
:103C7000FDF7C0FAFFF770FF322002F0F1F9F9E723
:103C80005800002010B5054801F05EFE03482030C2
:103C900001F080FFBDE81040FDF766BC8C040020F9
:103CA0000149202008607047100801400149202088
:103CB000086070471408014001498020086070477F
:103CC0001008014001498020086070471408014035
:103CD00080210148FDF7B6B8000801400020704778
:103CE000F8B501210420FDF78FFE2020ADF800007B
:103CF00003240F4E8DF8024014258DF803506946B9
:103D00003046FDF721F88020ADF800008DF8024024
:103D10008DF8035069463046FDF716F8802130468D
:103D2000FDF799F820213046FDF795F8F8BD000021
:103D30000008014008B58020ADF8000003208DF890
:103D4000020048208DF8030069460248FCF7FCFF9A
:103D500008BD00000008014008B58020ADF8000053
:103D600003208DF8020014208DF8030069460248F4
:103D7000FCF7EAFF08BD00000008014010B5FDF7A0
:103D8000E1FD002010BD10B5FDF702FE002010BDC2
:103D90002DE9F041184C0F460546E6682068001DE5
:103DA00002F040F838B9206890F82C1001208840C3
:103DB000216981432161681C07D137B12168BDE8C1
:103DC000F0410E48091D02F066B820683544B5423E
:103DD0004560216805D2E06BBDE8F041091D02F0A5
:103DE00042B8A06B091D02F03EF8A06A854200D2DD
:103DF000A562BDE8F0810000F0040020100D002055
:103E00002DE9F041054602F053F82D4CA068401C06
:103E1000A06020682B4F10B1606930B32BE02560A3
:103E2000A068012827D1002606EB860007EB80005A
:103E300002F00BF8761C202EF6D3234802F005F88A
:103E40002148143002F001F81F48283001F0FDFF2E
:103E50001D483C3001F0F9FF1B48503001F0F5FFE0
:103E60001948A0631430E06305E02068E96AC06A7D
:103E7000884200D82560606A401C60626864E96A14
:103E80000120226988401043206101EB810007EB8B
:103E90008000291D01F0FFFF02F02AF86069002868
:103EA0000CD02068E96AC06A884207D207494FF0FF
:103EB00080500860BFF34F8FBFF36F8FBDE8F08174
:103EC000F0040020400A0020C00C002004ED00E0B7
:103ED00010B501F0EDFF0E4C2068A0B90D4801F0BF
:103EE000B4FF0C48143001F0B0FF0A48E060143011
:103EF000206100221021052002F046FB206010B155
:103F000005A102F077F8BDE8104001F0F1BF000014
:103F100030050020240D0020546D72510000000077
:103F200030B4026C0B46002A0BD0C1681144C1604A
:103F30008468A14201D30168C16030BC1846FCF717
:103F40005FB930BC70472DE9F041856B17460446D8
:103F50000026026C82B1C7B1E068FCF751F9E16854
:103F6000206C091AE1602268914202D2A168081A05
:103F7000E060022F16D017E02068A8B9A06802F010
:103F8000F7FE06460020A0600EE06068FCF738F9F6
:103F9000216C606808446060A168884204D320688E
:103FA000606001E005B16D1E6D1CA5633046BDE883
:103FB000F08110B50446006B01F0AEFF2046BDE86D
:103FC000104001F0A9BF000010484FF420514207F3
:103FD00006D0C01D0D4920F00700411AC1F520513F
:103FE0000B4A00230144C2E900030839183A21F0C2
:103FF000070111604B600B600B1AC0E9001393605E
:104000004FF0004053605061704700004C0D00209D
:104010005C050020144E154CA6F52F774FF0805804
:10402000DFF84C9012E000BF01F042FFF068C56875
:10403000281D01F0F7FEA068401EA0606068401EC9
:10404000606001F055FF2846FFF7B3FF6068002865
:10405000EAD138680128F9D9C9F80080BFF34F8F39
:10406000BFF36F8FF2E70000FC0C0020F00400208B
:1040700004ED00E02DE9F05F8846DDE90B9415467C
:10408000834691009A460A9EA522206BFCF7CAF847
:104090006FF00301206B01EB8501084420F0070756
:1040A000780707D0502080F31188BFF34F8FBFF3FC
:1040B0006F8FFEE70025B8F1000F0FD05FF0000012
:1040C000221818F8001082F8341018F8001011B1F6
:1040D000401C1028F4D384F8435001E084F8345095
:1040E000202E00D31F26E662C4E91365201D01F0CF
:1040F000B7FE04F1180001F0B3FE2461C6F1200000
:104100006462A061656584F8585052465946384645
:1041100000F0CAFA2060B9F1000F01D0C9F80040E0
:10412000BDE8F09F30B5114900E011460A688242AF
:10413000FBD34B685C18844203D140681844486044
:10414000084643681C18944209D1084C183C24685E
:10415000A24209D052681A4442600A68126802609A
:10416000814200D0086030BD0460F9E75C050020A2
:1041700070B5002441600B4D0061914206D8D11A00
:104180008269914206D2011D286907E09A4203D252
:10419000994201D3012403E0011DE86801F063FEA8
:1041A000204670BD3005002010B5044601F080FEA9
:1041B000A06B28B15FF0000401F09AFE204610BD0C
:1041C0000124F9E7F1B500260098846C5CB1A16B7D
:1041D000E06B81420FD3502080F31188BFF34F8FE3
:1041E000BFF36F8FFEE7502080F31188BFF34F8F2E
:1041F000BFF36F8FFEE7A16B81420ED294F9455059
:10420000002269462046FFF79EFE0646681C06D03F
:104210007F2D0FD06D1C84F845503046F8BD606A84
:104220000028FAD004F1240002F030FE0028F4D077
:104230000126F2E7502080F31188BFF34F8FBFF3C0
:104240006F8FFEE730B589B03C4D6EE004980028D2
:1042500006DADDE90601059A90470498002864DB38
:10426000069C606910B1201D01F0DCFD03A800F080
:10427000D5F8024604980A2857D2DFE800F0050571
:10428000052D334A05052D3394F8280040F0010030
:1042900084F828000599A069059B01442046FFF792
:1042A00067FF68B3216A2046884794F828004007D2
:1042B0003BD5002000900598A169002342181946BB
:1042C000204602F0A7FED8B9502080F31188BFF332
:1042D0004F8FBFF36F8FFEE714F8280F20F0010017
:1042E000207022E094F8280040F0010084F82800B3
:1042F0000598A06128B1811813462046FFF738FFC2
:1043000013E0502080F31188BFF34F8FBFF36F8FFE
:10431000FEE794F82800810703D4204601F0FCFD55
:1043200003E020F0010084F82800002204A9286896
:1043300002F0E2FA002889D109B030BD3005002032
:104340002DE9FC410F46054602F06CF801A800F08B
:1043500065F80446019818B102F0D4FDBDE8FC816F
:10436000254EAFB130690068D0B30027291B3A460B
:10437000306801F053FE02F0C5FD0028EED11F4960
:104380004FF080500860BFF34F8FBFF36F8FE5E7AA
:10439000A542EBD802F0B6FDF0682746C068C468B5
:1043A000201D01F03FFD94F82800410719D5A069B0
:1043B0002B4641193A462046FFF7DAFEA8B1002005
:1043C0000346014600902A46204602F023FE60B9CB
:1043D000502080F31188BFF34F8FBFF36F8FFEE73C
:1043E00007E020F0010084F82800216A2046884771
:1043F000B4E70127BAE700003005002004ED00E033
:104400000548816B096821B1816BC96809688162BF
:1044100070474FF0FF31FAE7F004002070B5054611
:1044200002F03AFC064E0446B068844203D200F023
:1044300009F8012000E0002028602046B46070BD2B
:1044400030050020F8B5194D20E0C068C468066842
:10445000201D01F0E7FC216A2046884794F82800D7
:10446000400713D5A0693044B04206D9246160608A
:10447000211DE86801F0F7FC08E000200346014632
:1044800000903246204602F0C5FD38B1E868016868
:104490000029DAD12969C5E90310F8BD502080F35D
:1044A0001188BFF34F8FBFF36F8FFEE730050020F9
:1044B00008484068401C4FF0500080F3118804D039
:1044C000BFF34F8FBFF36F8FFEE7BFF34F8FBFF385
:1044D0006F8FFEE764050020002150B10A4B42694E
:1044E0009A420FD1806AA3F1280290420AD040B1CB
:1044F00008E0502080F31188BFF34F8FBFF36F8F18
:10450000FEE7012108467047100D0020074CE068C7
:10451000016841B1C0680021D0F80000FFF710FF2A
:10452000FFF790FEF3E701210020F7E730050020B8
:104530002DE9F041044601F0BBFC94F9455004F12B
:1045400024060FE0A06C18B12046FFF73BFE04E004
:10455000606A48B1304602F099FC08B101F004FEEF
:104560006D1E6DB2002DEDDC4FF0FF3684F8456016
:1045700001F0BEFC01F09CFC94F9445004F11007DA
:1045800009E0206948B1384602F080FC08B101F02A
:10459000EBFD6D1E6DB2002DF3DC84F84460BDE8C8
:1045A000F04101F0A5BC00002DE9F04105460027CF
:1045B00001F038FF354E306808B9FFF705FD706926
:1045C000054254D1F5B305F10804AC424FD9600758
:1045D00011D004F00700C0F108002044A04246D9E1
:1045E0000446400707D0502080F31188BFF34F8F57
:1045F000BFF36F8FFEE72CB37068844237D823482F
:10460000183001460D6801E028460D466968A14250
:1046100002D229680029F7D131688D4227D0076876
:104620002968016068680837011B10290FD928190B
:10463000420708D0502080F31188BFF34F8FBFF39B
:104640006F8FFEE713E041606C60FFF76BFD6968F8
:104650007068401A7060B268904200D2B0607069B1
:1046600001430020C5E90001F068401CF06002F041
:1046700049FC780707D0502080F31188BFF34F8F93
:10468000BFF36F8FFEE73846BDE8F0814405002098
:104690000449086818B10868026D521C0265086870
:1046A00070470000F004002010B5031F4FF0807425
:1046B0001C601B1F21F001011960191F024B0B60C8
:1046C000143940380A6010BDB1440008002141830C
:1046D0008183C18301844184018041808180C180C4
:1046E00001814181C160016141617047C0B068468C
:1046F000FFF7ECFF6748FFF7E9FF09A8FFF712F89B
:1047000020A8FFF70FF8FFF7C5F80DF10A00389061
:1047100002A8379004A83A9003A86C46DFF8788185
:10472000DFF878914FF0663BDFF874A1CDF8E40034
:10473000FEF7B0FEADF81A00FEF7C6FEADF81C009D
:10474000FEF7F6FEADF81E00FEF70CFFADF82000F8
:10475000FEF7D4FE5349ADF82200D1F83C01C20166
:104760005148D0F80C3142EA8312D0F8103142EAB5
:104770004312D0F8143142EA0312D0F82431D0F8B1
:10478000200142EAC30242EA8000D1F83021D1F888
:10479000181140EA420008438DF818000020FCF789
:1047A00057FC221DA11C6846FFF70AF8DDE9371205
:1047B000A01DFEF7E7FFBDF90660BDF90A00FBF793
:1047C000C5FF05460F463046FBF7C0FF2A463B466D
:1047D000FEF776F9354E00223346FBF7C8FE424617
:1047E0004B46FBF736FFFBF7D5FF3D90BDF90200C6
:1047F0004042FBF7ABFF5A465346FBF72AFFFBF755
:10480000C9FF3B903BAA3DA920A83A9BFEF7D6FEE4
:10481000BDF90A00FBF79AFF05460F46BDF90800EF
:10482000FBF794FF2A463B46FEF74AF9002233463F
:10483000FBF79DFE42464B46FBF70BFFFBF7AAFF3B
:104840003E90BDF900004042FBF780FF5A465346B8
:10485000FBF7FFFEFBF79EFF3C903CAA3EA909A890
:10486000399BFEF7ABFE124D4FF0FF31286802F086
:10487000DFF801280AD1242269460648FBF7C0FC6C
:1048800000231A461946286801F004FF052001F0AC
:10489000E7FB4DE7DC0500201F85EB51B81E094002
:1048A0006666304000002142008021420080664060
:1048B00054000020012100F047B80A7842B14B783B
:1048C00003F00F03082B03D003681B781A4208D0AB
:1048D00090F86000C00702D14878C00601D50020DA
:1048E00070474FF0FF30704710B500F065FA0028B0
:1048F00005D00349896BBDE8104000F0D5BF10BD5D
:104900007005002070B505468089E989401A04B217
:1049100004E0A96E20208847641E24B2002CF8DC35
:10492000297B2846BDE8704000F06AB810B500F059
:1049300043FA002803D0BDE8104000F041BB10BD91
:104940004FF0FF31AFF3008070B50446481C03D030
:104950000023E28912B103E00123FAE701294DD0D7
:10496000A089824201D14D1C48D00025824201D14C
:10497000012901D0184613E0521E401EE28180B288
:10498000A08121690D542046BDE87040012100F04E
:1049900037B822691144421E465C401C8E5400B256
:1049A000A289E189521A8242F3DCA089401EA081CB
:1049B0002BB9E089401EE081A16E08208847A189BB
:1049C00020694554B4F90E5005E02069A16E405DA0
:1049D00088476D1C2DB2A089A842F6DCA16E20206C
:1049E0008847A089E189401A401C05B204E0A16E05
:1049F000082088476D1E2DB2002DF8DC70BD000028
:104A000070B50C46054603E003A1284600F04CFFB4
:104A1000641EE4B2F8D270BD082008004FF0FF31E8
:104A200000F038BA10B5044600F006F82046BDE89C
:104A30001040012100F0CABE70B5044680890028EC
:104A400035D0216900251E4E0D5494F86000C00732
:104A500021D0204600F06AFA204600F0C5FBE5812F
:104A6000A581E08E002822D016A1204600F01CFF70
:104A700000232046A26D616900F05AFC010004D0B9
:104A80002046BDE8704000F0F7BB2046B169BDE8A4
:104A9000704000F009BF206881682069FBF7DBFBEC
:104AA00030B1716B204600F0FFFEA581E58170BD3D
:104AB00094F8600040F0010084F860003168F1E78C
:104AC000700500200D0A0000411C00200A785C2AB5
:104AD00001D01046704749786E290FD004DC302988
:104AE000F8D0622904D105E0722905D0742907D0D5
:104AF00008467047082070470D2070470A2070470D
:104B0000092070472DE9F0410746002300780A2666
:104B100001221D461C462D2808D0002038440021C3
:104B200090F800C0BCF1300F04D01FE04FF0FF320E
:104B30000120F3E74178782907D0582905D0622968
:104B400005D0422903D0022110E003210EE001210B
:104B50000CE000BF90F800C0BCF12E0F06D190F819
:104B600001C0BCF1000F01D0042111E010F801CB0D
:104B7000BCF1000FEED1012908D0022903D003298E
:104B800006D1102603E00826012301E002260223B5
:104B90003B44501C02D0002003441FE00120FBE7EF
:104BA0002E2805D0A0F13007092F03D8F8B20FE066
:104BB000012412E0A0F16107052F01D8573804E065
:104BC000A0F14107052F02D83738C0B200E000201D
:104BD00005FB060504EB840044005B1C18780028E4
:104BE000DED1042913D194B11046FBF7A1FD06468E
:104BF0002046FBF7A6FD04462846FBF7A2FD21460A
:104C0000FBF7D0FB3146BDE8F041FBF799BB05FB54
:104C100002F0BDE8F0812DE9F0410446087827282C
:104C20000AD02D2803D0A0F13002092A0CD8BDE803
:104C3000F0410846FFF766BF4A78002AF3D0BDE886
:104C4000F0410846FFF740BF0026242807D000287F
:104C500016D000270D460C46222813D01DE04A78B6
:104C6000002AF6D000232046491CA26D00F060FB0C
:104C7000010004D02046BDE8F04100F0B1B8304654
:104C8000BDE8F0816C1C254607E05C280BD022288B
:104C90000FD0E8557F1CBFB2641C20780028F4D1E7
:104CA000EE552846ECE7601EFFF70EFFE855641C42
:104CB000F0E7EE55EEE72DE9F0478CB00C46824662
:104CC00099461546202103A8FBF7B3FAA0786E1E7B
:104CD00000F00F07B74200DC374600250DF10C0845
:104CE00008E009EB850041685046FFF794FF48F85B
:104CF00025006D1CB542F4DB082F3CD2DFE807F03D
:104D000004090D12181E2630A06880470CB0BDE8BB
:104D1000F087A16803988847F8E7DDE90301A268F6
:104D20009047F3E703AB93E80700A3689847EDE7E4
:104D300003ADA46895E80F00A047E7E70798009047
:104D400003ADA46895E80F00A047DFE7DDE90701A0
:104D5000CDE9000103ADA46895E80F00A047D5E7B1
:104D600007AB03AD93E807008DE8070095E80F0057
:104D7000A468A047CAE74FF0FF30C7E7C068704794
:104D800000B500210B4A30235354491CC9B20929EC
:104D9000FAD3417801F00F01012903D9072901D97C
:104DA000082901D8406800BD4068024900F0E2FCD3
:104DB000004800BD603500200849002051F820203F
:104DC00032B192F86020920702D551F82000704766
:104DD000401C00B20528F1DB002070474C35002054
:104DE0004A78002002F00F02921E062A06D2DFE85F
:104DF00002F003060A0D0D0F886800687047886886
:104E0000B0F900007047886800787047886870477C
:104E10008868416809B100680847002070470000B1
:104E200070B50B460546FFF7C7FF04002DD0012DD6
:104E300021D02ADD5968A26D4FF0000300F078FA06
:104E4000050012481BD0C16A204600F02DFD2846FF
:104E5000FFF796FF0146204600F026FD0CA12046F4
:104E600000F022FD2846FFF789FF0146204600F0AA
:104E70001BFD07A104E0BDE8704000F0A1B8816906
:104E80002046BDE8704000F00FBD70BD70050020E9
:104E90000D0A000070B500250446002918DDB4F99C
:104EA0005430A3F10100A4F85400B4F85010B4F841
:104EB0005200814201D90A4600E002465242934222
:104EC00012DC814200D908464042A4F854000BE0AD
:104ED00009DAB4F85400401C00B2A4F854000028C9
:104EE00002DDA4F8545070BD2046FFF70BFDB4F965
:104EF0005400C0B1B4F8521008440521401D90FB85
:104F0000F1F201FB120004EB8000C16B206900F09C
:104F100045FBA0810028E6D0E08120462169BDE85C
:104F2000704000F0C1BCA581E58170BD70B5002561
:104F30000446A0F85450B0F8500058B1B4F85200EC
:104F4000216900B9052004EB8000806BFBF783F931
:104F500000281ED0B4F85200216904EB8000C06B19
:104F600000F01CFB20B1B4F85200401CA4F8520021
:104F7000B4F85000401C80B2A4F85000052802D9B3
:104F80000520A4F85000B4F85200052801D3A4F875
:104F9000525070BD10B5FFF70FFF002803D0BDE8D9
:104FA000104000F0A9B810BD10B50446C089002813
:104FB00005D0A16E08208847E089401EE08110BD21
:104FC0002DE9F0410646876D0F488168304600F0B4
:104FD0006BFC002412E000BF07EB0415687800F0BA
:104FE0000F00012808D829463046FFF766FC18B99B
:104FF0002946304600F00AF8641C24B2B6F85C007A
:10500000A042E9DCBDE8F081700500202DE9F04107
:1050100004460E460846FFF7B3FE0146204600F060
:1050200043FCC0F1160005B2002D00DC0425A16E82
:10503000202088476D1E2DB2002DF8D1707800F029
:105040000F012A48012901D8016C0CE0072901D879
:10505000416C08E0082901D8816C04E0092901D8D5
:10506000C16C00E0016D204600F01EFC20A120462E
:1050700000F01AFC07250127307807FA05F10842ED
:1050800001D0782000E02D20A16E88476D1E6DB202
:10509000002DF1DA16A1204600F006FC3046FFF79D
:1050A0006DFE0546A06E0026D0B111E0A16E6D1C0C
:1050B0008847761CB6B2242E0AD3687840B1A16E18
:1050C0002E208847A16E2E208847A16E2E2088476B
:1050D000287828B10D2803D00A2801D0242EE5D342
:1050E0002046BDE8F04103A100F0DEBB70050020C2
:1050F000202000000D0A00002DE9F0410646876DD2
:1051000010484169304600F0CFFB002414E000BF96
:1051100007EB0415687800F00F0008280AD9092861
:1051200008D829463046FFF7C8FB18B9294630464B
:10513000FFF76CFF641C24B2B6F85C00A042E7DC09
:10514000BDE8F081700500202DE9F0410646876D2D
:1051500010480169304600F0A7FB002414E000BFAE
:1051600007EB0415687800F00F0007280AD9082813
:1051700008D829463046FFF7A0FB18B92946304623
:10518000FFF744FF641C24B2B6F85C00A042E7DCE1
:10519000BDE8F081700500202DE9F0410646876DDD
:1051A0001048C168304600F07FFB002413E000BFC8
:1051B00007EB0415687800F00F00801E052808D85A
:1051C00029463046FFF779FB18B929463046FFF7E4
:1051D0001DFF641C24B2B6F85C00A042E8DCBDE808
:1051E000F08100007005002070B5002201231146F7
:1051F0004FEA020400EB8105491C09B26C610829E1
:10520000F8DBC486002127E022B905696E5C202EF8
:105210001ED0EEB105696E5C222E01D11AB10022BA
:10522000012B02D00BE00122FAE7C38E082B05D236
:1052300000EB83065B1C0D44C38675610023056982
:105240006E5C5C2E06D14E1CAD5D1DB1B1B201E0AD
:105250006C540123491C89B285898D42D4D870BD14
:10526000C1898289914206D203694A1CC2815A5C73
:10527000816E1046084770472DE9F047044690F8C4
:1052800060000F4640F0020084F860004978002575
:105290000A0704F114090BD001F00F0001282AD0ED
:1052A000811E052936D83946204600F00DF937E031
:1052B0000025A84617E000BF04EB85067069017859
:1052C000222904D180F800807069401C7061FAF7CF
:1052D000BBFF80B27169401E0A5C222A01D101F82D
:1052E00000806D1CADB2E08EA842E5D8BA68E08EB1
:1052F0004946904705E0E28E4B4639462046FFF787
:10530000DAFC0546787880060AD42946204600F063
:105310008BFA05E0082803D13946204600F040F812
:1053200014F8600F20F0020020702846BDE8F087D6
:105330002DE9F04706468A46B16DB0F85C00511A77
:10534000A0EB11109946154687B200241BE000BF60
:1053500005EB041898F8010000F00F00092810D0A0
:1053600041463046FFF7A9FA58B94046FFF708FD15
:105370000146B9F100000BD002465046FAF779FF1A
:1053800050B1641CA4B2BC42E2D30020BDE8F08757
:105390005046FAF760FFF3E705EB0410F6E700006C
:1053A00070B50446016088680D4600B3FAF74CFFFB
:1053B000E8B1E08E022804D3A169A868FAF74BFF90
:1053C000A8B194F8600020F0010000BF0B4D84F8F4
:1053D00060002046A96B00F067FA94F86000C007EF
:1053E0000AD020462968BDE8704000F05DBA94F804
:1053F000600040F00100E9E770BD0000700500208A
:105400002DE9F0410E460746FFF7D6FC041E16D0E4
:1054100000233946A26DFFF78BFF0E4D010010D01F
:10542000487800F00F00801E06280CD3394620462D
:1054300000F03AFA696A204600F036FA0020BDE82A
:10544000F081A96AF7E732462046BDE8F04100F056
:1054500003B800007005002070B50C460546497879
:1054600018484B0601D5016A18E001F00F01891EAA
:10547000062921D2DFE801F00306090C1116A06805
:10548000026019E0A068028016E0A068027013E0D4
:105490001146A06800F082F80EE0C169284600F0CD
:1054A00003FA09E0A068836833B1006810B11146BF
:1054B000984701E01046984721462846BDE87040CD
:1054C00000F002B870050020FEB523A20C46064687
:1054D00007CA8DE8070021463046FFF781FC0546E4
:1054E0003046616800F0E0F91EA1304600F0DCF9BA
:1054F000607800F00F00052823D06946284600F0A8
:1055000013F9C0F10B006C460119304600F0CCF9DC
:1055100015A1304600F0C8F9002130206054491C24
:1055200009B20B29FADB6946284600F023F96946DF
:10553000304600F0B9F90EA1304600F0B5F9284622
:10554000FEBD0CA1304600F0AFF92946304600F010
:10555000ABF908A1ECE700003030303030303030AB
:1055600030303000203D20002C203078000000003A
:105570000D0A00002200000030B50446002002465B
:1055800005E0AB4209D1401C521C80B292B2A35C30
:10559000002B02D08D5C002DF3D130BD02460020DF
:1055A00002E01354401C80B20B5C002BF9D10021A7
:1055B000115470472DE9F05F0446B0F834804FF085
:1055C000000980894D4630B12269CA46564602F824
:1055D00000A0A76D3FE02046FFF7F2FC0121204626
:1055E00000F0F4F801F058FB002876D1BDE8F09FF8
:1055F00007EB06118B462046FFF75FF948BB58467C
:10560000FFF7BEFB01462069FFF7B6FFA18988427C
:105610001FD1D5B1012D03D140A1204600F044F99E
:1056200007EB091949462046FFF7F0FC5846FFF7FB
:10563000A7FB83464846FFF7A3FB5946FFF79CFFAD
:105640004146804500D8084680466D1C1FFA86F901
:10565000ADB2761C36B2B4F85C00B042C8DC002DA6
:10566000C4D0012D02D12046FFF74CF907EB0910F9
:105670000646FFF785FB01462069FFF78FFFA081F3
:10568000012D09D931462046FFF7C0FC01212046F3
:1056900000F09CF8A4F80C80A289216901F802A00E
:1056A000A089E0812046216900F0FEF801F0F4FABB
:1056B00000289BD0012D2AD194F86000400726D500
:1056C00001F0EAFA01466068081AC8281FD220468D
:1056D000FFF718F9B4F90C0006E018E02169421D43
:1056E0000B5C401E8B5400B20028F7DA0CA1206935
:1056F000FFF754FF216920200871A089401DA08177
:10570000E08120462169BDE8F05F00F0CDB814F8D3
:10571000600F40F00400207068E700000D0A0000F0
:1057200068656C700000000030B50B22031E00DAC3
:1057300043420024CC720A240AE000BF93FBF4F534
:1057400004FB153593FBF4F3521ED2B230358D5461
:10575000002BF3D1002802DA4FF02D0002E005D132
:105760004FF03000A2F10102D2B28854C2F10B0016
:1057700040B230BD082200230B720AE000F00F0394
:10578000092B01D9573300E03033521ED2B2000941
:105790008B540028F2D1C2F1080040B270470121B9
:1057A000FFF778BB10B5FFF707FB002803D0BDE873
:1057B0001040FFF7C9BC10BD10B5FFF7FDFA002877
:1057C00003D0BDE81040FFF7E7BC10BD10B504469C
:1057D00090F86000C00719D019B10EA1204600F062
:1057E00063F820684168204600F05EF80AA1204670
:1057F00000F05AF8A16801B908A1204600F054F859
:1058000007A12046BDE8104000F04EB80548016BE6
:10581000F7E700000D0A00003A0000002F0000002A
:105820002420000070050020FEB516A20D46064695
:1058300007CA8DE8070016A1304600F035F8694622
:105840002846FFF771FFC0F10B006C460119304686
:1058500000F02AF811A1304600F026F8002230208E
:10586000A054521C12B20B2AFADB69462846FFF7F5
:1058700081FF6946304600F017F80AA1304600F073
:1058800013F8FEBD30303030303030303030300042
:1058900052657475726E3A20000000002C2030783A
:1058A000000000000D0A000070B50646806E00245E
:1058B0000D46002809D004E0B16E6D1C8847641CB9
:1058C000A4B228780028F7D1204670BD10B5014455
:1058D00002A0FCF7DDFA002010BD00007368656CC3
:1058E0006C3A25640D0A000010B5014602A0FCF7D1
:1058F000CFFA002010BD00007368656C6C3A256417
:105900000D0A0000FBF750FD032202210120FDF7E4
:1059100003FDFBF7C9FE0A4C0A4D0026207801283A
:105920000AD12670286800F0A9FCFBF73DFDFBF7C3
:10593000BBFE002000F0BAFB0A2000F091FBEDE76F
:10594000340000204C0000200068004710B50446D9
:105950008069804760688047206980476069804728
:10596000A069BDE81040004710B504468069804733
:1059700060688047E068804760698047A069BDE84B
:10598000104000472DE9F041064680680F4600248C
:1059900080470025B0698047706980476006040E23
:1059A000F069804708B1641CE4B26D1CEDB2082DAB
:1059B000F0D3304627B1FFF7C9FF2046BDE8F0819C
:1059C000FFF7D2FFF9E72DE9F0411C4617460E46D6
:1059D0008046069D00F07CF87006010E404600F0FF
:1059E0005EF8404600F090F828B1404600F07EF89E
:1059F0000120BDE8F0813946404600F050F84046AD
:105A000000F082F8404600F063F8012000EB460009
:105A1000C1B2404600F043F8404600F075F809E096
:105A2000012C0ED001214046FFF7ACFF641E05F8A3
:105A3000010BE4B2002CF3D1404600F057F80020EF
:105A4000D7E70021EFE770B516460C46054600F093
:105A50003FF86006010E284600F021F8284600F0C5
:105A600053F83146284600F01AF8284600F04CF862
:105A7000284600F02DF8012000EB4400C1B2284672
:105A800000F00DF8284600F03FF800212846FFF707
:105A900079FF0446284600F029F8204670BD70B50D
:105AA000044640680E468047A069804700253006BE
:105AB00001D5E06800E0206980477006060E606945
:105AC0008047A06980476D1CEDB2082DEFD370BDF3
:105AD00010B5044640688047E068804760698047A9
